:020000040800F2
:1000000010B80320D5030008BD3900086D3800087A
:10001000B93900086D2E0008AD4900080000000045
:10002000000000000000000000000000A5430008E0
:100030001934000800000000C1390008E544000838
:10004000F3030008F3030008F3030008F3030008B8
:10005000F3030008F3030008F3030008F3030008A8
:10006000F3030008F3030008F3030008F303000898
:10007000F3030008F3030008F3030008F303000888
:10008000F3030008F3030008F3030008F303000878
:10009000F3030008F3030008F3030008F303000868
:1000A000F3030008F3030008F3030008F303000858
:1000B000F3030008F3030008F3030008F303000848
:1000C000F3030008F3030008F3030008F303000838
:1000D000F3030008F30300089D490008A549000840
:1000E000F3030008F3030008F3030008494800087D
:1000F000F3030008F3030008F3030008F303000808
:10010000F3030008F3030008F3030008F3030008F7
:10011000F303000899490008F3030008F3030008FB
:10012000F303000811340008F3030008F303000888
:1001300015340008F3030008F3030008F303000874
:10014000F3030008F3030008F3030008F3030008B7
:10015000F3030008F3030008F3030008F3030008A7
:10016000F3030008F3030008F3030008F303000897
:10017000F3030008F3030008F30300080000000085
:10018000F3030008F3030008F3030008F303000877
:10019000F3030008F3030008F30300080000000065
:1001A000F3030008F3030008F303000800F002F86B
:1001B00000F09CF80AA090E8000C82448344AAF165
:1001C0000107DA4501D100F091F8AFF2090EBAE863
:1001D0000F0013F0010F18BFFB1A43F0010318477B
:1001E000F063020010640200103A24BF78C878C19E
:1001F000FAD8520724BF30C830C144BF04680C602D
:10020000704700000023002400250026103A28BF74
:1002100078C1FBD8520728BF30C148BF0B60704778
:100220006E2900F0C885702900F07982662922F0D5
:100230009886652922F09586672922F092866129A1
:1002400022F0918603681B0A28BF41F080016929CA
:1002500000F0EA81642900F0E781752900F0E4816B
:100260006F2901F0D780782900F04582E92901F053
:100270007180E42901F06E80F52901F06B80EF298F
:1002800001F0D480F82900F044820368DB0928BF1C
:1002900041F08001632900F0E087732900F0E587D1
:1002A000E32901F01386F32901F018860020704736
:1002B0001FB522F049FE9DE8030000F0DBFC00F0D2
:1002C0005AFB00F0B7FC04000020002122F0E0FD02
:1002D000401C60600020002122F0F0FDE06001F091
:1002E000A1FA1FBD10B501F006FB10BD01F099FF8A
:1002F0001146FFF7DDFF11F007F901F0C8FF03B465
:10030000FFF7F0FF03BC01F0AFFB00000B49D1F891
:1003100000C04A685CF8043B1068184442F8040BBB
:100320008C4528BFA1F1DC0C8A4228BFA1F1DC0278
:10033000C1F800C04A6020F000407047E80A002081
:10034000F0B400EB4003DFF8880000EBC30000F1DD
:1003500018063069F7687568874232D3B368DC1BCA
:10036000631E934214D37D19D01900BF11F8013BCD
:1003700005F8013B521E05D011F8013B05F8013B81
:10038000521EF3D1BFF35F8FF0600120F0BC7047C5
:10039000C018904219D37819121B11F8013B00F8CC
:1003A000013B641EF9D1141C05D011F8013B05F87E
:1003B000013B521EF9D1BFF35F8FF4600120F0BC06
:1003C0007047C01B401E9042CDD20020F0BC704749
:1003D000CCD900200A4880470A4880470A4800478D
:1003E000FEE7FEE7FEE7FEE7FEE7FEE7FEE7FEE7E5
:1003F000FEE7FEE705480649064A074B704700003E
:10040000FD440008C5390008AD010008D07703207D
:1004100010B80320107803201078032010B500F0E6
:1004200009FC001D10BD00BF692A020070B5064618
:1004300000F0FCFB056806F10B0020F00704B44255
:100440009CBF002070BD2B466A68BAB11068A042FC
:1004500010D304F1080188423CBF5068586007D3AC
:100460005168101941601168091B016058601460DF
:10047000101D70BD13465268002AE7D12146284658
:1004800000F0E4FB0028DED170BD70B50446051F06
:1004900000F0CCFB0068002C14BF446870BD002C39
:1004A00018BFAC423CBF20466468F8D301680A1804
:1004B000AA4218BF456003D12A680546114401606D
:1004C00028684119A1421CBF6C6070BD61686960F9
:1004D00021680844286070BD10B50446FFF79EFFF0
:1004E0000068005D000704D5DF2C02D0A4F12000D5
:1004F00010BD204610BD00000A46014900F0BABEFA
:10050000640900200FB4044910B503AA029800F052
:10051000B1FE10BC5DF814FB640900200FB41CB5DB
:10052000084B06AA7B4469460090059800F06BFED4
:1005300004460020694600F079FE20461CBC5DF8A8
:1005400014FB0000050D00000FB41CB50C0007AA39
:10055000009007D04142A14202D32044401E01E056
:100560004FF0FF30074B7B4469460190069800F03E
:100570004AFE0021002C01D0009A11701CBC5DF8CD
:1005800014FB0000CD0C000070B5044685690068BE
:10059000C10601D5302600E02026C00707D070BD77
:1005A000D4E9012130469047206A401C20626D1E2C
:1005B000F6D570BD70B5044685690078C00707D1CF
:1005C00070BDD4E9012120209047206A401C2062A0
:1005D0006D1EF6D570BD70B50C460546012A05D0D6
:1005E0002878800600D5EA69002302E0012305E0AF
:1005F0005B1C934202D2E05C0028F9D1A869E6189E
:10060000C01AA861286A184428622846FFF7BCFF70
:1006100004E0D5E9012114F8010B9047B442F8D366
:100620002846FFF7C7FF70BD2DE9F04106460024BC
:1006300010687529314616A510D000F051FB00282E
:1006400002DA404213A507E031688A0701D512A5F6
:1006500002E0490704D511A5012401E000F049FB9F
:1006600000210A2206F1240709E0B0FBF2FCB0FBEE
:10067000F2F302FB1C00303078541846491C002865
:10068000F3D123462A463046BDE8F04100F03ABB9C
:10069000000000002D0000002B00000020000000E2
:1006A000F0B40D460188090502D5214C7C4402E0D6
:1006B0001F4C7C440E34002100F1240608E002F0B7
:1006C0000F071209E75D42EA03721B097754491CC0
:1006D00052EA0307F3D102780023120704D5702DE4
:1006E00006D009B1022311342246F0BC00F00ABB47
:1006F00001231034F8E770B504460D462146106812
:1007000000F0F7FA024629462046BDE87040002373
:10071000C6E7D21D22F00703D3E90023C0E7036830
:10072000126843F0200303600823C3610023B7E786
:10073000C62802002DE9F05F894604464FF0000A02
:10074000DFF874B1FB44C0F820A02046E168884778
:10075000002874D0252806D0D4E901219047206ACA
:10076000401C2062F1E700265F462046E16888478A
:100770002028054607DB312D05D2781910F8200C0A
:1007800008B10643F1E7B00701D526F00406C4F826
:100790001CA00027C4F818A02A2D09D0284622F052
:1007A00061FB38B304EB8708303DC8F8185019E0F6
:1007B00059F8041B204604EB87029161E1688847E1
:1007C000012F054618D1E069002820DA26F020061E
:1007D0001DE0D8F8180000EB800005EB4000303831
:1007E000C8F818002046E1688847054622F03AFB21
:1007F0000028EED1012F0AD02E2D08D12046E16825
:1008000088477F1C0546022F46F02006C4DBA069FE
:10081000002803DA404246F00106A061F00701D04B
:1008200026F010066C2D0BD0682D09D04C2D39D038
:100830006A2D35D0742D35D07A2D33D016E038E0BE
:10084000E1682F4620468847B842054609D16C2FFB
:1008500026D04FF48060E16806432046884705466D
:1008600004E06C2F1AD04FF4807006430DB3A5F14D
:100870004100192802D8203546F400664A46294628
:10088000204626604E46FFF7CBFC80B101280BD0F6
:10089000F61D26F0070000F1080956E74020E4E7BE
:1008A0008020D8E70020D6E706F104094DE7284666
:1008B00052E7206ABDE8F09F5628020070B5044652
:1008C000C068810713D0800601D5A56A04E0A1693C
:1008D000606808442169451A204600F05FFF002245
:1008E00006462946204600F09DFE304670BD002099
:1008F00070BD70B510B1BDE87040DFE70025074C52
:100900006E1E07E02046FFF7D9FF00B13546206D87
:1009100020F00104002CF5D1284670BD10090020FC
:1009200010B5044603E022F0A4FA401C09D014F8E4
:10093000010B05490028F6D1BDE810400A2022F03D
:1009400098BA4FF0FF3010BD640900200B4910B574
:10095000A1F17C020A4CC2E93712372106E000EB14
:10096000104342F82130074B00FB03400B1EA1F15E
:100970000101F4DC10BD0120E8E70000880A002036
:10098000E119D666CD0D01000EB5054614460E469A
:1009900013A001F039FC284601F036FC16A001F046
:1009A00033FC304601F030FC15A001F02DFC002195
:1009B0008DF80B100A210DF10A008DF80A1008E0DD
:1009C00094FBF1F201FB124294FBF1F4303200F897
:1009D000012D002CF4DC01F017FC00F0BFFF00003B
:1009E0002A2A2A20617373657274696F6E206661AA
:1009F000696C65643A2000002C2066696C652000F3
:100A00002C206C696E65200030B503461D781DB141
:100A10000A4603E0AC4201D1181A30BD12F8014B6E
:100A2000002CF7D15B1CF1E730B503461D783DB1D2
:100A30000A4612F8014B1CB1AC42FAD15B1CF5E737
:100A4000181A30BD40EA010310B59B070FD1042AE4
:100A50000DD310C808C9121F9C42F8D020BA19BA89
:100A6000884201D9012010BD4FF0FF3010BD1AB1EE
:100A7000D30703D0521C07E0002010BD10F8013B43
:100A800011F8014B1B1B07D110F8013B11F8014B6A
:100A90001B1B01D1921EF1D1184610BD10B5431C8D
:100AA00002E010F8011B71B18107FAD14FF0013259
:100AB00002C88C1A8C4314EAC211F9D0C01A0A0673
:100AC00003D0C01E10BDC01A10BD0A0401D0801E84
:100AD00010BD0902FCD0401E10BDCBB22AB1017876
:100AE0008B4203D0401C521EF9D1002070470000F9
:100AF00030B44FF0013C50F8042B51F8043BCCFAD1
:100B000052F4D51A20D1FCB950F8042B51F8043B0B
:100B1000CCFA52F4D51A17D1B4B950F8042B51F8C5
:100B2000043BCCFA52F4D51A0ED16CB950F8042B10
:100B300051F8043BCCFA52F4D51A05D1002CDAD086
:100B400030BC4FF00000704729BAB1FA81F111F0C2
:100B50001801D1F120008440F2D1CA40CB4012F0FC
:100B6000FF0213F0FF0330BCD01A704770B50C467B
:100B7000016800204A1C3ED03C22B1FBF2F302FB8C
:100B80001313B1FBF2F12360B1FBF2F302FB131379
:100B9000B1FBF2F118226360B1FBF2F302FB131315
:100BA000B1FBF2F146F2E0320A440721A360B2FB46
:100BB000F1F301FB132140F2B553B2FBF3F5A16150
:100BC000B2FBF3F103FB15228900B2F5B77F08D31E
:100BD0009B10521EB2FBF3F52944B2FBF3F503FB65
:100BE00015220F4BE261616189077B440CD03B2ADF
:100BF0000AD3521C08E02C21204600F00EFF0120F1
:100C0000E0600AE0521A401C195C9142FAD9521C69
:100C1000C4E903204FF0FF302062204670BD000081
:100C2000CA230200704770477047000000487047B1
:100C3000F80A002000487047100B00200048704759
:100C4000F00A0020704770477047704738B5044677
:100C50000A4600206946AFF30080002808BF38BD6F
:100C600002460099204600F009FF012038BD01200E
:100C700001F0C2BAF8B5AFF30080054600200C467B
:100C8000102000BF0646A819A0420DD93246694679
:100C90000020AFF30080070008BF01F0ADFA009814
:100CA000A04218BF0546C419FFF7C0FF05600746FC
:100CB000F01D20F007004619284600F00AF8B4425B
:100CC00008BFF8BDA21B31463868BDE8F84000F007
:100CD000D5BE00210160C0E90110704710207047A7
:100CE00009684A0501D540B27047C905FCD500B274
:100CF000704709684A0501D5C0B27047C905FCD5DF
:100D000080B270472DE9F0470D4699469246044659
:100D100000F124080168880604D5E06921F010017B
:100D2000216000E00120A84201DD471B00E0002710
:100D3000A1697A1902EB0900081AA0612078C0069F
:100D400002D42046FFF720FC002608E0D4E9012168
:100D50001AF806009047206A401C761C20624E4517
:100D6000F4DB2078C0060AD52046FFF70DFC06E02C
:100D7000D4E9012130209047206A401C2062381EAF
:100D8000A7F10107F4DC07E0D4E9012118F8050018
:100D90009047206A401C2062281EA5F10105F3DC63
:100DA0002046FFF707FC2078000602D50220BDE8A8
:100DB000F0870120FBE711680268006A530501D53E
:100DC00008700AE0D30501D5088006E0130603D5B4
:100DD000C217C1E9000200E00860012070472DE958
:100DE000FF4F0C461E464FF0FF378BB0D2E9000193
:100DF000DDF860800A908A46C1F30A5505B93D4680
:100E0000002108464FF00000BAF1000F00F4400046
:100E100005DA00EB80004FF4400101EA50004FEA90
:100E20009059B9F1010F00DDB9460A9850EA4A001D
:100E30000ED044F61050A5F2FF3545432F14B8F1FB
:100E4000000F1ED07542291E1EDDC9F100021CE0F4
:100E5000B8F1010F4FF0000001D0302103E0F24360
:100E600005E02154401CB042FBDB3046002200214B
:100E700021540B99C1F80880C1E900200FB0BDE8EA
:100E8000F08FBD1B6D1CDEE74A4600DA694206A8FA
:100E900001F028F806AB93E8070003AB83E80700EE
:100EA00050460A9921F0FDFB8DE80700A0F500509F
:100EB0001F3800900398002D0ADD42F21F014A46B8
:100EC0000844002303A90390684621F067FE09E067
:100ED000A0F500504A461F38002303A90390684636
:100EE00021F071FE8DE807000004000C03D04FF0E4
:100EF000FF30410800E01046B8F1000F03D0002297
:100F0000009215461EE0751E05D400F0D1FD30326A
:100F100062556D1EF9D5B3460122084302D0002266
:100F20007F1C04E02078302801D100227F1E002A97
:100F3000099784D01DE0112D07DA00F0B9FD303299
:100F400062556D1C50EA0102F5D1084302D00098A9
:100F5000C8B10EE00021681E05E0235C625C6354AA
:100F60002254401E491C8142F7DBAB46A81B401EA1
:100F70000990002004F80B000B98099AC0F808802B
:100F8000C0E9002B7AE711264FF0000857E72DE95A
:100F9000F04F88460446D21D22F0070191B0D1E9F6
:100FA0000001CDE90A0121F045FF02460B98C00F70
:100FB00001D02D2007E02068810701D52B2002E019
:100FC000202101EAC000032A099001D0072A05DB8D
:100FD00003464146204600F02FFF0BE120788006B3
:100FE00001D5E06900E00620B8F1650F814606D022
:100FF000B8F1660F18D0B8F1670F70D131E000205A
:10100000B9F1110F009001DB112301E009F1010397
:101010000AAA01A90CA8FFF7E2FEDDE90C70002680
:1010200009F10105834647E001204B4600904FF04F
:1010300000470AAA01A90CA8FFF7D1FEDDE90DB00F
:101040000C995D46002610B909F101000D18B9EBA5
:10105000050003D4C0F1FF3609F10105A5EB090035
:101060002BE0B9F1010F01DA4FF001090020B9F1CD
:10107000110F0090484601DD112300E003460AAA43
:1010800001A90CA8FFF7ABFEDDE90C704D46002668
:101090008346207800070AD4AB4500DA5D4601A8F4
:1010A000012D04DD411911F8011C302907D04F45ED
:1010B00002DA17F1040F04DA012082460FE06D1EF8
:1010C000EEE7002F02DCED1B3E4403E0781CA84253
:1010D00000DD7D1CB81B00F1010A4FF000472078AD
:1010E000000703D4AA4501DB4FF0FF3A0021B7F116
:1010F000004F0DF143088DF8431024D002202B231C
:10110000002F01DA7F422D230A21021EA0F10100E7
:1011100000DC5FB197FBF1FC97FBF1F201FB1C7C5B
:1011200017460CF1300C08F801CDEEE7A8F10100EC
:1011300003702188090501D5452100E06521A0F152
:10114000010800F8011C09980FA9A1EB0807FF1D71
:1011500000B10120411901EBEA70A1693844081A75
:10116000401EA0612078C00602D42046FFF70CFA8A
:10117000099828B1D4E901219047206A401C2062D7
:101180002078C00622D52046FFF7FEF91EE0002E8B
:1011900004DBB34502DD01A8805D00E03020D4E926
:1011A00001219047206A401C2062761CAAF10100B0
:1011B0005FEA000A0AD1FFF73DFDC0680168405CA4
:1011C000D4E901219047206A401C2062281EA5F125
:1011D0000105DCDC07E0D4E9012118F8010B904798
:1011E000206A401C2062381EA7F10107F3DC20466C
:1011F000FFF7E0F9032011B041E6000001694A1C45
:1012000002610878704700B58FB0CDE90131002147
:10121000059105497944CDE9031011466846FFF769
:1012200089FA0FB000BD0000E5FFFFFF0A6802F871
:10123000010B0A607047D1E900239A4202D2531C85
:101240000B601070704710B5436913B1AFF30080A5
:1012500001E0FFF7C0F9012010BD127800F1240170
:101260000A7000224A700122EDE711684FF0FF3248
:10127000E9E70000074B70B50D467B44FFF7C3FF5D
:101280000446284600F0A0FE10B14FF0FF3070BDBC
:10129000204670BDF51B02002DE9FF5F15468A460A
:1012A0000446DFF8AC80F8440027D8E900103E4639
:1012B000CDE9001010E03AF816106A4602A800F0D6
:1012C00069FF411C07D02178890603D5E2693918E6
:1012D00091420DD80744761C2078800602D5E0693B
:1012E000B84205DDAE42E6DB3AF816000028E2D14E
:1012F000A069C01BA0612046FFF746F9D8E900109D
:10130000CDE90010002017E03AF818106A4602A84C
:1013100000F040FFB0F1FF3F81460BD000250DF1FA
:10132000080B05E0D4E901211BF8050090476D1C6E
:101330004D45F7D308F10100B0428046E4DB206A56
:10134000384420622046FFF735F9BDE8FF9F0000D2
:10135000061D02002DE9F0418046D21D22F0070251
:101360000025D2E90002F52915A614D0011E72F15C
:10137000000106DA0023D0EB030063EB020211A6A2
:1013800008E0D8F800108B0701D50FA602E0490746
:1013900001D50EA601251146002408F1240704E01A
:1013A00000F086FB30323A55641C50EA0102F7D156
:1013B0002B46324621464046BDE8F041FFF7A2BC2D
:1013C000000000002D0000002B00000020000000A5
:1013D00030B4002100F1240408E002F00705D2082F
:1013E000303542EA4372DB086554491C52EA030572
:1013F000F3D10468002310A2250708D504F02004C7
:101400000C4304D0C46901230CA2641EC46130BC27
:10141000FFF778BC10B5044621461068FFF769FC59
:1014200002462046BDE810400023D1E7D21D22F03D
:101430000701D1E90023CBE70000000030000000E5
:101440002DE9F05F054617460C46C86820F42010C9
:1014500040F48000C860800602D5084600F0C1F95B
:10146000E06841F282014FF0FF3A0140022903D0C7
:10147000204600F053F9B9E000F42041B1F5004FE7
:101480000FD1C00306D56168E06A884200D80846DB
:10149000606006E02069E06260606069002000BF73
:1014A000A061A0680022EEB200280DDAE1688B0589
:1014B0000AD4C043A06041F490302260E0606068CC
:1014C000411C61600670AAE0E0689146226040F429
:1014D0000050E060206978BB606903F095FD04F17D
:1014E00024054FF00108A8B1A08910F4407F08D06E
:1014F000E069FEF79BFF206118B1E06840F40060EE
:1015000017E0C4F81C802561E06820F4407040F4C6
:1015100080600EE0E069FEF789FF00282061F0D0CE
:10152000E06840F4006010F4407FE06002D140F4D5
:101530008070E06020696060E06825696FF0010BF1
:10154000C1051ED56168E06A884200D80846411B83
:1015500004D02246284600F0EBF8E8BB1FB1E56254
:10156000C4E9015959E0681CE0626060E069401E0E
:10157000A060E06840F48030E06030462E70BDE846
:10158000F09F17B100F480320AE06068411C61608E
:101590000670E0680A2E40F48030E06006D0002239
:1015A000E16A6068814203D90B4602E00122F7E755
:1015B0000346B4F80CC05B1B5FEA4C5C04D4D4F85F
:1015C0001CC09C4500DD02B3814200D80146002BBF
:1015D000A1EB0008E56200E008E0C4E9015907DD7D
:1015E00022461946284600F0A3F808B15046C6E73F
:1015F000B8F1000F09D0A169E5626560A1EB0800B0
:10160000A061E06840F01000E06047B16168A06947
:10161000E562491B08446560A0615846AFE7304663
:10162000ADE700002DE9F041044616460D46476936
:10163000007B80072ED0384603F0E6FC50BB3EB35B
:10164000012E02D0022E25D104E0204600F0C0FC7D
:1016500005441DE03846002000BFE168002841F045
:101660001001E16005DA204600F058F80120BDE8DD
:10167000F081C9030BD56268E16A914200D8114636
:10168000A26911442269891A814200DD0846054495
:10169000002D01DA0220EAE7E16A6068E26881422F
:1016A00006D29103E06203D522F4003141F010022A
:1016B000A6690027AE4213DCE16A814201D90B46DC
:1016C00000E0034603EB060C2369ACEB030CAC45CE
:1016D00006DD814201D98C4600E084469C4505D157
:1016E000A760276042F02000A5620DE0AD1BE6690F
:1016F000AE1B8142A66000D90846C01A281A206095
:101700005819606022F0200003490840E060002082
:1017100084F84870ABE70000BFCFD7FFC16821F461
:10172000001141F08001C1600021816001607047BB
:101730002DE9F74F15460C464FF0FF3B3848D76868
:10174000D2F814A0074209D05046A969002000BF72
:10175000002819DB3248C0430740EF604FF00049D2
:101760006FF000484C4501D3464600E026460099FC
:101770003B465046324603F069FCA96920F000421E
:10178000B21A1144A96128B12846FFF7C7FF58468D
:10179000BDE8FE8FA41BE5D10020F9E770B5044633
:1017A0000569C06A6168884200D80846E16821F48A
:1017B0002011E160C90312D5A84208D02246411B7E
:1017C0002846FFF7B5FF10B14FF0FF3070BD002085
:1017D000E562C4E90150E06820F48030E060002058
:1017E00070BD10B50446C06820F02000E060A16A1A
:1017F000A06988420DD02046FFF7D0FFE06820F4B2
:10180000405040F01000E060A06AA0612069E062F2
:10181000606044F24001E0688843E06010BD000071
:101820001000020010B54248542100F0F6F841487B
:10183000542100F0F2F84048542100F0EEF83F49FE
:101840003B483C4A3F4B08603D490A603A491960B1
:10185000531C0365481C1065012008653B48344A49
:1018600039A1784400F0F8FB20B9384878440A38A8
:1018700000F0BBFC37482F4A35A1784400F0ECFB60
:1018800020B9344878440A3800F0AFFC32482A4A7C
:101890002FA1784400F0E0FB20B92F4878440A38A3
:1018A00000F0A3FC40232248DC000021224600F087
:1018B000B0FB20B125487844543800F096FC1D4810
:1018C00022464023002100F0A4FB20B121487844A7
:1018D000543800F08AFC184822461023002100F0FA
:1018E00098FB002806D01C487844BDE810405638C4
:1018F00000F07BBC10BD104870B5006D20F00104F5
:101900000B4800F021FC0B4800F01EFC0A4800F0D8
:101910001BFC09E0206D20F00105204600F014FCBE
:101920002046FEF7B2FD2C46002CF3D170BD00001E
:101930001009002064090020B80900209C0800203C
:10194000A0080020A4080020720000000417020074
:1019500077000000F0160200DC16020010B500202F
:1019600000F03CFCFEF7BEFCBDE81040012000F09A
:101970007BB810B5203AC0F00B80B1E81850A0E851
:101980001850B1E81850A0E81850203ABFF4F5AF4D
:101990005FEA027C24BFB1E81850A0E8185044BFA9
:1019A00018C918C0BDE810405FEA827C24BF51F816
:1019B000043B40F8043B08BF7047D20728BF31F80A
:1019C000023B48BF11F8012B28BF20F8023B48BF5B
:1019D00000F8012B70474FF000020429C0F012807C
:1019E00010F0030C00F01B80CCF1040CBCF1020FD2
:1019F00018BF00F8012BA8BF20F8022BA1EB0C01A7
:101A000000F00DB85FEAC17C24BF00F8012B00F89C
:101A1000012B48BF00F8012B70474FF0000200B5C2
:101A2000134694469646203922BFA0E80C50A0E801
:101A30000C50B1F12001BFF4F7AF090728BFA0E8AF
:101A40000C5048BF0CC05DF804EB890028BF40F87B
:101A5000042B08BF704748BF20F8022B11F0804FBD
:101A600018BF00F8012B704701491820ABBEFEE7F4
:101A70002600020000487047F00A00200346406834
:101A80008C46002818BF88423CBF03464068F8D304
:101A900018681844884207D00CF1030020F00700B2
:101AA000001D411A521A0146081D0A60FEF7EDBCDE
:101AB00030B5B0F10A0271F100034FEA900E4EEA20
:101AC000817EB0EB0E0061EB91014FEA101E4EEAF1
:101AD000017E10EB0E0041EB11114FEA102E4EEA81
:101AE000016E10EB0E0041EB11214FEA104E4EEA51
:101AF000014E10EB0E0041EB1141401841F1000185
:101B00004FEAD00040EA41704FEAD1014FEA810428
:101B100044EA907410EB800544EB01046D1944EB2A
:101B20000404521BA3414FF0000348BF0A3200D502
:101B300030BD401C41F1000130BD00002DE9F04FE7
:101B400004460D46D21D22F0070089B0D0E9009767
:101B50004846394621F06EF90246F80F01D02D2390
:101B600007E02068810701D52B2302E0202101EA4C
:101B7000C0038DF820300BB1012000E00020032AC3
:101B8000824601D0072A04DB2946204600F054F99A
:101B90003FE12078800601D40D2500E0E569C7F318
:101BA0000A560D2D49DA00214FEA175B08464FF01F
:101BB0000000002F00F4400007DA00EB80004FF433
:101BC000400100EBD07001EA60008115012901DDC0
:101BD0004FF0FF3100224FEA850CBCF1180F06D3FD
:101BE0001346ACF118004FF08052C24003E04FF4AE
:101BF000801323FA0CF30CF10C0CBCF1200F04D36E
:101C0000ACF1200C09FA0CF001E007FA0CF0002905
:101C10004FF0004801DD18B90FE00ED140450CD35C
:101C200019EB02095F4121B9404502D19F4329EADE
:101C30000209BBEB175F00D0761C2088000502D597
:101C40007B48784402E07A487844193808AA30235F
:101C500002F80A30037C0AF10101002E0AF1020A9F
:101C600053546A4602DC4FF0300101E04FF031017D
:101C70004FF001088DF8001002D0A6F2FF3603E005
:101C800059EA470100D06B4E002D02DC217809078C
:101C900004D54FF002082E218DF80110C446002112
:101CA0000BE0C7F303433F01C35C491C6D1E02F800
:101CB0000830052908F1010801DA002DF1DC0021C6
:101CC0000CE000EB1973491C1B786D1E082902F803
:101CD00008304FEA091908F1010801DA002DF0DC9B
:101CE00021688B0602D516E0A8F10108E04505DD64
:101CF00002EB080313F8013C302BF5D0B8F1000FCC
:101D000009DD02EB080313F8013C2E2B03D1090770
:101D100001D4A8F10108002D05DD3E2102F80810CC
:101D20006D1E08F10108407C002E02F8080008F141
:101D3000010804DA2D20764202F8080002E02B2088
:101D400002F808000A214FF47A70864208F101086F
:101D50000BDB96FBF0F3303302F8083096FBF0F320
:101D600008F1010800FB136601E0642E0CDB64201F
:101D700096FBF0F3303302F8083096FBF0F308F1ED
:101D8000010800FB136601E00A2E06DB96FBF1F06A
:101D9000303002F8080008F1010896FBF1F001FB71
:101DA0001060303002F80800A16908F1010808EB62
:101DB000050202EB0A00081AA0612078C00602D4CE
:101DC0002046FEF7E1FB216A08AE01EB0A00206223
:101DD00004E0D4E9012116F8010B9047BAF1010A99
:101DE000F7D22078C00602D52046FEF7CDFB6E461E
:101DF00009E016F8010B3E280FD0D4E901219047E5
:101E0000206A401C2062B8F10108F2D22046FEF799
:101E1000D1FB09B00320BDE8F08F206A284420627E
:101E200003E0D4E90121302090476D1EEBD3F8E7A1
:101E30009113020002FCFFFF2DE9F0411F4604460A
:101E400003260168072A01F4006004DB08B116A527
:101E500005E016A503E008B115A500E015A521F0E1
:101E600010002060A069C01EA0610FB1401EA061DB
:101E70002046FEF789FB4FB1D4E90121384690474F
:101E8000206A401C2062C01C206206E0206AFAE73B
:101E9000D4E9012115F8010B9047761EF8D22046AF
:101EA000FEF788FBBDE8F0814E414E006E616E008A
:101EB000494E4600696E660010B5436913B1AFF331
:101EC000008001E0FFF7E8F9012010BD128800F161
:101ED000240182840022C2840122EDE711684FF0C0
:101EE000FF32E9E72DE9F047814616468AB03548CA
:101EF00078440DC88DE80D0032487844801C03AC4E
:101F00000DC884E80D0041F69B300844372190FB52
:101F1000F1F290FBF1F5A5F1800501FB12041B3CE9
:101F200002D56442012000E00020DFF898A080463E
:101F30000027FA44AAF1BE0A0EE0E0070AD03246B2
:101F4000684607EB470101230AEB810120F03BFEC5
:101F50008DE8070064107F1C002CEED1194F7F44E0
:101F6000AE3F19E0E80715D007EB04100DF1180A91
:101F700090E80E008AE80E00C068F04201D198197E
:101F800008903246012306A903A820F01CFE03ABEB
:101F900083E807006D10641C002DE3D14FF00103AE
:101FA00032466946B8F1000F03A802D020F0F6FDD2
:101FB00001E020F008FEC9E90001C9F808200AB0D4
:101FC000BDE8F08774110200007B00F080007047CC
:101FD00010B50146C268900703D0900607D5886AFD
:101FE0000AE0FEF72BFE01210160881E10BD8B69FF
:101FF000486818440B69C01A91F848301BB191F831
:102000004910401A10BD1103FCD50028FADD401E0E
:1020100010BD70B5C468A50713D0650211D4B2F520
:10202000807F09D0B2F5007F06D0B2F5806F08D16D
:10203000012300F1240106E05D1E6FF07F46B542EA
:1020400001D3012070BD0161C361416024F470615E
:102050001143C160002070BD2DE9F0410C461646C9
:10206000070047D0104600F06FF82078611C612807
:102070000AD0722802D077283CD102E00125002442
:1020800005E00225042402E0082448F2020511F8C4
:10209000010B2B2806D0622809D011F8010C7428F6
:1020A0000AD00BE045F0030544F00204EFE745F0E9
:1020B000040544F00104EAE744F0100438462146E0
:1020C00002F0AAFF411C15D00021316171604FF46C
:1020D0000071F560F1617061200704D5304602227D
:1020E0000021FFF79FFA306D40F001003065304667
:1020F000BDE8F0810020FBE72DE9F0410D460646E2
:10210000104C206DC10704D0410804D020F0010418
:10211000F7E722460EE05420FEF788F907000ED0BC
:10212000206D47F001010843542120653846FFF730
:1021300074FC3A4629463046BDE8F0418CE7002061
:10214000D6E70000100900202DE9F04704464FF0C3
:10215000FF380026C568D4E90497A80718D02046A0
:10216000FFF71CFB3846002000BF002800DA464677
:10217000280502D54846FEF788F94C212046FFF78E
:102180004CFC206D20F0010020653046BDE8F08752
:102190004046FBE72DE9F04116460C460546FEF7A2
:1021A0003DF9036893F80101012807D0FF2C12D8EC
:1021B000185D80B101202C70BDE8F081D3F80701D3
:1021C0003246214603F20713C7182846BC46BDE82D
:1021D000F041002360474FF0FF30EDE710B500F00D
:1021E00065F8BDE8104000F05BB810B500F076F877
:1021F000BDE8104000F054B810B500F089F8BDE813
:10220000104000F04DB8000010B5044900F02EF861
:10221000BDE810400148FEF76CBB0000B809002083
:1022200070477546FFF726FCAE46050069465346E3
:1022300020F00700854618B020B5FEF7DBF8BDE8B2
:1022400020404FF000064FF000074FF000084FF01D
:10225000000BAC46ACE8C009ACE8C009ACE8C0096A
:10226000ACE8C00921F007018D46704770B50D46F6
:10227000044604E0294620F0FCFD401C04D014F87C
:10228000010B0028F6D170BD4FF0FF3070BD10B5C6
:102290000446AFF300802046BDE81040FEF72FB89B
:1022A000002801D0FFF7E0BB7047000010B5002107
:1022B00002A000F09AF8012010BD000053494741E8
:1022C0004252543A2041626E6F726D616C207465A7
:1022D000726D696E6174696F6E00000010B5014621
:1022E00002A000F082F8012010BD000053494752BF
:1022F000545245443A2052656469726563743A20C9
:1023000063616E2774206F70656E3A2000000000D4
:1023100010B5012805D0002103A000F066F80120C7
:1023200010BD09A1F8E7000053494752544D454DEF
:102330003A204F7574206F662068656170206D6566
:102340006D6F7279000000003A2048656170206D61
:10235000656D6F727920636F727275707465640059
:10236000032A40F2308010F0030C00F0158011F8C1
:10237000013BBCF1020F624498BF11F801CB00F899
:10238000013B38BF11F8013BA2F1040298BF00F8ED
:1023900001CB38BF00F8013B11F003033FF4E9AA79
:1023A000083AC0F0088051F8043B083A51F804CBD1
:1023B000A0E80810F5E7121D5CBF51F8043B40F897
:1023C000043BAFF30080D20724BF11F8013B11F8A2
:1023D00001CB48BF11F8012B24BF00F8013B00F8E6
:1023E00001CB48BF00F8012B704770B505460C467D
:1023F0000A2000E06D1C02F035FF35B12878002876
:10240000F8D102E0641C02F02DFF14B120780028FE
:10241000F8D1BDE870400A2002F024BF53EA020C54
:1024200000F069802DE9F04B4FF00006002B1FBF34
:10243000B3FA83F503FA05F424FA05F65E4012BFF9
:102440001643B2FA82F502FA05F4C5F120051EBF63
:1024500022FA05FC44EA0C04203556EA044C4FEA03
:10246000144418BF641C4FF000084FF0000990425C
:1024700071EB030C39D3002919BFB1FA81F701FAC6
:1024800007F6B0FA80F700FA07F6C7F120071EBF7B
:1024900020FA07FC46EA0C062037B6FBF4FCA7EB53
:1024A0000507103F07F01F0BCBF120062CFA06F6AC
:1024B0000CFA0BFB44BFB3460026202FA4BF5E4698
:1024C0004FF0000B5BEA060C08BF4FF0010B19EB55
:1024D0000B0948EB0608ABFB027C06FB02CC0BFBAE
:1024E00003CCC01B71EB0C01C1E70B460246414611
:1024F0004846BDE8F08B13B5084318BF4FF0FF30D6
:102500000146AFF30080BDE81C40704702F0FF03B6
:1025100043EA032242EA0242FFF75FBA2DE9F0479D
:10252000122800F28C800C461546DFE810F01300EC
:102530008C009900A500B900C600D300E000ED00B2
:10254000550284029D02A502D3023200FE025D0004
:1025500029035403681E022880F07C832068B0FAA7
:1025600080F100284FEA51104DF2A421C2F200017F
:1025700000F0CA8300220A704DF64801C2F2000141
:10258000C1E900224DF64001C2F20001C1E900227A
:10259000BCE3681E022880F04C834DF2B120C2F2E9
:1025A00000000078E0B14DF2B021C2F200010978DC
:1025B00020684EF23852C2F20002012910620FD197
:1025C0004FF47A7001F0F0FE45F64012C2F20202BA
:1025D000C2E900014BF62C20C2F20100012101707A
:1025E000012D00F0A98327E3681E022880F02A83CA
:1025F0004DF2B120C2F200000078E0B14DF2B021FE
:10260000C2F20001097820684EF23852C2F200028C
:102610000129D0620FD14FF47A7001F0C5FE45F662
:102620004012C2F20202C2E900014BF62C20C2F2B3
:10263000010001210170012D00F07E8304E30520DB
:1026400040B2BDE8F087681E0228C0F01182002D5C
:1026500040F0728301F04EF8000E40EA012008E0DD
:10266000681E0228C0F00482002D40F0658301F04E
:1026700041F820F07F405EE3681E0228C0F0F88138
:10268000002D40F059834DF29820C2F200004068BE
:1026900048F68901C8F68801A0FB010148094AE310
:1026A000681E0228C0F0E481002D40F045834DF201
:1026B0009820C2F2000040883DE3681E0228C0F066
:1026C000D781002D40F038834DF29820C2F20000EF
:1026D000008930E3681E0228C0F0CA81002D40F056
:1026E0002B834DF2A820C2F20000006823E3681E8D
:1026F0000228C0F0BD81002D40F01E834DF2B220B3
:10270000C2F20000007816E3681E02284FF0FF00B6
:1027100080F0A88247F61021C1F6FF71D4F800C0FE
:10272000D1F800E0D1F804808A684EF60051CEF26C
:1027300000010E686FF0FF0780EA166145F6D07061
:10274000C0F6020050F821104DF6620A7940C6F337
:10275000074787EA116750F82770C2F2000A87EA34
:102760000121C6F3072787EA116750F827704FEA5F
:10277000166987EA0121F7B287EA116750F82770D6
:102780008AF8036087EA0127390E81EA126150F85E
:102790002130310C83EA0723C2F3074787EA136726
:1027A00050F827708AF8011087EA0323C2F307273D
:1027B00087EA136750F827708AF8072087EA03230F
:1027C000D7B287EA136750F827708AF8009087EA33
:1027D00003210B0E83EA186350F82330370A83EA8B
:1027E0000121C8F3074383EA116350F82330160E22
:1027F00083EA0121C8F3072383EA116350F82330E9
:102800008AF8046083EA01215FFA88F383EA11639E
:1028100050F82330160C83EA01210B0E83EA1E6365
:1028200050F823308AF8056083EA0121CEF307438C
:1028300083EA116350F823306FF0030683EA012125
:10284000CEF3072383EA116350F823308AF802702D
:1028500083EA01215FFA8EF383EA116350F8233093
:10286000170A83EA012106EA915383F42B73C358B4
:102870008AF8067083EA012106EA915383F4907383
:10288000C3588AF80B8083EA012106EA915282F448
:10289000107282584FEA186382EA012106EA9152C7
:1028A00082F4447282588AF8083082EA012106EAEA
:1028B000915282F4AA7282584FEA184382EA0121A7
:1028C00006EA915282F4217282588AF8093082EA2B
:1028D000012106EA915282F4B87282584FEA182315
:1028E00082EA012106EA915282F4717282588AF8D2
:1028F0000A3082EA012106EA915282F044028258AB
:102900004FEA1E6382EA012106EA915282F0BC027C
:1029100082588AF80C3082EA012106EA915282F04C
:102920000C0282584FEA1E4382EA012106EA9152C4
:1029300082F4867282588AF80D3082EA012106EA12
:10294000915282F0540282584FEA1E2382EA0121FA
:1029500006EA915282F4D67282588AF80E3082EAE0
:10296000012106EA915282F4577282588AF80FE0E8
:1029700082EA012106EA915282F4797280584DF27E
:10298000B02280EA012060440130B0FA80F04DF2BC
:10299000B221C2F200024009C2F2000112780870AE
:1029A0004EF23850012AC2F20000C0F84AC00FD1DE
:1029B0004FF47A7001F0F8FC45F64012C2F20202C0
:1029C000C2E900014BF62C20C2F201000121017086
:1029D000012D00F0B18147E1681E022880F04B8193
:1029E0004DF2B220C2F200000078002840D04DF233
:1029F000B022C2F2000220684EF238511278C2F2C0
:102A000000018863C017012AC8630FD14FF47A70A0
:102A100001F0CAFC45F64012C2F20202C2E900010E
:102A20004BF62C20C2F201000121017001F05CFF85
:102A30001EF0CAFF80E1681E022880F024814DF25A
:102A4000B220C2F20000007890B14DF2B021C2F283
:102A50000001097820684EF23852C2F200020129C2
:102A6000A2F84000D2D0E1E7681E022880F014816D
:102A70000B2040B2BDE8F087681E022880F0188164
:102A80004DF2B120C2F200000078F8B14EF2385198
:102A90004DF2B023C2F20001C2F2000320684A6B7B
:102AA0001B7860F34102012B4A630FD14FF47A7017
:102AB00001F07AFC45F64012C2F20202C2E90001BE
:102AC0004BF62C20C2F2010001210170012D00F013
:102AD0003381EFE0681E022880F0F4804DF2B120CF
:102AE000C2F200000078E0B14DF2B021C2F2000164
:102AF000097820684EF23852C2F200020129D061F2
:102B00000FD14FF47A7001F04FFC45F64012C2F23B
:102B10000202C2E900014BF62C20C2F201000121A1
:102B20000170012D00F00881CDE0681E022880F0C0
:102B3000D0804DF2B120C2F200000078E0B14DF239
:102B4000B021C2F20001097820684EF23852C2F278
:102B50000002012950620FD14FF47A7001F024FC79
:102B600045F64012C2F20202C2E900014BF62C20E7
:102B7000C2F2010001210170012D00F0DD80A9E009
:102B8000681E022880F0AC804DF2B120C2F2000035
:102B90000078E0B14DF2B021C2F20001097820685E
:102BA0004EF23852C2F20002012910630FD14FF4E5
:102BB0007A7001F0F9FB45F64012C2F20202C2E956
:102BC00000014BF62C20C2F2010001210170012D01
:102BD00000F0B28085E0681E022880F088804DF207
:102BE000B120C2F200000078F8B14EF238514DF237
:102BF000B023C2F20001C2F2000320684A6B1B78C6
:102C000060F30002012B4A630FD14FF47A7001F098
:102C1000CBFB45F64012C2F20202C2E900014BF6BC
:102C20002C20C2F2010001210170012D00F08480EE
:102C30005EE0002D40F080804EF23850C2F200007D
:102C4000006A78E0002D77D14EF23850C2F20000D1
:102C5000C06A70E0002D6FD14DF2A420C2F20000D6
:102C6000007855E0002D4CD14EF23850C2F20000F1
:102C7000D0F84A005FE0002D5ED14EF23850C2F22B
:102C80000000806B57E0002D56D14EF23850C2F252
:102C90000000B0F840004EE0002D4DD14EF28850BB
:102CA000C2F2000090F83900400734D4002042E01E
:102CB000002D41D14EF23850C2F20000406BC0F3FB
:102CC000400038E0C5BB4EF23850C2F20000C06987
:102CD00031E08DBB4EF23850C2F20000406A2AE06B
:102CE00055BB4EF23850C2F20000006B23E01DBB12
:102CF0004EF23850C2F20000406B00F0010020603C
:102D0000FF2040B2BDE8F08701220A70012D13D0E8
:102D100080F001000FE04EF236514EF23750C2F211
:102D20000001C2F2000009780078022202EA4101A3
:102D300060F38301481C2060FF2040B2BDE8F087AB
:102D4000F0B581B008B1052089E04EF218054DF6C6
:102D500050030C46CEF20005C2F20003D3E9000195
:102D60002A68D3E900764E40474037431AD0D3E96A
:102D700000012A68D3E900764E404740374311D01E
:102D8000D3E900012A68D3E900764E404740374333
:102D900008D0D3E900012A68D3E900764E404740C5
:102DA0003743DBD155F8043C55F8047C0133BA1A9B
:102DB00059430132E0FB03214DF29020C2F20000A2
:102DC000D0E9000343F60406801842F20047594157
:102DD000C4F20206C0F2F40720F086F8716800EE33
:102DE000100AC1F38101022906D001291DD147F63D
:102DF0004007C0F27D1718E03068316832683368E8
:102E000000F03F005B0247F64003C0F27D1358BF5D
:102E10003B46B3FBF0F0C1F38811C2F30142022735
:102E200007EB42024843B0FBF2F7706843F6D32148
:102E3000C0F30310C0F60201085C7168716855F8B0
:102E4000081C27FA00F0490758BFC00801EE100A15
:102E5000B8EE411A80EE010AFF2084ED000A40B26C
:102E600001B0F0BDD0F800D0D0F804F0FEE70000CB
:102E7000B0B500294FF6FF734FD04A1E46F2D03549
:102E800001F0030C032AC0F6020527D321F0030149
:102E900010F8042B043982EA0302D2B235F812206A
:102EA00010F8034C82EA132383EA0403DBB235F8FB
:102EB000133010F8024C83EA122282EA0402D2B2E2
:102EC00035F8122010F8014C82EA132383EA040338
:102ED000DBB235F8133083EA1223D9D1BCF1000FED
:102EE0001BD001789AB25940C9B235F81110BCF123
:102EF000010F81EA122310D04278DBB25A4035F834
:102F000012E0BCF1020F8EEA112306D08078D9B20C
:102F1000484035F8100080EA1E2398B2B0BD00008A
:102F200070B500294FF6FF7400F0B180012902D17D
:102F30004FF0000E75E021F0010E01F0010C831E30
:102F400041F22102714600BF13F8025F84EA0524B2
:102F500025B26600002D48BF82EA440634B27500EF
:102F6000002C48BF82EA46052CB26E00002C48BFF8
:102F700082EA450634B27500002C48BF82EA460555
:102F80002CB26E00002C48BF82EA450634B27500B0
:102F9000002C48BF82EA46052CB26E00002C48BFC8
:102FA00082EA450634B2002C5C784FEA460548BFF9
:102FB00082EA460585EA042425B26600002D48BF52
:102FC00082EA440634B27500002C48BF82EA460506
:102FD0002CB26E00002C48BF82EA450634B2750060
:102FE000002C48BF82EA46052CB26E00002C48BF78
:102FF00082EA450634B27500002C48BF82EA4605D5
:103000002CB26E00002C48BF82EA450635B274002F
:10301000002D48BF82EA4604023995D1BCF1000F69
:1030200035D010F80E0084EA00210AB24B0041F2BC
:103030002100002A48BF80EA410319B25A00002942
:1030400048BF80EA430211B25300002948BF80EA1A
:10305000420319B25A00002948BF80EA430211B264
:103060005300002948BF80EA420319B25A000029E0
:1030700048BF80EA430211B25300002948BF80EAEA
:10308000420319B25C00002948BF80EA4304A0B2A1
:1030900070BD0000F0B547F61023C1F6FF73D3F8FA
:1030A00000C05A689B684EF6005494A1CEF200040A
:1030B0004DF6620E51F82000190C2468C2F2000E81
:1030C0001D0E8EF80510FF218EF8045081EA14655C
:1030D00045F6D071C0F60201260A51F825508EF847
:1030E00002606FF0FF067540C4F3074686EA156676
:1030F00051F82660270E86EA0525C4F3072686EADE
:10310000156651F826608EF80070270C86EA0525B2
:103110008EF80340E4B284EA156451F824408EF836
:10312000017084EA0524250E85EA136551F82550BF
:103130001F0A85EA0424C3F3074585EA146551F89C
:1031400025508EF8073085EA0424C3F3072585EA65
:10315000146551F82550DBB285EA042483EA146330
:1031600051F82330160E83EA04231C0E84EA1264FD
:1031700051F824408EF8086084EA0323C2F3074420
:1031800084EA136451F82440160C84EA0323C2F342
:10319000072484EA136451F82440150A84EA0323BF
:1031A0008EF80B20D2B282EA136251F822204FEA45
:1031B0001C4482EA0322130E83EA1C6351F8233075
:1031C0008EF80A5083EA0222CCF3074383EA1263A3
:1031D00051F823304FEA1C6583EA0222CCF307231F
:1031E00083EA126351F823308EF80D4083EA0222FD
:1031F0005FFA8CF34FEA1C2483EA12638EF80670A0
:103200008EF809608EF80C508EF80E408EF80FC0C4
:1032100051F82330077883EA022287EA126351F8D3
:103220002330477883EA022287EA126351F8233079
:10323000877883EA022287EA126351F82330C7783D
:1032400083EA022287EA126351F82330077983EA7E
:10325000022287EA126351F82330477983EA022277
:1032600087EA126351F82330877983EA022287EADA
:10327000126351F82330C77983EA022287EA126386
:1032800051F82330077A83EA022287EA126351F861
:103290002330477A83EA022287EA126351F8233007
:1032A000877A83EA022287EA126351F82330C77AC9
:1032B00083EA022287EA126351F82330077B83EA0C
:1032C000022287EA126351F82330477B83EA022205
:1032D00087EA126351F82330877B83EA022287EA68
:1032E000126351F82330C07B83EA022280EA126025
:1032F00051F8200080EA0220C043F0BD843A020861
:10330000943A0208743A020871B12DE9F0414A1E5C
:10331000032A01F0030E0AD200214FF0000C002412
:10332000BEF1000F3DD16DE0FF20C0B2704721F02B
:10333000030C031F00244FF00108624613F8045FDA
:103340002C44E5B258FA84F6FF2D08BF0126FF2C65
:1033500098BF26465C789D783444E6B258FA84F1EA
:10336000DF78FF2E08BF0121FF2C98BF214629449A
:10337000CCB258FA81F5FF2C08BF0125FF2998BF70
:103380000D46E919CDB258FA81F4FF2D08BF01248A
:10339000FF2998BF0C46043AD0D1E1B2BEF1000F2C
:1033A00030D010F80C106318DCB2012151FA83F20E
:1033B000FF2C08BF0122FF2B98BF1A46BEF1010F58
:1033C00001D1D1B21EE04CF00103C35C1A44D3B268
:1033D00051FA82F1FF2B08BF0121FF2A98BF114645
:1033E000BEF1020F01D1C9B20CE04CF00202805CC8
:1033F0000844B0F5807FC1B204D3FF2901F1010177
:1034000008BF012181F0FF00BDE8F041C0B2704764
:103410007047000070470000704700002DE9F04F32
:1034200081B04EF2180B4DF65005CEF2000BC2F2F1
:10343000000500BFD5E90012DBF80030D5E90076C1
:1034400056404F4037431DD0D5E90012DBF800301D
:10345000D5E9007656404F40374313D0D5E90012E6
:10346000DBF80030D5E9007656404F40374309D0AD
:10347000D5E90012DBF80030D5E9007656404F4020
:103480003743D7D15BF8047C5BF8046C0137F31A3F
:103490004DF2902A7A430133C2F2000AE1FB07326F
:1034A000DAE9007143F6040CC4F2020C17EB0308CE
:1034B000DCF8043041EB0207C3F3810342F200421F
:1034C000022BC0F2F40206D0012B22D147F64002B3
:1034D000C0F27D121DE0DCF80010DCF8003001F0D5
:1034E0003F09C3F3881EDCF80030DCF80010C3F39A
:1034F0000143490247F64001C0F27D1158BF114611
:10350000B1FBF9F1022202EB430201FB0EF1B1FB28
:10351000F2F2DCF8041043F6D323C1F30311C0F632
:103520000203595CDCF80430DCF804305BF8083C3A
:1035300022FA01F15A0758BFC908A1FB00014FF454
:103540007A720023FEF76AFF10EB0800794100BF92
:10355000D5E90027DBF80030D5E900647C4056400F
:103560002643F5D15BF8046C5BF8044C0136E31A92
:1035700077430133E2FB0637DAE90026D21846EB3F
:103580000703821A71EB030200D3E1E701B0BDE843
:10359000F08F00002DE9F0434EF2180C4DF650016B
:1035A000CEF2000CC2F20001D1E90023DCF80000E9
:1035B000D1E900655D4056402E431DD0D1E900237E
:1035C000DCF80000D1E900655D4056402E4313D081
:1035D000D1E90023DCF80000D1E900655D405640E8
:1035E0002E4309D0D1E90023DCF80000D1E90065C1
:1035F0005D4056402E43D7D15CF8046C5CF8045C07
:103600000136281A4DF290297343451CC2F2000975
:10361000E2FB0653D9E9002443F60400C4F2020099
:1036200012EB050E42686341C2F3810242F200448C
:10363000022AC0F2F40406D0012A1ED147F6400443
:10364000C0F27D1419E0026805680768C5F38818A0
:10365000056802F03F026D0247F64005C0F27D1595
:1036600058BF2546B5FBF2F2C7F30147022404EB2D
:10367000470402FB08F2B2FBF4F4426843F6D32598
:10368000C2F30312C0F60205AA5C456840685CF804
:10369000080C24FA02F240074DF6836058BFD208A6
:1036A000C4F21B30A2FB00021EEB924043F1000368
:1036B00015E000BF5CF8047C5CF8046C0137B21ABA
:1036C0007D430132E4FB0725D9E90076D21946EBA8
:1036D0000507821A73EB070238BFBDE8F083D1E912
:1036E0000045DCF80020D1E900766E4067403743A2
:1036F000F5D1DFE780B548F24400C4F20200D0F80B
:1037000000C0D0F800E00368016850F8042C50F8BD
:10371000040C01F07F4162F3070003F47F021144BF
:103720000EF47F4211445FFA8CF2114400BA09BAD8
:10373000000C40EA0140090C80BD00002DE9F04F6B
:1037400081B04EF218024DF65007CEF20002C2F2DE
:10375000000700BFD7E900011368D7E900654D40B5
:1037600046402E431AD0D7E900011368D7E9006517
:103770004D4046402E4311D0D7E900011368D7E9E8
:1037800000654D4046402E4308D0D7E9000113683C
:10379000D7E900654D4046402E43DBD143F6040C8B
:1037A0004DF29025C4F2020CC2F2000552F8047CDE
:1037B00052F8046CD5E90058DCF8044042F2004E9F
:1037C000C4F38104022CC0F2F40E06D0012C23D1E4
:1037D00047F6400EC0F27D1E1EE0DCF80090DCF8DB
:1037E0000040DCF800B0C4F3881ADCF8004009F0AF
:1037F0003F09640247F64004C0F27D1458BF744686
:10380000B4FBF9F4CBF3014B4FF0020E0EEB4B0E71
:1038100004FB0AF4B4FBFEFE7C1CF31A6143013383
:10382000E0FB0431E8184FF47A73A0FB030441EB8A
:103830000801DCF8045001FB034143F6D324C5F32F
:103840000313C0F60204E35CDCF80440DCF8047007
:1038500052F8087C2EFA03F27B074FF0000358BFA2
:10386000D208FEF7DBFD01B0BDE8F08FFEE70000F7
:10387000B0B54DF2A83CC2F2000C90B101280FD1B6
:1038800044F60C0144F20042C4F20001C4F200020A
:103890000968D2F8003402F5806E9B060BD426E04E
:1038A000FEE744F2004EC4F2000EDEF80C10DEF823
:1038B000002092061BD511F0200118D04FF407729A
:1038C00010FB02C24EF004011346096853F8104F72
:1038D000FE2C0CD85469144484F81C111968013169
:1038E00019605169013151615169C9B251614EF09C
:1038F0000C031968DEF80020120622D511F08001B1
:103900001FD04FF4077110FB01C2114651F8044F4C
:103910007CB1D4684EF004051444247F2C600C68FC
:10392000013C0C60D1680131D160D168C9B2D1606D
:1039300007E0196821F080011960196841F0400121
:1039400019601968DEF80020520610D511F0400108
:103950000DD0196821F0400119604FF4077110FB78
:1039600001C1496899B1186840F080001860186872
:10397000DEF80010090709D510F0200008BFB0BD1F
:10398000DEF8000020F00800CEF80000B0BD50B115
:10399000012807D140F62800C4F202004FF48051FC
:1039A0000160E4E7FEE740F62800C4F2020080214F
:1039B000C0F80014DBE70000FEE7000070470000DD
:1039C0007047000070B543F63001C4F20201086888
:1039D00041F2004E40F020000860C4F2020EDEF812
:1039E0000000DEF80C3020F4401023F44013CEF831
:1039F0000000CEF80C30DEF8040041F2204C40F418
:103A00008060CEF80400DEF80800C4F2020C20F456
:103A10004010CEF808004FF480604CF8080C08689D
:103A200040F2004340F0020008600868C4F202035C
:103A300040F00200086008680A2540F002000860B3
:103A40001A68DC68012060F38F3260F38F341A60EB
:103A5000DC605A68052642F080025A609A68CAF211
:103A60002A0522F440429A6080229A621A68DC6831
:103A700060F38B2260F38B241A60DC605A68C5F215
:103A8000150642F020025A609A6822F440629A6059
:103A900020229A621A68DC6860F3114260F31144D4
:103AA0001A60DC6058684FF60F7440F480705860FC
:103AB000986820F4403098604FF48070986288686D
:103AC00040F001008860086840F004000860086861
:103AD00040F008000860086840F0100008600868BE
:103AE00040F020000860086840F04000086040F6A0
:103AF0000400C4F20200C169026AA1434CF60C44FE
:103B00002143C1610262D3F80014826841F0A2012E
:103B100042F0510221F0510122F0A202C3F8001438
:103B200082600168CC2421F00D010160416841F000
:103B3000A20121F05101416040F60841C4F20201A6
:103B40008A69CB6964F307024FF20004C0F2FF04F4
:103B5000234040F6CC44CCF6004423438A61CB6139
:103B6000D0F8FC234C684FF6F073C0F6C0731A40CF
:103B70001C402A433443C0F8FC234C60D0F8002496
:103B80004CF20374A243C0F8002408684FF62444A2
:103B90001840284308604FF62040CFF6FF705EF8CB
:103BA0000020CFF6FF7402F47F4242F0CC1242F0C4
:103BB0004C425EF804504EF800204FF0CC304FF6E7
:103BC0000C424EF80400CFF6FF72D1F8F8035EF80D
:103BD00002404AF60A2545F2055600F0F00004F0CE
:103BE000F004CAF6AA25C5F2555628433443C1F855
:103BF000F8034EF80240D1F8FC034FF6F3729043FD
:103C0000C1F8FC03D1F800044CF6CC4400F0F000FD
:103C10002843C1F80004DCF8001040F6CC40DCF882
:103C20000420C0F2CC0060F31701C0F20C0441F490
:103C3000404164F31F32CCF80010CCF80420DEF8C9
:103C40000010DEF80C204FF20004C0F23F0440F6F2
:103C5000AA2540F2555621402240CAF68025C5F2D9
:103C6000405629433243CEF80010CEF80C20DEF83F
:103C700004104FF63F029143CEF80410DEF80820FE
:103C800041F6240622402A43CEF80820DCF800241E
:103C90004FF20004C4F20206CFF6007435682240E9
:103CA000104303F57C122A4042F0404242F00C02DD
:103CB000CCF800043260DCF8E003DCF8EC234FF2CF
:103CC000C003C3F6FC7340F62A2640F2155518408F
:103CD0001A40C8F20206C4F2010530432A43CCF868
:103CE000E003CCF8EC23DCF8E40348F2371290430D
:103CF000CCF8E403DCF8E80340F2581218403043F3
:103D0000CAF20002CCF8E8034FF4347042F8180C01
:103D10006FF0704042F8100C002042F8080C42F896
:103D2000040C906243F6DB50042142F8180C45F273
:103D30006140CFF6FF71C0F2111042F8100C084636
:103D400013689B0644BF13685FEA83630AD5136850
:103D50009B0644BF13685FEA836303D5002800F124
:103D60000400EDD1112042F8080C49F60070C0F2B1
:103D7000240070F10100FCD1084613689B0644BF83
:103D800013685FEA83630AD513689B0644BF136810
:103D90005FEA836303D5002800F10400EDD112200F
:103DA00042F8080C084613689B0644BF13685FEA94
:103DB00083630AD513689B0644BF13685FEA836375
:103DC00003D5002800F10400EDD1F32042F8080CDF
:103DD000084613689B0644BF13685FEA83630AD5ED
:103DE00013689B0644BF13685FEA836303D500280A
:103DF00000F10400EDD146F21400C0F2040042F8D4
:103E0000080C52F8040C40F2953363F34D0042F86D
:103E1000040C1068800644BF10685FEA80600AD511
:103E20001068800644BF10685FEA806003D50029EF
:103E300001F10401EDD140F2000040F20402C2F2AF
:103E400000000021C2F200020170117040F208026D
:103E5000C2F2000211700121017070BD2DE9F04124
:103E600002464DF2A8304FF40773C2F2000002FB85
:103E700003F7C759032F08BFBDE8F08143F6200CB4
:103E8000884612FB0306C4F2020C0021002A71606E
:103E9000B160F16031617161B16100F08E80012A21
:103EA00040F08A80DCF8100040F6000140F0040089
:103EB000CCF81000C4F202010868CF68012363F354
:103EC000196063F319670860CF604868072520F41C
:103ED00080504860886863F3196088604FF48050B0
:103EE0008862086A4F6A086265F30B274F62086AA6
:103EF0004F6A086265F30F374F620868CF68022582
:103F000065F3155063F315570860CF60486820F4D7
:103F100080604860886820F4401088600868CF6836
:103F200065F3975063F397570860CF6048684EF683
:103F30000C5340F4006048608868CEF2000320F41F
:103F400040008860186800F4E060B0F5E06F1CD0B5
:103F5000186800F4E060B0F5C06F16D0186800F47F
:103F6000E060B0F5A06F10D0186800F4E060B0F524
:103F7000806F0AD0186800F4E060B0F5407F1EBF83
:103F800040F20050C0F2FA5018604EF22640CEF2D5
:103F900000000021417044F20040C4F2000044F6E9
:103FA0000C0700F58065C4F200076FF480214FF420
:103FB000802380248EE000BFFEE7DCF8101040F67E
:103FC000000341F00801CCF8101040F60441C4F29F
:103FD0000203C4F20201D3F800548C68012767F38E
:103FE0008F3567F38F34C3F800548C600D68072059
:103FF00025F080050D604D6867F38F354D60802595
:104000004D62CD690C6A60F31755CD610C62CD69C4
:104010000C6A60F31B65CD610C62D3F800048D68F7
:10402000022464F38B2067F38B25C3F800048D60B2
:10403000086820F020000860486820F4406048606C
:10404000D3F800048D6864F30D3067F30D35C3F8C1
:1040500000048D6008684EF60C5340F04000086084
:104060004868CEF2000320F440504860186800F41D
:10407000E060B0F5E06F1CD0186800F4E060B0F5C7
:10408000C06F16D0186800F4E060B0F5A06F10D0D3
:10409000186800F4E060B0F5806F0AD0186800F48A
:1040A000E060B0F5407F1EBF40F20050C0F2FA5011
:1040B000186044F200454EF22640C4F20005CEF2EC
:1040C00000000021017005F10C076FF400314FF47E
:1040D000003340244EF20410CEF200000460DCF8FD
:1040E00020001843CCF82000DCF800001843CCF87E
:1040F0000000DCF800000840CCF8000038681146E9
:1041000040F0080038603868424640F004003860EB
:1041100043F6B440C0F60200FCF7F4F938684146B3
:1041200020F40050386028461DF0CAFF386840F47B
:1041300000503860386840F020003860032030605C
:10414000BDE8F0812DE9F0474DF6CC15C2F200052F
:104150002A788846532A06463CD02846A821FDF7EF
:104160005CFC03202861686144F6F7214DF68C70F1
:10417000C0F60201C2F20000A961E8614FF480605C
:1041800028620020A8626862E86229664DF67C71A8
:10419000C2F2000169661021A96653212867E8660A
:1041A0006867BFF35F8F2970452147226970AA7045
:1041B000EA702971522120226971AA71E971542192
:1041C00029726972A872E87228736873A873E87319
:1041D000BFF35F8F06EB460005EBC00AD14659F8E6
:1041E000707F59F8044CA7421DD9DAE91910C51B94
:1041F000A0EB0700B0FA80F018BF0125460939444A
:1042000040462A46FEF7ACF8DAF8680079190F1A2A
:1042100018BF0F46E01BB04238BF064656B985B9F5
:104220000020BDE8F087E01B012828BF01204FF0E7
:10423000000540B1DAF86400C05D013708F80500F8
:104240000135C9F800702846BDE8F087F0B581B0A7
:104250004DF699626FF07F04EFF311874FF0200164
:1042600081F31188C2F200020346051995F88060B7
:104270001119002E5CD081F8886095F88160002EBD
:104280005AD081F8896095F88260002E57D081F865
:104290008A6095F88360002E54D081F88B6095F881
:1042A0008460002E51D081F88C6095F88560002ED6
:1042B0004ED081F88D6095F88660002E4BD081F845
:1042C0008E6095F88760002E48D081F88F6095F851
:1042D0008860002E45D081F8906095F88960002EA6
:1042E00042D081F8916095F88A60002E3FD081F825
:1042F000926095F88B60EEB381F8936095F88C60CE
:10430000DEB381F8946095F88D60CEB381F8956046
:1043100095F88E60BEB381F8966095F88F50ADB376
:104320001033103481F897509FD1111988312FE044
:10433000883105F180032BE00133893128E0023315
:104340008A3125E003338B3122E004338C311FE0C6
:1043500005338D311CE006338E3119E007338F3180
:1043600016E00833903113E00933913110E00A333D
:1043700092310DE00B3393310AE00C33943107E0B6
:104380000D33953104E00E33963101E00F33973150
:10439000181AD07108460E2100F00AFB87F3118825
:1043A00001B0F0BD704700002DE9F04F81B04EF232
:1043B000180C4DF65007CEF2000CC2F2000700BFF9
:1043C000D7E90023DCF80010D7E900655D405640CE
:1043D0002E431DD0D7E90023DCF80010D7E9006593
:1043E0005D4056402E4313D0D7E90023DCF800107F
:1043F000D7E900655D4056402E4309D0D7E9002338
:10440000DCF80010D7E900655D4056402E43D7D157
:1044100043F6040E4DF29025C4F2020EC2F20005DE
:104420005CF8044C5CF8047CD5E90098DEF8045094
:10443000C5F3810642F20045022EC0F2F40506D013
:10444000012E24D147F64005C0F27D151FE00090F3
:10445000DEF800A0DEF800600AF03F0AC6F3881B11
:10446000DEF80060DEF80000C6F30146400247F6C1
:104470004000C0F27D1058BF2846B0FBFAFA022572
:1044800005EB46050AFB0BF60098B6FBF5F5013483
:10449000791A63430131E2FB041319EB0104DEF8DE
:1044A000041048EB0306C1F3031243F6D321C0F610
:1044B00002018A5CDEF80410DEF804105CF8081CC7
:1044C00025FA02F2490758BFD208A2FB00014FF4B7
:1044D0007A720023FDF7A2FF0019714101B0BDE817
:1044E000F08F00004DF65000C2F20000D0E900123B
:1044F000013142F10002C0E90012704782B04EF66D
:104500008851CEF200010A6843F6080042F47002B6
:10451000C4F202000A6050F8081C41F0010140F8A2
:10452000081C50F8081C89070CD450F8081C89078F
:104530005CBF50F8081C5FEA817103D450F8081C76
:104540008907EED5016801F00C01082940F0C2800E
:1045500000210191019A4F2A18D800BF019A013217
:104560000192019A4F2A11D8019A01320192019ABF
:104570004F2A0BD8019A01320192019A4F2A05D88D
:10458000019A01320192019A502AE7D302680092FF
:10459000009A22F0F0020092009A42F0800200920B
:1045A000009A0260019101994F2917D801990131B0
:1045B000019101994F2911D8019901310191019976
:1045C0004F290BD801990131019101994F2905D843
:1045D00001990131019101995029E7D301680091B6
:1045E000009921F0F0010091009941F090010091B3
:1045F0000099016000210191019A4F2A18D800BF4B
:10460000019A01320192019A4F2A11D8019A01327E
:104610000192019A4F2A0BD8019A01320192019A14
:104620004F2A05D8019A01320192019A502AE7D304
:1046300002680092009A22F0F0020092009A42F082
:10464000A0020092009A0260019101994F2917D8A7
:1046500001990131019101994F2911D80199013135
:10466000019101994F290BD80199013101910199CB
:104670004F2905D801990131019101995029E7D3BA
:1046800001680091009921F0F0010091009941F03A
:10469000B0010091009901600021019101994F2919
:1046A00018D800BF01990131019101994F2911D802
:1046B00001990131019101994F290BD801990131DB
:1046C000019101994F2905D8019901310191019971
:1046D0005029E7D3016821F0030101600021019115
:1046E000019A12097C2A1BD8019A01320192019A7F
:1046F00012097C2A14D8019A01320192019A1209F6
:104700007C2A0DD8019A01320192019A12097C2A61
:1047100006D8019A01320192019AB2F5FA6FE3D3F9
:1047200050F8082C4FF6FF73CFF6F6631A4040F8A6
:10473000082C50F8082C22F4802240F8082C016044
:10474000026843F21002C2F2004240F8042C4160B9
:1047500050F8081C41F4A02140F8081C826B47F275
:10476000040142F08052C4F20001826351F8042C2B
:1047700042F4404241F8042C02680260026842F4AC
:1047800000420260026842F4A052026047F6190239
:10479000C0F6402240F8042C50F8082C42F08072F9
:1047A00040F8082C50F8082C92010CD450F8082C32
:1047B00092015CBF50F8082C5FEA821203D450F8D3
:1047C000082C9201EED551F8042C42F4803241F8C5
:1047D000042C0A68D20309D40A68D2035CBF0A68B1
:1047E0005FEAC23202D40A68D203F2D551F8042C2F
:1047F00042F4003241F8042C0A68920309D40A6892
:1048000092035CBF0A685FEA823202D40A689203AC
:10481000F2D501680191019921F0030101910199FB
:1048200041F002010191019901600168090709D471
:10483000016809075CBF01685FEA017102D4016881
:104840000907F2D502B0704770470000F0B5A9B073
:104850004DF66006C2F20006307818B16FF0020023
:1048600029B0F0BD4BF6402719A8C2F2010700217C
:104870001690386844F648321791189116ADC0F674
:10488000020201A940F2031300950AF0FDF9002885
:1048900020D44DF29824C2F2000405202070204656
:1048A0000A21FEF73DFB396801AD608108462946C3
:1048B00022460C230BF0D6F83968044608462946F0
:1048C00009F03AFB0C2C09D1B0F1FF3F06DD0020C6
:1048D00029B0F0BD4FF0FF3029B0F0BD012030709D
:1048E0006FF0010029B0F0BD70B592B04EF23856AD
:1048F000C2F20006B06B07A9069006A8FCF736F9CD
:1049000038B1DDE90B01032801F26C7303D21BA55A
:1049100011E0002416E0C11E032901D218A50AE007
:10492000811F032901D217A505E0093817A516A193
:10493000032838BF0D4603AC15A220460C21009574
:10494000FBF702FEB6F8400043F6AE21C0F60201C6
:1049500043F6BA26CDE900014DF6401044F23C0280
:10496000C0F60206C2F20000C0F602028021234611
:104970000296FBF7E9FD12B070BD00BF49000000D0
:104980004949000049494900495600005F000000BC
:104990002564202573000000704700000020FEF70A
:1049A00067BF00000120FEF763BF0000FEE70000C4
:1049B0002DE9F04F83B04DF67428C2F2000898F844
:1049C0000020002A00F0E98041F204094DF68C2B0A
:1049D0004DF678260D460446022ACEF20009C2F2B0
:1049E000000BC2F2000640F083804DF6942AC2F21A
:1049F000000ADAF8000001218DF8001080286946CD
:104A000021D340F08002B0F5804F4FEAD0138DF8EB
:104A100001201AD343F08002B0F5001F4FEA903313
:104A20008DF8022013D343F08002B0F1805F4FEA8B
:104A300050538DF803200CD343F080034A1D000F20
:104A40008DF8043007E04A1C05E08A1C02E0CA1C0D
:104A500000E00A1D1846134603F8010BD9F8007050
:104A6000DBF80000381A802829D3B64640F08006CB
:104A70005670C609B0F5804F02F1020C18D346F00B
:104A800080039370860BB0F5001F02F1030313D36C
:104A900046F08006D670460DB0F1805F02F1040C3E
:104AA00006D346F080031371000F531D624605E0E4
:104AB0001A463046634601E0624630467646187034
:104AC0003078521A0232FBF73BFC38B198F80000FC
:104AD000CBF80070013888F8000006E0DAF8000032
:104AE000411C98F80000CAF80010C0B2012854D147
:104AF0004DF69961C2F20001172D02D801F8065F48
:104B00000EE0601A0738802806D3C20940F0800002
:104B100001F8050F4A7001E001F8060F01F8015D88
:104B2000D9F80050DBF80000281A802826D340F07E
:104B30008003224602F8013BB0F5804F4FEAD013C4
:104B400015D343F080026270B0F5001F4FEA903237
:104B500010D342F08002A270B0F1805F4FEA505251
:104B60000AD342F08002E2700434000F06E01446DB
:104B7000184603E0023400E0033410462070307819
:104B8000621A0132FBF7DCFB10B1CBF8005004E0F5
:104B900098F80000013088F800004DF69824C2F221
:104BA000000420784DF6CC1200EB4001C2F2000266
:104BB00002EBC101CA6E096F8A4200F0FC814DF61A
:104BC0008025C2F200052978002940F0F4810121F6
:104BD00029700DF10B01FFF7B5FA002800F0E9810B
:104BE0009DF80B00411E062959D8DFE811F0070097
:104BF0006800BA00E2017F00A700E201012088F806
:104C000000004DF67820EFF311844FF0200181F37E
:104C10001188C2F20000007843F6A42141F6004753
:104C2000C0F602010A22C0F64E67FBF789FB4DF67B
:104C30009969C2F2000984F31188EFF311864FF0ED
:104C4000200181F3118809F1070420460A21FFF7AA
:104C5000AFFE4DF6842086F31188EFF311884FF0F4
:104C6000200181F31188C2F2000001780029084672
:104C70001CBF41F60040C0F64E60012940F0A48000
:104C8000802189F8071041EAD01241EA903189F871
:104C9000091009F10A01400D89F8082095E07F28E4
:104CA00000F08781802804D040B2B0F1FF3F00F3CC
:104CB000808120780DF10B01FFF744FA79E1EFF3E1
:104CC00011844FF0200181F3118898F8000050B151
:104CD0004DF69960C2F2000007300B21FFF768FE25
:104CE000002088F8000084F3118862E14DF68420EA
:104CF000EFF311844FF0200181F31188C2F200001C
:104D0000017841F6004000290A461CBF41F60042E6
:104D1000C0F64E6201294DF69961C0F64E60C2F2AE
:104D2000000140F07D808023CB7143EAD21743EA33
:104D300092330F724B720A31520D72E0EFF311840D
:104D40004FF0200181F311884DF69960C2F2000006
:104D50000021C17108301B21FFF72AFE84F311885E
:104D600027E141F20400CEF200000268EFF3118463
:104D70004FF0200181F311884DF69960802AC2F22C
:104D80000000C0F0E58042F08001C171B2F5804FB3
:104D90004FEAD211C0F0E18041F080010172B2F51A
:104DA000001F4FEA9231C0F0DD8041F08001417276
:104DB000B2F1805F4FEA5251C0F0D68041F08001DD
:104DC00081720B30120FD1E021464DF68822C2F2DB
:104DD000000213780A46002B08BF1F46012B02F879
:104DE000010B0CD1802040EA973201F8032F01F823
:104DF000020C40EAD7107F0D4A1C01F8010C4DF659
:104E00009020C2F200000078177001284FF00002D5
:104E100032D14FF08033881DC1F8023001212DE0DE
:104E200007314DF68823C2F200031F780B46002F8E
:104E300008BF3846012F03F8012B0CD1802242EA2B
:104E4000903301F8033F01F8022C42EAD012400DE2
:104E50004B1C01F8012C4DF69022C2F20002127890
:104E60001870012A4FF0000253D14FF08033881D93
:104E7000C1F8023001214EE0881C002100F8021B1D
:104E8000182100F8012CFFF793FD4DF67C20C2F2AB
:104E9000000088F31188006858B144F29430C0F6DD
:104EA0000200FFF7D3F944F6EA20C0F60200FFF74C
:104EB000CDF941F20400CEF200000068EFF3118753
:104EC0004FF0200181F3118880285AD340F08001EF
:104ED00089F80710B0F5804F4FEAD0113AD341F06E
:104EE000800189F80810B0F5001F4FEA903136D3E1
:104EF00041F0800189F80910B0F1805F4FEA50510C
:104F00003CD341F0800109F10B04000F89F80A102D
:104F100037E0881C002100F8021B182100F8012C42
:104F2000FFF746FD4DF67C20C2F2000084F31188A5
:104F3000006800283DD044F29430C0F60200FFF72C
:104F400085F944F6EA20C0F60200FFF77FF930E069
:104F500007300BE009F1080412E0083005E009F120
:104F600009040DE0093000E00A300A4600F8012B80
:104F70000C21FFF71DFD84F311881AE009F10A04E2
:104F8000084604F8010B20460C21FFF711FD87F3BA
:104F90001188EFF311844FF0200181F31188002074
:104FA00089F8070009F108001B21FFF701FD84F3D0
:104FB00011880020287003B0BDE8F08F4EF60C5029
:104FC000BFF34F8FCEF200000168042201F4E061CC
:104FD000C0F2FA5211430160BFF34F8F00BF00BF10
:104FE00000BF00BFFAE7000080B544F29430C0F67D
:104FF0000200FFF72BF944F6EA20C0F60200BDE8F4
:105000008040FFF723B900000021B0F5004FC8BF72
:10501000012108467047000010B542F66E71C0F6D7
:1050200002010446FBF764FD68B142F67271C0F6F6
:1050300002012046FBF75CFD01460020002908BF65
:1050400048F2030010BD48F2020010BD2DE9F04304
:1050500081B0154648F20202904240F0FF804DF6C2
:10506000CC19C2F2000999F800000E4653285AD014
:105070004846A821FCF7D1FC0320C9F81000C9F864
:10508000140044F6F7214DF68C70C0F60201C2F20E
:105090000000C9F81810C9F81C004FF48060C9F866
:1050A00020000020C9F82800C9F82400C9F82C0005
:1050B000C9F860104DF67C71C2F20001C9F86410A5
:1050C0001021C9F868105321C9F87000C9F86C00A4
:1050D000C9F87400BFF35F8F89F80010452147229B
:1050E00089F8011089F8022089F8032089F8041052
:1050F0005221202289F8051089F8062089F8071026
:10510000542189F8081089F8091089F80A0089F8EB
:105110000B0089F80C0089F80D0089F80E0089F859
:105120000F00BFF35F8FEFF311884FF0200181F381
:105130001188D9F82C0002280CD0012838D000287A
:1051400040F08A80D9F82440D9F82800A0423AD902
:10515000E1433CE0D9F8244021E000BFD9F8200029
:10516000E24311440144071BB94238BF0F46D9F846
:105170001C00AF4228BF2F46204431463A46FDF777
:10518000EFF8D9F820003919ED1B0C1A3E4418BF6E
:105190000C46002DBFF35F8FC9F824405CD0D9F8CE
:1051A0002810A142DAD9E243D9F820001144DAE705
:1051B000D9F82440D9F82810A1421AD9E243D9F8E5
:1051C000200011441AE0D9F82010E24310440844AA
:1051D000A84241D3D9E90710071BAF4201EB0400F5
:1051E0002BD931462A46FDF7BBF8BFF35F8F254424
:1051F00030E0D9F82000E24311440144A94238BF0D
:105200000D46071BD9F81C00BD42204407D2314689
:105210002A46FDF7A5F8BFF35F8F25441AE0314613
:105220003A46FDF79DF8ED1BD9F81C00F1192A4606
:10523000FDF796F8BFF35F8F0CE031463A46FDF775
:105240008FF8ED1BD9F81C00F1192A46FDF788F8F4
:10525000BFF35F8FC9F8245088F31188002001B094
:10526000BDE8F08310B540F66414C2F20004214694
:105270001DF0FFFD2046BDE81040FBF73ABB0000E3
:105280002DE9F04F81B04BF63420C2F201000468E2
:10529000002C00F030814EF220694BF6D81A4BF604
:1052A000D417C2F200090026C2F2010AC2F20107B5
:1052B00004E000BF2468002C00F01D81D4F844B045
:1052C000BBF1000FF6D004F132080AE0072908BF4D
:1052D0005FEA004000F0BA80DBF800B0BBF1000FDD
:1052E000E8D09BF80C0000281CBF01388BF80C009C
:1052F000BBF80A0000281ABF0138ABF80A000020EA
:105300009BF808104A1E022A24D3CA1E022ADDD2A4
:105310000004E1D19BF8090020B904208BF80800B3
:105320008BF80D600BF10401204601F0C9FF9BF8DA
:10533000090014210130ABF80A10C1B202298BF820
:105340000900C9D3DBF810200520CBF8080020465F
:10535000002181E00004BFD102208BF808003C202E
:1053600013F05CF8002879D005464FF01C11A960B5
:1053700080212130C0F2010120F00300E9604FF4E8
:105380008071C5E90060C180D8F800108160B8F86C
:105390000410C6828181C0F81260C0F80E60DBF88C
:1053A0000410816140F20011C0F20801016040F276
:1053B0000641818029894FF6F17081420BD895F919
:1053C0000C00B0F1FF3F06DC686805F11003A0F1A6
:1053D0000E029A4274D2B9F80A000130A9F80A0004
:1053E000B9F818000130A9F8180002E001698847EF
:1053F000CDB3A97B01390A06A97334D1697B28464C
:105400002D688907F2D4017B11F00F0110D001291A
:1054100011D00229ECD14BF64813C2F201031989CD
:10542000DAF80020013919810260CAF80000DFE7CC
:1054300012F072FFDCE74BF63813C2F20103198950
:105440003A680139198102603860D1E7DBF8102031
:105450008BF808602046012190473DE7B9F8240009
:105460000130A9F824009BF809000130C1B20329DA
:105470008BF8090005D30320C0F21400CBF8080014
:105480002AE794F8352094F8375094F83410120431
:1054900094F8363042EA056242EA0121194451FA91
:1054A00080F04CF6CD41CCF6CC41A0FB0112D108E6
:1054B00001EB8101A0EB41000A30ABF80A000BE7D9
:1054C0000E316B8929814FF4C1610E3320F8021C23
:1054D0004FF0FF316A606B8191801160D8F8001045
:1054E00040F8081CB8F8041020F8041CA2692046F3
:1054F0002946904774E701B0BDE8F08F70B582B0DF
:10550000D8B3416A0446D1B38A6A00204882501C4D
:1055100048F68900C8F688000CD01E32A2FB002392
:105520005A094FF6FF76B24238BF5E09002E08BF17
:1055300001268E82CA6A531C0DD01E32A2FB0023A4
:105540005A094FF6FF76B24238BF5E09002E08BFF7
:1055500001264E81CE810A6B531C16D01E32A2FB4F
:10556000000253094FF6FF70834238BF50090028EC
:1055700008BF01208881088208E02CA000E025A057
:1055800002B0BDE87040FAF7BDBF88894A8901388A
:1055900080B290423CBF00204881C879C00706D144
:1055A00091F91C00B0F1FF3F03DDFF2508E00D6A13
:1055B00006E0C0B24FF6FF75BF2888BF6FF07F4589
:1055C00048790A2804D00A20A1F8050000200881A3
:1055D0004E6A51F81C0F60B1A06801AAA84218BF1A
:1055E000A560E068B042204618BFE66015F02AFBCF
:1055F0000AE001AA204615F025FBA068A84218BFC2
:10560000A560E068B04201D102B070BDE66002B0B2
:1056100070BD00BF646863705F62696E643A206445
:1056200068637020213D204E554C4C0064686370C7
:105630005F62696E643A206E6574696620213D2060
:105640004E554C4C00000000416A4A79082A04D0AB
:105650000822A1F8052000220A81CA6900238A6372
:10566000012281F840308A8790F8353090F834C0B4
:1056700090F8362090F837001B0443EA006040EAB7
:105680000C2010444CF6CD42CCF6CC42A0FB0223B9
:10569000DA0802EB8202A0EB4200C88770470000E4
:1056A0002DE9F04F83B04BF63420C2F201000468BC
:1056B000002C00F0EB814BF6D4184BF6481B4BF650
:1056C000D8194FF0010AC2F20108C2F2010BC2F26E
:1056D000010909E0204601F073F8204601F006FBBD
:1056E0002468002C00F0D281666A002EF8D0707910
:1056F0000028F5D0B18A29B1728A013293B28B4267
:105700007282E7D0318A21B101390A04318200F076
:105710008480F1890029E3D001390A04F181DFD1C5
:105720000A28DDD80AFA00F140F222421142D7D00D
:10573000052804D00520A6F8050000203081204669
:10574000314603220DF10A0300F09EFA002800F012
:105750007781BDF80A10054640684A1CF0303923AD
:1057600092B2022743548754228E8B1C9BB2170A95
:1057700001F1030CC7540B1D1FFA8CF7C2559AB2E6
:105780004B1D372787548A1D9BB20327C75492B2FB
:10579000CB1D00F802A09AB201F1080387549BB216
:1057A0001C27C75401F10A0301F109029FB21FFA35
:1057B00082FC432F4FF0FF07ADF80A2000F80C7071
:1057C00008D8C1F1390110FA83F01AFA81F1FCF717
:1057D00002F9432202F1F10081B2284615F07CFE65
:1057E0004EF2D440C2F200000068002800F0F180C0
:1057F0000168271D41B101F0F002E02A04D03A68A7
:105800000746914240F0EB8006F1180229464323F7
:10581000009401971BF0C6FEE1E00A283FF660AF56
:105820000AFA00F140F2324211423FF459AF042823
:1058300004D00420A6F8050000203081204631461F
:10584000032202AB00F020FA002800F09B80BDF894
:105850000810054640684A1CF030392392B20227EE
:1058600043548754228E8B1C9BB2170A01F1030C00
:10587000C7540B1D1FFA8CF7C2559AB24B1D372720
:1058800087548A1D9BB20327C75492B2CB1D00F8E0
:1058900002A09AB201F1080387549BB21C27C75497
:1058A00001F10A0301F109029FB21FFA82FC432FA2
:1058B0004FF0FF07ADF8082000F80C7008D8C1F1D0
:1058C000390110FA83F01AFA81F1FCF784F84322C7
:1058D00002F1F10081B2284615F0FEFD4EF2D440EF
:1058E000C2F200000068A8B10168271D39B101F0BB
:1058F000F002E02A03D03A680746914210D143F6FD
:1059000018322946C0F602024323009401971BF087
:1059100049FE05E044F2B550C0F60200FAF7F2FD88
:105920004BF63817C2F2010703E000BF0169884750
:1059300045B3A97B01390A06A97323D1697B28469F
:105940002D688907F2D4017B11F00F010ED00129D7
:105950000FD00229ECD1BBF80810D9F8002001398A
:10596000ABF808100260C9F80000E1E712F0D4FCBF
:10597000DEE73989D8F80020013939810260C8F89A
:105980000000D5E7B0795AFA80F1CAB28A4201D054
:10599000142013E04FF47A735A4340F2F31313FACE
:1059A00082F244F6D353C0B2C1F2620309284FF029
:1059B0001400A2FB0323B17138BF5809B18A728A5F
:1059C0003081891A0229FFF68BAE88B240083082F6
:1059D00086E644F2B550C0F60200FAF793FD4BF6A6
:1059E0003817C2F2010702E00169884745B3A97B75
:1059F00001390A06A97323D1697B28462D688907D6
:105A0000F2D4017B11F00F010ED001290FD0022931
:105A1000ECD1BBF80810D9F800200139ABF8081018
:105A20000260C9F80000E1E712F076FCDEE7398990
:105A3000D8F80020013939810260C8F80000D5E7A4
:105A4000B0795AFA80F1CAB28A4201D0282013E014
:105A50004FF4FA635A4340F2F31313FA82F244F616
:105A6000D353C0B2C1F2620309284FF02800A2FB51
:105A70000323B17138BF5809B189728A3081891AFC
:105A80000229A2BF88B24008F08129E603B0BDE830
:105A9000F08F00002DE9F04184B00229054618D0AE
:105AA000012908D0002940F0EB80284604B0BDE869
:105AB000F041FFF723BD686A41790C2904D00C211D
:105AC000A0F80510002101811421018104B0BDE876
:105AD000F08143F61438C0F6020803AA284641466E
