:020000040804EE
:1000000040060420D503040895B90408B5A30408E4
:1000100089B50408213B04080945050800000000D3
:10002000000000000000000000000000692B05082F
:10003000556304080000000045C50408553605084E
:10004000F3030408F3030408F3030408F3030408A8
:10005000F3030408F3030408F3030408F303040898
:10006000F3030408F3030408F3030408F303040888
:10007000F3030408F3030408F3030408F303040878
:10008000F3030408F3030408F3030408F303040868
:10009000F3030408F3030408F3030408F303040858
:1000A000F3030408F3030408F3030408F303040848
:1000B000F3030408F3030408F3030408F303040838
:1000C000F3030408F3030408F3030408F303040828
:1000D000F3030408F303040885400508914005086C
:1000E000F3030408F3030408F3030408F303040808
:1000F000F3030408F3030408F3030408F3030408F8
:10010000F3030408F3030408F3030408F3030408E7
:10011000F303040819400508F3030408F303040873
:10012000F30304088D590408F3030408F3030408D7
:1001300091590408F3030408F3030408F3030408C3
:10014000F3030408F3030408F3030408F3030408A7
:10015000F3030408F3030408F3030408F303040897
:10016000F3030408F3030408F3030408F303040887
:10017000F3030408F3030408F30304080000000079
:10018000F3030408F3030408F3030408F303040867
:10019000F3030408F3030408F30304080000000059
:1001A000F3030408F3030408F303040800F002F85F
:1001B00000F09CF80AA090E8000C82448344AAF165
:1001C0000107DA4501D100F091F8AFF2090EBAE863
:1001D0000F0013F0010F18BFFB1A43F0010318477B
:1001E000D4EC050034ED0500103A24BF78C878C17E
:1001F000FAD8520724BF30C830C144BF04680C602D
:10020000704700000023002400250026103A28BF74
:1002100078C1FBD8520728BF30C148BF0B60704778
:100220006E2900F0C587702900F03983662937F000
:100230002087652937F01D87672937F01A876129DC
:1002400037F0198703681B0A28BF41F0800169292C
:1002500000F0AA82642900F0A782752900F0A48228
:100260006F2901F0D382782900F00583E92901F094
:100270006D82E42901F06A82F52901F06782EF2995
:1002800001F0D082F82900F004830368DB0928BF5D
:1002900041F08001632901F0DC81732901F0E181E3
:1002A000E32901F08387F32901F088870020704754
:1002B0001FB537F058FE9DE8030000F0DFFE00F0A8
:1002C00020FC00F0BBFE04000020002136F096FE6A
:1002D000401C60600020002136F0A6FEE06001F0C6
:1002E0008BFC1FBD10B501F0F0FC10BD02F009F948
:1002F0001146FFF7DDFF26F05FFD02F038F903B489
:10030000FFF7F0FF03BC01F01FFD00000B49D1F81F
:1003100000C04A685CF8043B1068184442F8040BBB
:100320008C4528BFA1F1DC0C8A4228BFA1F1DC0278
:10033000C1F800C04A6020F000407047D82100207A
:10034000F0B400EB4003DFF8880000EBC30000F1DD
:1003500018063069F7687568874232D3B368DC1BCA
:10036000631E934214D37D19D01900BF11F8013BCD
:1003700005F8013B521E05D011F8013B05F8013B81
:10038000521EF3D1BFF35F8FF0600120F0BC7047C5
:10039000C018904219D37819121B11F8013B00F8CC
:1003A000013B641EF9D1141C05D011F8013B05F87E
:1003B000013B521EF9D1BFF35F8FF4600120F0BC06
:1003C0007047C01B401E9042CDD20020F0BC704749
:1003D000B43501200A4880470A4880470A48004748
:1003E000FEE7FEE7FEE7FEE7FEE7FEE7FEE7FEE7E5
:1003F000FEE7FEE705480649064A074B704700003E
:100400005936050859C50408AD0104084085032084
:1004100040060420408603204086032010B500F0EB
:100420000DFE001D10BD00BFD56B030070B5064664
:1004300000F000FE056806F10B0020F00704B4424E
:100440009CBF002070BD2B466A68BAB11068A042FC
:1004500010D304F1080188423CBF5068586007D3AC
:100460005168101941601168091B016058601460DF
:10047000101D70BD13465268002AE7D12146284658
:1004800000F0E8FD0028DED170BD70B50446051F00
:1004900000F0D0FD0068002C14BF446870BD002C33
:1004A00018BFAC423CBF20466468F8D301680A1804
:1004B000AA4218BF456003D12A680546114401606D
:1004C00028684119A1421CBF6C6070BD61686960F9
:1004D00021680844286070BD53EA020C00F069806E
:1004E0002DE9F04B4FF00006002B1FBFB3FA83F548
:1004F00003FA05F424FA05F65E4012BF1643B2FA79
:1005000082F502FA05F4C5F120051EBF22FA05FCAA
:1005100044EA0C04203556EA044C4FEA144418BF50
:10052000641C4FF000084FF00009904271EB030C7F
:1005300039D3002919BFB1FA81F701FA07F6B0FAE9
:1005400080F700FA07F6C7F120071EBF20FA07FC64
:1005500046EA0C062037B6FBF4FCA7EB0507103F74
:1005600007F01F0BCBF120062CFA06F60CFA0BFB5A
:1005700044BFB3460026202FA4BF5E464FF0000BB9
:100580005BEA060C08BF4FF0010B19EB0B0948EBB7
:100590000608ABFB027C06FB02CC0BFB03CCC01BAA
:1005A00071EB0C01C1E70B46024641464846BDE8E7
:1005B000F08B13B5084318BF4FF0FF300146AFF37F
:1005C0000080BDE81C40704753EA020C23D010B5F0
:1005D0004C1084EA530404D54042C1F1000138BFF5
:1005E000491E1B4204D55242C3F1000338BF5B1EB3
:1005F000FFF772FF14F0804F04D04042C1F10001B8
:1006000038BF491E14F0004F04D05242C3F100031A
:1006100038BF5B1E10BD13B540424FF0000070EBB9
:100620000104B8BF012001F0004100281CBF6FF099
:1006300000414FF0FF30AFF300801CBD10B5044601
:10064000FFF7ECFE0068005D000704D5DF2C02D048
:10065000A4F1200010BD204610BD00000A4601494B
:1006600001F004B8542000200FB4044910B503AAC7
:10067000029800F0FBFF10BC5DF814FB5420002032
:100680000FB41CB5084B06AA7B4469460090059838
:1006900000F0B5FF04460020694600F0C3FF204685
:1006A0001CBC5DF814FB0000990F00000FB47CB572
:1006B0000C0009AA009001D02044401E084B7B4446
:1006C00069460190089800F09AFF05461CB1002089
:1006D000694600F0A7FF28467CBC5DF814FB0000CB
:1006E0006D0F000070B5044685690068C10601D52C
:1006F000302600E02026C00707D070BDD4E90121D4
:1007000030469047206A401C20626D1EF6D570BDB1
:1007100070B5044685690078C00707D170BDD4E97B
:10072000012120209047206A401C20626D1EF6D5D2
:1007300070BD09684A0501D540B27047C905FCD5AE
:1007400000B2704709684A0501D5C0B27047C905B3
:10075000FCD580B2704770B50C460546012A05D01D
:100760002878800600D5EA69002302E0012305E02D
:100770005B1C934202D2E05C0028F9D1A869E6181C
:10078000C01AA861286A184428622846FFF7AAFF01
:1007900004E0D5E9012114F8010B9047B442F8D3E5
:1007A0002846FFF7B5FF70BD2DE9F041064600244D
:1007B00010687529314616A510D0FFF7BAFF00283A
:1007C00002DA404213A507E031688A0701D512A575
:1007D00002E0490704D511A5012401E0FFF7B2FFAB
:1007E00000210A2206F1240709E0B0FBF2FCB0FB6D
:1007F000F2F302FB1C00303078541846491C0028E4
:10080000F3D123462A463046BDE8F04100F077BCDC
:10081000000000002D0000002B0000002000000060
:10082000F0B40D460188090502D5214C7C4402E054
:100830001F4C7C440E34002100F1240608E002F035
:100840000F071209E75D42EA03721B097754491C3E
:1008500052EA0307F3D102780023120704D5702D62
:1008600006D009B1022311342246F0BC00F047BC87
:1008700001231034F8E770B504460D462146106890
:10088000FFF760FF024629462046BDE8704000237E
:10089000C6E7D21D22F00703D3E90023C0E70368AF
:1008A000126843F0200303600823C3610023B7E705
:1008B000567803002DE9F05F894604464FF0000AA0
:1008C000DFF874B1FB44C0F820A02046E1688847F7
:1008D000002874D0252806D0D4E901219047206A49
:1008E000401C2062F1E700265F462046E168884709
:1008F0002028054607DB312D05D2781910F8200C89
:1009000008B10643F1E7B00701D526F00406C4F8A4
:100910001CA00027C4F818A02A2D09D0284636F0BC
:1009200059FB38B304EB8708303DC8F8185019E07C
:1009300059F8041B204604EB87029161E16888475F
:10094000012F054618D1E069002820DA26F020069C
:100950001DE0D8F8180000EB800005EB40003038AF
:10096000C8F818002046E1688847054636F032FB93
:100970000028EED1012F0AD02E2D08D12046E168A3
:1009800088477F1C0546022F46F02006C4DBA0697D
:10099000002803DA404246F00106A061F00701D0CA
:1009A00026F010066C2D0BD0682D09D04C2D39D0B7
:1009B0006A2D35D0742D35D07A2D33D016E038E03D
:1009C000E1682F4620468847B842054609D16C2F7A
:1009D00026D04FF48060E1680643204688470546EC
:1009E00004E06C2F1AD04FF4807006430DB3A5F1CC
:1009F0004100192802D8203546F400664A462946A7
:100A0000204626604E46FFF70BFC80B101280BD034
:100A1000F61D26F0070000F1080956E74020E4E73C
:100A20008020D8E70020D6E706F104094DE72846E4
:100A300052E7206ABDE8F09FE677030070B50446F0
:100A4000C068810713D0800601D5A56A04E0A169BA
:100A5000606808442169451A204601F089F800229F
:100A600006462946204600F0D3FF304670BD0020E0
:100A700070BD70B510B1BDE87040DFE70025074CD0
:100A80006E1E07E02046FFF7D9FF00B13546206D06
:100A900020F00104002CF5D1284670BD0020002074
:100AA000014936F09EBA00005420002010B50446DB
:100AB00003E036F096FA401C09D014F8010B054902
:100AC0000028F6D1BDE810400A2036F08ABA4FF06F
:100AD000FF3010BD542000200B4910B5A1F17C025D
:100AE0000A4CC2E93712372106E000EB104342F806
:100AF0002130074B00FB03400B1EA1F10101F4DC88
:100B000010BD0120E8E7000078210020E119D66639
:100B1000CD0D01000EB5054614460E4613A001F09A
:100B2000E3FC284601F0E0FC16A001F0DDFC3046B5
:100B300001F0DAFC15A001F0D7FC00218DF80B10B4
:100B40000A210DF10A008DF80A1008E094FBF1F279
:100B500001FB124294FBF1F4303200F8012D002C1D
:100B6000F4DC01F0C1FC01F0E3F800002A2A2A209D
:100B7000617373657274696F6E206661696C656418
:100B80003A2000002C2066696C6520002C206C69DE
:100B90006E65200030B503461D781DB10A4603E09E
:100BA000AC4201D1181A30BD12F8014B002CF7D11C
:100BB0005B1CF1E730B503461D783DB10A4612F8DB
:100BC000014B1CB1AC42FAD15B1CF5E7181A30BDE1
:100BD00040EA010310B59B070FD1042A0DD310C8BA
:100BE00008C9121F9C42F8D020BA19BA884201D90C
:100BF000012010BD4FF0FF3010BD1AB1D30703D054
:100C0000521C07E0002010BD10F8013B11F8014B09
:100C10001B1B07D110F8013B11F8014B1B1B01D125
:100C2000921EF1D1184610BD10B5431C02E010F819
:100C3000011B71B18107FAD14FF0013202C88C1A41
:100C40008C4314EAC211F9D0C01A0A0603D0C01EA0
:100C500010BDC01A10BD0A0401D0801E10BD0902CB
:100C6000FCD0401E10BDCBB22AB101788B4203D01C
:100C7000401C521EF9D10020704740EA010370B5B4
:100C80009B072ED14FF00136042A2AD308C810C979
:100C90009D1B9D43121F15EAC61517D0D8B2E1B2AD
:100CA000401A50EA056110D198B2A1B2401A50EA38
:100CB00005410AD123F07F4024F07F41401A50EAD9
:100CC000052102D1180EA0EB146070BDA342DBD049
:100CD00018BA21BA884201D9012070BD4FF0FF3007
:100CE00070BD0AB9002070BD10F8013B11F8014B2E
:100CF00063B1A3420AD1521E08D010F8013B11F88B
:100D0000014B1BB1A34201D1521EEDD1181B70BD86
:100D1000032A40F2308010F0030C00F0158011F827
:100D2000013BBCF1020F624498BF11F801CB00F8FF
:100D3000013B38BF11F8013BA2F1040298BF00F853
:100D400001CB38BF00F8013B11F0030300F0258010
:100D5000083AC0F0088051F8043B083A51F804CB37
:100D6000A0E80810F5E7121D5CBF51F8043B40F8FD
:100D7000043BAFF30080D20724BF11F8013B11F808
:100D800001CB48BF11F8012B24BF00F8013B00F84C
:100D900001CB48BF00F8012B704710B5203AC0F0D6
:100DA0000B80B1E81850A0E81850B1E81850A0E83E
:100DB0001850203ABFF4F5AF5FEA027C24BFB1E8D7
:100DC0001850A0E8185044BF18C918C0BDE810401A
:100DD0005FEA827C24BF51F8043B40F8043B08BF23
:100DE0007047D20728BF31F8023B48BF11F8012BEA
:100DF00028BF20F8023B48BF00F8012B704702F0E3
:100E0000FF0343EA032242EA024200F002B84FF035
:100E100000020429C0F0128010F0030C00F01B80C7
:100E2000CCF1040CBCF1020F18BF00F8012BA8BFD5
:100E300020F8022BA1EB0C0100F00DB85FEAC17C99
:100E400024BF00F8012B00F8012B48BF00F8012B4C
:100E500070474FF0000200B513469446964620397D
:100E600022BFA0E80C50A0E80C50B1F12001BFF463
:100E7000F7AF090728BFA0E80C5048BF0CC05DF8C9
:100E800004EB890028BF40F8042B08BF704748BF17
:100E900020F8022B11F0804F18BF00F8012B70478B
:100EA00010B5044610F0030F08BF11F0030F40F017
:100EB00015804FF0013E121FC0F20E8051F8043B26
:100EC000A3EB0E0C2CEA030C1CEACE1C08BF40F866
:100ED000043BF0D0A1F1040102F10402521E08DB30
:100EE00011F8013B00F8013B002BF7D11146FFF749
:100EF0008EFF204610BD000030B44FF0013C50F88A
:100F0000042B51F8043BCCFA52F4D51A20D1FCB989
:100F100050F8042B51F8043BCCFA52F4D51A17D1EF
:100F2000B4B950F8042B51F8043BCCFA52F4D51A5A
:100F30000ED16CB950F8042B51F8043BCCFA52F4A2
:100F4000D51A05D1002CDAD030BC4FF00000704724
:100F500029BAB1FA81F111F01801D1F120008440D1
:100F6000F2D1CA40CB4012F0FF0213F0FF0330BCB5
:100F7000D01A704770B50C46016800204A1C3ED05C
:100F80003C22B1FBF2F302FB1313B1FBF2F123603D
:100F9000B1FBF2F302FB1313B1FBF2F11822636011
:100FA000B1FBF2F302FB1313B1FBF2F146F2E032B4
:100FB0000A440721A360B2FBF1F301FB132140F2C5
:100FC000B553B2FBF3F5A161B2FBF3F103FB1522BC
:100FD0008900B2F5B77F08D39B10521EB2FBF3F520
:100FE0002944B2FBF3F503FB15220F4BE26161616B
:100FF00089077B440CD03B2A0AD3521C08E02C21E1
:101000002046FFF726FF0120E0600AE0521A401C4C
:10101000195C9142FAD9521CC4E903204FF0FF3009
:101020002062204670BD00000271030070477047C7
:101030007047000000487047E821002000487047D2
:101040000022002000487047E021002070477047D0
:101050007047704738B504460A4600206946AFF32A
:101060000080002808BF38BD02460099204600F0E5
:1010700075FE012038BD012001F02EBAF8B5AFF39E
:101080000080054600200C46102000BF0646A81927
:10109000A0420DD9324669460020AFF30080070018
:1010A00008BF01F019FA0098A04218BF0546C419FC
:1010B000FFF7C0FF05600746F01D20F00700461946
:1010C000284600F00AF8B44208BFF8BDA21B31461A
:1010D0003868BDE8F84000F041BE00210160C0E979
:1010E000011070471020704710B5FFF7ABFF006884
:1010F00010BD10B50446FFF7A5FF046010BD2DE933
:10110000F0470D4699469246044600F124080168CE
:10111000880604D5E06921F01001216000E001207B
:10112000A84201DD471B00E00027A1697A1902EB04
:101130000900081AA0612078C00602D42046FFF7F3
:10114000D1FA002608E0D4E901211AF806009047F8
:10115000206A401C761C20624E45F4DB2078C006D5
:101160000AD52046FFF7BEFA06E0D4E90121302077
:101170009047206A401C2062381EA7F10107F4DC6A
:1011800007E0D4E9012118F805009047206A401CC7
:101190002062281EA5F10105F3DC2046FFF7B8FA0E
:1011A0002078000602D50220BDE8F0870120FBE789
:1011B00011680268006A530501D508700AE0D3057A
:1011C00001D5088006E0130603D5C217C1E9000265
:1011D00000E00860012070472DE9FF4F0C461E46D5
:1011E0004FF0FF378BB0D2E90001DDF860800A9044
:1011F0008A46C1F30A5505B93D46002108464FF01D
:101200000000BAF1000F00F4400005DA00EB8000A6
:101210004FF4400101EA50004FEA9059B9F1010F33
:1012200000DDB9460A9850EA4A000ED044F6105044
:10123000A5F2FF3545432F14B8F1000F1ED07542BB
:10124000291E1EDDC9F100021CE0B8F1010F4FF0AC
:10125000000001D0302103E0F24305E02154401C9E
:10126000B042FBDB30460022002121540B99C1F82B
:101270000880C1E900200FB0BDE8F08FBD1B6D1CD8
:10128000DEE74A4600DA694206A800F09BFF06AB9B
:1012900093E8070003AB83E8070050460A9934F04F
:1012A00058FE8DE80700A0F500501F380090039805
:1012B000002D0ADD42F21F014A460844002303A91B
:1012C0000390684635F0C2F809E0A0F500504A46A0
:1012D0001F38002303A90390684635F0CCF88DE849
:1012E00007000004000C03D04FF0FF30410800E07D
:1012F0001046B8F1000F03D00022009215461EE000
:10130000751E05D400F044FD303262556D1EF9D5CE
:10131000B3460122084302D000227F1C04E020785B
:10132000302801D100227F1E002A099784D01DE0B9
:10133000112D07DA00F02CFD303262556D1C50EA99
:101340000102F5D1084302D00098C8B10EE0002197
:10135000681E05E0235C625C63542254401E491CF5
:101360008142F7DBAB46A81B401E0990002004F821
:101370000B000B98099AC0F80880C0E9002B7AE7A7
:1013800011264FF0000857E72DE9F04F8846044634
:10139000D21D22F0070191B0D1E90001CDE90A0187
:1013A00035F0A0F902460B98C00F01D02D2007E0C0
:1013B0002068810701D52B2002E0202101EAC0002E
:1013C000032A099001D0072A05DB0346414620463F
:1013D00000F0A2FE0BE12078800601D5E06900E074
:1013E0000620B8F1650F814606D0B8F1660F18D017
:1013F000B8F1670F70D131E00020B9F1110F009002
:1014000001DB112301E009F101030AAA01A90CA8DB
:10141000FFF7E2FEDDE90C70002609F101058346C5
:1014200047E001204B4600904FF000470AAA01A96F
:101430000CA8FFF7D1FEDDE90DB00C995D46002642
:1014400010B909F101000D18B9EB050003D4C0F182
:10145000FF3609F10105A5EB09002BE0B9F1010FF9
:1014600001DA4FF001090020B9F1110F0090484650
:1014700001DD112300E003460AAA01A90CA8FFF729
:10148000ABFEDDE90C704D46002683462078000750
:101490000AD4AB4500DA5D4601A8012D04DD4119EF
:1014A00011F8011C302907D04F4502DA17F1040F5B
:1014B00004DA012082460FE06D1EEEE7002F02DC09
:1014C000ED1B3E4403E0781CA84200DD7D1CB81BE8
:1014D00000F1010A4FF000472078000703D4AA4525
:1014E00001DB4FF0FF3A0021B7F1004F0DF1430847
:1014F0008DF8431024D002202B23002F01DA7F42E5
:101500002D230A21021EA0F1010000DC5FB197FB30
:10151000F1FC97FBF1F201FB1C7C17460CF1300C3F
:1015200008F801CDEEE7A8F1010003702188090554
:1015300001D5452100E06521A0F1010800F8011C5A
:1015400009980FA9A1EB0807FF1D00B1012041195F
:1015500001EBEA70A1693844081A401EA0612078A6
:10156000C00602D42046FFF7BDF8099828B1D4E997
:1015700001219047206A401C20622078C00622D5B5
:101580002046FFF7AFF81EE0002E04DBB34502DD76
:1015900001A8805D00E03020D4E901219047206A55
:1015A000401C2062761CAAF101005FEA000A0AD101
:1015B000FFF744FDC0680168405CD4E90121904711
:1015C000206A401C2062281EA5F10105DCDC07E032
:1015D000D4E9012118F8010B9047206A401C2062D1
:1015E000381EA7F10107F3DC2046FFF791F803202E
:1015F00011B041E601694A1C02610878704700B5E4
:101600008FB0CDE901310021059105497944CDE93B
:10161000031011466846FFF74DF90FB000BD0000FA
:10162000E5FFFFFF0A6802F8010B0A607047D1E985
:1016300000239A4202D2531C0B601070704710B501
:10164000436913B1AFF3008001E0FFF784F8012094
:1016500010BD127800F124010A7000224A700122A4
:10166000EDE711684FF0FF32E9E70000074B70B576
:101670000D467B44FFF7C3FF0446284600F014FEE6
:1016800010B14FF0FF3070BD204670BD6D590300A2
:101690002DE9FF5F15468A460446DFF8AC80F84422
:1016A0000027D8E900103E46CDE9001010E03AF8D6
:1016B00016106A4602A800F0DDFE411C07D0217812
:1016C000890603D5E269391891420DD80744761C82
:1016D0002078800602D5E069B84205DDAE42E6DB3F
:1016E0003AF816000028E2D1A069C01BA06120468C
:1016F000FEF7F8FFD8E90010CDE90010002017E050
:101700003AF818106A4602A800F0B4FEB0F1FF3FA4
:1017100081460BD000250DF1080B05E0D4E901212D
:101720001BF8050090476D1C4D45F7D308F10100EB
:10173000B0428046E4DB206A384420622046FEF74F
:10174000E7FFBDE8FF9F00004E6A03002DE9F0416E
:101750008046D21D22F007020025D2E90002F529B9
:1017600015A614D0011E72F1000106DA0023D0EB99
:10177000030063EB020211A608E0D8F800108B0703
:1017800001D50FA602E0490701D50EA60125114695
:10179000002408F1240704E000F0FAFA30323A5548
:1017A000641C50EA0102F7D12B46324621464046DE
:1017B000BDE8F041FFF7A3BC000000002D000000D1
:1017C0002B0000002000000030B4002100F12404B0
:1017D00008E002F00705D208303542EA4372DB0820
:1017E0006554491C52EA0305F3D10468002310A292
:1017F000250708D504F020040C4304D0C469012354
:101800000CA2641EC46130BCFFF779BC10B504465D
:1018100021461068FEF796FF02462046BDE81040BC
:101820000023D1E7D21D22F00701D1E90023CBE745
:1018300000000000300000002DE9F04705460C468E
:10184000C86820F4201040F48000C860800602D5EB
:10185000084600F0B0F9E06841F282014FF0FF392C
:101860000140022903D0204600F04EF9B5E000F413
:101870002041B1F5004F0FD1C00306D56168E06A81
:10188000884200D80846606006E02069E062606037
:10189000606913F0FBFCA061A0680022EEB2002892
:1018A0000DDAE1688B050AD4C043A06041F49030A2
:1018B0002260E0606068411C61600670A5E0E0683D
:1018C0009046226040F40050E060206968BB606987
:1018D00013F0DEFC012704F12405A0B1A08910F467
:1018E000407F08D0E069FEF7A1FD206118B1E068F3
:1018F00040F4006016E0E7612561E06820F4407084
:1019000040F480600EE0E069FEF790FD0028206161
:10191000F1D0E06840F4006010F4407FE06002D154
:1019200040F48070E06020696060E06825696FF0D5
:10193000010AC1051FD56168E06A884200D80846DF
:10194000411B04D02246284600F0E8F8F0BBE068CE
:10195000010203D5E562C4E9015854E0691CE16263
:101960006160E16940F48030491EC4E902103046EC
:101970002E70BDE8F087010202D500F480320AE043
:101980006068411C61600670E0680A2E40F4803097
:10199000E06006D00022E16A6068814203D90B460C
:1019A00002E00122F7E70346A7895B1B7F0503D40A
:1019B000E7699F4200DDE2B1814200D80146E5625D
:1019C0000F1AC4E90158002B09DD00E005E02246AA
:1019D0001946284600F0A2F808B14846C9E747B1C1
:1019E000A069E5626560C01BA061E06840F010007E
:1019F000E060E068000208D56168A069E562491B03
:101A000008446560A0615046B3E73046B1E7000086
:101A10002DE9F041044616460D464769007B8007D4
:101A20002ED0384613F034FC50BB3EB3012E02D00A
:101A3000022E25D104E0204600F03AFC05441DE0CA
:101A4000384613F023FCE168002841F01001E16002
:101A500005DA204600F058F80120BDE8F081C903FE
:101A60000BD56268E16A914200D81146A26911441F
:101A70002269891A814200DD08460544002D01DAF9
:101A80000220EAE7E16A6068E268814206D29103D7
:101A9000E06203D522F4003141F01002A66900276C
:101AA000AE4213DCE16A814201D90B4600E00346F5
:101AB00003EB060C2369ACEB030CAC4506DD81425D
:101AC00001D98C4600E084469C4505D1A76027607B
:101AD00042F02000A5620DE0AD1BE669AE1B81421D
:101AE000A66000D90846C01A281A206058196060FC
:101AF00022F0200003490840E060002084F848708C
:101B0000ABE70000BFCFD7FFC16821F4001141F05F
:101B10008001C16000218160016070472DE9F047BC
:101B2000814614460E464FF0FF383248D568576953
:101B3000054209D03846A16913F0CEFB002811DB1D
:101B40002C48C0430540E5602B463246494638469E
:101B500013F0C4FBA16920F00042B21A114400281E
:101B6000A16103D02046FFF7CFFF4046BDE8F087D4
:101B700070B504460569C06A6168884200D80846A5
:101B8000E16821F42011E160C90312D5A84208D010
:101B90002246411B2846FFF7C1FF10B14FF0FF302E
:101BA00070BD0020E562C4E90150E06820F4803097
:101BB000E060002070BD10B50446C06820F0200031
:101BC000E060A16AA06988420DD02046FFF7D0FFEF
:101BD000E06820F4405040F01000E060A06AA0618E
:101BE0002069E062606044F24001E0688843E060A0
:101BF00010BD00001000020010B542485421FFF74C
:101C000028F941485421FFF724F940485421FFF7AF
:101C100020F93F493B483C4A3F4B08603D490A6038
:101C20003A491960531C0365481C1065012008657A
:101C30003B48344A39A1784400F07EFB20B938484B
:101C400078440A3800F041FC37482F4A35A17844DF
:101C500000F072FB20B9344878440A3800F035FCB3
:101C600032482A4A2FA1784400F066FB20B92F4859
:101C700078440A3800F029FC40232248DC00002187
:101C8000224600F036FB20B125487844543800F055
:101C90001CFC1D4822464023002100F02AFB20B1F5
:101CA00021487844543800F010FC1848224610238C
:101CB000002100F01EFB002806D01C487844BDE837
:101CC0001040563800F001BC10BD104870B5006DD2
:101CD00020F001040B4800F0A7FB0B4800F0A4FB28
:101CE0000A4800F0A1FB09E0206D20F00105204624
:101CF00000F09AFB2046FEF7C8FB2C46002CF3D1DF
:101D000070BD00000020002054200020A8200020EA
:101D10009C080020A0080020A408002072000000F9
:101D200040640300770000002C6403001864030083
:101D300010B5002000F0C2FBFEF7D4FABDE8104059
:101D4000012000F001B8000001491820ABBEFEE7F9
:101D50002600020000487047E0210020034640684A
:101D60008C46002818BF88423CBF03464068F8D321
:101D700018681844884207D00CF1030020F00700CF
:101D8000001D411A521A0146081D0A60FEF77DBB6C
:101D900030B5B0F10A0271F100034FEA900E4EEA3D
:101DA000817EB0EB0E0061EB91014FEA101E4EEA0E
:101DB000017E10EB0E0041EB11114FEA102E4EEA9E
:101DC000016E10EB0E0041EB11214FEA104E4EEA6E
:101DD000014E10EB0E0041EB1141401841F10001A2
:101DE0004FEAD00040EA41704FEAD1014FEA810446
:101DF00044EA907410EB800544EB01046D1944EB48
:101E00000404521BA3414FF0000348BF0A3200D51F
:101E100030BD401C41F1000130BD00002DE9F04F04
:101E200004460D46D21D22F0070089B0D0E9009784
:101E30004846394634F056FC0246F80F01D02D23AF
:101E400007E02068810701D52B2302E0202101EA69
:101E5000C0038DF820300BB1012000E00020032AE0
:101E6000824601D0072A04DB2946204600F054F9B7
:101E70003FE12078800601D40D2500E0E569C7F335
:101E80000A560D2D49DA00214FEA175B08464FF03C
:101E90000000002F00F4400007DA00EB80004FF450
:101EA000400100EBD07001EA60008115012901DDDD
:101EB0004FF0FF3100224FEA850CBCF1180F06D31A
:101EC0001346ACF118004FF08052C24003E04FF4CB
:101ED000801323FA0CF30CF10C0CBCF1200F04D38B
:101EE000ACF1200C09FA0CF001E007FA0CF0002923
:101EF0004FF0004801DD18B90FE00ED140450CD37A
:101F000019EB02095F4121B9404502D19F4329EAFB
:101F10000209BBEB175F00D0761C2088000502D5B4
:101F20007B48784402E07A487844193808AA30237C
:101F300002F80A30037C0AF10101002E0AF1020ABC
:101F400053546A4602DC4FF0300101E04FF031019A
:101F50004FF001088DF8001002D0A6F2FF3603E022
:101F600059EA470100D06B4E002D02DC21780907A9
:101F700004D54FF002082E218DF80110C44600212F
:101F80000BE0C7F303433F01C35C491C6D1E02F81D
:101F90000830052908F1010801DA002DF1DC0021E3
:101FA0000CE000EB1973491C1B786D1E082902F820
:101FB00008304FEA091908F1010801DA002DF0DCB8
:101FC00021688B0602D516E0A8F10108E04505DD81
:101FD00002EB080313F8013C302BF5D0B8F1000FE9
:101FE00009DD02EB080313F8013C2E2B03D109078E
:101FF00001D4A8F10108002D05DD3E2102F80810EA
:102000006D1E08F10108407C002E02F8080008F15E
:10201000010804DA2D20764202F8080002E02B20A5
:1020200002F808000A214FF47A70864208F101088C
:102030000BDB96FBF0F3303302F8083096FBF0F33D
:1020400008F1010800FB136601E0642E0CDB64203C
:1020500096FBF0F3303302F8083096FBF0F308F10A
:10206000010800FB136601E00A2E06DB96FBF1F087
:10207000303002F8080008F1010896FBF1F001FB8E
:102080001060303002F80800A16908F1010808EB7F
:10209000050202EB0A00081AA0612078C00602D4EB
:1020A0002046FEF71FFB216A08AE01EB0A00206202
:1020B00004E0D4E9012116F8010B9047BAF1010AB6
:1020C000F7D22078C00602D52046FEF70BFB6E46FD
:1020D00009E016F8010B3E280FD0D4E90121904702
:1020E000206A401C2062B8F10108F2D22046FEF7B7
:1020F0000FFB09B00320BDE8F08F206A284420625E
:1021000003E0D4E90121302090476D1EEBD3F8E7BE
:102110001162030002FCFFFF2DE9F0411F46044657
:1021200003260168072A01F4006004DB08B116A544
:1021300005E016A503E008B115A500E015A521F0FE
:1021400010002060A069C01EA0610FB1401EA061F8
:102150002046FEF7C7FA4FB1D4E90121384690472F
:10216000206A401C2062C01C206206E0206AFAE758
:10217000D4E9012115F8010B9047761EF8D22046CC
:10218000FEF7C6FABDE8F0814E414E006E616E006A
:10219000494E4600696E660010B5436913B1AFF34E
:1021A000008001E0FFF774FA012010BD128800F1F1
:1021B000240182840022C2840122EDE711684FF0DD
:1021C000FF32E9E72DE9F047814616468AB03548E7
:1021D00078440DC88DE80D0032487844801C03AC6B
:1021E0000DC884E80D0041F69B300844372190FB70
:1021F000F1F290FBF1F5A5F1800501FB12041B3C07
:1022000002D56442012000E00020DFF898A080465B
:102210000027FA44AAF1BE0A0EE0E0070AD03246CF
:10222000684607EB470101230AEB810134F023F9EB
:102230008DE8070064107F1C002CEED1194F7F44FD
:10224000AE3F19E0E80715D007EB04100DF1180AAE
:1022500090E80E008AE80E00C068F04201D198199B
:1022600008903246012306A903A834F004F903AB11
:1022700083E807006D10641C002DE3D14FF00103CB
:1022800032466946B8F1000F03A802D034F0DEF8F8
:1022900001E034F0F0F8C9E90001C9F808200AB0FB
:1022A000BDE8F087F45F0300007B00F0800070471A
:1022B00010B50146C268900703D0900607D5886A1A
:1022C0000AE0FEF7BFFE01210160881E10BD8B6988
:1022D000486818440B69C01A91F848301BB191F84E
:1022E0004910401A10BD1103FCD50028FADD401E2C
:1022F00010BD70B5C468A50713D0650211D4B2F53E
:10230000807F09D0B2F5007F06D0B2F5806F08D18A
:10231000012300F1240106E05D1E6FF07F46B54207
:1023200001D3012070BD0161C361416024F470617B
:102330001143C160002070BD2DE9F0410C461646E6
:10234000070047D0104600F06FF82078611C612824
:102350000AD0722802D077283CD102E0012500245F
:1023600005E00225042402E0082448F2020511F8E1
:10237000010B2B2806D0622809D011F8010C742813
:102380000AD00BE045F0030544F00204EFE745F006
:10239000040544F00104EAE744F0100438462146FD
:1023A00012F07EFF411C15D00021316171604FF4A5
:1023B0000071F560F1617061200704D5304602229A
:1023C0000021FFF725FB306D40F0010030653046FD
:1023D000BDE8F0810020FBE72DE9F0410D460646FF
:1023E000104C206DC10704D0410804D020F0010436
:1023F000F7E722460EE05420FEF718F807000ED04B
:10240000206D47F001010843542120653846FEF74E
:1024100020FD3A4629463046BDE8F0418CE70020D1
:10242000D6E70000002000202DE9F04704464FF0D9
:1024300000094FF0FF37C568D4E90486A80707D024
:102440002046FFF795FB304612F01EFF002802DA07
:102450003846BDE8F087280502D54046FEF715F856
:102460004C212046FEF7F5FC206D20F00100206590
:102470004846EEE72DE9F04116460C460546FDF7C5
:10248000CDFF036893F80101012807D0FF2C12D873
:10249000185D80B101202C70BDE8F081D3F80701F0
:1024A0003246214603F20713C7182846BC46BDE84A
:1024B000F041002360474FF0FF30EDE710B500F02A
:1024C00065F8BDE8104000F05BB810B500F076F894
:1024D000BDE8104000F054B810B500F089F8BDE830
:1024E000104000F04DB8000010B5044900F02EF87F
:1024F000BDE810400148FEF7BCBA0000A82000204B
:1025000070477546FFF726FCAE4605006946534600
:1025100020F00700854618B020B5FDF76BFFBDE839
:1025200020404FF000064FF000074FF000084FF03A
:10253000000BAC46ACE8C009ACE8C009ACE8C00987
:10254000ACE8C00921F007018D46704770B50D4613
:10255000044604E0294634F044FD401C04D014F83D
:10256000010B0028F6D170BD4FF0FF3070BD10B5E3
:102570000446AFF300802046BDE81040FDF7BFBE23
:10258000002801D0FFF7E0BB7047000010B5002124
:1025900002A000F055F8012010BD0000534947414A
:1025A0004252543A2041626E6F726D616C207465C4
:1025B000726D696E6174696F6E00000010B501463E
:1025C00002A000F03DF8012010BD00005349475221
:1025D000545245443A2052656469726563743A20E6
:1025E00063616E2774206F70656E3A2000000000F2
:1025F00010B5012805D0002103A000F021F801202A
:1026000010BD09A1F8E7000053494752544D454D0C
:102610003A204F7574206F662068656170206D6583
:102620006D6F7279000000003A2048656170206D7E
:10263000656D6F727920636F727275707465640076
:1026400070B505460C460A2000E06D1C12F052FEE3
:1026500035B128780028F8D102E0641C12F04AFE57
:1026600014B120780028F8D1BDE870400A2012F09B
:1026700041BE000010B50C460846C021FEF7C7FB5E
:1026800045F25270C4F8D00000210520C4E9301191
:10269000C4F8C810C4F8CC1010BD000010B50C462A
:1026A0000846C021FEF7B3FB45F25270C4F8D000D3
:1026B00000210520C4E93011C4F8C810C4F8CC10BA
:1026C00010BD000010B50C460846C021FEF79FFB68
:1026D00045F25270C4F8D00000210520C4E9301141
:1026E000C4F8C810C4F8CC1010BD0000B0B5032861
:1026F0002AD80C461546DFE800F0032B0F1D00BF5B
:10270000681E022852D294ED000A10F0B3FC012D8D
:102710004ED1FF2040B2B0BD681E022832D2012047
:102720001DF0C8FF18B194ED000A10F08FFA012DCA
:10273000EFD029E0681E02282ED294ED000A10F096
:10274000E7FE012DE5D029E0052040B2B0BD00BF75
:10275000681E022834D202201DF0ACFFD0B32068DE
:1027600044F24001C2F20201C1F88F0294ED000A66
:1027700010F0AEFA94ED000A10F072FA012DC8D0F4
:1027800020E000BF002DC4D105F03AFF84ED000A1F
:10279000FF2040B2B0BD00BF002DBAD107F002FE4D
:1027A00084ED000AFF2040B2B0BD00BF002DB0D1C3
:1027B00006F0BCFA84ED000AFF2040B2B0BD00BFB5
:1027C000002DA6D105F034FF84ED000AFF2040B2B1
:1027D000B0BD00BF0B2040B2B0BD000070B582B0EC
:1027E000292800F223810C461546DFE810F02B0063
:1027F00033003B0043004B0023012B015300330106
:102800005B003B0163007300430183009300A3005E
:102810005301710187019901AB01BD01CF01B300E3
:10282000C900E101DB00E901F9010902E700190231
:10283000EF00F700FF0007010F0125022D0217012D
:10284000350200BF681E022880F00E820B2040B2C5
:1028500002B070BD681E022880F00C820B2040B2CE
:1028600002B070BD681E022880F00A820B2040B2C0
:1028700002B070BD681E022880F008820B2040B2B2
:1028800002B070BD681E022880F006820B2040B2A4
:1028900002B070BD681E022880F004820B2040B296
:1028A00002B070BD681E022880F002820B2040B288
:1028B00002B070BD681E022880F0008201201DF069
:1028C000F9FE10B1207810F0B7FB012D40F0F9812E
:1028D000FCE200BF681E022880F0F68101201DF096
:1028E000E9FE10B1207810F077FB012D00F0EE82A8
:1028F000EDE100BF681E022880F0EC8101201DF090
:10290000D9FE10B1206810F027FB012D00F0DE8207
:10291000E3E100BF681E022880F0E28101201DF083
:10292000C9FE10B1206810F0DBFB012D00F0CE8253
:10293000D9E100BF681E022880F0D88101201DF077
:10294000B9FE10B1207810F099FC012D00F0BE8284
:10295000CFE100BF681E022880F0CE8101201DF06B
:10296000A9FE40B142F2B061C2F2000120684A6B98
:1029700060F300024A63012D00F0A882BFE100BFAE
:10298000681E022880F0C48101201DF093FE20B152
:102990002068002818BF10F0E9F8012D00F0968299
:1029A000B9E100BF681E022880F0B88121680120CB
:1029B00010F0F2FB012D00F08982B2E1681E0228BE
:1029C00080F0B2810B2040B202B070BD681E0228B8
:1029D00080F0B0810B2040B202B070BD681E0228AA
:1029E00080F0AE810B2040B202B070BD681E02289C
:1029F00080F0AC810B2040B202B070BD681E02288E
:102A000080F0AC810B2040B202B070BD681E02287D
:102A100080F0AA810B2040B202B070BD002D00F002
:102A200059820B2040B202B070BD00BF052040B2F9
:102A300002B070BD681E022880F09C810B2040B25D
:102A400002B070BD681E022880F0A2810B2040B247
:102A500002B070BD681E022880F0AA810B2040B22F
:102A600002B070BD681E022880F0A8810B2040B221
:102A700002B070BD681E022880F0A68101201DF002
:102A800019FE10B1207810F08FFA012D00F01E828F
:102A90009DE100BF681E022880F09C8101201DF08E
:102AA00009FE88B144F24006C2F2020696F88D0291
:102AB0002168814206D0481EB0FA80F040092AF011
:102AC000FBFA206886F88D02012D00F0FF8184E179
:102AD000681E022880F0888101201DF0EBFD40B1C6
:102AE00042F2B061C2F2000120684A6B60F3410219
:102AF0004A63012D00F0EA8178E100BF681E0228D8
:102B000080F07C8101201DF0D5FD28B1206842F2C3
:102B1000B061C2F20001C861012D00F0D7816FE100
:102B2000681E022880F0728101201DF0C3FD28B1CB
:102B3000206842F2B061C2F200010862012D00F08B
:102B4000C58165E1681E022880F0688101201DF0C2
:102B5000B1FD28B1206842F2B061C2F200014862C2
:102B6000012D00F0B3815BE1681E022880F05E81D8
:102B700001201DF09FFD28B1206842F2B061C2F231
:102B80000001C862012D00F0A18151E1681E0228F8
:102B900080F0548101201DF08DFD28B1206842F2A3
:102BA000B061C2F200010863012D00F08F8147E19E
:102BB000681E022880F04A810B2040B202B070BD2E
:102BC000681E022880F0488100201DF073FD18B1B6
:102BD0002178002003F0CCF8012D00F077813CE152
:102BE000681E022880F03C8100201DF063FD18B1B2
:102BF0002178012003F0BCF8012D00F0678130E15D
:102C0000681E022880F0308100201DF053FD18B1AD
:102C10002178022003F0ACF8012D00F0578124E167
:102C2000681E022880F026812168002010F0B4FA86
:102C3000012D00F04B811EE1681E022880F02081EA
:102C40000B2040B202B070BD681E022880F01C81CB
:102C50000B2040B202B070BD002D00F03F810B2070
:102C600040B202B070BD00BF002D40F02F8106F0D1
:102C70007BFB35E1002D40F0298106F089FB2FE137
:102C8000002D40F0238106F099FB29E1002D40F052
:102C90001D8105F081FE23E1002D40F0178105F034
:102CA00039FC1DE1002D40F0118105F05DFD17E1BB
:102CB000002D40F00B8106F085F911E1002D40F068
:102CC000058106F023F80BE1002D40F0FF8005F0B0
:102CD000EDFF05E1002D40F0F98005F0ABFFFFE0CE
:102CE000002D40F0F38006F033F8F9E0002D40F0BD
:102CF000ED8006F069FBF3E0002D40F0E78042F242
:102D0000B060C2F20000406B00F00100E8E000BFDC
:102D1000002D40F0DB8006F021FBE1E0002D40F0CB
:102D2000D5800120A8E000BF002D40F0CF8000201A
:102D30008FE000BF002D40F0C98005F087FFCFE095
:102D4000002D40F0C38005F07DFFC9E0002D40F06C
:102D5000BD80002006F036F8C2E000BF002D40F034
:102D6000B58006F07DF9BBE0002D40F0AF8005F0A6
:102D70006BFEB5E0002D40F0A9801AF01DF944F279
:102D80004022C0F20F020023FDF7A6FBA8E000BF1F
:102D9000002D40F09B801AF00FF944F24022C0F25F
:102DA0000F020023FDF798FB4FF47A70504397E031
:102DB000002D40F08B8005F0CFFC91E0002D40F01D
:102DC000858006F00BF88BE0002D40F07F8005F049
:102DD00067FF85E0002D40F0798044F24000C2F2A8
:102DE000020090F88D027BE0002D6FD142F2B060BE
:102DF000C2F20000406BC0F3400071E0002D65D1CD
:102E000042F2B060C2F20000C06969E0002D5DD1FD
:102E100042F2B060C2F20000006A61E0002D55D1BC
:102E200042F2B060C2F20000406A59E0002D4DD17C
:102E300042F2B060C2F20000C06A51E0002D45D1FC
:102E400042F2B060C2F20000006B49E0002D3DD1BB
:102E500001201DF02FFC43E0C5BB002006E000BFB1
:102E6000A5BB012002E000BF85BB022002F00AFEE4
:102E700036E000BF55BB002005F08CFF30E000BFFE
:102E800025BB05F031FE2BE005BB00250DF1070049
:102E90000DF106010DF105028DF807508DF8065071
:102EA0008DF8055017F042FF9DF8070048B19DF8D6
:102EB00006109DF80500022202EA410160F3830139
:102EC0004D1C2560FF2040B202B070BDFF2040B213
:102ED00002B070BD05F092FE02E000BF05F080FE7A
:102EE0002060FF2040B202B070BD0000952800F2C3
:102EF0009F8010B50C46DFE810F097009F00A300FC
:102F0000A700B500B700B900BB00BD00BF00C100FD
:102F1000C300C500C700C900CB00CD00CF00D10061
:102F2000D300D500D700D900DB00DD00DF00E100D1
:102F3000E300E500E700E900EB00ED00EF00F10041
:102F4000F700FD00030109010F01150119011F011F
:102F500025012B01310137013D01430149014F0199
:102F600055015B01610167016D01730179017F0109
:102F7000850189018D019101950199019D01A101B1
:102F8000A501AB01AF01B301B701BB01BF01C30193
:102F9000C701CB01CF01D301D701DB01DF01E30181
:102FA000E701EB01EF01F301F701FB01FF01030270
:102FB00007020B020F0215021B02210227022D023B
:102FC000330239023F0245024B02510257025D02B1
:102FD000630269026F0275027B02810287028D0221
:102FE000930299029F02A302A702AB02AF02B302AF
:102FF000B702BB02BF02C302C702CB02CF02D30299
:10300000D702DB02DF02E302E702EB02EF02F30288
:10301000F702FB02FF02030307030B030F03130373
:1030200017031B031F0300BF06F0ACF986E200BFC5
:10303000052040B2704700BF06F0BAF97EE200BF3B
:1030400006F0BCF97AE200BF19F0B6FF44F2402264
:10305000C0F20F020023FDF73FFA34F00EFF00EE3E
:10306000100A6FE200203AE000203EE0002042E03B
:10307000002046E000204AE000204EE005202EE03F
:10308000052032E0052036E005203AE005203EE04C
:10309000052042E0032022E0032026E003202AE06E
:1030A00003202EE0032032E0032036E0012016E06A
:1030B00001201AE001201EE0012022E0012026E08C
:1030C00001202AE002200AE002200EE0022012E0A5
:1030D000022016E002201AE002201EE00420002157
:1030E00005F01EFA2EE200BF0420012105F018FAB7
:1030F00028E200BF0420022105F012FA22E200BFFC
:103100000420032105F00CFA1CE200BF0420042176
:1031100005F006FA16E200BF0420052105F000FACA
:1031200010E200BF05F0FAFD0CE200BF0020002114
:1031300005F0E4FE06E200BF0020012105F0DEFEFE
:1031400000E200BF0020022105F0D8FEFAE100BF36
:103150000020032105F0D2FEF4E100BF002004218D
:1031600005F0CCFEEEE100BF0020052105F0C6FE13
:10317000E8E100BF0020062105F0C0FEE2E100BF4B
:103180000020072105F0BAFEDCE100BF0020082185
:1031900005F0B4FED6E100BF0020092105F0AEFE27
:1031A000D0E100BF00200A2105F0A8FECAE100BF5F
:1031B00000200B2105F0A2FEC4E100BF00200C217D
:1031C00005F09CFEBEE100BF00200D2105F096FE3B
:1031D000B8E100BF00200E2105F090FEB2E100BF73
:1031E00000200F2105F08AFEACE100BF0020102175
:1031F00005F084FEA6E100BF0020112105F07EFE4F
:10320000A0E100BF19F0F0FC9CE100BF04F0FCFB62
:1032100098E100BF002005F017FF8FE105F032FFB5
:103220008CE100BF012002F039FC8BE1022002F0AA
:1032300035FC87E1002002F031FC83E105200BF032
:1032400047FC7FE100202D2105F058FE7AE100BF08
:10325000122005F00DFF75E1002005F01DFE71E163
:10326000012005F019FE6DE105F07EFA66E100BF70
:1032700005F0A8FE62E100BF05F0A2FB5EE100BF21
:1032800005F0CAFC5AE100BF06F03CF856E100BF69
:1032900006F032F852E100BF002008F077F94DE166
:1032A00008F08EFA4AE100BF002008F0A7F945E1D6
:1032B00008F0B0FA42E100BF00200BF029FC41E128
:1032C00000200BF005FC3DE100200BF011FC39E182
:1032D00001200BF01DFC35E101200BF0F9FB31E181
:1032E00001200BF005FC2DE102200BF011FC29E17F
:1032F00002200BF0EDFB25E102200BF0F9FB21E1B0
:1033000003200BF005FC1DE103200BF0E1FB19E1AC
:1033100003200BF0EDFB15E10020122105F0EEFD7E
:1033200010E100BF0020132105F0E8FD0AE100BF15
:103330000020142105F0E2FD04E100BF002015216A
:1033400005F0DCFDFEE000BF0020162105F0D6FDF3
:10335000F8E000BF0020172105F0D0FDF2E000BF2B
:103360000020182105F0CAFDECE000BF0020192163
:1033700005F0C4FDE6E000BF00201A2105F0BEFD07
:10338000E0E000BF00201B2105F0B8FDDAE000BF3F
:1033900000201C2105F0B2FDD4E000BF00201D215B
:1033A00005F0ACFDCEE000BF00201E2105F0A6FD1B
:1033B000C8E000BF00201F2105F0A0FDC2E000BF53
:1033C0000020202105F09AFDBCE000BF0020212153
:1033D00005F094FDB6E000BF0020222105F08EFD2F
:1033E000B0E000BF0020232105F088FDAAE000BF67
:1033F0000020242105F082FDA4E000BF002025214B
:1034000005F07CFD9EE000BF0020262105F076FD42
:1034100098E000BF00202A2105F070FD92E000BF77
:1034200000202B2105F06AFD8CE000BF00202C213C
:1034300005F064FD86E000BF032005F019FE81E081
:10344000042005F015FE7DE0052005F011FE79E071
:10345000062005F00DFE75E0072005F009FE71E07D
:10346000082005F005FE6DE0092005F001FE69E089
:103470000A2005F0FDFD65E00B2005F0F9FD61E097
:103480000C2005F0F5FD5DE00D2005F0F1FD59E0A3
:103490000E2005F0EDFD55E00F2005F0E9FD51E0AF
:1034A000102005F0E5FD4DE0112005F0E1FD49E0BB
:1034B000002005F0FFFD41E0012005F0FBFD3DE0AF
:1034C000022005F0F7FD39E0032005F0F3FD35E0BB
:1034D000002002F009FB35E0012002F005FB31E09D
:1034E000022002F001FB2DE005F022F926E000BFEA
:1034F00005F016F926E000BF05F08CF822E000BFC9
:1035000005F0F2F81EE000BF05F074FE16E000BF03
:1035100005F068FE16E000BF05F0DCF812E000BF21
:1035200019F03EFB0EE000BF05F0B4FD06E000BF61
:1035300005F06CFB02E000BF05F05AFB00EE100A3C
:10354000B8EE400A84ED000AFF20BDE8104040B20A
:10355000704700002DE9F04F83B0052800F29D80F0
:1035600089464FF4707101EA801701A8164607F1E9
:10357000200804F003F9DDE9010440F2FF7B20EAB2
:103580000B05791901F22641C1EA0000214604F039
:103590003BFB6FF0004004F003FB2846214604F09B
:1035A00033FB01A807F1280A04F0E8F8DDE901047B
:1035B00005466FF30A05791901F22E41C1EA0000B0
:1035C000214604F021FB6FF0004004F0E9FA2846A0
:1035D000214604F019FB07F11005284600F0A2FA75
:1035E00007F11804204600F09DFA404600F09AFAD0
:1035F000504600F097FA002E4FD048F22050C0F607
:10360000070009EB890900EBC906284631460FF08F
:10361000D1FA06F1140120460FF0CCFA48F2C0505E
:10362000C0F6070000EB8904404621460FF0C2FABD
:10363000504621460FF0BEFA01A804F09FF8DDE9DC
:10364000010440F2264220EA0B0579191143C1EA30
:103650000000214604F0D8FA40F6FF7004F0A0FA0A
:103660002846214604F0D0FA01A804F087F8DDE9E5
:10367000010440F22E4205466FF30A057919114301
:10368000C1EA0000214604F0BFFA40F6FF7004F0E2
:1036900087FA2846214604F0B7FA03B0BDE8F08F58
:1036A000F0B581B0052823D80C464FF4707101EABB
:1036B00080152846174600F035FA05F10806304611
:1036C00000F030FAA7B148F2106104EB8400C0F6B4
:1036D000070101EBC004284621460FF06BFA04F104
:1036E0001401304601B0BDE8F0400FF063BA00BFEE
:1036F00001B0F0BD052888BF704770B52DED028B75
:1037000082B044F240010646C0EB4010C2F2020112
:1037100001EB400001EBC601C06EC96B00EE100A60
:1037200001EE101A684631EE008A04F027F8DDE950
:10373000000440F2FF7120EA0105294666F3891171
:1037400001F20741C1EA0000214604F05DFA9FED55
:10375000150AB7EE001A28EE000AB4EE410AF1EE9F
:1037600010FAC8BFB0EE410ABFEE001AB4EE410A2B
:103770009FED0D2AF1EE10FAB8BFB0EE410A20EE2F
:10378000020ABDEEC00A10EE100A04F009FA28463B
:10379000214604F039FA02B0BDEC028BBDE870405E
:1037A000704700BF65BD293D0000004F2DE9F04185
:1037B000052841D8904607460C46002503294FF0BE
:1037C000000006D84CF2880160B2C0F6080151F83A
:1037D00020004FF6C052C7EBC701C2F2000202EB55
:1037E000810188614FF2383107EB8700C2F2000196
:1037F00001EBC00630462821FDF72BFB4FF2284095
:10380000C2F2000000EB07113A01032C8550C1E918
:103810000155CD6010D8B8F1000F08BFBDE8F081A8
:1038200048F2D86104EB8400C0F6070101EBC00048
:1038300090EC0A0B86EC0A0BBDE8F08180B5002005
:10384000FFF758FF002000F07BF80120FFF752FF40
:10385000012000F075F80220FFF74CFF022000F075
:103860006FF80320FFF746FF032000F069F80420FB
:10387000FFF740FF042000F063F80520FFF73AFF50
:103880000520BDE8804000F05BB800002DE9F04362
:1038900083B01278012A0FD0022A0FD0032A17D141
:1038A0000A78022A46D0032A14D001224FF0404859
:1038B0000A7005283BD811E001220AE00A78022AA2
:1038C00008D001220A704FF0004805282FD805E0E3
:1038D00000220A704FF08048052828D800F00F0613
:1038E00001A803F04BFFDDE9017440F2FF7027EA05
:1038F000000949EA8615A81DC0EA0700214604F020
:1039000083F903F007FF064605F20640C0EA070008
:10391000214604F079F926F0404040EA080004F01E
:103920003FF903F0F7FE4846214604F06DF903B075
:10393000BDE8F0834FF000480528F8D8CEE7000036
:1039400010B544F24002C0EB4011C2F2020202EB99
:10395000410191F89F305C1E022C37D202EBC0026D
:103960009368946B9FED6B2A00EE103A8B6E01EE1C
:10397000104A0C6F496F20EE022A03EE103A22EE35
:10398000011A21EE031A02EE101A03EE104A32EE6B
:10399000432A23EE003A81EE021A83EE022AD1680E
:1039A0004FF2884203EE101A00EB8000C2F20002D0
:1039B00002EB800030EE030A80ED020AC16080ED68
:1039C000011A33EE420A80ED000A10BD032B40F0CD
:1039D000918002EBC0029368946B00EE103A01EE06
:1039E000104A8B6E0C6F496F9FED4A2A04EE101A35
:1039F00021EE021A4FF6C05103EE103A21EE002AD2
:103A000005EE104AC2F2000122EE032A34EE454AC6
:103A100025EE005A01EB800182EE042A85EE044A6D
:103A200091ED2A5A21EE031A85EE011AD1684FF260
:103A3000884303EE101A00EB8002C2F20003B7EED7
:103A4000005A03EB820230EE030AD16082ED020AD3
:103A500033EE444A82ED012A82ED004AB4EE451A63
:103A6000F1EE10FAC8BFB0EE451AB5EE401A9FED60
:103A70002A5AF1EE10FAB8BFB0EE451A21EE021A3A
:103A800031EE041AB4EE401AF1EE10FAC8BFB0EEEF
:103A9000401AB4EE431A9FED210AF1EE10FAB8BFB6
:103AA000B0EE431A21EE001AB6EE002A31EE021AE9
:103AB000B4EE401AF1EE10FAC8BFB0EE401AB5EEFF
:103AC000401AF1EE10FAB8BFB0EE451ABDEEC10AC9
:103AD00010EE101A00F007006FF31F3141EA0034B6
:103AE00004F5004004F0C4F82046BDE8104004F09E
:103AF000BFB800BF4FF4E04101EA00344FF4004189
:103B000041EA003080B204F0B3F82046BDE810402E
:103B100004F0AEB8630CC1410000000000F01F4586
:103B2000FEE70000F0B583B0054601A803F026FECD
:103B3000DDE9016440F2FF7105F47E7026EA0105BB
:103B40002F1807F58060C0EA0600214604F05CF8F3
:103B5000002004F025F807F20140C0EA06002146E3
:103B600004F052F8002004F01BF807F20240C0EA0B
:103B70000600214604F048F8002004F011F807F28E
:103B80000340C0EA0600214604F03EF8002004F09D
:103B900007F807F20440C0EA0600214604F034F8B2
:103BA000002003F0FDFF2846214604F02DF803B065
:103BB000F0BD0000B0B500294FF6FF7351D04A1E8A
:103BC0004EF6B44501F0030C032AC0F6090529D3CB
:103BD00021F00301494200BF10F8042B043182EAAE
:103BE0000302D2B235F8122010F8034C82EA1323F4
:103BF00083EA0403DBB235F8133010F8024C83EA91
:103C0000122282EA0402D2B235F8122010F8014CD6
:103C100082EA132383EA0403DBB235F8133083EA24
:103C20001223D9D1BCF1000F1BD001789AB25940B0
:103C3000C9B235F81110BCF1010F81EA122310D07E
:103C40004278DBB25A4035F812E0BCF1020F8EEA3E
:103C5000112306D08078D9B2484035F8100080EAA8
:103C60001E2398B2B0BD0000F0B54FF0FF3259B13D
:103C7000012901F0010C0BD100214FF0FF34BCF100
:103C8000000F00F0B4807DE04FF0FF34A0B2F0BD33
:103C900021F00101C1F1000E6FF0010141F2210399
:103CA0004FF0FF344518AE78ED7884EA062426B24A
:103CB00083EA44079642C8BF67003CB283EA4706DE
:103CC0009442C8BF7E0034B283EA46079442C8BF1C
:103CD00077003CB283EA47069442C8BF7E0034B204
:103CE00083EA46079442C8BF77003CB283EA47069E
:103CF0009442C8BF7E0034B283EA46079442C8BFEC
:103D000077003CB283EA47069442C8BF7E0086EA49
:103D1000052425B283EA44069542C8BF660034B242
:103D200083EA46059442C8BF75002CB283EA450673
:103D30009442C8BF6E0034B283EA46059442C8BFBD
:103D400075002CB283EA45069442C8BF6E0034B2B7
:103D500083EA46059442C8BF75002CB283EA450643
:103D60009442C8BF6E0035B2023183EA46049542E0
:103D70000EEB0105C8BF7400023593D10231BCF1CE
:103D8000000F34D0405C84EA002141F221000BB2E4
:103D900080EA41079342C8BF4F0039B280EA470327
:103DA0009142C8BF7B0019B280EA43079142C8BF65
:103DB0005F0039B280EA47039142C8BF7B0019B265
:103DC00080EA43079142C8BF5F0039B280EA4703E7
:103DD0009142C8BF7B0019B280EA43079142C8BF35
:103DE0005F0039B280EA47049142C8BF7C00A0B2AC
:103DF000F0BD0000002904BF0020704748F2204CAD
:103E0000024601440020C0F6070C0EE012F8013B08
:103E100058401CF800008A4228BF704712F8013B46
:103E200058401CF800008A420ED212F8013BC0B282
:103E300058401CF800008A4206D212F8013B584054
:103E40001CF800008A42E1D3704700000000000027
:103E50002DE9F04F81B02DED028B82B006F080FA93
:103E6000044604F0B3FD816800699FED518A081A89
:103E70003C2800F2908045F2786B2046C1F2342B4A
:103E800004F0A4FD0168594540F08580D0F810A0E9
:103E9000D0F814908769204640F20D314FF48042EB
:103EA0000FF0D4FB064604F091FD05460068584526
:103EB00071D1A8691FFA87F881B240464FF4803269
:103EC0000FF0C4FB0446022832D8771ECDF80490C8
:103ED000002E08BF43F6FF77384604F077FD05460D
:103EE000006858451CD140F6427900BFA8694FF4DC
:103EF000803281B240460FF0A9FB0446032815D258
:103F0000B9F101090CD07E1E002F08BF43F6FF76E1
:103F1000304604F05BFD0546006837465845E5D05D
:103F200029696869DDF8049024B934E0DDF804906B
:103F3000296968694CF60022BAEB0101C3F69A328E
:103F40004FF00007A1FB021367F1000606FB0232E7
:103F5000B9EB000067F10003401843EB020133F0B6
:103F60008CFF01EE104A00EE100AB8EE411A80EE06
:103F7000010A10EE100A33F02BFF9FED0B0B53ECF0
:103F8000102B33F0B9FB33F065F89FED0A0A01EE10
:103F9000100A80EE018AB0EE480A02B0BDEC028B36
:103FA00001B0BDE8F08F00BF95D626E80B2E113E7C
:103FB0000000000000007042B0B584B003281FD29A
:103FC00048F62421C0F6080151F82050684606F052
:103FD000D3F942F25C619DE81D00C2F2000141F894
:103FE000030F4A604FF0FF301022CC608B6031F03D
:103FF00039FD2946102231F035FDC04304B0B0BD73
:104000004DF6EA204DF6D621C0F60800C0F60801AC
:10401000A622FCF77FFD0000F0B581B02DED048BEA
:10402000044610EE100A0D46B0EE408A33F0D0FE82
:104030009FED610B53EC102B33F05EFB33F00AF86D
:1040400000EE100AB6EE001A30EE010ABDEEC00A0C
:104050004FF6087610EE107AC2F2000635B3B7F5C7
:10406000006F80F283809FED580A28EE009AB0EE30
:10407000490A32F083FD4EF23400C2F2010050F8DA
:10408000270005EB450106EB411141F83400A81E5D
:10409000032839EE400A2AD80225DFE800F072032F
:1040A0007F8300BF9FED4B8A03256AE040F24810F2
:1040B000C2F2010000EB8400B7F5006F80ED008ACA
:1040C00052DA9FED410A28EE008AB0EE480A32F03B
:1040D00055FD4EF23400C2F2010050F8270005EB06
:1040E000450138EE400A06EB411141F834009FEDDE
:1040F0003B1A4CF23400C2F2010020EE010A00EB40
:1041000087009FED371A90ED002A30EE010A30EE5D
:10411000020A10EE100A33F05BFE9FED298B41EC92
:10412000100BB0EE481AF0EE681A32F0A5FC51EC14
:10413000100B53EC182B32F0BFFF41EC100BB0EE1C
:10414000481AF0EE681A32F097FC51EC100B32F07E
:1041500081FF9FED241A00EE100A9FED232A20EE26
:10416000010A30EE028A0CE00021016005EB4500F7
:1041700000219FED198A06EB4010CBF6807140F8C4
:10418000341005EB450006EB401000EBC40080ED59
:10419000018ABDEC048B01B0F0BD00BF0425B0EE78
:1041A000498AEEE79FED091A9FED092A20EE010AE0
:1041B00030EE028A0525E4E72D431CEBE236FA3F98
:1041C00000000060FB21194017B7D13F00003443C5
:1041D0000000B4C200401C3F00000000DB0F49C0DB
:1041E000E4CB9640E12E6542000034C34CF6002338
:1041F0000A460021C3F69A33E0FB032110467047BC
:104200002DE9F04F81B02DED108B022904DABDECC1
:10421000108B01B0BDE8F08F0646501E0B28F6D873
:1042200089469846B0EE408ADFE810F00C00160090
:104230003C00A600E00028018401E2014002AA023D
:10424000EE027603A9F10100032809F0030080F0D3
:10425000BF830021CCE300BFA9F1010033F076F960
:104260009FED330B02460B4651EC100B32F0D8FF9A
:1042700032F0F0FE9FED308A09EE100A351F00245F
:1042800000EE104AB8EEC00A20EE090A32F0C4FC73
:10429000013485ED010A043530EE088AA145EFD1DD
:1042A000A4E200BFA9F1010033F050F99FED240B07
:1042B00002460B4651EC100B32F0B2FF32F0CAFE50
:1042C0009FED1B0B9FED1C8A09EE100A043E002790
:1042D000BFEE00AA5BEC10AB00EE107AB8EEC00A9D
:1042E00020EE090A30EE0A0A10EE100A33F070FDD3
:1042F00052465B4633F000FA04460D4632F0AAFE01
:1043000000EE100A32F088FC10EE100A33F060FD67
:1043100022462B4632F084FF32F09CFE00EE100A5B
:10432000013746F8040FB94538EE008AD4D15DE272
:10433000182D4454FB2109400000000000BF00BFBD
:104340000000000000000040182D4454FB211940DB
:10435000000000000000E03FCFA0A17F828BDDBF06
:10436000982F2FC03E3AE13F182D4454FB2129409D
:10437000D221337F7CD93240A9F1010033F0E6F835
:104380001FED0F0B02460B4651EC100B32F048FFAD
:1043900032F060FE1FED120B1FED198A09EE100AB4
:1043A000043E002755EC104B00EE107AB8EEC00A20
:1043B00020EE090A32F0C2F910EE100A33F008FDBF
:1043C00022462B4633F098F902460B4620462946F2
:1043D00033F010FC32F03EFE00EE100A013746F8D2
:1043E000040FB94538EE008ADED1FFE1A9F10100E2
:1043F00033F0ACF81FED2C0B02460B4651EC100BC2
:1044000032F00EFF32F026FE1FED2D0B1FED369A17
:104410005BEC10AB1FED2E0B08EE100A341F0026CC
:1044200055EC107B00EE106AB8EEC00A20EE080AC8
:1044300032F084F910EE100A33F0CAFC52465B46A3
:1044400033F05AF93A462B4632F036FE32F002FE8D
:1044500000EE100A013644F8040FB14539EE009A17
:10446000E0D100EE109AB8EEC00A80EE090A88ED9D
:10447000000ABDEC108B01B0BDE8F08F18EE100AF9
:1044800033F0A6FC1FED4E0B55EC104B22462B468D
:1044900033F032F902460B462046294633F0AAFB98
:1044A00032F0D8FD09EE100AB6EE000AA9F10100BB
:1044B00028EE008A33F04AF81FED5D0B04460D46E6
:1044C00051EC100B22462B4632F0AAFE32F0C2FD10
:1044D0001FED5B0B0AEE100A51EC100B22462B4627
:1044E00032F09EFE32F0B6FD1FED6DBA0CEE100AF2
:1044F000351F0024BEEE00DA00EE104AB8EEC0EA26
:104500002EEE0A0A32F01AF920EE0D0A39EE00FA00
:104510002EEE0C0A32F012F928EE000A3FEE000AE5
:10452000013485ED010A043530EE0BBAA145E3D123
:1045300018E100BFA9F1010033F008F81FED7E0B70
:1045400004460D4651EC100B22462B4632F068FE15
:1045500032F080FD1FED7C0B09EE100A51EC100BC0
:1045600022462B4632F05CFE32F074FD1FED800BCC
:104570000AEE100A51EC100B22462B4632F050FE88
:1045800032F068FD1FED94BA9FEDDFDA9FEDDFEAB0
:104590009FEDDFFADFEDDF8A0CEE100A341F0025F5
:1045A00000EE105AF8EEC09A29EE890A32F0C6F8E9
:1045B000B0EE408A29EE8A0A32F0C0F860EE0DAA09
:1045C00029EE8C0A32F0BAF820EE0F0A3AEEA81A59
:1045D00031EE000A28EE0E1A30EE010A013584EDA4
:1045E000010A30EE0BBA0434A945D9D1BAE000BFB4
:1045F000A9F1010032F0AAFF1FEDAD0B04460D46F4
:1046000051EC100B22462B4632F00AFE32F022FD0E
:104610001FEDAB0B09EE100A51EC100B22462B4696
:1046200032F0FEFD32F016FD1FEDAF0B0AEE100A60
:1046300051EC100B22462B4632F0F2FD32F00AFD0F
:104640001FEDC3BA9FEDF6DA9FEDF6EA9FEDF6FA9D
:10465000DFEDF68A0CEE100A341F002500EE105A2A
:10466000F8EEC09A29EE890A32F068F8B0EE408A76
:1046700029EE8A0A32F062F860EE0DAA29EE8C0A61
:1046800032F05CF820EE0F0A3AEEA81A31EE000A7A
:1046900028EE0E1A30EE010A013584ED010A30EEE3
:1046A0000BBA0434A945D9D15CE000BFA9F10100DF
:1046B00032F04CFF9FEDDE0B04460D4651EC100B23
:1046C00022462B4632F0ACFD32F0C4FC9FEDDA0BF3
:1046D00009EE100A51EC100B22462B4632F0A0FDD9
:1046E00032F0B8FC9FEDD60B0AEE100A51EC100B1D
:1046F00022462B4632F094FD32F0ACFC9FEDDEBA40
:104700009FEDE2DA9FEDE2EA9FEDE2FADFEDE28A69
:104710000CEE100A341F002500EE105AF8EEC09A75
:1047200029EE890A32F00AF8B0EE408A29EE8A0AA8
:1047300032F004F860EE0DAA29EE8C0A31F0FEFF8B
:1047400020EE0F0A3AEEA81A31EE000A28EE0E1AF1
:1047500030EE010A013584ED010A30EE0BBA043463
:10476000A945D9D100EE109AB8EEC00A80EE0B0A26
:1047700088ED000ABDEC108B01B0BDE8F08F00BFE2
:10478000484632F0E3FE9FEDB20B53EC102B32F0B3
:10479000B3FF9FEDB10B53EC102B32F08DFC32F0D8
:1047A00059FC09EE100A29EE080AB7EE001A81EE4C
:1047B00000AA9FEDB18A351F0024BEEE00BA00BFEB
:1047C00000EE104AB8EEC00A30EE490A20EE0A0A9E
:1047D00020EE000A20EE0B0A32F058F8013485ED85
:1047E000010A043530EE088AA145E9D100EE109A9D
:1047F000B8EEC00A80EE080A88ED000ABDEC108B06
:1048000001B0BDE8F08F00BFA9F1010032F09EFEBB
:104810009FED870B07460C4651EC100B3A4623469A
:1048200032F0FEFC32F016FC9FED830B09EE100A0D
:1048300051EC100B3A46234632F0F2FC32F00AFCFF
:104840009FED7F0B0AEE100A51EC100B3A462346FF
:1048500032F0E6FC32F0FEFB9FED7B0B0BEE100A14
:1048600051EC100B3A46234632F0DAFC32F0F2FB00
:104870009FED81CA9FED81EA9FED81FADFED818A8C
:10488000DFED819A0DEE100A351F0024F7EE00AA25
:1048900000EE104AF8EEC0BA2BEE890A31F04EFF56
:1048A000B0EE408A2BEE8A0A31F048FF60EE0ECA65
:1048B0002BEE8B0A31F042FF60EE28DA2BEE8D0AE8
:1048C00028EE0F8A31F03AFF3CEEAA1A31EE2D1A8B
:1048D00020EE290A31EE081A31EE000A013485ED86
:1048E000010A043530EE0CCAA145D1D100EE109A70
:1048F000B8EEC00A80EE0C0A88ED000ABDEC108B01
:1049000001B0BDE8F08F00BFB4AB103E2601FABE87
:10491000795D3FBC14AEB73E484632F017FE9FEDBE
:10492000540B53EC102B32F0C7FB9FED4D0B02469E
:104930000B4651EC100B32F073FC32F08BFB09EE9E
:10494000100A18EE100A33F043FA9FED470B53ECB0
:10495000102B32F0D1FE32F07DFB08EE100AB0EEE3
:10496000480A12F075FFB7EE00BA8BEE00CA9FED51
:1049700042AA351F0024BFEE00DA00BF00EE104A45
:10498000B8EEC00A20EE090A30EE0D0A20EE000A49
:104990003BEE400AB1EEC00A20EE080A12F058FFC2
:1049A00020EE0C0A013485ED010A043530EE0AAA26
:1049B000A145E3D100EE109AB8EEC00A80EE0A0AD3
:1049C00088ED000ABDEC108B01B0BDE8F08F00BF90
:1049D00029F00302A6F1100300214FF07E5700BF1B
:1049E000043143F8107F8A42C3E90177DF60F7D1D1
:1049F00068B14FF07E52012846F8212007D006EB1F
:104A0000810102284A601CBF4FF07E5088604FF041
:104A10007E50C8F80000BDEC108B01B0BDE8F08FEF
:104A20008EB1133EF88BF9BE02814EBC3927B63EDB
:104A3000182D4454FB211940182D4454FB212940C2
:104A4000D221337F7CD93240182D4454FB21394088
:104A5000000000000000E03F000000000000E0BF98
:104A60000000000000000040182D4454FB210940C4
:104A7000000000000000F0BF00000000B81EA53FCD
:104A80003D0AF7BFF0A7C6BE4260E53CBDE00B3E65
:104A90007975FABE02582EBC6827BA3E81B12DE95D
:104AA000F0474A1E032A01F0030C0DD20022002118
:104AB000BCF1000F51D1C843BDE8F047C0B2704708
:104AC000FF20C0B2704700BF21F00301C1F1000E0A
:104AD00000F1010800216FF003034FF0010900BF4E
:104AE00008EB0305EE782F7931446A7995F806A032
:104AF000CCB259FA81F58EB2FF2C08BF0125FF2EEA
:104B000098BF0D46E919CDB259FA81F68CB2FF2D46
:104B100008BF0126FF2C98BF0E46B118CCB259FA37
:104B200081F58AB2FF2C08BF0125FF2A98BF0D46E8
:104B300005EB0A02D5B259FA82F194B2FF2D08BFF3
:104B400001210433FF2C98BF11460EEB03020432FF
:104B5000C6D11A1DBCF1000FADD0835CCF18FDB2D9
:104B60000123BEB253FA87F1FF2D08BF0121FF2EAA
:104B700098BF3946BCF1010F9DD0104442780A44D9
:104B8000D6B297B253FA82F1FF2E08BF0121FF2F50
:104B900098BF1146BCF1020F8DD08078014488B2D5
:104BA000B0F5807F87D3C8B20131FF2808BF01214B
:104BB000C843BDE8F047C0B270470000002944F286
:104BC000400120EE800AC2F202010FD0C0EB401378
:104BD00001EBC00201EB4303D26BDB6E01EE102A46
:104BE00002EE103A31EE021A30EE410A01EBC00239
:104BF000C0EB4010926B01EB4000806E01EE102A7A
:104C000021EE000A01EE100A20EE010A70470000B2
:104C10002DE9F04F81B02DED048B42F24839C2F2FC
:104C2000000999F80000002800F01E82D9E904016B
:104C300001F05AFD44F240080028C2F2020800F0D8
:104C40003E8242F6D0359FEDC59A09F1280700262D
:104C5000C2F200054FF47A7A002416E0DBF88900EE
:104C600000EE100ABCEEC00A10EE100A00FB0AF0BB
:104C70000EF03AFBC5E900013E3601340835B6F5C1
:104C8000BA7F07F1080700F0148208EB060B9BF8C7
:104C90007800B0EE498A052804D8214603F040FC8C
:104CA000B0EE408A052C00F26780DFE804F00309CB
:104CB0000F151B61B9F80A00C00717D15CE000BFEF
:104CC000B9F80A00800711D456E000BFB9F80A000D
:104CD00040070BD450E000BFB9F80A00000705D424
:104CE0004AE000BFB9F80A00C00645D5DBF87900F4
:104CF00000EE100AB4EE408AF1EE10FA34DAD7E989
:104D0000000101F0F1FC002800F07E80DBF881005A
:104D100000EE100ABCEEC00A10EE100A00FB0AF00A
:104D20000EF0E2FAC7E90001B9F80800B9F80A1074
:104D300000F03F0001F03F02052CA9F80800A9F897
:104D40000A2000F23F81DFE814F0070015011D0181
:104D500025012D01350100BF01F03E01A9F80A101F
:104D6000C00740F077802DE1DBF8850040E000BF10
:104D7000B9F80A008006B9D4DBF8790000EE100A11
:104D8000B4EE408AF1EE10FA30DDD7E9000101F00F
:104D9000ABFC002838D0DBF8850000EE100ABCEE32
:104DA000C00A10EE100A00FB0AF00EF09DFAC7E9E7
:104DB0000001B9F80800B9F80A1000F03F0001F04E
:104DC0003F02052CA9F80800A9F80A2000F2FA8091
:104DD000DFE804F0049EA6B0BAC600BF01F03E01B1
:104DE0000131A9F80A10C00734D1EBE0DBF88100EB
:104DF00000EE100ABCEEC00A10EE100A00FB0AF02A
:104E00000EF072FAC7E90001052C00F2DB80DFE842
:104E100004F003090F151B61B9F80800C00719D188
:104E2000D0E000BFB9F80800800713D4CAE000BF83
:104E3000B9F8080040070DD4C4E000BFB9F8080075
:104E4000000707D4BEE000BFB9F80800C00640F173
:104E5000B98000BFDBF87D0000EE100AB4EE408A96
:104E6000F1EE10FA32DAD5E9000101F03DFC00283C
:104E70003FF402AFDBF8890000EE100ABCEEC00A76
:104E800010EE100A00FB0AF00EF02EFAB9F8082016
:104E9000C5E90001B9F80A1002F03F00A9F80800BE
:104EA00001F03F00052CA9F80A0000F20281DFE8BA
:104EB00014F0070017001D0023002900F50000BFB3
:104EC00002F03E00A9F80800D6E600BFDBF88D002E
:104ED000C6E600BFB9F808008006BBD472E000BF88
:104EE00002F03D00A9F80800C6E600BF02F03B0052
:104EF000A9F80800C0E600BF02F03700A9F80800D2
:104F0000BAE600BF02F02F00A9F80800B4E600BF1F
:104F100001F03D010231A9F80A1080079AD451E04E
:104F200001F03B010431A9F80A1040073FF592AFA8
:104F300048E000BF01F037010831A9F80A10000766
:104F40003FF588AF3EE000BF01F02F011031A9F816
:104F50000A10C0063FF57EAF34E000BF000000003D
:104F6000012262F35F11A9F80A1080063FF572AFC3
:104F700028E000BF01F03D01A9F80A1080073FF5C5
:104F800069AF1FE001F03B01A9F80A1040073FF5A7
:104F900061AF17E001F03701A9F80A1000073FF5EB
:104FA00059AF0FE001F02F01A9F80A10C0063FF534
:104FB00051AF07E001F01F01A9F80A1080063FF584
:104FC00049AF00BFDBF87D0000EE100AB4EE408A66
:104FD000F1EE10FA7FF742AED5E9000101F084FB53
:104FE00000283FF449AEDBF88D0000EE100ABCEE5D
:104FF000C00A10EE100A00FB0AF00EF075F9B9F8BD
:105000000820C5E90001B9F80A1002F03F00A9F82C
:10501000080001F03F00052CA9F80A003FF62CAE6D
:10502000DFE804F0040A10161C4200BF02F03E0044
:105030000130A9F808001FE602F03D000230A9F88F
:10504000080019E602F03B000430A9F8080013E656
:1050500002F037000830A9F808000DE602F02F0032
:105060001030A9F8080007E640F2DE300EF03CF9F7
:10507000C9E9040140F2B7300EF036F9C9E906017A
:1050800042F210700EF030F9C9E90801012089F8E8
:105090000000BDEC048B01B0BDE8F08F02F01F00F2
:1050A000A9F8080005E000BF012060F35F12A9F82D
:1050B000082040F2DE300EF017F9C9E90401D9E901
:1050C000060101F011FB002800F0CE8098F8800264
:1050D0000238032810D8DFE800F00315253300BF9D
:1050E00099F80C00002100F0F90089F80C0000206C
:1050F00003F044FF88B94DE099F80C0000F0F80087
:1051000046E000BF99F80C00002100F0F90089F892
:105110000C00002003F032FFE0BB99F80C0040F0D7
:10512000010035E00020002103F07AFE99F80C1010
:10513000002818BF41F0020101F0FA0028E000BF8A
:1051400099F80C002E2100F0FD0089F80C000020D9
:1051500003F0D4FED8F87C0201EE100AB4EE410A46
:10516000F1EE10FA05DD99F80C0040F0040089F822
:105170000C00D8F8780201EE100A99F80C00B4EE91
:10518000410AF1EE10FAB8BF40F0040000F0FE0052
:1051900089F80C0098F889020238032810D8DFE853
:1051A00000F00315253300BF99F80D00012100F030
:1051B000F90089F80D00002003F0E0FE88B94DE009
:1051C00099F80D0000F0F80046E000BF99F80D00D6
:1051D000012100F0F90089F80D00002003F0CEFE57
:1051E000E0BB99F80D0040F0010035E000200121FE
:1051F00003F016FE99F80D10002818BF41F00201C7
:1052000001F0FA0028E000BF99F80D002F2100F00E
:10521000FD0089F80D00002003F070FED8F885022B
:1052200001EE100AB4EE410AF1EE10FA05DD99F82C
:105230000D0040F0040089F80D00D8F8810201EE5D
:10524000100A99F80D00B4EE410AF1EE10FAB8BF59
:1052500040F0040000F0FE0089F80D0040F2B73085
:105260000EF042F8C9E90601D9E9080101F03CFA5B
:1052700000283FF40EAF04F0A1F899F804100028BC
:1052800018BF012001F0FD01084389F80400042043
:1052900003F0EEFEB3EE0A8AB4EE480AF1EE10FA1D
:1052A00020DCB3EE049AB4EE490AF1EE10FA19DBF1
:1052B000032003F0DDFEB4EE480AF1EE10FA11DC33
:1052C000B4EE490AF1EE10FA0CDB052003F0D0FE33
:1052D000B4EE480AF1EE10FA04DCB4EE490AF1EE3D
:1052E00010FA05DA99F8040040F0040089F8040087
:1052F00042F2B064C2F2000494F83400800708D58A
:1053000000F038FB28B999F8040040F0080089F84B
:10531000040098F88D02012808D10DF00DFC28B981
:1053200099F8040040F0100089F80400002000F013
:10533000DBFB9FED3F8AB4EE480AF1EE10FA1EDC6B
:10534000B5EE400AF1EE10FA19DB012000F0CCFBBB
:10535000B4EE480AF1EE10FA11DCB5EE400AF1EEB7
:1053600010FA0CDB022000F0BFFBB4EE480AF1EEAD
:1053700010FA04DCB5EE400AF1EE10FA05DA99F8FD
:10538000040040F0200089F80400D9F80C0099F8D6
:105390000D2000F0F80189F80C1002F0F80189F8EE
:1053A0000D1028B199F8040040F0400089F804007D
:1053B000D9F8080028B199F8040040F0800089F875
:1053C000040003F02FFC28B1484630F8051F41F0D7
:1053D0000101018094F83400C00708D001F0F0F911
:1053E00028B9484630F8051F41F00201018003F05A
:1053F000DFFB39F8051F002899F8022041EA024135
:1054000018BF41F0040101F007000021A9F80000D5
:105410004FF4027089F802100DF066FFC9F81B0006
:10542000C9F81F10BDEC048B01B0BDE8F08F00BFC0
:105430000000B4422DE9F04788B00D464978144683
:105440008A1F0646F92A4FF0040000F20781DFE8C0
:1054500012F03101390105010501050105010501C0
:10546000050105010501050105010501050105010C
:1054700005010501050105010501050105010501FC
:1054800005010501050105010501050105010501EC
:1054900005010501050105010501050105010501DC
:1054A00005010501050105010501050105010501CC
:1054B00005010501050105010501050105010501BC
:1054C0000501050105010501050105011901190184
:1054D0001901190105010501050105010501050174
:1054E000050105010501FB00FB00FB00FB00FB00C3
:1054F000FB00FB0005010501050105010501050192
:10550000050105010501050105010501050105016B
:10551000050105010501050105010501050105015B
:10552000050105010501050105010501050105014B
:10553000050105010501050105010501050105013B
:10554000050105010501050105010501050105012B
:10555000050105010501050105010501050105011B
:10556000050105010501050105010501050105010B
:1055700005010501050105010501050105010501FB
:1055800005010501050105010501050105010501EB
:1055900005010501050105010501050105010501DB
:1055A00005010501050105010501050105010501CB
:1055B00005010501050105010501050105010501BB
:1055C00005010501050105010501050105010501AB
:1055D000050105010501050105010501050105019B
:1055E000050105010501050105010501050105018B
:1055F000050105010501050105010501050105017B
:1056000005010501050157010901110121010901E8
:1056100011012101090111012101090111010901F2
:10562000110105020501050105010501050105013D
:10563000050105010501050105016F018501AF01A6
:1056400005010501DF0100BF2068AA1C02382060A7
:10565000304623460EF0DAF9FF2823D008B0BDE823
:10566000F08700BFAA1C3046234602F071FC08B048
:10567000BDE8F087AA1C3046234605F009FD08B0B6
:10568000BDE8F087AA1C3046234602F091FB08B023
:10569000BDE8F087AA1C304623460EF0EFFA08B0AA
:1056A000BDE8F087206802302060FF2008B0BDE828
:1056B000F08700BF21680220122908BF0B2008B024
:1056C000BDE8F0872068022840F00C81684604F0AD
:1056D00053FE039A9DE80B000DF1100C07928CE825
:1056E0000B00C5F80E20C5F80A30C5F80610C5F83D
:1056F000020012202060FF2008B0BDE8F08700BF44
:105700002068022840F0EE80A81C042106F016FF55
:10571000A81D2A2106F012FF05F10A00962106F0C5
:105720000DFF0E202060FF2008B0BDE8F08700BF0D
:105730002068062840F0D680A81C06F0EFFE41F253
:105740003421C5F2AA5188425ED102202060304641
:1057500006F022F9FF2008B0BDE8F08720680A288B
:1057600040F0C080A81C06F0D9FE45F27861C1F275
:105770003421884248D1A81D06F0D0FE0146002001
:10578000B0EB114F40D101F0FE0005284FF00500AD
:105790003FF664AFFF2282EA1122C9B28A427FF447
:1057A0005DAF30460DF086FEFF2008B0BDE8F08703
:1057B00020680A2840F09680A81C06F0AFFE45F24B
:1057C0007861C1F2342101F1113188421CD1A81D48
:1057D00006F0A4FE0021B1EB104F15D1FF2181EAA4
:1057E0001022C1B28A420FD100294FF005003FF4C8
:1057F00035AFFF293FF432AF30460DF083FBFF2079
:1058000008B0BDE8F08700BF052008B0BDE8F0870C
:105810002068022866D140F20A20C0F20010C5F8C4
:10582000020040F6EC00C2F2000006680635304681
:10583000FBF7FAF90746421C28463146FBF768FA9F
:10584000062010FA87F0206040F65C10C2F20100DA
:1058500001210170FF2008B0BDE8F08720680A2808
:1058600040D105F1020840F234294046C0F2010956
:1058700006F04CFEAE1D8246304606F047FE01465D
:10588000A9F1010082454FF005003FF6E7AE01297E
:10589000FFF6E4AE41F28507B942B8BF0F4607EB09
:1058A0000A00484540465146C8BFA9EB0A0706F022
:1058B0003DFE3046394606F039FE05F10A004946FC
:1058C00006F034FE3A46012FD8BF0122511E48F29D
:1058D000EE7C02F0030E0329C0F6070C06D200226C
:1058E00016E000BF022008B0BDE8F0874FF6FC7359
:1058F000C7F6FF7313400AEB0C02561C0022B118C6
:1059000051F8011CA81804329342C0F80E10F6D1C9
:10591000BEF1000F11D002EB0A031CF803002A4469
:10592000BEF1010F907308D003EB0C014878BEF173
:10593000020FD07301D08878107407F10C0081B287
:105940004046FEF791F9014678190E3006F0EEFD5B
:1059500007F112002060FF2008B0BDE8F0870000CA
:105960004FF2884200EB8000C2F2000202EB80009E
:105970000174704780B544F2E420C2F2020014F0D2
:10598000BDF8002818BF012080BD000000F002B85B
:1059900000F038B810B546F20044C4F202040DF02D
:1059A000F3FB20460121202214F05AF9012818D1D6
:1059B00020460121202214F03DF92046012114F057
:1059C00059FB4FF2C0514FF6C012C2F20001C2F2B1
:1059D0000002002808BF114608464FF4807100F00D
:1059E00033FA20460121012214F03AF9012804D1AA
:1059F00020460121012214F01DF9BDE8104009F0F4
:105A00001FB8000010B546F20044C4F2020420465C
:105A10000421202214F024F9012816D12046042163
:105A2000202214F007F92046042114F023FB42F64B
:105A3000102142F6F022C2F20001C2F20002002858
:105A400008BF1146084600F04DFB20460421012204
:105A500014F006F9012818BF10BD204604210122C8
:105A6000BDE8104014F0E6B810B501F09DFD40F01F
:105A70006004E0B202F014F804F0BF00BDE810408A
:105A800002F00EB8022884BF0020704744F24001A3
:105A9000C2F20201084490F88A02704744F24001C1
:105AA000C2F2020191F88A22824201D100200DE067
:105AB00091F88B22824201D1012007E091F88C12EB
:105AC00081421CBF9FED070A704702204FF6886194
:105AD00000EB8000C2F2000101EBC00090ED020A71
