:020000040804EE
:1000000040060420D5030408ADB50408799F040810
:100010009DB104086D3B0408C93D050800000000BF
:100020000000000000000000000000006D26050830
:10003000856204080000000075C10408312F05081E
:10004000F3030408F3030408F3030408F3030408A8
:10005000F3030408F3030408F3030408F303040898
:10006000F3030408F3030408F3030408F303040888
:10007000F3030408F3030408F3030408F303040878
:10008000F3030408F3030408F3030408F303040868
:10009000F3030408F3030408F3030408F303040858
:1000A000F3030408F3030408F3030408F303040848
:1000B000F3030408F3030408F3030408F303040838
:1000C000F3030408F3030408F3030408F303040828
:1000D000F3030408F3030408613905086D390508C2
:1000E000F3030408F3030408F3030408F303040808
:1000F000F3030408F3030408F3030408F3030408F8
:10010000F3030408F3030408F3030408F3030408E7
:10011000F3030408F5380508F3030408F30304089F
:10012000F30304082D580408F3030408F303040838
:1001300031580408F3030408F3030408F303040824
:10014000F3030408F3030408F3030408F3030408A7
:10015000F3030408F3030408F3030408F303040897
:10016000F3030408F3030408F3030408F303040887
:10017000F3030408F3030408F30304080000000079
:10018000F3030408F3030408F3030408F303040867
:10019000F3030408F3030408F30304080000000059
:1001A000F3030408F3030408F303040800F002F85F
:1001B00000F09CF80AA090E8000C82448344AAF165
:1001C0000107DA4501D100F091F8AFF2090EBAE863
:1001D0000F0013F0010F18BFFB1A43F0010318477B
:1001E0002CEC04008CEC0400103A24BF78C878C1D1
:1001F000FAD8520724BF30C830C144BF04680C602D
:10020000704700000023002400250026103A28BF74
:1002100078C1FBD8520728BF30C148BF0B60704778
:100220006E2900F0C987702900F03D83662937F0F8
:100230004287652937F03F87672937F03C87612976
:1002400037F03B8703681B0A28BF41F0800169290A
:1002500000F0AE82642900F0AB82752900F0A8821C
:100260006F2901F0D782782900F00983E92901F08C
:100270007182E42901F06E82F52901F06B82EF2989
:1002800001F0D482F82900F008830368DB0928BF55
:1002900041F08001632901F0E081732901F0E581DB
:1002A000E32901F09987F32901F09E870020704728
:1002B0001FB537F07AFE9DE8030000F0E3FE00F082
:1002C00024FC00F0BFFE04000020002136F0B8FE40
:1002D000401C60600020002136F0C8FEE06001F0A4
:1002E000A1FC1FBD10B501F006FD10BD02F01FF905
:1002F0001146FFF7DDFF26F047FA02F04EF903B48E
:10030000FFF7F0FF03BC01F035FD00000B49D1F809
:1003100000C04A685CF8043B1068184442F8040BBB
:100320008C4528BFA1F1DC0C8A4228BFA1F1DC0278
:10033000C1F800C04A6020F000407047D82100207A
:10034000F0B400EB4003DFF8880000EBC30000F1DD
:1003500018063069F7687568874232D3B368DC1BCA
:10036000631E934214D37D19D01900BF11F8013BCD
:1003700005F8013B521E05D011F8013B05F8013B81
:10038000521EF3D1BFF35F8FF0600120F0BC7047C5
:10039000C018904219D37819121B11F8013B00F8CC
:1003A000013B641EF9D1141C05D011F8013B05F87E
:1003B000013B521EF9D1BFF35F8FF4600120F0BC06
:1003C0007047C01B401E9042CDD20020F0BC704749
:1003D000B43501200A4880470A4880470A48004748
:1003E000FEE7FEE7FEE7FEE7FEE7FEE7FEE7FEE7E5
:1003F000FEE7FEE705480649064A074B704700003E
:10040000352F050889C10408AD0104084085032083
:1004100040060420408603204086032010B500F0EB
:1004200011FE001D10BD00BF196C030070B506461B
:1004300000F004FE056806F10B0020F00704B4424A
:100440009CBF002070BD2B466A68BAB11068A042FC
:1004500010D304F1080188423CBF5068586007D3AC
:100460005168101941601168091B016058601460DF
:10047000101D70BD13465268002AE7D12146284658
:1004800000F0ECFD0028DED170BD70B50446051FFC
:1004900000F0D4FD0068002C14BF446870BD002C2F
:1004A00018BFAC423CBF20466468F8D301680A1804
:1004B000AA4218BF456003D12A680546114401606D
:1004C00028684119A1421CBF6C6070BD61686960F9
:1004D00021680844286070BD53EA020C00F069806E
:1004E0002DE9F04B4FF00006002B1FBFB3FA83F548
:1004F00003FA05F424FA05F65E4012BF1643B2FA79
:1005000082F502FA05F4C5F120051EBF22FA05FCAA
:1005100044EA0C04203556EA044C4FEA144418BF50
:10052000641C4FF000084FF00009904271EB030C7F
:1005300039D3002919BFB1FA81F701FA07F6B0FAE9
:1005400080F700FA07F6C7F120071EBF20FA07FC64
:1005500046EA0C062037B6FBF4FCA7EB0507103F74
:1005600007F01F0BCBF120062CFA06F60CFA0BFB5A
:1005700044BFB3460026202FA4BF5E464FF0000BB9
:100580005BEA060C08BF4FF0010B19EB0B0948EBB7
:100590000608ABFB027C06FB02CC0BFB03CCC01BAA
:1005A00071EB0C01C1E70B46024641464846BDE8E7
:1005B000F08B13B5084318BF4FF0FF300146AFF37F
:1005C0000080BDE81C40704753EA020C23D010B5F0
:1005D0004C1084EA530404D54042C1F1000138BFF5
:1005E000491E1B4204D55242C3F1000338BF5B1EB3
:1005F000FFF772FF14F0804F04D04042C1F10001B8
:1006000038BF491E14F0004F04D05242C3F100031A
:1006100038BF5B1E10BD13B540424FF0000070EBB9
:100620000104B8BF012001F0004100281CBF6FF099
:1006300000414FF0FF30AFF300801CBD10B5044601
:10064000FFF7ECFE0068005D000704D5DF2C02D048
:10065000A4F1200010BD204610BD00000A4601494B
:1006600001F008B8542000200FB4044910B503AAC3
:10067000029800F0FFFF10BC5DF814FB542000202E
:100680000FB41CB5084B06AA7B4469460090059838
:1006900000F0B9FF04460020694600F0C7FF20467D
:1006A0001CBC5DF814FB0000A10F00000FB41CB5CA
:1006B0000C0007AA009007D04142A14202D3204477
:1006C000401E01E04FF0FF30074B7B44694601902C
:1006D000069800F098FF0021002C01D0009A1170BC
:1006E0001CBC5DF814FB0000690F000070B50446E7
:1006F00085690068C10601D5302600E02026C007C4
:1007000007D070BDD4E9012130469047206A401CD3
:1007100020626D1EF6D570BD70B5044685690078FF
:10072000C00707D170BDD4E9012120209047206A7D
:10073000401C20626D1EF6D570BD09684A0501D5C2
:1007400040B27047C905FCD500B2704709684A0538
:1007500001D5C0B27047C905FCD580B2704770B5ED
:100760000C460546012A05D02878800600D5EA699E
:10077000002302E0012305E05B1C934202D2E05C0F
:100780000028F9D1A869E618C01AA861286A184497
:1007900028622846FFF7AAFF04E0D5E9012114F8F2
:1007A000010B9047B442F8D32846FFF7B5FF70BD60
:1007B0002DE9F0410646002410687529314616A53A
:1007C00010D0FFF7BAFF002802DA404213A507E075
:1007D00031688A0701D512A502E0490704D511A5A1
:1007E000012401E0FFF7B2FF00210A2206F12407ED
:1007F00009E0B0FBF2FCB0FBF2F302FB1C0030306E
:1008000078541846491C0028F3D123462A4630461E
:10081000BDE8F04100F077BC000000002D000000B2
:100820002B00000020000000F0B40D4601880905EF
:1008300002D5214C7C4402E01F4C7C440E34002144
:1008400000F1240608E002F00F071209E75D42EA12
:1008500003721B097754491C52EA0307F3D102784B
:100860000023120704D5702D06D009B102231134DC
:100870002246F0BC00F047BC01231034F8E770B505
:1008800004460D4621461068FFF760FF02462946E0
:100890002046BDE870400023C6E7D21D22F00703C2
:1008A000D3E90023C0E70368126843F02003036024
:1008B0000823C3610023B7E7927803002DE9F05FB6
:1008C000894604464FF0000ADFF874B1FB44C0F8D3
:1008D00020A02046E1688847002874D0252806D04B
:1008E000D4E901219047206A401C2062F1E70026EC
:1008F0005F462046E16888472028054607DB312D02
:1009000005D2781910F8200C08B10643F1E7B007BA
:1009100001D526F00406C4F81CA00027C4F818A0CE
:100920002A2D09D0284636F075FB38B304EB87082A
:10093000303DC8F8185019E059F8041B204604EB64
:1009400087029161E1688847012F054618D1E06967
:10095000002820DA26F020061DE0D8F8180000EB69
:10096000800005EB40003038C8F818002046E168E8
:100970008847054636F04EFB0028EED1012F0AD0FD
:100980002E2D08D12046E16888477F1C0546022F9E
:1009900046F02006C4DBA069002803DA404246F096
:1009A0000106A061F00701D026F010066C2D0BD0D7
:1009B000682D09D04C2D39D06A2D35D0742D35D005
:1009C0007A2D33D016E038E0E1682F46204688477C
:1009D000B842054609D16C2F26D04FF48060E168FB
:1009E000064320468847054604E06C2F1AD04FF492
:1009F000807006430DB3A5F14100192802D82035B7
:100A000046F400664A462946204626604E46FFF7D1
:100A100007FC80B101280BD0F61D26F0070000F17D
:100A2000080956E74020E4E78020D8E70020D6E711
:100A300006F104094DE7284652E7206ABDE8F09F19
:100A40002278030070B50446C068810713D0800681
:100A500001D5A56A04E0A169606808442169451AC6
:100A6000204601F09BF8002206462946204600F069
:100A7000D9FF304670BD002070BD70B510B1BDE823
:100A80007040DFE70025074C6E1E07E02046FFF7A9
:100A9000D9FF00B13546206D20F00104002CF5D1BE
:100AA000284670BD00200020014936F0BABA000087
:100AB0005420002010B5044603E036F0B2FA401C82
:100AC00009D014F8010B05490028F6D1BDE8104003
:100AD0000A2036F0A6BA4FF0FF3010BD5420002097
:100AE0000B4910B5A1F17C020A4CC2E9371237213B
:100AF00006E000EB104342F82130074B00FB0340B7
:100B00000B1EA1F10101F4DC10BD0120E8E700009B
:100B100078210020E119D666CD0D01000EB50546FD
:100B200014460E4613A001F0F5FC284601F0F2FC35
:100B300016A001F0EFFC304601F0ECFC15A001F02E
:100B4000E9FC00218DF80B100A210DF10A008DF847
:100B50000A1008E094FBF1F201FB124294FBF1F45D
:100B6000303200F8012D002CF4DC01F0D3FC01F050
:100B7000F5F800002A2A2A20617373657274696F80
:100B80006E206661696C65643A2000002C206669FD
:100B90006C6520002C206C696E65200030B5034622
:100BA0001D781DB10A4603E0AC4201D1181A30BDD0
:100BB00012F8014B002CF7D15B1CF1E730B503466E
:100BC0001D783DB10A4612F8014B1CB1AC42FAD176
:100BD0005B1CF5E7181A30BD40EA010310B59B070E
:100BE0000FD1042A0DD310C808C9121F9C42F8D097
:100BF00020BA19BA884201D9012010BD4FF0FF3048
:100C000010BD1AB1D30703D0521C07E0002010BD5D
:100C100010F8013B11F8014B1B1B07D110F8013BE9
:100C200011F8014B1B1B01D1921EF1D1184610BDCA
:100C300010B5431C02E010F8011B71B18107FAD115
:100C40004FF0013202C88C1A8C4314EAC211F9D059
:100C5000C01A0A0603D0C01E10BDC01A10BD0A0477
:100C600001D0801E10BD0902FCD0401E10BDCBB2C9
:100C70002AB101788B4203D0401C521EF9D10020CA
:100C8000704740EA010370B59B072ED14FF0013643
:100C9000042A2AD308C810C99D1B9D43121F15EAB8
:100CA000C61517D0D8B2E1B2401A50EA056110D18A
:100CB00098B2A1B2401A50EA05410AD123F07F4010
:100CC00024F07F41401A50EA052102D1180EA0EB12
:100CD000146070BDA342DBD018BA21BA884201D992
:100CE000012070BD4FF0FF3070BD0AB9002070BD0B
:100CF00010F8013B11F8014B63B1A3420AD1521E17
:100D000008D010F8013B11F8014B1BB1A34201D1EF
:100D1000521EEDD1181B70BD032A40F2308010F036
:100D2000030C00F0158011F8013BBCF1020F624486
:100D300098BF11F801CB00F8013B38BF11F8013B17
:100D4000A2F1040298BF00F801CB38BF00F8013BC4
:100D500011F0030300F02580083AC0F0088051F834
:100D6000043B083A51F804CBA0E80810F5E7121D3F
:100D70005CBF51F8043B40F8043BAFF30080D2075E
:100D800024BF11F8013B11F801CB48BF11F8012B2A
:100D900024BF00F8013B00F801CB48BF00F8012B4D
:100DA000704710B5203AC0F00B80B1E81850A0E8A9
:100DB0001850B1E81850A0E81850203ABFF4F5AF29
:100DC0005FEA027C24BFB1E81850A0E8185044BF85
:100DD00018C918C0BDE810405FEA827C24BF51F8F2
:100DE000043B40F8043B08BF7047D20728BF31F8E6
:100DF000023B48BF11F8012B28BF20F8023B48BF37
:100E000000F8012B704702F0FF0343EA032242EA95
:100E1000024200F002B84FF000020429C0F0128034
:100E200010F0030C00F01B80CCF1040CBCF1020F9D
:100E300018BF00F8012BA8BF20F8022BA1EB0C0172
:100E400000F00DB85FEAC17C24BF00F8012B00F868
:100E5000012B48BF00F8012B70474FF0000200B58E
:100E6000134694469646203922BFA0E80C50A0E8CD
:100E70000C50B1F12001BFF4F7AF090728BFA0E87B
:100E80000C5048BF0CC05DF804EB890028BF40F847
:100E9000042B08BF704748BF20F8022B11F0804F89
:100EA00018BF00F8012B704710B5044610F0030F6F
:100EB00008BF11F0030F40F015804FF0013E121FE4
:100EC000C0F20E8051F8043BA3EB0E0C2CEA030C8D
:100ED0001CEACE1C08BF40F8043BF0D0A1F104018D
:100EE00002F10402521E08DB11F8013B00F8013B3D
:100EF000002BF7D11146FFF78EFF204610BD0000F2
:100F000030B44FF0013C50F8042B51F8043BCCFABC
:100F100052F4D51A20D1FCB950F8042B51F8043BF7
:100F2000CCFA52F4D51A17D1B4B950F8042B51F8B1
:100F3000043BCCFA52F4D51A0ED16CB950F8042BFC
:100F400051F8043BCCFA52F4D51A05D1002CDAD072
:100F500030BC4FF00000704729BAB1FA81F111F0AE
:100F60001801D1F120008440F2D1CA40CB4012F0E8
:100F7000FF0213F0FF0330BCD01A704770B50C4667
:100F8000016800204A1C3ED03C22B1FBF2F302FB78
:100F90001313B1FBF2F12360B1FBF2F302FB131365
:100FA000B1FBF2F118226360B1FBF2F302FB131301
:100FB000B1FBF2F146F2E0320A440721A360B2FB32
:100FC000F1F301FB132140F2B553B2FBF3F5A1613C
:100FD000B2FBF3F103FB15228900B2F5B77F08D30A
:100FE0009B10521EB2FBF3F52944B2FBF3F503FB51
:100FF00015220F4BE261616189077B440CD03B2ACB
:101000000AD3521C08E02C212046FFF726FF0120BE
:10101000E0600AE0521A401C195C9142FAD9521C55
:10102000C4E903204FF0FF302062204670BD00006D
:101030003E710300704770477047000000487047DA
:10104000E821002000487047002200200048704737
:10105000E0210020704770477047704738B504465C
:101060000A4600206946AFF30080002808BF38BD5B
:1010700002460099204600F087FE012038BD01207D
:1010800001F040BAF8B5AFF30080054600200C46E9
:10109000102000BF0646A819A0420DD93246694665
:1010A0000020AFF30080070008BF01F02BFA009882
:1010B000A04218BF0546C419FFF7C0FF05600746E8
:1010C000F01D20F007004619284600F00AF8B44247
:1010D00008BFF8BDA21B31463868BDE8F84000F0F3
:1010E00053BE00210160C0E9011070471020704715
:1010F00010B5FFF7ABFF006810BD10B50446FFF751
:10110000A5FF046010BD2DE9F0470D4699469246B3
:10111000044600F124080168880604D5E06921F03E
:101120001001216000E00120A84201DD471B00E022
:101130000027A1697A1902EB0900081AA06120783A
:10114000C00602D42046FFF7D1FA002608E0D4E911
:1011500001211AF806009047206A401C761C206284
:101160004E45F4DB2078C0060AD52046FFF7BEFACC
:1011700006E0D4E9012130209047206A401C20621B
:10118000381EA7F10107F4DC07E0D4E9012118F8C3
:1011900005009047206A401C2062281EA5F1010529
:1011A000F3DC2046FFF7B8FA2078000602D50220CB
:1011B000BDE8F0870120FBE711680268006A53056B
:1011C00001D508700AE0D30501D5088006E01306B2
:1011D00003D5C217C1E9000200E008600120704792
:1011E0002DE9FF4F0C461E464FF0FF378BB0D2E97A
:1011F0000001DDF860800A908A46C1F30A5505B9FE
:101200003D46002108464FF00000BAF1000F00F4FF
:10121000400005DA00EB80004FF4400101EA500085
:101220004FEA9059B9F1010F00DDB9460A9850EA2A
:101230004A000ED044F61050A5F2FF3545432F1456
:10124000B8F1000F1ED07542291E1EDDC9F1000243
:101250001CE0B8F1010F4FF0000001D0302103E095
:10126000F24305E02154401CB042FBDB3046002233
:10127000002121540B99C1F80880C1E900200FB06A
:10128000BDE8F08FBD1B6D1CDEE74A4600DA6942FF
:1012900006A800F0ADFF06AB93E8070003AB83E8B8
:1012A000070050460A9934F074FE8DE80700A0F557
:1012B00000501F3800900398002D0ADD42F21F01F4
:1012C0004A460844002303A90390684635F0DEF837
:1012D00009E0A0F500504A461F38002303A90390F7
:1012E000684635F0E8F88DE807000004000C03D0EC
:1012F0004FF0FF30410800E01046B8F1000F03D076
:101300000022009215461EE0751E05D400F056FD21
:10131000303262556D1EF9D5B3460122084302D022
:1013200000227F1C04E02078302801D100227F1E9B
:10133000002A099784D01DE0112D07DA00F03EFD48
:10134000303262556D1C50EA0102F5D1084302D0DB
:101350000098C8B10EE00021681E05E0235C625CC5
:1013600063542254401E491C8142F7DBAB46A81B44
:10137000401E0990002004F80B000B98099AC0F851
:101380000880C0E9002B7AE711264FF0000857E7E4
:101390002DE9F04F88460446D21D22F0070191B096
:1013A000D1E90001CDE90A0135F0BCF902460B98FC
:1013B000C00F01D02D2007E02068810701D52B2028
:1013C00002E0202101EAC000032A099001D0072A87
:1013D00005DB03464146204600F0B4FE0BE12078D1
:1013E000800601D5E06900E00620B8F1650F81466E
:1013F00006D0B8F1660F18D0B8F1670F70D131E0A0
:101400000020B9F1110F009001DB112301E009F177
:1014100001030AAA01A90CA8FFF7E2FEDDE90C709E
:10142000002609F10105834647E001204B46009064
:101430004FF000470AAA01A90CA8FFF7D1FEDDE989
:101440000DB00C995D46002610B909F101000D1888
:10145000B9EB050003D4C0F1FF3609F10105A5EB96
:1014600009002BE0B9F1010F01DA4FF0010900206A
:10147000B9F1110F0090484601DD112300E0034649
:101480000AAA01A90CA8FFF7ABFEDDE90C704D46D6
:1014900000268346207800070AD4AB4500DA5D4673
:1014A00001A8012D04DD411911F8011C302907D0D4
:1014B0004F4502DA17F1040F04DA012082460FE0EB
:1014C0006D1EEEE7002F02DCED1B3E4403E0781CAE
:1014D000A84200DD7D1CB81B00F1010A4FF0004757
:1014E0002078000703D4AA4501DB4FF0FF3A002122
:1014F000B7F1004F0DF143088DF8431024D00220BE
:101500002B23002F01DA7F422D230A21021EA0F196
:10151000010000DC5FB197FBF1FC97FBF1F201FBEE
:101520001C7C17460CF1300C08F801CDEEE7A8F151
:10153000010003702188090501D5452100E06521DE
:10154000A0F1010800F8011C09980FA9A1EB0807F8
:10155000FF1D00B10120411901EBEA70A169384477
:10156000081A401EA0612078C00602D42046FFF76A
:10157000BDF8099828B1D4E901219047206A401CA0
:1015800020622078C00622D52046FFF7AFF81EE083
:10159000002E04DBB34502DD01A8805D00E03020B1
:1015A000D4E901219047206A401C2062761CAAF1F0
:1015B00001005FEA000A0AD1FFF744FDC068016834
:1015C000405CD4E901219047206A401C2062281E1B
:1015D000A5F10105DCDC07E0D4E9012118F8010BD5
:1015E0009047206A401C2062381EA7F10107F3DCF7
:1015F0002046FFF791F8032011B041E601694A1C2B
:1016000002610878704700B58FB0CDE90131002143
:10161000059105497944CDE9031011466846FFF765
:101620004DF90FB000BD0000E5FFFFFF0A6802F8AA
:10163000010B0A607047D1E900239A4202D2531C81
:101640000B601070704710B5436913B1AFF30080A1
:1016500001E0FFF784F8012010BD127800F12401A9
:101660000A7000224A700122EDE711684FF0FF3244
:10167000E9E70000074B70B50D467B44FFF7C3FF59
:101680000446284600F026FE10B14FF0FF3070BD32
:10169000204670BDA55903002DE9FF5F15468A4617
:1016A0000446DFF8AC80F8440027D8E900103E4635
:1016B000CDE9001010E03AF816106A4602A800F0D2
:1016C000EFFE411C07D02178890603D5E26939185D
:1016D00091420DD80744761C2078800602D5E06937
:1016E000B84205DDAE42E6DB3AF816000028E2D14A
:1016F000A069C01BA0612046FEF7F8FFD8E90010E2
:10170000CDE90010002017E03AF818106A4602A848
:1017100000F0C6FEB0F1FF3F81460BD000250DF171
:10172000080B05E0D4E901211BF8050090476D1C6A
:101730004D45F7D308F10100B0428046E4DB206A52
:10174000384420622046FEF7E7FFBDE8FF9F000017
:101750008A6A03002DE9F0418046D21D22F007027B
:101760000025D2E90002F52915A614D0011E72F158
:10177000000106DA0023D0EB030063EB020211A69E
:1017800008E0D8F800108B0701D50FA602E0490742
:1017900001D50EA601251146002408F1240704E016
:1017A00000F00CFB30323A55641C50EA0102F7D1CC
:1017B0002B46324621464046BDE8F041FFF7A3BC28
:1017C000000000002D0000002B00000020000000A1
:1017D00030B4002100F1240408E002F00705D2082B
:1017E000303542EA4372DB086554491C52EA03056E
:1017F000F3D10468002310A2250708D504F02004C3
:101800000C4304D0C46901230CA2641EC46130BC23
:10181000FFF779BC10B5044621461068FEF796FF25
:1018200002462046BDE810400023D1E7D21D22F039
:101830000701D1E90023CBE70000000030000000E1
:101840002DE9F05F054617460C46C86820F42010C5
:1018500040F48000C860800602D5084600F0C1F957
:10186000E06841F282014FF0FF3A0140022903D0C3
:10187000204600F053F9B9E000F42041B1F5004FE3
:101880000FD1C00306D56168E06A884200D80846D7
:10189000606006E02069E0626060606913F082F9D0
:1018A000A061A0680022EEB200280DDAE1688B0585
:1018B0000AD4C043A06041F490302260E0606068C8
:1018C000411C61600670AAE0E0689146226040F425
:1018D0000050E060206978BB606913F065F904F19D
:1018E00024054FF00108A8B1A08910F4407F08D06A
:1018F000E069FEF79BFD206118B1E06840F40060EC
:1019000017E0C4F81C802561E06820F4407040F4C2
:1019100080600EE0E069FEF789FD00282061F0D0CC
:10192000E06840F4006010F4407FE06002D140F4D1
:101930008070E06020696060E06825696FF0010BED
:10194000C1051ED56168E06A884200D80846411B7F
:1019500004D02246284600F0EBF8E8BB1FB1E56250
:10196000C4E9015959E0681CE0626060E069401E0A
:10197000A060E06840F48030E06030462E70BDE842
:10198000F09F17B100F480320AE06068411C61608A
:101990000670E0680A2E40F48030E06006D0002235
:1019A000E16A6068814203D90B4602E00122F7E751
:1019B0000346B4F80CC05B1B5FEA4C5C04D4D4F85B
:1019C0001CC09C4500DD02B3814200D80146002BBB
:1019D000A1EB0008E56200E008E0C4E9015907DD79
:1019E00022461946284600F0A3F808B15046C6E73B
:1019F000B8F1000F09D0A169E5626560A1EB0800AC
:101A0000A061E06840F01000E06047B16168A06943
:101A1000E562491B08446560A0615846AFE730465F
:101A2000ADE700002DE9F041044616460D46476932
:101A3000007B80072ED0384613F0B6F850BB3EB37B
:101A4000012E02D0022E25D104E0204600F046FCF3
:101A500005441DE0384613F0A5F8E168002841F080
:101A60001001E16005DA204600F058F80120BDE8D9
:101A7000F081C9030BD56268E16A914200D8114632
:101A8000A26911442269891A814200DD0846054491
:101A9000002D01DA0220EAE7E16A6068E26881422B
:101AA00006D29103E06203D522F4003141F0100226
:101AB000A6690027AE4213DCE16A814201D90B46D8
:101AC00000E0034603EB060C2369ACEB030CAC45CA
:101AD00006DD814201D98C4600E084469C4505D153
:101AE000A760276042F02000A5620DE0AD1BE6690B
:101AF000AE1B8142A66000D90846C01A281A206091
:101B00005819606022F0200003490840E06000207E
:101B100084F84870ABE70000BFCFD7FFC16821F45D
:101B2000001141F08001C1600021816001607047B7
:101B30002DE9F74F15460C464FF0FF3B3848D76864
:101B4000D2F814A0074209D05046A96913F050F802
:101B5000002819DB3248C0430740EF604FF00049CE
:101B60006FF000484C4501D3464600E026460099F8
:101B70003B465046324613F03DF8A96920F000423A
:101B8000B21A1144A96128B12846FFF7C7FF584689
:101B9000BDE8FE8FA41BE5D10020F9E770B504462F
:101BA0000569C06A6168884200D80846E16821F486
:101BB0002011E160C90312D5A84208D02246411B7A
:101BC0002846FFF7B5FF10B14FF0FF3070BD002081
:101BD000E562C4E90150E06820F48030E060002054
:101BE00070BD10B50446C06820F02000E060A16A16
:101BF000A06988420DD02046FFF7D0FFE06820F4AE
:101C0000405040F01000E060A06AA0612069E062EE
:101C1000606044F24001E0688843E06010BD00006D
:101C20001000020010B542485421FFF716F9414850
:101C30005421FFF712F940485421FFF70EF93F49AC
:101C40003B483C4A3F4B08603D490A603A491960AD
:101C5000531C0365481C1065012008653B48344A45
:101C600039A1784400F07EFB20B9384878440A381E
:101C700000F041FC37482F4A35A1784400F072FB50
:101C800020B9344878440A3800F035FC32482A4AF2
:101C90002FA1784400F066FB20B92F4878440A3819
:101CA00000F029FC40232248DC000021224600F0FD
:101CB00036FB20B125487844543800F01CFC1D4800
:101CC00022464023002100F02AFB20B1214878441D
:101CD000543800F010FC184822461023002100F070
:101CE0001EFB002806D01C487844BDE8104056383A
:101CF00000F001BC10BD104870B5006D20F001046B
:101D00000B4800F0A7FB0B4800F0A4FB0A4800F0CA
:101D1000A1FB09E0206D20F00105204600F09AFBB0
:101D20002046FEF7B2FB2C46002CF3D170BD00001C
:101D30000020002054200020A82000209C08002023
:101D4000A0080020A40800207200000058640300CE
:101D500077000000446403003064030010B50020E5
:101D600000F0C2FBFEF7BEFABDE81040012000F013
:101D700001B8000001491820ABBEFEE726000200B2
:101D800000487047E0210020034640688C46002848
:101D900018BF88423CBF03464068F8D3186818440F
:101DA000884207D00CF1030020F00700001D411A03
:101DB000521A0146081D0A60FEF767BB30B5B0F144
:101DC0000A0271F100034FEA900E4EEA817EB0EBF9
:101DD0000E0061EB91014FEA101E4EEA017E10EBFE
:101DE0000E0041EB11114FEA102E4EEA016E10EB7E
:101DF0000E0041EB11214FEA104E4EEA014E10EB5E
:101E00000E0041EB1141401841F100014FEAD000B2
:101E100040EA41704FEAD1014FEA810444EA9074EC
:101E200010EB800544EB01046D1944EB0404521BD4
:101E3000A3414FF0000348BF0A3200D530BD401C1B
:101E400041F1000130BD00002DE9F04F04460D4680
:101E5000D21D22F0070089B0D0E9009748463946E4
:101E600034F060FC0246F80F01D02D2307E0206813
:101E7000810701D52B2302E0202101EAC0038DF860
:101E800020300BB1012000E00020032A824601D05F
:101E9000072A04DB2946204600F054F93FE1207868
:101EA000800601D40D2500E0E569C7F30A560D2D23
:101EB00049DA00214FEA175B08464FF00000002F77
:101EC00000F4400007DA00EB80004FF4400100EB23
:101ED000D07001EA60008115012901DD4FF0FF316A
:101EE00000224FEA850CBCF1180F06D31346ACF163
:101EF00018004FF08052C24003E04FF4801323FAE1
:101F00000CF30CF10C0CBCF1200F04D3ACF1200C41
:101F100009FA0CF001E007FA0CF000294FF0004834
:101F200001DD18B90FE00ED140450CD319EB0209C1
:101F30005F4121B9404502D19F4329EA0209BBEB29
:101F4000175F00D0761C2088000502D57B487844B6
:101F500002E07A487844193808AA302302F80A3097
:101F6000037C0AF10101002E0AF1020A53546A4669
:101F700002DC4FF0300101E04FF031014FF0010879
:101F80008DF8001002D0A6F2FF3603E059EA4701AF
:101F900000D06B4E002D02DC2178090704D54FF0EC
:101FA00002082E218DF80110C44600210BE0C7F372
:101FB00003433F01C35C491C6D1E02F8083005292C
:101FC00008F1010801DA002DF1DC00210CE000EB42
:101FD0001973491C1B786D1E082902F808304FEA56
:101FE000091908F1010801DA002DF0DC21688B06DF
:101FF00002D516E0A8F10108E04505DD02EB080373
:1020000013F8013C302BF5D0B8F1000F09DD02EBDD
:10201000080313F8013C2E2B03D1090701D4A8F1C2
:102020000108002D05DD3E2102F808106D1E08F1A3
:102030000108407C002E02F8080008F1010804DACB
:102040002D20764202F8080002E02B2002F808005A
:102050000A214FF47A70864208F101080BDB96FBE7
:10206000F0F3303302F8083096FBF0F308F1010882
:1020700000FB136601E0642E0CDB642096FBF0F39A
:10208000303302F8083096FBF0F308F1010800FB4A
:10209000136601E00A2E06DB96FBF1F0303002F801
:1020A000080008F1010896FBF1F001FB10603030E8
:1020B00002F80800A16908F1010808EB050202EB2B
:1020C0000A00081AA0612078C00602D42046FEF754
:1020D0000DFB216A08AE01EB0A00206204E0D4E99E
:1020E000012116F8010B9047BAF1010AF7D22078C6
:1020F000C00602D52046FEF7F9FA6E4609E016F84A
:10210000010B3E280FD0D4E901219047206A401CE2
:102110002062B8F10108F2D22046FEF7FDFA09B0BC
:102120000320BDE8F08F206A2844206203E0D4E950
:102130000121302090476D1EEBD3F8E729620300A0
:1021400002FCFFFF2DE9F0411F460446032601680B
:10215000072A01F4006004DB08B116A505E016A506
:1021600003E008B115A500E015A521F010002060DE
:10217000A069C01EA0610FB1401EA0612046FEF7FD
:10218000B5FA4FB1D4E9012138469047206A401C86
:102190002062C01C206206E0206AFAE7D4E901212F
:1021A00015F8010B9047761EF8D22046FEF7B4FAD8
:1021B000BDE8F0814E414E006E616E00494E460012
:1021C000696E660010B5436913B1AFF3008001E09A
:1021D000FFF762FA012010BD128800F12401828409
:1021E0000022C2840122EDE711684FF0FF32E9E7D7
:1021F0002DE9F047814616468AB0354878440DC827
:102200008DE80D0032487844801C03AC0DC884E88A
:102210000D0041F69B300844372190FBF1F290FB12
:10222000F1F5A5F1800501FB12041B3C02D56442C7
:10223000012000E00020DFF898A080460027FA4443
:10224000AAF1BE0A0EE0E0070AD03246684607EB64
:10225000470101230AEB810134F02DF98DE80700D5
:1022600064107F1C002CEED1194F7F44AE3F19E063
:10227000E80715D007EB04100DF1180A90E80E00DE
:102280008AE80E00C068F04201D1981908903246E1
:10229000012306A903A834F00EF903AB83E8070075
:1022A0006D10641C002DE3D14FF0010332466946E6
:1022B000B8F1000F03A802D034F0E8F801E034F0E0
:1022C000FAF8C9E90001C9F808200AB0BDE8F087AA
:1022D0000C600300007B00F08000704710B50146E1
:1022E000C268900703D0900607D5886A0AE0FEF717
:1022F000ADFE01210160881E10BD8B69486818443D
:102300000B69C01A91F848301BB191F84910401A76
:1023100010BD1103FCD50028FADD401E10BD70B5BC
:10232000C468A50713D0650211D4B2F5807F09D027
:10233000B2F5007F06D0B2F5806F08D1012300F11D
:10234000240106E05D1E6FF07F46B54201D30120F7
:1023500070BD0161C361416024F470611143C160CB
:10236000002070BD2DE9F0410C461646070047D00D
:10237000104600F06FF82078611C61280AD072289E
:1023800002D077283CD102E00125002405E0022597
:10239000042402E0082448F2020511F8010B2B285E
:1023A00006D0622809D011F8010C74280AD00BE07D
:1023B00045F0030544F00204EFE745F0040544F05E
:1023C0000104EAE744F010043846214612F0F4FB19
:1023D000411C15D00021316171604FF40071F5602E
:1023E000F1617061200704D5304602220021FFF719
:1023F00019FB306D40F0010030653046BDE8F081DA
:102400000020FBE72DE9F0410D460646104C206DFB
:10241000C10704D0410804D020F00104F7E72246A8
:102420000EE05420FEF702F807000ED0206D47F0B2
:1024300001010843542120653846FEF70EFD3A4657
:1024400029463046BDE8F0418CE70020D6E7000081
:10245000002000202DE9F04704464FF0FF38002609
:10246000C568D4E90497A80718D02046FFF796FB63
:10247000384612F095FB002800DA4646280502D5BA
:102480004846FEF702F84C212046FEF7E6FC206D98
:1024900020F0010020653046BDE8F0874046FBE7AC
:1024A0002DE9F04116460C460546FDF7B7FF0368D7
:1024B00093F80101012807D0FF2C12D8185D80B1D4
:1024C00001202C70BDE8F081D3F807013246214687
:1024D00003F20713C7182846BC46BDE8F0410023A5
:1024E00060474FF0FF30EDE710B500F065F8BDE84C
:1024F000104000F05BB810B500F076F8BDE8104071
:1025000000F054B810B500F089F8BDE8104000F0B4
:102510004DB8000010B5044900F02EF8BDE8104099
:102520000148FEF7AABA0000A820002070477546AF
:10253000FFF726FCAE4605006946534620F007002B
:10254000854618B020B5FDF755FFBDE820404FF097
:1025500000064FF000074FF000084FF0000BAC46AC
:10256000ACE8C009ACE8C009ACE8C009ACE8C009F7
:1025700021F007018D46704770B50D46044604E012
:10258000294634F04EFD401C04D014F8010B0028FD
:10259000F6D170BD4FF0FF3070BD10B50446AFF3FB
:1025A00000802046BDE81040FDF7A9BE002801D0FC
:1025B000FFF7E0BB7047000010B5002102A000F05B
:1025C00055F8012010BD0000534947414252543A8A
:1025D0002041626E6F726D616C207465726D696E00
:1025E0006174696F6E00000010B5014602A000F032
:1025F0003DF8012010BD0000534947525452454454
:102600003A2052656469726563743A2063616E278B
:1026100074206F70656E3A200000000010B501282C
:1026200005D0002103A000F021F8012010BD09A170
:10263000F8E7000053494752544D454D3A204F7535
:1026400074206F662068656170206D656D6F7279AA
:10265000000000003A2048656170206D656D6F7262
:102660007920636F727275707465640070B5054689
:102670000C460A2000E06D1C12F0C8FA35B128782B
:102680000028F8D102E0641C12F0C0FA14B12078DE
:102690000028F8D1BDE870400A2012F0B7BA000057
:1026A00010B50C460846C021FEF7B5FB45F2527046
:1026B000C4F8D00000210520C4E93011C4F8C810C6
:1026C000C4F8CC1010BD000010B50C460846C0215F
:1026D000FEF7A1FB45F25270C4F8D000002105209E
:1026E000C4E93011C4F8C810C4F8CC1010BD000003
:1026F00010B50C460846C021FEF78DFB45F252701E
:10270000C4F8D00000210520C4E93011C4F8C81075
:10271000C4F8CC1010BD0000B0B503282AD80C4670
:102720001546DFE800F0032B0F1D00BF681E0228CE
:1027300052D294ED000A10F03BF9012D4ED1FF204A
:1027400040B2B0BD681E022832D201201DF074FBD9
:1027500018B194ED000A0FF0FBFF012DEFD029E036
:10276000681E02282ED294ED000A10F06DFB012D98
:10277000E5D029E0052040B2B0BD00BF681E0228A8
:1027800034D202201DF058FBD0B3206844F240013F
:10279000C2F20201C1F88F0294ED000A10F01AF89B
:1027A00094ED000A0FF0DEFF012DC8D020E000BF3D
:1027B000002DC4D105F09CFE84ED000AFF2040B23C
:1027C000B0BD00BF002DBAD107F0CEFB84ED000AEA
:1027D000FF2040B2B0BD00BF002DB0D106F0FEF921
:1027E00084ED000AFF2040B2B0BD00BF002DA6D18D
:1027F00005F096FE84ED000AFF2040B2B0BD00BF98
:102800000B2040B2B0BD000070B582B0292800F2A4
:1028100025810C461546DFE810F02B0033003B0005
:1028200043004B0025012D01530035015B003D01A4
:1028300063007300450183009300A30055017301F9
:102840008B019F01B301C701DB01B300CB00EF0196
:10285000DD00F70107021702E9002702F100F90085
:1028600001010901110133023B021901430200BFBA
:10287000681E022880F01C820B2040B202B070BD9E
:10288000681E022880F01A820B2040B202B070BD90
:10289000681E022880F018820B2040B202B070BD82
:1028A000681E022880F016820B2040B202B070BD74
:1028B000681E022880F014820B2040B202B070BD66
:1028C000681E022880F012820B2040B202B070BD58
:1028D000681E022880F010820B2040B202B070BD4A
:1028E000681E022880F00E8201201DF0A5FA10B1AA
:1028F000207810F041F8012D40F007820AE300BF74
:10290000681E022880F0048201201DF095FA10B1A3
:10291000207810F005F8012D00F0FC82FBE100BFEB
:10292000681E022880F0FA8101201DF085FA10B19E
:1029300020680FF0B5FF012D00F0EC82F1E100BF3F
:10294000681E022880F0F08101201DF075FA10B198
:10295000206810F063F8012D00F0DC82E7E100BF91
:10296000681E022880F0E68101201DF065FA10B192
:10297000207810F021F9012D00F0CC82DDE100BFBC
:10298000681E022880F0DC8101201DF055FA50B14C
:1029900042F2B061C2F2000120684A6B60F30002AB
:1029A0004A630FF077FE012D00F0B482CBE100BF47
:1029B000681E022880F0D08101201DF03DFA20B170
:1029C0002068002818BF0FF053FE012D00F0A282EE
:1029D000C5E100BF681E022880F0C4812168012083
:1029E00010F078F8012D00F09582BEE1681E0228F3
:1029F00080F0BE810B2040B202B070BD681E02287C
:102A000080F0BC810B2040B202B070BD681E02286D
:102A100080F0BA810B2040B202B070BD681E02285F
:102A200080F0B8810B2040B202B070BD681E022851
:102A300080F0B8810B2040B202B070BD681E022841
:102A400080F0B6810B2040B202B070BD002D00F0C6
:102A500065820B2040B202B070BD00BF052040B2BD
:102A600002B070BD681E022880F0A8810B2040B221
:102A700002B070BD681E022880F0AE810B2040B20B
:102A800002B070BD681E022880F0B6810B2040B2F3
:102A900002B070BD681E022880F0B4810B2040B2E5
:102AA00002B070BD681E022880F0B28101201DF0C6
:102AB000C3F910B120780FF01BFF012D00F02A821E
:102AC000A9E100BF681E022880F0A88101201DF046
:102AD000B3F988B144F24006C2F2020696F88D02BC
:102AE0002168814206D0481EB0FA80F040092AF0E1
:102AF00053F9206886F88D02012D00F00B8290E1D9
:102B0000681E022880F0948101201DF095F950B1D3
:102B100042F2B061C2F2000120684A6B60F34102E8
:102B20004A630FF0B7FD012D00F0F48182E100BF90
:102B3000681E022880F0868101201DF07DF938B1E1
:102B4000206842F2B061C2F20001C8610FF0A2FD3C
:102B5000012D00F0DF8177E1681E022880F07A8184
:102B600001201DF069F938B1206842F2B061C2F26B
:102B7000000108620FF08EFD012D00F0CB816BE1AA
:102B8000681E022880F06E8101201DF055F938B1D1
:102B9000206842F2B061C2F2000148620FF07AFD93
:102BA000012D00F0B7815FE1681E022880F062818C
:102BB00001201DF041F938B1206842F2B061C2F243
:102BC0000001C8620FF066FD012D00F0A38153E102
:102BD000681E022880F0568101201DF02DF938B1C1
:102BE000206842F2B061C2F2000108630FF052FDAA
:102BF000012D00F08F8147E1681E022880F04A8194
:102C00000B2040B202B070BD681E022880F04881DF
:102C100000201DF011F918B12178002003F002F80E
:102C2000012D00F077813CE1681E022880F03C8194
:102C300000201DF001F918B12178012002F0F2FF07
:102C4000012D00F0678130E1681E022880F030819C
:102C500000201DF0F1F818B12178022002F0E2FF07
:102C6000012D00F0578124E1681E022880F02681A2
:102C7000216800200FF02EFF012D00F04B811EE196
:102C8000681E022880F020810B2040B202B070BD87
:102C9000681E022880F01C810B2040B202B070BD7B
:102CA000002D00F03F810B2040B202B070BD00BF8C
:102CB000002D40F02F8106F095FA35E1002D40F00F
:102CC000298106F0A3FA2FE1002D40F0238106F0C0
:102CD000B5FA29E1002D40F01D8105F0D5FD23E175
:102CE000002D40F0178105F08FFB1DE1002D40F015
:102CF000118105F0B1FC17E1002D40F00B8106F0C9
:102D00009FF811E1002D40F0058105F057FF0BE120
:102D1000002D40F0FF8005F031FF05E1002D40F06F
:102D2000F98005F0EFFEFFE0002D40F0F38005F0A4
:102D300067FFF9E0002D40F0ED8006F085FAF3E042
:102D4000002D40F0E78042F2B060C2F20000406B1C
:102D500000F00100E8E000BF002D40F0DB8006F04D
:102D60003BFAE1E0002D40F0D5800120A8E000BF53
:102D7000002D40F0CF8000208FE000BF002D40F0FC
:102D8000C98005F0CBFECFE0002D40F0C38005F0F8
:102D9000C1FEC9E0002D40F0BD80002005F06AFFB3
:102DA000C2E000BF002D40F0B58006F097F8BBE010
:102DB000002D40F0AF8005F0BBFDB5E0002D40F0E8
:102DC000A98019F0ABFD44F24022C0F20F020023AB
:102DD000FDF782FBA8E000BF002D40F09B8019F0BA
:102DE0009DFD44F24022C0F20F020023FDF774FB68
:102DF0004FF47A70504397E0002D40F08B8005F03F
:102E000023FC91E0002D40F0858005F03FFF8BE032
:102E1000002D40F07F8005F0ABFE85E0002D40F0F6
:102E2000798044F24000C2F2020090F88D027BE00B
:102E3000002D6FD142F2B060C2F20000406BC0F3CF
:102E4000400071E0002D65D142F2B060C2F2000096
:102E5000C06969E0002D5DD142F2B060C2F20000AD
:102E6000006A61E0002D55D142F2B060C2F200006C
:102E7000406A59E0002D4DD142F2B060C2F200002C
:102E8000C06A51E0002D45D142F2B060C2F20000AC
:102E9000006B49E0002D3DD101201CF0CDFF43E047
:102EA000C5BB002006E000BFA5BB012002E000BFBB
:102EB00085BB022002F036FD36E000BF55BB002086
:102EC00005F0C0FE30E000BF25BB05F07BFD2BE028
:102ED00005BB00250DF107000DF106010DF10502FE
:102EE0008DF807508DF806508DF8055017F040FB0F
:102EF0009DF8070048B19DF806109DF805000222D4
:102F000002EA410160F383014D1C2560FF2040B2BD
:102F100002B070BDFF2040B202B070BD05F0D6FD1A
:102F200002E000BF05F0C4FD2060FF2040B202B007
:102F300070BD0000952800F29F8010B50C46DFE8B8
:102F400010F097009F00A300A700B500B700B900DC
:102F5000BB00BD00BF00C100C300C500C700C90061
:102F6000CB00CD00CF00D100D300D500D700D900D1
:102F7000DB00DD00DF00E100E300E500E700E90041
:102F8000EB00ED00EF00F100F700FD000301090187
:102F90000F01150119011F0125012B013101370115
:102FA0003D01430149014F0155015B016101670189
:102FB0006D01730179017F01850189018D01910105
:102FC000950199019D01A101A501AB01AF01B301DB
:102FD000B701BB01BF01C301C701CB01CF01D301C1
:102FE000D701DB01DF01E301E701EB01EF01F301B1
:102FF000F701FB01FF01030207020B020F0215029A
:103000001B02210227022D02330239023F02450230
:103010004B02510257025D02630269026F027502A0
:103020007B02810287028D02930299029F02A30212
:10303000A702AB02AF02B302B702BB02BF02C302D8
:10304000C702CB02CF02D302D702DB02DF02E302C8
:10305000E702EB02EF02F302F702FB02FF020303B7
:1030600007030B030F03130317031B031F0300BF07
:1030700006F0C6F886E200BF052040B2704700BFE8
:1030800006F0D6F87EE200BF06F0D8F87AE200BF7C
:1030900019F044FC44F24022C0F20F020023FDF775
:1030A0001BFA34F00CFF00EE100A6FE200203AE049
:1030B00000203EE0002042E0002046E000204AE000
:1030C00000204EE005202EE0052032E0052036E00D
:1030D00005203AE005203EE0052042E0032022E002
:1030E000032026E003202AE003202EE0032032E024
:1030F000032036E0012016E001201AE001201EE046
:10310000012022E0012026E001202AE002200AE03E
:1031100002200EE0022012E0022016E002201AE057
:1031200002201EE00420002105F074F92EE200BF09
:103130000420012105F06EF928E200BF04200221DD
:1031400005F068F922E200BF0420032105F062F9CE
:103150001CE200BF0420042105F05CF916E200BF68
:103160000420052105F056F910E200BF05F02EFD00
:103170000CE200BF0020002105F010FE06E200BFB7
:103180000020012105F00AFE00E200BF002002211C
:1031900005F004FEFAE100BF0020032105F0FEFD6A
:1031A000F4E100BF0020042105F0F8FDEEE100BFCE
:1031B0000020052105F0F2FDE8E100BF0020062116
:1031C00005F0ECFDE2E100BF0020072105F0E6FD7F
:1031D000DCE100BF0020082105F0E0FDD6E100BFE2
:1031E0000020092105F0DAFDD0E100BF00200A210E
:1031F00005F0D4FDCAE100BF00200B2105F0CEFD93
:10320000C4E100BF00200C2105F0C8FDBEE100BFF5
:1032100000200D2105F0C2FDB8E100BF00200E2105
:1032200005F0BCFDB2E100BF00200F2105F0B6FDA6
:10323000ACE100BF0020102105F0B0FDA6E100BF09
:103240000020112105F0AAFDA0E100BF19F088F9C6
:103250009CE100BF04F052FB98E100BF002005F0A4
:1032600031FE8FE105F04CFE8CE100BF012002F041
:1032700065FB8BE1022002F061FB87E1002002F098
:103280005DFB83E105200BF079F87FE100202D2123
:1032900005F084FD7AE100BF122005F027FE75E1FC
:1032A000002005F049FD71E1012005F045FD6DE1CB
:1032B00005F0D2F966E100BF05F0C2FD62E100BF92
:1032C00005F0F6FA5EE100BF05F00EFC5AE100BF22
:1032D00005F056FF56E100BF05F04CFF52E100BF7C
:1032E000002007F05DFF4DE108F074F84AE100BFEF
:1032F000002007F08DFF45E108F096F842E100BF9D
:1033000000200BF05BF841E100200BF037F83DE1C5
:1033100000200BF043F839E101200BF04FF835E1C4
:1033200001200BF02BF831E101200BF037F82DE1F3
:1033300002200BF043F829E102200BF01FF825E1F1
:1033400002200BF02BF821E103200BF037F81DE1F0
:1033500003200BF013F819E103200BF01FF815E11F
:103360000020122105F01AFD10E100BF00201321FA
:1033700005F014FD0AE100BF0020142105F00EFD48
:1033800004E100BF0020152105F008FDFEE000BFAC
:103390000020162105F002FDF8E000BF00201721F3
:1033A00005F0FCFCF2E000BF0020182105F0F6FC5F
:1033B000ECE000BF0020192105F0F0FCE6E000BFC2
:1033C00000201A2105F0EAFCE0E000BF00201B21EC
:1033D00005F0E4FCDAE000BF00201C2105F0DEFC73
:1033E000D4E000BF00201D2105F0D8FCCEE000BFD6
:1033F00000201E2105F0D2FCC8E000BF00201F21E4
:1034000005F0CCFCC2E000BF0020202105F0C6FC86
:10341000BCE000BF0020212105F0C0FCB6E000BFE9
:103420000020222105F0BAFCB0E000BF00202321DB
:1034300005F0B4FCAAE000BF0020242105F0AEFC9A
:10344000A4E000BF0020252105F0A8FC9EE000BFFD
:103450000020262105F0A2FC98E000BF00202A21D0
:1034600005F09CFC92E000BF00202B2105F096FCAB
:103470008CE000BF00202C2105F090FC86E000BF0E
:10348000032005F033FD81E0042005F02FFD7DE0F1
:10349000052005F02BFD79E0062005F027FD75E0FD
:1034A000072005F023FD71E0082005F01FFD6DE009
:1034B000092005F01BFD69E00A2005F017FD65E015
:1034C0000B2005F013FD61E00C2005F00FFD5DE021
:1034D0000D2005F00BFD59E00E2005F007FD55E02D
:1034E0000F2005F003FD51E0102005F0FFFC4DE03A
:1034F000112005F0FBFC49E0002005F019FD41E03A
:10350000012005F015FD3DE0022005F011FD39E038
:10351000032005F00DFD35E0002002F035FA35E01E
:10352000012002F031FA31E0022002F02DFA2DE004
:1035300005F076F826E000BF05F06AF826E000BF47
:1035400004F0E0FF22E000BF05F046F81EE000BFF7
:1035500005F08EFD16E000BF05F082FD16E000BF0D
:1035600005F030F812E000BF18F0D6FF0EE000BF03
:1035700005F0CEFC06E000BF05F0B0FA02E000BFA7
:1035800005F09EFA00EE100AB8EE400A84ED000A3B
:10359000FF20BDE8104040B2704700002DE9F04F19
:1035A00083B0052800F29D8089464FF4707101EACE
:1035B000801701A8164607F1200804F059F8DDE944
:1035C000010440F2FF7B20EA0B05791901F2264144
:1035D000C1EA0000214604F091FA6FF0004004F0C7
:1035E00059FA2846214604F089FA01A807F1280A69
:1035F00004F03EF8DDE9010405466FF30A05791988
:1036000001F22E41C1EA0000214604F077FA6FF082
:10361000004004F03FFA2846214604F06FFA07F113
:103620001005284600F0A4FA07F11804204600F01F
:103630009FFA404600F09CFA504600F099FA002E9E
:103640004FD048F2A850C0F6070009EB890900EBFB
:10365000C906284631460FF02FF806F1140120461E
:103660000FF02AF848F24860C0F6070000EB890422
:10367000404621460FF020F8504621460FF01CF836
:1036800001A803F0F5FFDDE9010440F2264220EA3B
:103690000B0579191143C1EA0000214604F02EFA06
:1036A00040F6FF7004F0F6F92846214604F026FAA9
:1036B00001A803F0DDFFDDE9010440F22E420546DA
:1036C0006FF30A0579191143C1EA0000214604F09D
:1036D00015FA40F6FF7004F0DDF92846214604F0A3
:1036E0000DFA03B0BDE8F08FF0B581B0052823D8FE
:1036F0000C464FF4707101EA80152846174600F019
:1037000037FA05F10806304600F032FAA7B148F260
:10371000986104EB8400C0F6070101EBC004284661
:1037200021460EF0C9FF04F11401304601B0BDE896
:10373000F0400EF0C1BF00BF01B0F0BD052888BF4A
:10374000704770B52DED028B82B044F24001064601
:10375000C0EB4010C2F2020101EB400001EBC601D8
:10376000C06EC96B00EE100A01EE101A684631EE09
:10377000008A03F07DFFDDE9000440F2FF7120EADA
:103780000105294666F3891101F20741C1EA0000EB
:10379000214604F0B3F99FED150AB7EE001A28EEA2
:1037A000000AB4EE410AF1EE10FAC8BFB0EE410AC9
:1037B000BFEE001AB4EE410A9FED0D2AF1EE10FAA9
:1037C000B8BFB0EE410A20EE020ABDEEC00A10EE0C
:1037D000100A04F05FF92846214604F08FF902B080
:1037E000BDEC028BBDE87040704700BF65BD293D50
:1037F0000000004F2DE9F047052842D890460C46BE
:103800004FF0000906294FF0000105D848F2F431C5
:10381000C0F6070151F824104FF6C053C0EBC002A8
:10382000C2F2000303EB820291614FF2383200EBE7
:103830008001C2F200024FF2284A02EBC106C2F236
:10384000000A0AEB0017050130462821FDF705FBA9
:10385000062C4AF80590C7E90199C7F80C9010D8D2
:10386000B8F1000F08BFBDE8F08748F2B07104EB73
:103870008400C0F6070101EBC00090EC0A0B86EC57
:103880000A0BBDE8F087000080B50020FFF756FF67
:10389000002000F07BF80120FFF750FF012000F02E
:1038A00075F80220FFF74AFF022000F06FF80320AE
:1038B000FFF744FF032000F069F80420FFF73EFF04
:1038C000042000F063F80520FFF738FF0520BDE86D
:1038D000804000F05BB800002DE9F04383B012781F
:1038E000012A0FD0022A0FD0032A17D10A78022A00
:1038F00046D0032A14D001224FF040480A70052810
:103900003BD811E001220AE00A78022A08D00122FD
:103910000A704FF0004805282FD805E000220A70F1
:103920004FF08048052828D800F00F0601A803F0C2
:103930009FFEDDE9017440F2FF7027EA000949EAC1
:103940008615A81DC0EA0700214604F0D7F803F049
:103950005BFE064605F20640C0EA0700214604F079
:10396000CDF826F0404040EA080004F093F803F058
:103970004BFE4846214604F0C1F803B0BDE8F08391
:103980004FF000480528F8D8CEE7000010B544F203
:103990004002C0EB4011C2F2020202EB410191F879
:1039A0009F305C1E022C37D202EBC0029368946BEE
:1039B0009FED6B2A00EE103A8B6E01EE104A0C6FF1
:1039C000496F20EE022A03EE103A22EE011A21EE90
:1039D000031A02EE101A03EE104A32EE432A23EEC7
:1039E000003A81EE021A83EE022AD2684FF2884131
:1039F00000EB8000C2F2000103EE102A01EB800010
:103A000030EE030A80ED020AC26080ED011A33EE47
:103A1000420A80ED000A10BD032B40F0918002EBBA
:103A2000C0029368946B00EE103A01EE104A8B6E60
:103A30000C6F496F9FED4A2A04EE101A21EE021A0C
:103A40004FF6C05103EE103A21EE002A05EE104A5F
:103A5000C2F2000122EE032A34EE454A25EE005A56
:103A600001EB800182EE042A85EE044A91ED2A5A88
:103A700021EE031A85EE011AD2684FF2884300EB5B
:103A80008001C2F2000303EE102AB7EE005A03EBE6
:103A9000810130EE030ACA6081ED020A33EE444A26
:103AA00081ED012A81ED004AB4EE451AF1EE10FADB
:103AB000C8BFB0EE451AB5EE401A9FED2A5AF1EE96
:103AC00010FAB8BFB0EE451A21EE021A31EE041A10
:103AD000B4EE401AF1EE10FAC8BFB0EE401AB4EEE0
:103AE000431A9FED210AF1EE10FAB8BFB0EE431A67
:103AF00021EE001AB6EE002A31EE021AB4EE401A98
:103B0000F1EE10FAC8BFB0EE401AB5EE401AF1EE71
:103B100010FAB8BFB0EE451ABDEEC10A10EE101A89
:103B200000F007006FF31F3141EA003404F5004054
:103B300004F018F82046BDE8104004F013B800BFA8
:103B40004FF4E04101EA00344FF4004141EA003013
:103B500080B204F007F82046BDE8104004F002B837
:103B6000630CC1410000000000F01F45FEE70000AB
:103B7000F0B583B0054601A803F07AFDDDE90164E4
:103B800040F2FF7105F47E7026EA01052F1807F553
:103B90008060C0EA0600214603F0B0FF002003F079
:103BA00079FF07F20140C0EA0600214603F0A6FFB4
:103BB000002003F06FFF07F20240C0EA0600214632
:103BC00003F09CFF002003F065FF07F20340C0EA0A
:103BD0000600214603F092FF002003F05BFF07F28E
:103BE0000440C0EA0600214603F088FF002003F0ED
:103BF00051FF2846214603F081FF03B0F0BD0000CD
:103C0000B0B500294FF6FF734FD04A1E4EF60C4553
:103C100001F0030C032AC0F6080527D321F00301A5
:103C200010F8042B043982EA0302D2B235F81220CC
:103C300010F8034C82EA132383EA0403DBB235F85D
:103C4000133010F8024C83EA122282EA0402D2B244
:103C500035F8122010F8014C82EA132383EA04039A
:103C6000DBB235F8133083EA1223D9D1BCF1000F4F
:103C70001BD001789AB25940C9B235F81110BCF185
:103C8000010F81EA122310D04278DBB25A4035F896
:103C900012E0BCF1020F8EEA112306D08078D9B26F
:103CA000484035F8100080EA1E2398B2B0BD0000ED
:103CB00070B500294FF6FF7300F0B780012901F0BD
:103CC000010C05D10021BCF1000F00F0AE8077E0BF
:103CD00021F00101C1F1000E6FF0010141F221025A
:103CE0004418A578E47883EA05231DB25E00002D10
:103CF00048BF82EA430633B27500002B48BF82EA10
:103D000046052BB26E00002B48BF82EA450633B24F
:103D10007500002B48BF82EA46052BB26E00002BCF
:103D200048BF82EA450633B27500002B48BF82EADD
:103D300046052BB26E00002B48BF82EA450633B21F
:103D40007500002B48BF82EA460585EA04231CB2B1
:103D50005D00002C48BF82EA43052BB26C00002BAB
:103D600048BF82EA450423B26500002B48BF82EABF
:103D700044052BB26C00002B48BF82EA450423B2F5
:103D80006500002B48BF82EA44052BB26C00002B73
:103D900048BF82EA450423B26500002B48BF82EA8F
:103DA00044052CB202316B00002C0EEB010448BF1D
:103DB00082EA4503023493D10231BCF1000F34D0C2
:103DC000405C83EA00210AB24B0041F22100002A44
:103DD00048BF80EA410319B25A00002948BF80EA6F
:103DE000430211B25300002948BF80EA420319B2CE
:103DF0005A00002948BF80EA430211B2530000294B
:103E000048BF80EA420319B25A00002948BF80EA3D
:103E1000430211B25600002948BF80EA420631B27F
:103E20007300002948BF80EA460398B270BD0000C5
:103E3000002904BF0020704748F2A84C0246014404
:103E40000020C0F6070C0EE012F8013B58401CF8A9
:103E500000008A4228BF704712F8013B58401CF806
:103E600000008A420ED212F8013BC0B258401CF842
:103E700000008A4206D212F8013B58401CF80000AC
:103E80008A42E1D3704700002DE9F04F81B02DED5B
:103E9000028B82B006F046F8044604F00FFD8168FC
:103EA00000699FED518A081A3C2800F2908045F283
:103EB000786B2046C1F2342B04F000FD01685945AF
:103EC00040F08580D0F810A0D0F814908769204683
:103ED00040F20D314FF480420FF026F8064604F010
:103EE000EDFC05460068584571D1A8691FFA87F8AE
:103EF00081B240464FF480320FF016F80446022893
:103F000032D8771ECDF80490002E08BF43F6FF7715
:103F1000384604F0D3FC0546006858451CD140F6ED
:103F2000427900BFA8694FF4803281B240460EF05A
:103F3000FBFF0446032815D2B9F101090CD07E1EFF
:103F4000002F08BF43F6FF76304604F0B7FC054665
:103F5000006837465845E5D029696869DDF804905E
:103F600024B934E0DDF80490296968694CF6002230
:103F7000BAEB0101C3F69A324FF00007A1FB02131E
:103F800067F1000606FB0232B9EB000067F100039F
:103F9000401843EB020133F092FF01EE104A00EEAD
:103FA000100AB8EE411A80EE010A10EE100A33F042
:103FB00031FF9FED0B0B53EC102B33F0BFFB33F0B5
:103FC0006BF89FED0A0A01EE100A80EE018AB0EE4E
:103FD000480A02B0BDEC028B01B0BDE8F08F00BF13
:103FE00095D626E80B2E113E00000000000070421E
:103FF000B0B584B003281FD248F64011C0F60701BF
:1040000051F82050684605F099FF42F258619DE84A
:104010001D00C2F2000141F8030F4A604FF0FF306B
:104020001022CC608B6031F03DFD2946102231F02A
:1040300039FDC04304B0B0BD4DF657104DF64311E5
:10404000C0F60700C0F60701A622FCF767FD0000D6
:10405000F0B581B02DED048B044610EE100A0D462C
:10406000B0EE408A33F0D6FE9FED610B53EC102B7F
:1040700033F064FB33F010F800EE100AB6EE001ACD
:1040800030EE010ABDEEC00A4FF6087610EE107A47
:10409000C2F2000625B3B7F5006F80F281809FED74
:1040A000580A28EE009AB0EE490A32F087FD4EF227
:1040B0003400C2F2010050F8270005EB450106EB81
:1040C000411141F83400A81E032839EE400A28D8CF
:1040D000DFE800F071027E829FED4C8A03256AE0E2
:1040E00040F24810C2F2010000EB8400B7F5006F07
:1040F00080ED008A52DA9FED420A28EE008AB0EE87
:10410000480A32F05BFD4EF23400C2F2010050F872
:10411000270005EB450138EE400A06EB411141F856
:1041200034009FED3C1A4CF23400C2F2010020EE44
:10413000010A00EB87009FED381A90ED002A30EE5F
:10414000010A30EE020A10EE100A33F063FE9FED12
:104150002A8B41EC100BB0EE481AF0EE681A32F0E0
:10416000ABFC51EC100B53EC182B32F0C7FF41ECB9
:10417000100BB0EE481AF0EE681A32F09DFC51ECCC
:10418000100B32F089FF9FED251A00EE100A9FED0B
:10419000242A20EE010A30EE028A0CE000210160A0
:1041A00005EB450000219FED1A8A06EB4010CBF687
:1041B000807140F8341005EB450006EB401000EB31
:1041C000C40080ED018ABDEC048B01B0F0BD00BFDE
:1041D0000425B0EE498AEEE79FED0A1A9FED0A2A00
:1041E00020EE010A30EE028A0525E4E700BF00BF99
:1041F0002D431CEBE236FA3F00000060FB21194022
:1042000017B7D13F000034430000B4C200401C3F48
:1042100000000000DB0F49C0E4CB9640E12E654270
:10422000000034C34CF600230A460021C3F69A333B
:10423000E0FB0321104670472DE9F04F81B02DEDD2
:10424000108B0229C0F2F6820646501E0B2800F29F
:10425000F18289469846B0EE408ADFE810F00D0002
:1042600017003D008300BD00FF005B01BF01390264
:10427000AD02F1026B0300BFA9F10100032809F0B0
:10428000030080F0AD830021BAE300BFA9F1010073
:1042900033F07EF99FEDCE0B02460B4651EC100B2E
:1042A00032F0E0FF32F0F8FE9FEDCB8A09EE100A03
:1042B000351F002400EE104AB8EEC00A20EE090AAD
:1042C00032F0CAFC013485ED010A043530EE088A6B
:1042D000A145EFD1A6E200BFA9F1010033F058F9E2
:1042E0009FEDED0B02460B4651EC100B32F0BAFF7E
:1042F00032F0D2FE9FEDB60B9FEDB78A09EE100AA1
:10430000043E0027BFEE00AA5BEC10AB00EE107A73
:10431000B8EEC00A20EE090A30EE0A0A10EE100AC2
:1043200033F078FD52465B4633F008FA04460D46FA
:1043300032F0B2FE00EE100A32F08EFC10EE100ADF
:1043400033F068FD22462B4632F08CFF32F0A4FE9B
:1043500000EE100A013746F8040FB94538EE008A1E
:10436000D4D15FE2A9F1010033F012F99FEDCC0B3B
:1043700002460B4651EC100B32F074FF32F08CFE0B
:104380009FEDC90B9FED948A09EE100A043E0027A9
:1043900055EC104B00EE107AB8EEC00A20EE090A78
:1043A00032F0ECF910EE100A33F034FD22462B46C1
:1043B00033F0C4F902460B462046294633F03CFC54
:1043C00032F06AFE00EE100A013746F8040FB945D4
:1043D00038EE008ADED125E2A9F1010033F0D8F8E9
:1043E0009FEDAF0B02460B4651EC100B32F03AFF3B
:1043F00032F052FE9FEDAE0B9FED779A5BEC10AB67
:104400009FEDAD0B08EE100A341F002655EC107B13
:1044100000EE106AB8EEC00A20EE080A32F0AEF9DB
:1044200010EE100A33F0F6FC52465B4633F086F984
:104430003A462B4632F062FE32F02EFE00EE100AB3
:10444000013644F8040FB14539EE009AE0D100EE90
:10445000109AB8EEC00A80EE090AE9E118EE100AD7
:1044600033F0D8FC9FED900B55EC104B22462B46B9
:1044700033F064F902460B462046294633F0DCFB54
:1044800032F00AFE09EE100AB6EE000AA9F10100A8
:1044900028EE008A33F07CF89FED810B04460D4630
:1044A00051EC100B22462B4632F0DCFE32F0F4FDCC
:1044B0009FED830B0AEE100A51EC100B22462B469F
:1044C00032F0D0FE32F0E8FD9FED43BA0CEE100A58
:1044D000351F0024BEEE00DA00EE104AB8EEC0EA46
:1044E0002EEE0A0A32F04AF920EE0D0A39EE00FAF1
:1044F0002EEE0C0A32F042F928EE000A3FEE000AD6
:10450000013485ED010A043530EE0BBAA145E3D143
:104510003AE100BFA9F1010033F03AF89FED600BDA
:1045200004460D4651EC100B22462B4632F09AFE03
:1045300032F0B2FD9FED620B09EE100A51EC100B48
:1045400022462B4632F08EFE32F0A6FD9FED5E0B2A
:104550000AEE100A51EC100B22462B4632F082FE76
:1045600032F09AFD9FED1CBA9FED8BDA9FED8BEA3E
:104570009FED8BFADFED8B8A0CEE100A341F0025BD
:1045800000EE105AF8EEC09A29EE890A32F0F6F8D9
:10459000B0EE408A29EE8A0A32F0F0F860EE0DAAF9
:1045A00029EE8C0A32F0EAF820EE0F0A3AEEA81A49
:1045B00031EE000A28EE0E1A30EE010A013584EDC4
:1045C000010A30EE0BBA0434A945D9D1DCE000BFB2
:1045D000182D4454FB21094000000000A9F10100FE
:1045E00032F0D6FF9FED2E0B04460D4651EC100B1A
:1045F00022462B4632F036FE32F04EFD9FED300B58
:1046000009EE100A51EC100B22462B4632F02AFE1E
:1046100032F042FD9FED2C0B0AEE100A51EC100B0C
:1046200022462B4632F01EFE32F036FD1FED16BA42
:104630009FED5DDA9FED5DEA9FED5DFADFED5D8A4E
:104640000CEE100A341F002500EE105AF8EEC09A46
:1046500029EE890A32F092F8B0EE408A29EE8A0AF1
:1046600032F08CF860EE0DAA29EE8C0A32F086F852
:1046700020EE0F0A3AEEA81A31EE000A28EE0E1AC2
:1046800030EE010A013584ED010A30EE0BBA043434
:10469000A945D9D178E000BF00000000000000402B
:1046A000182D4454FB211940000000000000E03F99
:1046B000CFA0A17F828BDDBF982F2FC03E3AE13F74
:1046C000182D4454FB212940D221337F7CD932401C
:1046D000A9F1010032F05CFF9FEDD50B04460D46B9
:1046E00051EC100B22462B4632F0BCFD32F0D4FCCC
:1046F0009FEDD10B09EE100A51EC100B22462B4610
:1047000032F0B0FD32F0C8FC9FEDCD0B0AEE100A7E
:1047100051EC100B22462B4632F0A4FD32F0BCFCCB
:104720009FEDD5BA9FEDD9DA9FEDD9EA9FEDD9FA81
:10473000DFEDD98A0CEE100A341F002500EE105A66
:10474000F8EEC09A29EE890A32F018F8B0EE408AE5
:1047500029EE8A0A32F012F860EE0DAA29EE8C0AD0
:1047600032F00CF820EE0F0A3AEEA81A31EE000AE9
:1047700028EE0E1A30EE010A013584ED010A30EE02
:104780000BBA0434A945D9D100EE109AB8EEC00A8C
:1047900080EE0B0A4CE000BFB4AB103E2601FABE1F
:1047A000795D3FBC14AEB73E8EB1133EF88BF9BEB7
:1047B00002814EBC3927B63E484632F0E9FE9FEDF5
:1047C000A40B53EC102B32F0B9FF9FEDA30B53EC6D
:1047D000102B32F093FC32F05FFC09EE100A29EE48
:1047E000080AB7EE001A81EE00AA9FEDA38A351FD2
:1047F0000024BEEE00BA00BF00EE104AB8EEC00AB8
:1048000030EE490A20EE0A0A20EE000A20EE0B0ADA
:1048100032F05CF8013485ED010A043530EE088A87
:10482000A145E9D100EE109AB8EEC00A80EE080A60
:1048300088ED000ABDEC108B01B0BDE8F08F00BF21
:10484000A9F1010032F0A4FE9FED790B07460C465A
:1048500051EC100B3A46234632F004FD32F01CFCBA
:104860009FED750B09EE100A51EC100B3A462346EA
:1048700032F0F8FC32F010FC9FED710B0AEE100ADA
:1048800051EC100B3A46234632F0ECFC32F004FCBB
:104890009FED6D0B0BEE100A51EC100B3A462346C0
:1048A00032F0E0FC32F0F8FB9FED73CA9FED73EA43
:1048B0009FED73FADFED738ADFED739A0DEE100A48
:1048C000351F0024F7EE00AA00EE104AF8EEC0BA39
:1048D0002BEE890A31F052FFB0EE408A2BEE8A0AA5
:1048E00031F04CFF60EE0ECA2BEE8B0A31F046FF22
:1048F00060EE28DA2BEE8D0A28EE0F8A31F03EFFAB
:104900003CEEAA1A31EE2D1A20EE290A31EE081AD1
:1049100031EE000A013485ED010A043530EE0CCA8F
:10492000A145D1D100EE109AB8EEC00A80EE0C0A73
:104930007EE700BF484632F02BFE9FED4D0B53EC57
:10494000102B32F0DBFB9FED460B02460B4651EC81
:10495000100B32F087FC32F09FFB09EE100A18EEC4
:10496000100A33F057FA9FED400B53EC102B32F046
:10497000E5FE32F091FB08EE100AB0EE480A12F0A4
:1049800093FBB7EE00BA8BEE00CA9FED3BAA351F32
:104990000024BFEE00DA00BF00EE104AB8EEC00AF5
:1049A00020EE090A30EE0D0A20EE000A3BEE400A26
:1049B000B1EEC00A20EE080A12F076FB20EE0C0AD7
:1049C000013485ED010A043530EE0AAAA145E3D190
:1049D00000EE109AB8EEC00A80EE0A0A28E700BF7F
:1049E00029F00302A6F1100300214FF07E5700BF0B
:1049F000043143F8107F8A42C3E90177DF60F7D1C1
:104A00000028B7EE000A3FF413AF4FF07E520128A2
:104A100046F821203FF40CAF06EB810102284A60E2
:104A20001CBF4FF07E50886002E700BF00BF00BF90
:104A3000182D4454FB211940182D4454FB212940C2
:104A4000D221337F7CD93240182D4454FB21394088
:104A5000000000000000E03F000000000000E0BF98
:104A60000000000000000040182D4454FB210940C4
:104A7000000000000000F0BF00000000B81EA53FCD
:104A80003D0AF7BFF0A7C6BE4260E53CBDE00B3E65
:104A90007975FABE02582EBC6827BA3E91B12DE94D
:104AA000F0434A1E032A01F0030C0FD2002100221A
:104AB0000024BCF1000F4DD181F0FF00BDE8F043B0
:104AC000C0B27047FF20C0B2704700BF21F00301A1
:104AD000C1F1000E00F1010800246FF003034FF054
:104AE000010900BF08EB0305EE782F793444E6B2E4
:104AF00059FA84F16A79AD79FF2E08BF0121FF2CA4
:104B000098BF21463944CCB259FA81F6FF2C08BF30
:104B10000126FF2998BF0E46B118CAB259FA81F48E
:104B2000FF2A08BF0124FF2998BF0C466119CAB2A9
:104B300059FA81F4FF2A08BF01240433FF2998BFE2
:104B40000C460EEB03010431CCD1E1B21A1DBCF1CD
:104B5000000FB1D0815C6718FEB2012151FA87F3D2
:104B6000FF2E08BF0123FF2F98BF3B46BCF1010F6A
:104B700006D1D9B281F0FF00BDE8F043C0B2704762
:104B8000104442781A44D3B251FA82F1FF2B08BF85
:104B90000121FF2A98BF1146BCF1020F06D1C9B20C
:104BA00081F0FF00BDE8F043C0B270478078084450
:104BB000B0F5807FC1B2FFF47FAF0122FF2952FA26
:104BC00080F108BF012181F0FF00BDE8F043C0B2D1
:104BD00070470000002944F2400120EE800AC2F232
:104BE00002010FD0C0EB401301EBC00201EB430305
:104BF000D26BDB6E01EE102A02EE103A31EE021A91
:104C000030EE410A01EBC002C0EB4010926B01EBA9
:104C10004000806E01EE102A21EE000A01EE100A1B
:104C200020EE010A704700002DE9F04F81B02DED14
:104C3000048B42F24839C2F2000999F800000028BA
:104C400000F08081D9E9040101F0E6FC44F240085B
:104C50000028C2F2020800F0958142F6D0359FED9F
:104C6000D19A09F128070026C2F200054FF47A7A9A
:104C7000002416E0DBF8890000EE100ABCEEC00A42
:104C800010EE100A00FB0AF00DF0CAFFC5E90001A2
:104C90003E3601340837B6F5BA7F05F1080500F055
:104CA0006B8108EB060B9BF87800B0EE498A05286B
:104CB00004D8214603F0AEFBB0EE408A052C59D84B
:104CC000DFE804F0040A10161C5400BFB9F80A000B
:104CD000C00717D14EE000BFB9F80A00800711D411
:104CE00048E000BFB9F80A0040070BD442E000BF1B
:104CF000B9F80A00000705D43CE000BFB9F80A0083
:104D0000C00637D5DBF8790000EE100AB4EE408A11
:104D1000F1EE10FA26DAD7E9000101F07DFC002857
:104D200072D0DBF8810000EE100ABCEEC00A10EE73
:104D3000100A00FB0AF00DF073FFC7E9000148F20A
:104D4000DC32B9F80800C0F60702B9F80A1032F8E8
:104D5000142000F03F00A9F8080002EA0100A9F8B9
:104D60000A0051E0DBF8850042E000BFB9F80A0014
:104D70008006C7D4DBF8790000EE100AB4EE408A52
:104D8000F1EE10FA32DDD7E9000101F045FCD8B3AD
:104D9000DBF8850000EE100ABCEEC00A10EE100A27
:104DA00000FB0AF00DF03CFFC7E90001B9F808006C
:104DB000052C00F03F01B9F80A00A9F8081000F02E
:104DC0003F01A9F80A1000F27D8048F2DC31C0F6FC
:104DD000070148F2E83231F81410C0F6070232F841
:104DE000142008401043A9F80A000DE0DBF8810008
:104DF00000EE100ABCEEC00A10EE100A00FB0AF02A
:104E00000DF00EFFC7E90001052C5BD8DFE804F0C8
:104E1000040A10161C5600BFB9F80800C00717D1C5
:104E200050E000BFB9F80800800711D44AE000BF85
:104E3000B9F8080040070BD444E000BFB9F80800F7
:104E4000000705D43EE000BFB9F80800C00639D518
:104E5000DBF87D0000EE100AB4EE408AF1EE10FAA5
:104E600028DAD5E9000101F0D7FB00283FF410AFA4
:104E7000DBF8890000EE100ABCEEC00A10EE100A42
:104E800000FB0AF00DF0CCFE48F2DC32C5E900016F
:104E9000B9F80A00C0F60702B9F8081032F8142071
:104EA00000F03F00A9F80A0002EA0100A9F8080092
:104EB000EEE600BFDBF88D00DEE600BFB9F80800C3
:104EC0008006C5D4DBF87D0000EE100AB4EE408AFF
:104ED000F1EE10FA7FF7CEAED5E9000101F09CFBB0
:104EE00000283FF4D5AEDBF88D0000EE100ABCEED2
:104EF000C00A10EE100A00FB0AF00DF091FEB9F89E
:104F00000820C5E90001B9F80A1002F03F00A9F82D
:104F1000080001F03F00052CA9F80A003FF6B8AEE2
:104F200048F2DC30C0F6070048F2E83130F81400EF
:104F3000C0F6070131F8141010400843A9F8080022
:104F4000A6E600BF40F2DE300DF06AFEC9E90401BA
:104F500040F2B7300DF064FEC9E9060142F210706C
:104F60000DF05EFEC9E90801012089F80000BDECE2
:104F7000048B01B0BDE8F08F40F2DE300DF050FE42
:104F8000C9E90401D9E9060101F046FB002800F057
:104F9000C78098F880020238032811D8DFE800F0B3
:104FA000041626340000000099F80C00002100F0DF
:104FB000F90089F80C00002003F026FF88B949E0C9
:104FC00099F80C0020F0070042E000BF99F80C00AF
:104FD000002100F0F90089F80C00002003F014FF14
:104FE000C0BB99F80C0040F0010031E00020002126
:104FF00003F06EFE99F80C10002818BF41F0020172
:1050000021F0050024E000BF99F80C002E2100F0EB
:10501000FD0089F80C00002003F0C0FED8F87C12D7
:10502000D8F8780299F80C2001EE101A02EE100A56
:10503000B4EE410A42F00401F1EE10FAC8BF0A468C
:10504000B4EE420AF1EE10FAB8BF0A4622F00100AF
:1050500089F80C0098F889020238032810D8DFE894
:1050600000F00315253300BF99F80D00012100F071
:10507000F90089F80D00002003F0C6FE88B949E068
:1050800099F80D0020F0070042E000BF99F80D00EC
:10509000012100F0F90089F80D00002003F0B4FEB2
:1050A000C0BB99F80D0040F0010031E00020012163
:1050B00003F00EFE99F80D10002818BF41F0020110
:1050C00021F0050024E000BF99F80D002F2100F029
:1050D000FD0089F80D00002003F060FED8F885126D
:1050E000D8F8810299F80D2001EE101A02EE100A8C
:1050F000B4EE410A42F00401F1EE10FAC8BF0A46CC
:10510000B4EE420AF1EE10FAB8BF0A4622F00100EE
:1051100089F80D0040F2B7300DF082FDC9E90601B3
:10512000D9E9080101F078FA00283FF420AF04F033
:1051300085F899F80410002818BF012001F0FD013E
:10514000084389F80400042003F0D0FEB3EE0A8A75
:10515000B4EE480AF1EE10FA20DCB3EE049AB4EE95
:10516000490AF1EE10FA19DB032003F0BFFEB4EE9A
:10517000480AF1EE10FA11DCB4EE490AF1EE10FA29
:105180000CDB052003F0B2FEB4EE480AF1EE10FA93
:1051900004DCB4EE490AF1EE10FA05DA99F80400DD
:1051A00040F0040089F8040042F2B064C2F2000446
:1051B00094F83400800708D500F02CFB28B999F842
:1051C000040040F0080089F8040098F88D020128D6
:1051D00008D10DF033FA28B999F8040040F0100016
:1051E00089F80400002000F0CFFB9FED3E8AB4EE6A
:1051F000480AF1EE10FA1EDCB5EE400AF1EE10FAA4
:1052000019DB012000F0C0FBB4EE480AF1EE10FA01
:1052100011DCB5EE400AF1EE10FA0CDB022000F0D2
:10522000B3FBB4EE480AF1EE10FA04DCB5EE400A26
:10523000F1EE10FA05DA99F8040040F0200089F840
:105240000400D9F80C0000F0F80189F80C10F821DE
:1052500001EA102189F80D1028B199F8040040F0F6
:10526000400089F80400D9F8080028B199F8040032
:1052700040F0800089F8040003F03CFC28B1484667
:1052800030F8051F41F00101018094F83400C00797
:1052900008D001F02DFA28B9484630F8051F41F032
:1052A0000201018003F0ECFB39F8051F002899F892
:1052B000022041EA024118BF41F0040101F0070059
:1052C0000021A9F800004FF4027089F802100DF0D7
:1052D000A7FCC9F81B00C9F81F10BDEC048B01B076
:1052E000BDE8F08F0000B4422DE9F04784B00D46D0
:1052F000497814468A1F0646F92A4FF0040000F246
:105300000781DFE812F031013901050105010501CE
:10531000050105010501050105010501050105015D
:10532000050105010501050105010501050105014D
:10533000050105010501050105010501050105013D
:10534000050105010501050105010501050105012D
:10535000050105010501050105010501050105011D
:10536000050105010501050105010501050105010D
:1053700005010501050105010501050105010501FD
:10538000190119011901190105010501050105019D
:1053900005010501050105010501FB00FB00FB00FE
:1053A000FB00FB00FB00FB000501050105010501F9
:1053B00005010501050105010501050105010501BD
:1053C00005010501050105010501050105010501AD
:1053D000050105010501050105010501050105019D
:1053E000050105010501050105010501050105018D
:1053F000050105010501050105010501050105017D
:10540000050105010501050105010501050105016C
:10541000050105010501050105010501050105015C
:10542000050105010501050105010501050105014C
:10543000050105010501050105010501050105013C
:10544000050105010501050105010501050105012C
:10545000050105010501050105010501050105011C
:10546000050105010501050105010501050105010C
:1054700005010501050105010501050105010501FC
:1054800005010501050105010501050105010501EC
:1054900005010501050105010501050105010501DC
:1054A00005010501050105010501050105010501CC
:1054B0000501050105010501050151010901110160
:1054C0002101090111012101090111012101090134
:1054D000110109011101FF01050105010501050186
:1054E0000501050105010501050105010501690128
:1054F0007F01A90105010501D90100BF2068AA1C8F
:1055000002382060304623460DF0ECFEFF2823D001
:1055100004B0BDE8F08700BFAA1C3046234604B0A3
:10552000BDE8F04702F08EBCAA1C3046234604B00A
:10553000BDE8F04705F0B6BBAA1C3046234604B0D0
:10554000BDE8F04702F0AEBBAA1C3046234604B0CB
:10555000BDE8F0470EF000B8206802302060FF2060
:1055600004B0BDE8F08700BF21680220122908BFFF
:105570000B2004B0BDE8F0872068022840F00281CB
:10558000684604F0DBFC039A9DE80B00C5F80E208A
:10559000C5F80A30C5F80610C5F8020012202060D0
:1055A000FF2004B0BDE8F0872068022840F0EA80C0
:1055B000A81C042106F0DAFDA81D2A2106F0D6FD5C
:1055C00005F10A00962106F0D1FD0E202060FF2093
:1055D00004B0BDE8F08700BF2068062840F0D28004
:1055E000A81C06F0B3FD41F23421C5F2AA5188424D
:1055F0005ED102202060304605F0DAFFFF2004B0C3
:10560000BDE8F08720680A2840F0BC80A81C06F09E
:105610009DFD45F27861C1F23421884248D1A81D30
:1056200006F094FD01460020B0EB114F40D101F08F
:10563000FE0005284FF005003FF66AAFFF2282EA20
:105640001122C9B28A427FF463AF30460DF0CEFB1F
:10565000FF2004B0BDE8F08720680A2840F092805F
:10566000A81C06F073FD45F27861C1F2342101F106
:10567000113188421CD1A81D06F068FD0021B1EB54
:10568000104F15D1FF2181EA1022C1B28A420FD1F9
:1056900000294FF005003FF43BAFFF293FF438AF3E
:1056A00030460DF0D3F8FF2004B0BDE8F08700BF0E
:1056B000052004B0BDE8F0872068022862D140F2DE
:1056C0000A20C0F20020C5F8020040F6EC00C2F249
:1056D0000000066806353046FBF7AAFA0746421C6A
:1056E00028463146FBF718FB062010FA87F02060A9
:1056F00040F65C10C2F2010001210170FF2004B0ED
:10570000BDE8F08720680A283CD105F1020840F284
:10571000DC294046C0F2010906F010FDAE1D8246AC
:10572000304606F00BFD0146A9F1010082454FF01D
:1057300005003FF6EDAE0129FFF6EAAE41F285071E
:10574000B94238BF0F4607EB0A004845404651466C
:1057500088BFA9EB0A0706F001FD3046394606F07E
:10576000FDFC05F10A00494606F0F8FC791E40F2FE
:10577000000C07F0030E0329C0F6100C06D200221D
:1057800017E000BF022004B0BDE8F0874FF6FC72BE
:10579000C7F6FF7207EA02030AEB0C02561C00224E
:1057A000B11851F8011CA81804329342C0F80E1029
:1057B000F6D1BEF1000F11D002EB0A031CF8030072
:1057C0002A44BEF1010F907308D003EB0C01487816
:1057D000BEF1020FD0731CBF8878107407F10C0063
:1057E00081B24046FEF764FA014678190E3006F0A1
:1057F000B5FC07F112002060FF2004B0BDE8F0877F
:105800004FF2884200EB8000C2F2000202EB8000FF
:105810000174704780B544F2E420C2F2020013F034
:1058200067FE002818BF012080BD000000F002B80C
:1058300000F038B810B546F20044C4F202040DF08E
:1058400041F920460121202213F008FF012818D138
:1058500020460121202213F0E5FE2046012114F00C
:1058600063F84FF2C0514FF6C012C2F20001C2F20B
:105870000002002808BF114608464FF4807100F06E
:105880003DFA20460121012213F0E8FE012804D14F
:1058900020460121012213F0C5FEBDE8104008F0AA
:1058A00051BD000010B546F20044C4F20204204687
:1058B0000421202213F0D2FE012816D12046042113
:1058C000202213F0AFFE2046042114F02DF842F6FA
:1058D000102142F6F022C2F20001C2F200020028BA
:1058E00008BF1146084600F091FB20460421012222
:1058F00013F0B4FE012818BF10BD20460421012278
:10590000BDE8104013F08EBE10B501F0C7FD40F0A9
:105910006004E0B202F03EF804F0BF00BDE81040C1
:1059200002F038B8022884BF0020704744F24001DA
:10593000C2F20201084490F88A02704744F2400122
:10594000C2F2020191F88A22824201D100200DE0C8
:1059500091F88B22824201D1012007E091F88C124C
:1059600081421CBF9FED070A704702204FF68861F5
:1059700000EB8000C2F2000101EBC00090ED020AD2
:10598000704700BFEC9188C34FF6886100EB800040
:10599000C2F2000101EBC000017C012906D01429EC
:1059A0000CBF9FED050A90ED020A70479FED010ABA
:1059B000704700BF000080FF0000807FF0B581B01D
:1059C0004FF60076C2F2000630784FF6886100EBA1
:1059D0008000C2F2000101EBC004274617F8100F47
:1059E0000238122800F20F81DFE810F0F8002200E0
:1059F00014001400340038004C005800640070009B
:105A00007E0092009600A000AE00C200CC00D6003E
:105A1000F20000BF0DF1030005F0ECFE002800F0DD
:105A2000F7809DF803001021002808BF1421E0E052
:105A30000DF1030005F0DEFE002800F0E9809DF87E
:105A400003000721002808BF0221397040F0E080E0
:105A5000D9E000BF06F03EF90421CAE0552004F861
:105A6000190F54F8080C54F8041CC4F80100C4F8C9
:105A700005102046092106F06DF80221002818BF04
:105A80001221B6E0442004F8190F2046012106F047
:105A900061F80221002818BF0921AAE004F11900C9
:105AA000002105F095FD002800F0B28040F28A2028
:105AB0009AE000BFD4E9000100F0AEFD002800F03C
:105AC000A78006F0FBF80B2193E000BF0DF1020068
:105AD00005F06CFE002800F09B809DF80200002875
