:020000040804EE
:10000000A00D0420D503040885A20408498B040828
:10001000A59D0408813904081D160508000000008C
:10002000000000000000000000000000B1FF040814
:1000300081600408000000004DAE0408E9070508CF
:10004000F3030408F3030408F3030408F3030408A8
:10005000F3030408F3030408F3030408F303040898
:10006000F3030408F3030408F3030408F303040888
:10007000F3030408F3030408F3030408F303040878
:10008000F3030408F3030408F3030408F303040868
:10009000F3030408F3030408F3030408F303040858
:1000A000F3030408F3030408F3030408F303040848
:1000B000F3030408F3030408F3030408F303040838
:1000C000F3030408F3030408F3030408F303040828
:1000D000F3030408F3030408B5110508C11105086A
:1000E000F3030408F3030408F3030408F303040808
:1000F000F3030408F3030408F3030408F3030408F8
:10010000F3030408F3030408F3030408F3030408E7
:10011000F303040849110508F3030408F303040872
:10012000F3030408A5550408F3030408F3030408C3
:10013000A9550408F3030408F3030408F3030408AF
:10014000F3030408F3030408F3030408F3030408A7
:10015000F3030408F3030408F3030408F303040897
:10016000F3030408F3030408F3030408F303040887
:10017000F3030408F3030408F30304080000000079
:10018000F3030408F3030408F3030408F303040867
:10019000F3030408F3030408F30304080000000059
:1001A000F3030408F3030408F303040800F002F85F
:1001B00000F09CF80AA090E8000C82448344AAF165
:1001C0000107DA4501D100F091F8AFF2090EBAE863
:1001D0000F0013F0010F18BFFB1A43F0010318477B
:1001E0001CE305007CE30500103A24BF78C878C101
:1001F000FAD8520724BF30C830C144BF04680C602D
:10020000704700000023002400250026103A28BF74
:1002100078C1FBD8520728BF30C148BF0B60704778
:100220006E2900F0C987702900F03D83662934F0FB
:100230005886652934F05586672934F0528661293D
:1002400034F0518603681B0A28BF41F080016929F8
:1002500000F0AE82642900F0AB82752900F0A8821C
:100260006F2901F0D782782900F00983E92901F08C
:100270007182E42901F06E82F52901F06B82EF2989
:1002800001F0D482F82900F008830368DB0928BF55
:1002900041F08001632901F0E081732901F0E581DB
:1002A000E32901F09987F32901F09E870020704728
:1002B0001FB534F004FE9DE8030000F0E3FE00F0FB
:1002C00024FC00F0BFFE04000020002133F0F6FE05
:1002D000401C60600020002133F006FFE06001F068
:1002E000A1FC1FBD10B501F006FD10BD02F01FF905
:1002F0001146FFF7DDFF23F09DFB02F04EF903B43A
:10030000FFF7F0FF03BC01F035FD00000B49D1F809
:1003100000C04A685CF8043B1068184442F8040BBB
:100320008C4528BFA1F1DC0C8A4228BFA1F1DC0278
:10033000C1F800C04A6020F000407047D82F00206C
:10034000F0B400EB4003DFF8880000EBC30000F1DD
:1003500018063069F7687568874232D3B368DC1BCA
:10036000631E934214D37D19D01900BF11F8013BCD
:1003700005F8013B521E05D011F8013B05F8013B81
:10038000521EF3D1BFF35F8FF0600120F0BC7047C5
:10039000C018904219D37819121B11F8013B00F8CC
:1003A000013B641EF9D1141C05D011F8013B05F87E
:1003B000013B521EF9D1BFF35F8FF4600120F0BC06
:1003C0007047C01B401E9042CDD20020F0BC704749
:1003D000A45C01200A4880470A4880470A48004731
:1003E000FEE7FEE7FEE7FEE7FEE7FEE7FEE7FEE7E5
:1003F000FEE7FEE705480649064A074B704700003E
:10040000ED07050861AE0408AD010408A08C0320C7
:10041000A00D0420A08D0320A08D032010B500F0B6
:1004200011FE001D10BD00BF953C030070B50646CF
:1004300000F004FE056806F10B0020F00704B4424A
:100440009CBF002070BD2B466A68BAB11068A042FC
:1004500010D304F1080188423CBF5068586007D3AC
:100460005168101941601168091B016058601460DF
:10047000101D70BD13465268002AE7D12146284658
:1004800000F0ECFD0028DED170BD70B50446051FFC
:1004900000F0D4FD0068002C14BF446870BD002C2F
:1004A00018BFAC423CBF20466468F8D301680A1804
:1004B000AA4218BF456003D12A680546114401606D
:1004C00028684119A1421CBF6C6070BD61686960F9
:1004D00021680844286070BD53EA020C00F069806E
:1004E0002DE9F04B4FF00006002B1FBFB3FA83F548
:1004F00003FA05F424FA05F65E4012BF1643B2FA79
:1005000082F502FA05F4C5F120051EBF22FA05FCAA
:1005100044EA0C04203556EA044C4FEA144418BF50
:10052000641C4FF000084FF00009904271EB030C7F
:1005300039D3002919BFB1FA81F701FA07F6B0FAE9
:1005400080F700FA07F6C7F120071EBF20FA07FC64
:1005500046EA0C062037B6FBF4FCA7EB0507103F74
:1005600007F01F0BCBF120062CFA06F60CFA0BFB5A
:1005700044BFB3460026202FA4BF5E464FF0000BB9
:100580005BEA060C08BF4FF0010B19EB0B0948EBB7
:100590000608ABFB027C06FB02CC0BFB03CCC01BAA
:1005A00071EB0C01C1E70B46024641464846BDE8E7
:1005B000F08B13B5084318BF4FF0FF300146AFF37F
:1005C0000080BDE81C40704753EA020C23D010B5F0
:1005D0004C1084EA530404D54042C1F1000138BFF5
:1005E000491E1B4204D55242C3F1000338BF5B1EB3
:1005F000FFF772FF14F0804F04D04042C1F10001B8
:1006000038BF491E14F0004F04D05242C3F100031A
:1006100038BF5B1E10BD13B540424FF0000070EBB9
:100620000104B8BF012001F0004100281CBF6FF099
:1006300000414FF0FF30AFF300801CBD10B5044601
:10064000FFF7ECFE0068005D000704D5DF2C02D048
:10065000A4F1200010BD204610BD00000A4601494B
:1006600001F008B8542E00200FB4044910B503AAB5
:10067000029800F0FFFF10BC5DF814FB542E002020
:100680000FB41CB5084B06AA7B4469460090059838
:1006900000F0B9FF04460020694600F0C7FF20467D
:1006A0001CBC5DF814FB0000A10F00000FB41CB5CA
:1006B0000C0007AA009007D04142A14202D3204477
:1006C000401E01E04FF0FF30074B7B44694601902C
:1006D000069800F098FF0021002C01D0009A1170BC
:1006E0001CBC5DF814FB0000690F000070B50446E7
:1006F00085690068C10601D5302600E02026C007C4
:1007000007D070BDD4E9012130469047206A401CD3
:1007100020626D1EF6D570BD70B5044685690078FF
:10072000C00707D170BDD4E9012120209047206A7D
:10073000401C20626D1EF6D570BD09684A0501D5C2
:1007400040B27047C905FCD500B2704709684A0538
:1007500001D5C0B27047C905FCD580B2704770B5ED
:100760000C460546012A05D02878800600D5EA699E
:10077000002302E0012305E05B1C934202D2E05C0F
:100780000028F9D1A869E618C01AA861286A184497
:1007900028622846FFF7AAFF04E0D5E9012114F8F2
:1007A000010B9047B442F8D32846FFF7B5FF70BD60
:1007B0002DE9F0410646002410687529314616A53A
:1007C00010D0FFF7BAFF002802DA404213A507E075
:1007D00031688A0701D512A502E0490704D511A5A1
:1007E000012401E0FFF7B2FF00210A2206F12407ED
:1007F00009E0B0FBF2FCB0FBF2F302FB1C0030306E
:1008000078541846491C0028F3D123462A4630461E
:10081000BDE8F04100F077BC000000002D000000B2
:100820002B00000020000000F0B40D4601880905EF
:1008300002D5214C7C4402E01F4C7C440E34002144
:1008400000F1240608E002F00F071209E75D42EA12
:1008500003721B097754491C52EA0307F3D102784B
:100860000023120704D5702D06D009B102231134DC
:100870002246F0BC00F047BC01231034F8E770B505
:1008800004460D4621461068FFF760FF02462946E0
:100890002046BDE870400023C6E7D21D22F00703C2
:1008A000D3E90023C0E70368126843F02003036024
:1008B0000823C3610023B7E7BE4603002DE9F05FBC
:1008C000894604464FF0000ADFF874B1FB44C0F8D3
:1008D00020A02046E1688847002874D0252806D04B
:1008E000D4E901219047206A401C2062F1E70026EC
:1008F0005F462046E16888472028054607DB312D02
:1009000005D2781910F8200C08B10643F1E7B007BA
:1009100001D526F00406C4F81CA00027C4F818A0CE
:100920002A2D09D0284633F0B3FB38B304EB8708EF
:10093000303DC8F8185019E059F8041B204604EB64
:1009400087029161E1688847012F054618D1E06967
:10095000002820DA26F020061DE0D8F8180000EB69
:10096000800005EB40003038C8F818002046E168E8
:100970008847054633F08CFB0028EED1012F0AD0C2
:100980002E2D08D12046E16888477F1C0546022F9E
:1009900046F02006C4DBA069002803DA404246F096
:1009A0000106A061F00701D026F010066C2D0BD0D7
:1009B000682D09D04C2D39D06A2D35D0742D35D005
:1009C0007A2D33D016E038E0E1682F46204688477C
:1009D000B842054609D16C2F26D04FF48060E168FB
:1009E000064320468847054604E06C2F1AD04FF492
:1009F000807006430DB3A5F14100192802D82035B7
:100A000046F400664A462946204626604E46FFF7D1
:100A100007FC80B101280BD0F61D26F0070000F17D
:100A2000080956E74020E4E78020D8E70020D6E711
:100A300006F104094DE7284652E7206ABDE8F09F19
:100A40004E46030070B50446C068810713D0800687
:100A500001D5A56A04E0A169606808442169451AC6
:100A6000204601F09BF8002206462946204600F069
:100A7000D9FF304670BD002070BD70B510B1BDE823
:100A80007040DFE70025074C6E1E07E02046FFF7A9
:100A9000D9FF00B13546206D20F00104002CF5D1BE
:100AA000284670BD002E0020014933F0F8BA00003E
:100AB000542E002010B5044603E033F0F0FA401C39
:100AC00009D014F8010B05490028F6D1BDE8104003
:100AD0000A2033F0E4BA4FF0FF3010BD542E00204E
:100AE0000B4910B5A1F17C020A4CC2E9371237213B
:100AF00006E000EB104342F82130074B00FB0340B7
:100B00000B1EA1F10101F4DC10BD0120E8E700009B
:100B1000782F0020E119D666CD0D01000EB50546EF
:100B200014460E4613A001F0F5FC284601F0F2FC35
:100B300016A001F0EFFC304601F0ECFC15A001F02E
:100B4000E9FC00218DF80B100A210DF10A008DF847
:100B50000A1008E094FBF1F201FB124294FBF1F45D
:100B6000303200F8012D002CF4DC01F0D3FC01F050
:100B7000F5F800002A2A2A20617373657274696F80
:100B80006E206661696C65643A2000002C206669FD
:100B90006C6520002C206C696E65200030B5034622
:100BA0001D781DB10A4603E0AC4201D1181A30BDD0
:100BB00012F8014B002CF7D15B1CF1E730B503466E
:100BC0001D783DB10A4612F8014B1CB1AC42FAD176
:100BD0005B1CF5E7181A30BD40EA010310B59B070E
:100BE0000FD1042A0DD310C808C9121F9C42F8D097
:100BF00020BA19BA884201D9012010BD4FF0FF3048
:100C000010BD1AB1D30703D0521C07E0002010BD5D
:100C100010F8013B11F8014B1B1B07D110F8013BE9
:100C200011F8014B1B1B01D1921EF1D1184610BDCA
:100C300010B5431C02E010F8011B71B18107FAD115
:100C40004FF0013202C88C1A8C4314EAC211F9D059
:100C5000C01A0A0603D0C01E10BDC01A10BD0A0477
:100C600001D0801E10BD0902FCD0401E10BDCBB2C9
:100C70002AB101788B4203D0401C521EF9D10020CA
:100C8000704740EA010370B59B072ED14FF0013643
:100C9000042A2AD308C810C99D1B9D43121F15EAB8
:100CA000C61517D0D8B2E1B2401A50EA056110D18A
:100CB00098B2A1B2401A50EA05410AD123F07F4010
:100CC00024F07F41401A50EA052102D1180EA0EB12
:100CD000146070BDA342DBD018BA21BA884201D992
:100CE000012070BD4FF0FF3070BD0AB9002070BD0B
:100CF00010F8013B11F8014B63B1A3420AD1521E17
:100D000008D010F8013B11F8014B1BB1A34201D1EF
:100D1000521EEDD1181B70BD032A40F2308010F036
:100D2000030C00F0158011F8013BBCF1020F624486
:100D300098BF11F801CB00F8013B38BF11F8013B17
:100D4000A2F1040298BF00F801CB38BF00F8013BC4
:100D500011F0030300F02580083AC0F0088051F834
:100D6000043B083A51F804CBA0E80810F5E7121D3F
:100D70005CBF51F8043B40F8043BAFF30080D2075E
:100D800024BF11F8013B11F801CB48BF11F8012B2A
:100D900024BF00F8013B00F801CB48BF00F8012B4D
:100DA000704710B5203AC0F00B80B1E81850A0E8A9
:100DB0001850B1E81850A0E81850203ABFF4F5AF29
:100DC0005FEA027C24BFB1E81850A0E8185044BF85
:100DD00018C918C0BDE810405FEA827C24BF51F8F2
:100DE000043B40F8043B08BF7047D20728BF31F8E6
:100DF000023B48BF11F8012B28BF20F8023B48BF37
:100E000000F8012B704702F0FF0343EA032242EA95
:100E1000024200F002B84FF000020429C0F0128034
:100E200010F0030C00F01B80CCF1040CBCF1020F9D
:100E300018BF00F8012BA8BF20F8022BA1EB0C0172
:100E400000F00DB85FEAC17C24BF00F8012B00F868
:100E5000012B48BF00F8012B70474FF0000200B58E
:100E6000134694469646203922BFA0E80C50A0E8CD
:100E70000C50B1F12001BFF4F7AF090728BFA0E87B
:100E80000C5048BF0CC05DF804EB890028BF40F847
:100E9000042B08BF704748BF20F8022B11F0804F89
:100EA00018BF00F8012B704710B5044610F0030F6F
:100EB00008BF11F0030F40F015804FF0013E121FE4
:100EC000C0F20E8051F8043BA3EB0E0C2CEA030C8D
:100ED0001CEACE1C08BF40F8043BF0D0A1F104018D
:100EE00002F10402521E08DB11F8013B00F8013B3D
:100EF000002BF7D11146FFF78EFF204610BD0000F2
:100F000030B44FF0013C50F8042B51F8043BCCFABC
:100F100052F4D51A20D1FCB950F8042B51F8043BF7
:100F2000CCFA52F4D51A17D1B4B950F8042B51F8B1
:100F3000043BCCFA52F4D51A0ED16CB950F8042BFC
:100F400051F8043BCCFA52F4D51A05D1002CDAD072
:100F500030BC4FF00000704729BAB1FA81F111F0AE
:100F60001801D1F120008440F2D1CA40CB4012F0E8
:100F7000FF0213F0FF0330BCD01A704770B50C4667
:100F8000016800204A1C3ED03C22B1FBF2F302FB78
:100F90001313B1FBF2F12360B1FBF2F302FB131365
:100FA000B1FBF2F118226360B1FBF2F302FB131301
:100FB000B1FBF2F146F2E0320A440721A360B2FB32
:100FC000F1F301FB132140F2B553B2FBF3F5A1613C
:100FD000B2FBF3F103FB15228900B2F5B77F08D30A
:100FE0009B10521EB2FBF3F52944B2FBF3F503FB51
:100FF00015220F4BE261616189077B440CD03B2ACB
:101000000AD3521C08E02C212046FFF726FF0120BE
:10101000E0600AE0521A401C195C9142FAD9521C55
:10102000C4E903204FF0FF302062204670BD00006D
:101030006A3F0300704770477047000000487047E0
:10104000E82F00200048704700300020004870471B
:10105000E02F0020704770477047704738B504464E
:101060000A4600206946AFF30080002808BF38BD5B
:1010700002460099204600F087FE012038BD01207D
:1010800001F040BAF8B5AFF30080054600200C46E9
:10109000102000BF0646A819A0420DD93246694665
:1010A0000020AFF30080070008BF01F02BFA009882
:1010B000A04218BF0546C419FFF7C0FF05600746E8
:1010C000F01D20F007004619284600F00AF8B44247
:1010D00008BFF8BDA21B31463868BDE8F84000F0F3
:1010E00053BE00210160C0E9011070471020704715
:1010F00010B5FFF7ABFF006810BD10B50446FFF751
:10110000A5FF046010BD2DE9F0470D4699469246B3
:10111000044600F124080168880604D5E06921F03E
:101120001001216000E00120A84201DD471B00E022
:101130000027A1697A1902EB0900081AA06120783A
:10114000C00602D42046FFF7D1FA002608E0D4E911
:1011500001211AF806009047206A401C761C206284
:101160004E45F4DB2078C0060AD52046FFF7BEFACC
:1011700006E0D4E9012130209047206A401C20621B
:10118000381EA7F10107F4DC07E0D4E9012118F8C3
:1011900005009047206A401C2062281EA5F1010529
:1011A000F3DC2046FFF7B8FA2078000602D50220CB
:1011B000BDE8F0870120FBE711680268006A53056B
:1011C00001D508700AE0D30501D5088006E01306B2
:1011D00003D5C217C1E9000200E008600120704792
:1011E0002DE9FF4F0C461E464FF0FF378BB0D2E97A
:1011F0000001DDF860800A908A46C1F30A5505B9FE
:101200003D46002108464FF00000BAF1000F00F4FF
:10121000400005DA00EB80004FF4400101EA500085
:101220004FEA9059B9F1010F00DDB9460A9850EA2A
:101230004A000ED044F61050A5F2FF3545432F1456
:10124000B8F1000F1ED07542291E1EDDC9F1000243
:101250001CE0B8F1010F4FF0000001D0302103E095
:10126000F24305E02154401CB042FBDB3046002233
:10127000002121540B99C1F80880C1E900200FB06A
:10128000BDE8F08FBD1B6D1CDEE74A4600DA6942FF
:1012900006A800F0ADFF06AB93E8070003AB83E8B8
:1012A000070050460A9931F096FF8DE80700A0F537
:1012B00000501F3800900398002D0ADD42F21F01F4
:1012C0004A460844002303A90390684632F000FA16
:1012D00009E0A0F500504A461F38002303A90390F7
:1012E000684632F00AFA8DE807000004000C03D0CB
:1012F0004FF0FF30410800E01046B8F1000F03D076
:101300000022009215461EE0751E05D400F056FD21
:10131000303262556D1EF9D5B3460122084302D022
:1013200000227F1C04E02078302801D100227F1E9B
:10133000002A099784D01DE0112D07DA00F03EFD48
:10134000303262556D1C50EA0102F5D1084302D0DB
:101350000098C8B10EE00021681E05E0235C625CC5
:1013600063542254401E491C8142F7DBAB46A81B44
:10137000401E0990002004F80B000B98099AC0F851
:101380000880C0E9002B7AE711264FF0000857E7E4
:101390002DE9F04F88460446D21D22F0070191B096
:1013A000D1E90001CDE90A0132F0DEFA02460B98DC
:1013B000C00F01D02D2007E02068810701D52B2028
:1013C00002E0202101EAC000032A099001D0072A87
:1013D00005DB03464146204600F0B4FE0BE12078D1
:1013E000800601D5E06900E00620B8F1650F81466E
:1013F00006D0B8F1660F18D0B8F1670F70D131E0A0
:101400000020B9F1110F009001DB112301E009F177
:1014100001030AAA01A90CA8FFF7E2FEDDE90C709E
:10142000002609F10105834647E001204B46009064
:101430004FF000470AAA01A90CA8FFF7D1FEDDE989
:101440000DB00C995D46002610B909F101000D1888
:10145000B9EB050003D4C0F1FF3609F10105A5EB96
:1014600009002BE0B9F1010F01DA4FF0010900206A
:10147000B9F1110F0090484601DD112300E0034649
:101480000AAA01A90CA8FFF7ABFEDDE90C704D46D6
:1014900000268346207800070AD4AB4500DA5D4673
:1014A00001A8012D04DD411911F8011C302907D0D4
:1014B0004F4502DA17F1040F04DA012082460FE0EB
:1014C0006D1EEEE7002F02DCED1B3E4403E0781CAE
:1014D000A84200DD7D1CB81B00F1010A4FF0004757
:1014E0002078000703D4AA4501DB4FF0FF3A002122
:1014F000B7F1004F0DF143088DF8431024D00220BE
:101500002B23002F01DA7F422D230A21021EA0F196
:10151000010000DC5FB197FBF1FC97FBF1F201FBEE
:101520001C7C17460CF1300C08F801CDEEE7A8F151
:10153000010003702188090501D5452100E06521DE
:10154000A0F1010800F8011C09980FA9A1EB0807F8
:10155000FF1D00B10120411901EBEA70A169384477
:10156000081A401EA0612078C00602D42046FFF76A
:10157000BDF8099828B1D4E901219047206A401CA0
:1015800020622078C00622D52046FFF7AFF81EE083
:10159000002E04DBB34502DD01A8805D00E03020B1
:1015A000D4E901219047206A401C2062761CAAF1F0
:1015B00001005FEA000A0AD1FFF744FDC068016834
:1015C000405CD4E901219047206A401C2062281E1B
:1015D000A5F10105DCDC07E0D4E9012118F8010BD5
:1015E0009047206A401C2062381EA7F10107F3DCF7
:1015F0002046FFF791F8032011B041E601694A1C2B
:1016000002610878704700B58FB0CDE90131002143
:10161000059105497944CDE9031011466846FFF765
:101620004DF90FB000BD0000E5FFFFFF0A6802F8AA
:10163000010B0A607047D1E900239A4202D2531C81
:101640000B601070704710B5436913B1AFF30080A1
:1016500001E0FFF784F8012010BD127800F12401A9
:101660000A7000224A700122EDE711684FF0FF3244
:10167000E9E70000074B70B50D467B44FFF7C3FF59
:101680000446284600F026FE10B14FF0FF3070BD32
:10169000204670BD212A03002DE9FF5F15468A46CA
:1016A0000446DFF8AC80F8440027D8E900103E4635
:1016B000CDE9001010E03AF816106A4602A800F0D2
:1016C000EFFE411C07D02178890603D5E26939185D
:1016D00091420DD80744761C2078800602D5E06937
:1016E000B84205DDAE42E6DB3AF816000028E2D14A
:1016F000A069C01BA0612046FEF7F8FFD8E90010E2
:10170000CDE90010002017E03AF818106A4602A848
:1017100000F0C6FEB0F1FF3F81460BD000250DF171
:10172000080B05E0D4E901211BF8050090476D1C6A
:101730004D45F7D308F10100B0428046E4DB206A52
:10174000384420622046FEF7E7FFBDE8FF9F000017
:10175000B63803002DE9F0418046D21D22F0070281
:101760000025D2E90002F52915A614D0011E72F158
:10177000000106DA0023D0EB030063EB020211A69E
:1017800008E0D8F800108B0701D50FA602E0490742
:1017900001D50EA601251146002408F1240704E016
:1017A00000F00CFB30323A55641C50EA0102F7D1CC
:1017B0002B46324621464046BDE8F041FFF7A3BC28
:1017C000000000002D0000002B00000020000000A1
:1017D00030B4002100F1240408E002F00705D2082B
:1017E000303542EA4372DB086554491C52EA03056E
:1017F000F3D10468002310A2250708D504F02004C3
:101800000C4304D0C46901230CA2641EC46130BC23
:10181000FFF779BC10B5044621461068FEF796FF25
:1018200002462046BDE810400023D1E7D21D22F039
:101830000701D1E90023CBE70000000030000000E1
:101840002DE9F05F054617460C46C86820F42010C5
:1018500040F48000C860800602D5084600F0C1F957
:10186000E06841F282014FF0FF3A0140022903D0C3
:10187000204600F053F9B9E000F42041B1F5004FE3
:101880000FD1C00306D56168E06A884200D80846D7
:10189000606006E02069E0626060606910F044FD0D
:1018A000A061A0680022EEB200280DDAE1688B0585
:1018B0000AD4C043A06041F490302260E0606068C8
:1018C000411C61600670AAE0E0689146226040F425
:1018D0000050E060206978BB606910F027FD04F1DA
:1018E00024054FF00108A8B1A08910F4407F08D06A
:1018F000E069FEF79BFD206118B1E06840F40060EC
:1019000017E0C4F81C802561E06820F4407040F4C2
:1019100080600EE0E069FEF789FD00282061F0D0CC
:10192000E06840F4006010F4407FE06002D140F4D1
:101930008070E06020696060E06825696FF0010BED
:10194000C1051ED56168E06A884200D80846411B7F
:1019500004D02246284600F0EBF8E8BB1FB1E56250
:10196000C4E9015959E0681CE0626060E069401E0A
:10197000A060E06840F48030E06030462E70BDE842
:10198000F09F17B100F480320AE06068411C61608A
:101990000670E0680A2E40F48030E06006D0002235
:1019A000E16A6068814203D90B4602E00122F7E751
:1019B0000346B4F80CC05B1B5FEA4C5C04D4D4F85B
:1019C0001CC09C4500DD02B3814200D80146002BBB
:1019D000A1EB0008E56200E008E0C4E9015907DD79
:1019E00022461946284600F0A3F808B15046C6E73B
:1019F000B8F1000F09D0A169E5626560A1EB0800AC
:101A0000A061E06840F01000E06047B16168A06943
:101A1000E562491B08446560A0615846AFE730465F
:101A2000ADE700002DE9F041044616460D46476932
:101A3000007B80072ED0384610F078FC50BB3EB3B8
:101A4000012E02D0022E25D104E0204600F046FCF3
:101A500005441DE0384610F067FCE168002841F0BD
:101A60001001E16005DA204600F058F80120BDE8D9
:101A7000F081C9030BD56268E16A914200D8114632
:101A8000A26911442269891A814200DD0846054491
:101A9000002D01DA0220EAE7E16A6068E26881422B
:101AA00006D29103E06203D522F4003141F0100226
:101AB000A6690027AE4213DCE16A814201D90B46D8
:101AC00000E0034603EB060C2369ACEB030CAC45CA
:101AD00006DD814201D98C4600E084469C4505D153
:101AE000A760276042F02000A5620DE0AD1BE6690B
:101AF000AE1B8142A66000D90846C01A281A206091
:101B00005819606022F0200003490840E06000207E
:101B100084F84870ABE70000BFCFD7FFC16821F45D
:101B2000001141F08001C1600021816001607047B7
:101B30002DE9F74F15460C464FF0FF3B3848D76864
:101B4000D2F814A0074209D05046A96910F012FC3F
:101B5000002819DB3248C0430740EF604FF00049CE
:101B60006FF000484C4501D3464600E026460099F8
:101B70003B465046324610F0FFFBA96920F0004278
:101B8000B21A1144A96128B12846FFF7C7FF584689
:101B9000BDE8FE8FA41BE5D10020F9E770B504462F
:101BA0000569C06A6168884200D80846E16821F486
:101BB0002011E160C90312D5A84208D02246411B7A
:101BC0002846FFF7B5FF10B14FF0FF3070BD002081
:101BD000E562C4E90150E06820F48030E060002054
:101BE00070BD10B50446C06820F02000E060A16A16
:101BF000A06988420DD02046FFF7D0FFE06820F4AE
:101C0000405040F01000E060A06AA0612069E062EE
:101C1000606044F24001E0688843E06010BD00006D
:101C20001000020010B542485421FFF716F9414850
:101C30005421FFF712F940485421FFF70EF93F49AC
:101C40003B483C4A3F4B08603D490A603A491960AD
:101C5000531C0365481C1065012008653B48344A45
:101C600039A1784400F07EFB20B9384878440A381E
:101C700000F041FC37482F4A35A1784400F072FB50
:101C800020B9344878440A3800F035FC32482A4AF2
:101C90002FA1784400F066FB20B92F4878440A3819
:101CA00000F029FC40232248DC000021224600F0FD
:101CB00036FB20B125487844543800F01CFC1D4800
:101CC00022464023002100F02AFB20B1214878441D
:101CD000543800F010FC184822461023002100F070
:101CE0001EFB002806D01C487844BDE8104056383A
:101CF00000F001BC10BD104870B5006D20F001046B
:101D00000B4800F0A7FB0B4800F0A4FB0A4800F0CA
:101D1000A1FB09E0206D20F00105204600F09AFBB0
:101D20002046FEF7B2FB2C46002CF3D170BD00001C
:101D3000002E0020542E0020A82E00209C080020F9
:101D4000A0080020A40800207200000084320300D4
:101D500077000000703203005C32030010B50020F1
:101D600000F0C2FBFEF7BEFABDE81040012000F013
:101D700001B8000001491820ABBEFEE726000200B2
:101D800000487047E02F0020034640688C4600283A
:101D900018BF88423CBF03464068F8D3186818440F
:101DA000884207D00CF1030020F00700001D411A03
:101DB000521A0146081D0A60FEF767BB30B5B0F144
:101DC0000A0271F100034FEA900E4EEA817EB0EBF9
:101DD0000E0061EB91014FEA101E4EEA017E10EBFE
:101DE0000E0041EB11114FEA102E4EEA016E10EB7E
:101DF0000E0041EB11214FEA104E4EEA014E10EB5E
:101E00000E0041EB1141401841F100014FEAD000B2
:101E100040EA41704FEAD1014FEA810444EA9074EC
:101E200010EB800544EB01046D1944EB0404521BD4
:101E3000A3414FF0000348BF0A3200D530BD401C1B
:101E400041F1000130BD00002DE9F04F04460D4680
:101E5000D21D22F0070089B0D0E9009748463946E4
:101E600031F082FD0246F80F01D02D2307E02068F3
:101E7000810701D52B2302E0202101EAC0038DF860
:101E800020300BB1012000E00020032A824601D05F
:101E9000072A04DB2946204600F054F93FE1207868
:101EA000800601D40D2500E0E569C7F30A560D2D23
:101EB00049DA00214FEA175B08464FF00000002F77
:101EC00000F4400007DA00EB80004FF4400100EB23
:101ED000D07001EA60008115012901DD4FF0FF316A
:101EE00000224FEA850CBCF1180F06D31346ACF163
:101EF00018004FF08052C24003E04FF4801323FAE1
:101F00000CF30CF10C0CBCF1200F04D3ACF1200C41
:101F100009FA0CF001E007FA0CF000294FF0004834
:101F200001DD18B90FE00ED140450CD319EB0209C1
:101F30005F4121B9404502D19F4329EA0209BBEB29
:101F4000175F00D0761C2088000502D57B487844B6
:101F500002E07A487844193808AA302302F80A3097
:101F6000037C0AF10101002E0AF1020A53546A4669
:101F700002DC4FF0300101E04FF031014FF0010879
:101F80008DF8001002D0A6F2FF3603E059EA4701AF
:101F900000D06B4E002D02DC2178090704D54FF0EC
:101FA00002082E218DF80110C44600210BE0C7F372
:101FB00003433F01C35C491C6D1E02F8083005292C
:101FC00008F1010801DA002DF1DC00210CE000EB42
:101FD0001973491C1B786D1E082902F808304FEA56
:101FE000091908F1010801DA002DF0DC21688B06DF
:101FF00002D516E0A8F10108E04505DD02EB080373
:1020000013F8013C302BF5D0B8F1000F09DD02EBDD
:10201000080313F8013C2E2B03D1090701D4A8F1C2
:102020000108002D05DD3E2102F808106D1E08F1A3
:102030000108407C002E02F8080008F1010804DACB
:102040002D20764202F8080002E02B2002F808005A
:102050000A214FF47A70864208F101080BDB96FBE7
:10206000F0F3303302F8083096FBF0F308F1010882
:1020700000FB136601E0642E0CDB642096FBF0F39A
:10208000303302F8083096FBF0F308F1010800FB4A
:10209000136601E00A2E06DB96FBF1F0303002F801
:1020A000080008F1010896FBF1F001FB10603030E8
:1020B00002F80800A16908F1010808EB050202EB2B
:1020C0000A00081AA0612078C00602D42046FEF754
:1020D0000DFB216A08AE01EB0A00206204E0D4E99E
:1020E000012116F8010B9047BAF1010AF7D22078C6
:1020F000C00602D52046FEF7F9FA6E4609E016F84A
:10210000010B3E280FD0D4E901219047206A401CE2
:102110002062B8F10108F2D22046FEF7FDFA09B0BC
:102120000320BDE8F08F206A2844206203E0D4E950
:102130000121302090476D1EEBD3F8E755300300A6
:1021400002FCFFFF2DE9F0411F460446032601680B
:10215000072A01F4006004DB08B116A505E016A506
:1021600003E008B115A500E015A521F010002060DE
:10217000A069C01EA0610FB1401EA0612046FEF7FD
:10218000B5FA4FB1D4E9012138469047206A401C86
:102190002062C01C206206E0206AFAE7D4E901212F
:1021A00015F8010B9047761EF8D22046FEF7B4FAD8
:1021B000BDE8F0814E414E006E616E00494E460012
:1021C000696E660010B5436913B1AFF3008001E09A
:1021D000FFF762FA012010BD128800F12401828409
:1021E0000022C2840122EDE711684FF0FF32E9E7D7
:1021F0002DE9F047814616468AB0354878440DC827
:102200008DE80D0032487844801C03AC0DC884E88A
:102210000D0041F69B300844372190FBF1F290FB12
:10222000F1F5A5F1800501FB12041B3C02D56442C7
:10223000012000E00020DFF898A080460027FA4443
:10224000AAF1BE0A0EE0E0070AD03246684607EB64
:10225000470101230AEB810131F04FFA8DE80700B5
:1022600064107F1C002CEED1194F7F44AE3F19E063
:10227000E80715D007EB04100DF1180A90E80E00DE
:102280008AE80E00C068F04201D1981908903246E1
:10229000012306A903A831F030FA03AB83E8070055
:1022A0006D10641C002DE3D14FF0010332466946E6
:1022B000B8F1000F03A802D031F00AFA01E031F0C2
:1022C0001CFAC9E90001C9F808200AB0BDE8F08786
:1022D000382E0300007B00F08000704710B50146E7
:1022E000C268900703D0900607D5886A0AE0FEF717
:1022F000ADFE01210160881E10BD8B69486818443D
:102300000B69C01A91F848301BB191F84910401A76
:1023100010BD1103FCD50028FADD401E10BD70B5BC
:10232000C468A50713D0650211D4B2F5807F09D027
:10233000B2F5007F06D0B2F5806F08D1012300F11D
:10234000240106E05D1E6FF07F46B54201D30120F7
:1023500070BD0161C361416024F470611143C160CB
:10236000002070BD2DE9F0410C461646070047D00D
:10237000104600F06FF82078611C61280AD072289E
:1023800002D077283CD102E00125002405E0022597
:10239000042402E0082448F2020511F8010B2B285E
:1023A00006D0622809D011F8010C74280AD00BE07D
:1023B00045F0030544F00204EFE745F0040544F05E
:1023C0000104EAE744F01004384621460FF0B6FF56
:1023D000411C15D00021316171604FF40071F5602E
:1023E000F1617061200704D5304602220021FFF719
:1023F00019FB306D40F0010030653046BDE8F081DA
:102400000020FBE72DE9F0410D460646104C206DFB
:10241000C10704D0410804D020F00104F7E72246A8
:102420000EE05420FEF702F807000ED0206D47F0B2
:1024300001010843542120653846FEF70EFD3A4657
:1024400029463046BDE8F0418CE70020D6E7000081
:10245000002E00202DE9F04704464FF0FF380026FB
:10246000C568D4E90497A80718D02046FFF796FB63
:1024700038460FF057FF002800DA4646280502D5F7
:102480004846FEF702F84C212046FEF7E6FC206D98
:1024900020F0010020653046BDE8F0874046FBE7AC
:1024A0002DE9F04116460C460546FDF7B7FF0368D7
:1024B00093F80101012807D0FF2C12D8185D80B1D4
:1024C00001202C70BDE8F081D3F807013246214687
:1024D00003F20713C7182846BC46BDE8F0410023A5
:1024E00060474FF0FF30EDE710B500F065F8BDE84C
:1024F000104000F05BB810B500F076F8BDE8104071
:1025000000F054B810B500F089F8BDE8104000F0B4
:102510004DB8000010B5044900F02EF8BDE8104099
:102520000148FEF7AABA0000A82E002070477546A1
:10253000FFF726FCAE4605006946534620F007002B
:10254000854618B020B5FDF755FFBDE820404FF097
:1025500000064FF000074FF000084FF0000BAC46AC
:10256000ACE8C009ACE8C009ACE8C009ACE8C009F7
:1025700021F007018D46704770B50D46044604E012
:10258000294631F08CFD401C04D014F8010B0028C2
:10259000F6D170BD4FF0FF3070BD10B50446AFF3FB
:1025A00000802046BDE81040FDF7A9BE002801D0FC
:1025B000FFF7E0BB7047000010B5002102A000F05B
:1025C00055F8012010BD0000534947414252543A8A
:1025D0002041626E6F726D616C207465726D696E00
:1025E0006174696F6E00000010B5014602A000F032
:1025F0003DF8012010BD0000534947525452454454
:102600003A2052656469726563743A2063616E278B
:1026100074206F70656E3A200000000010B501282C
:1026200005D0002103A000F021F8012010BD09A170
:10263000F8E7000053494752544D454D3A204F7535
:1026400074206F662068656170206D656D6F7279AA
:10265000000000003A2048656170206D656D6F7262
:102660007920636F727275707465640070B5054689
:102670000C460A2000E06D1C0FF08AFE35B1287868
:102680000028F8D102E0641C0FF082FE14B120781B
:102690000028F8D1BDE870400A200FF079BE000094
:1026A00010B50C460846C021FEF7B5FB45F2527046
:1026B000C4F8D00000210520C4E93011C4F8C810C6
:1026C000C4F8CC1010BD000010B50C460846C0215F
:1026D000FEF7A1FB45F25270C4F8D000002105209E
:1026E000C4E93011C4F8C810C4F8CC1010BD000003
:1026F00010B50C460846C021FEF78DFB45F252701E
:10270000C4F8D00000210520C4E93011C4F8C81075
:10271000C4F8CC1010BD0000B0B5154601280C4619
:102720000CD028BB681E022826D294ED000A0DF0BA
:1027300079FD012D22D1FF2040B2B0BD681E0228D4
:1027400024D202201AF0E6FC50B3206844F2307123
:10275000C2F20201C1F8090394ED000A0DF0BAFCBF
:1027600094ED000A0DF07EFC012DE4D010E000BFD6
:10277000052040B2B0BD00BF002DDCD105F056FDF4
:1027800084ED000AFF2040B2B0BD00BF002DD2D1C1
:1027900005F076FB84ED000AFF2040B2B0BD00BF1B
:1027A0000B2040B2B0BD000070B582B0252800F209
:1027B000A580064615460C46DFE816F0A400AC00DE
:1027C000B400BC00C400CC00D400DC00E400EC0089
:1027D000F400FC001A013001400042015200540193
:1027E00066017C018E019601260026002600260047
:1027F00064006C00A201AA01B201BA01C201780012
:102800008000880090009800681E02280CD20020EA
:102810001AF080FC28B1A6F116002178C0B203F0AE
:10282000CDF8012D03D193E2002D40F09182A6F165
:102830001600C0B202F03CFF94E200BF681E0228FE
:1028400080F0868101201AF065FC28B1206843F2EF
:102850003041C2F200010862012D00F079827AE174
:10286000681E022880F07E8101201AF053FC28B1F6
:10287000206843F23041C2F20001C862012D00F02D
:10288000678272E1681E022880F076810B2040B2D8
:1028900002B070BD681E022880F07481216800209B
:1028A0000DF0B4FD012D00F053826EE1681E022888
:1028B00080F06E810B2040B202B070BD681E02280D
:1028C00080F06C810B2040B202B070BD681E0228FF
:1028D00080F06A810B2040B202B070BD002D00F084
:1028E0003B820B2040B202B070BD00BF002D00F053
:1028F00037820B2040B202B070BD00BF052040B24D
:1029000002B070BD681E022880F072810B2040B2B8
:1029100002B070BD681E022880F070810B2040B2AA
:1029200002B070BD681E022880F06E810B2040B29C
:1029300002B070BD681E022880F06C810B2040B28E
:1029400002B070BD681E022880F06A810B2040B280
:1029500002B070BD681E022880F068810B2040B272
:1029600002B070BD681E022880F06E810B2040B25C
:1029700002B070BD681E022880F076810B2040B244
:1029800002B070BD681E022880F074810B2040B236
:1029900002B070BD681E022880F072810B2040B228
:1029A00002B070BD681E022880F070810B2040B21A
:1029B00002B070BD681E022880F06E8101201AF0FE
:1029C000A9FB88B144F23076C2F2020696F80603FB
:1029D0002168814206D0481EB0FA80F0400927F0F5
:1029E00019FB206886F80603012D00F0B18155E13E
:1029F000681E022880F05A8101201AF08BFB40B13A
:102A000043F23041C2F2000120684A6B60F3410298
:102A10004A63012D00F09C814AE100BF681E022834
:102A200080F04E8101201AF075FB28B1206843F236
:102A30003041C2F20001C861012D00F0898141E1FD
:102A4000681E022880F0448101201AF063FB28B13F
:102A5000206843F23041C2F200014862012D00F0CB
:102A6000778137E1681E022880F03A8101201AF050
:102A700051FB28B1206843F23041C2F200010863E3
:102A8000012D00F065812CE1681E022880F0308164
:102A900001201AF03FFB40B143F23041C2F2000185
:102AA00020684A6B60F300024A63012D00F05081F8
:102AB0001FE100BF681E022880F0248101201AF067
:102AC00029FB20B12068002818BF0DF073FA012DF2
:102AD00000F03E8117E100BF681E022880F01681D9
:102AE0000B2040B202B070BD681E022880F0148135
:102AF000216801200DF08AFC012D00F029810CE1F4
:102B0000681E022880F00E810B2040B202B070BD1A
:102B1000681E022880F00A810B2040B202B070BD0E
:102B2000681E022880F006810B2040B202B070BD02
:102B3000681E022880F002810B2040B202B070BDF6
:102B4000681E022880F000810B2040B202B070BDE8
:102B5000002D40F0FD8043F23040C2F20000006AD8
:102B600000E100BF002D40F0F38043F23040C2F29C
:102B70000000C06AF6E000BF002D40F0E9800020B0
:102B8000C6E000BF002D40F0E3800020C6E000BF9B
:102B9000002D40F0DD8005F053FAE3E0002D40F019
:102BA000D78005F097FADDE0002D40F0D1800025B8
:102BB0000DF107000DF106010DF105028DF807502A
:102BC0008DF806508DF8055014F066FE9DF807004C
:102BD00048B19DF806109DF80500022202EA410165
:102BE00060F383014D1C2560FF2040B202B070BD30
:102BF000002D40F0AD8005F069FEB3E0002D40F0FF
:102C0000A78005F077FEADE0002D40F0A18005F033
:102C100089FEA7E0002D40F09B8005F079F9A1E046
:102C2000002D40F0958005F0BBF89BE0002D40F0B2
:102C30008F8016F0E3FF44F24022C0F20F0200231F
:102C4000FDF74AFC8EE000BF002D40F0818016F0B9
:102C5000D5FF44F24022C0F20F020023FDF73CFCF6
:102C60004FF47A7050437DE0002D71D105F096F954
:102C700078E000BF002D6BD105F076F972E000BF5F
:102C8000002D65D105F018FC6CE000BF002D5FD170
:102C900005F020FB66E000BF002D59D144F23070F2
:102CA000C2F2020090F806035CE000BF002D4FD195
:102CB00043F23040C2F20000406BC0F3400051E0EC
:102CC000002D45D143F23040C2F20000C06949E016
:102CD000002D3DD143F23040C2F20000406A41E095
:102CE000B5BB43F23040C2F20000006B3AE000BFD7
:102CF00075BB43F23040C2F20000406B00F00100AF
:102D000030E000BF25BB05F0DBFD2BE005BB01205B
:102D10001AF000FA26E000BFD5B9012005F0B2FA9A
:102D200020E000BFA5B905F057FA1BE085B905F012
:102D30004FFA17E065B9002002E000BF45B9012055
:102D400005F0B8FA0EE000BF15B905F007FC09E080
:102D5000FF2040B202B070BD05F026FA02E000BFCD
:102D600005F014FA2060FF2040B202B070BD0000F0
:102D7000E32800F2ED8010B50C46DFE810F0E50026
:102D8000ED00F100F50003010501070109010B0148
:102D90000D010F01110113011501170119011B018B
:102DA0001D011F01210123012501270129012B01FB
:102DB0002D012F01310133013501370139013B016B
:102DC0003D013F01410143014501470149014B01DB
:102DD0004D014F01510153015501570159015B014B
:102DE0005D015F01610163016501670169016B01BB
:102DF0006D016F01710173017501770179017B012B
:102E0000810187018D01930199019F01A501AB010A
:102E1000B101B701BD01C301C901CF01D101D30186
:102E2000D501D701D901DB01DD01DF01E101E301BA
:102E3000E501E701E901EB01ED01EF01F501FB011E
:102E4000010207020D02130219021F0225022B02C2
:102E5000310237023D02430249024F0255025B0232
:102E60005F02630267026B026F02730277027B02EA
:102E70007F02830285028B028F02930297029B02DC
:102E80009F02A302A702AB02AF02B302B702BB02CA
:102E9000BF02C302C702CB02CF02D302D702DB02BA
:102EA000DF02E302E702EB02EF02F102F302F502B6
:102EB000F702F902FB02FD02FF020103030305030F
:102EC000070309030B030D030F031103130315037A
:102ED000170319031B031D031F0325032B033103D2
:102EE00037033D03430349034F0355035B0361036A
:102EF00067036D03730379037F0385038B039103DA
:102F000097039D03A303A903AF03B303B703BB0355
:102F1000BF03C303C703CB03CF03D303D703DB0331
:102F2000DF03E303E703EB03EF03F303F703FB0321
:102F3000FF03030407040B040F04130417041B040A
:102F40001F042304270400BF05F0CEFC40E300BFAC
:102F5000052040B2704700BF05F0DEFC38E300BF3B
:102F600005F0E0FC34E300BF16F048FE44F24022D6
:102F7000C0F20F020023FDF7AFFA31F02AFF00EE96
:102F8000100A29E3002076E000207AE000207EE0AD
:102F9000002082E0002086E000208AE000208EE011
:102FA000002092E0002096E000209AE000209EE0C1
:102FB0000020A2E005205EE0052062E0052066E03A
:102FC00005206AE005206EE0052072E0052076E02D
:102FD00005207AE005207EE0052082E0052086E0DD
:102FE00005208AE0032046E003204AE003204EE06B
:102FF000032052E0032056E003205AE003205EE065
:10300000032062E0032066E003206AE003206EE014
:10301000032072E001202EE0012032E0012036E0A2
:1030200001203AE001203EE0012042E0012046E09C
:1030300001204AE001204EE0012052E0012056E04C
:1030400001205AE0022016E002201AE002201EE0D1
:10305000022022E0022026E002202AE002202EE0C8
:10306000022032E0022036E002203AE002203EE078
:10307000022042E00420002104F098FEACE200BFF0
:103080000420012104F092FEA6E200BF04200221E8
:1030900004F08CFEA0E200BF0420032104F086FEB1
:1030A0009AE200BF0420042104F080FE94E200BFF5
:1030B0000420052104F07AFE8EE200BF04200621E0
:1030C00004F074FE88E200BF0420072104F06EFEC5
:1030D00082E200BF0420082104F068FE7CE200BF09
:1030E0000420092104F062FE76E200BF04200A21D8
:1030F00004F05CFE70E200BF04200B2104F056FED9
:103100006AE200BF0020002105F072F964E200BF0E
:103110000020012105F06CF95EE200BF00202AE0EA
:1031200000202EE0002032E0002036E000203AE0CF
:1031300000203EE0002042E0002046E000204AE07F
:1031400000204EE0002052E0002056E000205AE02F
:1031500000205EE0002062E0002066E00120002107
:1031600005F046F938E200BF0120012105F040F9E1
:1031700032E200BF0120022105F03AF92CE200BF43
:103180000120032105F034F926E200BF01200421CB
:1031900005F02EF920E200BF0120052105F028F9F5
:1031A0001AE200BF0120062105F022F914E200BF57
:1031B0000120072105F01CF90EE200BF01200821C3
:1031C00005F016F908E200BF0120092105F010F909
:1031D00002E200BF01200A2105F00AF9FCE100BF6C
:1031E00001200B2105F004F9F6E100BF01200C21BC
:1031F00005F0FEF8F0E100BF01200D2105F0F8F820
:10320000EAE100BF01200E2105F0F2F8E4E100BF81
:1032100001200F2105F0ECF8DEE100BF01201021B4
:1032200005F0E6F8D8E100BF0120112105F0E0F833
:10323000D2E100BF16F004FBCEE100BF04F02EF98E
:10324000CAE100BF002005F079F9C1E1012005F0D5
:1032500075F9BDE105F094F9BAE100BF012002F073
:1032600033FAB9E1022002F02FFAB5E1032002F0AF
:103270002BFAB1E1002002F027FAADE1052009F0B8
:1032800053FAA9E1002000E001202D2105F0B0F85B
:10329000A2E100BF122005F069F99DE1002005F0D0
:1032A00075F899E1012005F071F895E105F004F950
:1032B0008EE100BF04F084FE8AE100BF04F082FFCB
:1032C00086E100BF05F0D0FA82E100BF002006F0E1
:1032D0006BFD7DE1012006F067FD79E106F0E6FE79
:1032E00076E100BF002006F0B5FD71E1012006F097
:1032F000B1FD6DE106F004FF6AE100BF002009F0B6
:1033000033FA69E1002009F00FFA65E1002009F0C5
:103310001BFA61E1012009F027FA5DE1012009F0C3
:1033200003FA59E1012009F00FFA55E1022009F0F2
:103330001BFA51E1022009F0F7F94DE1022009F0F2
:1033400003FA49E1032009F00FFA45E1032009F0EF
:10335000EBF941E1032009F0F7F93DE100202EE00F
:10336000002032E0002036E000203AE000203EE07D
:10337000002042E0002046E000204AE000204EE02D
:10338000002052E0002056E000205AE000205EE0DD
:10339000002062E0002066E000206AE000206EE08D
:1033A000002072E0002076E000207AE000207EE03D
:1033B000002082E0002086E000208AE00120122127
:1033C00005F016F808E100BF0120132105F010F800
:1033D00002E100BF0120142105F00AF8FCE000BF63
:1033E0000120152105F004F8F6E000BF01201621A8
:1033F00004F0FEFFF0E000BF0120172104F0F8FF09
:10340000EAE000BF0120182104F0F2FFE4E000BF71
:103410000120192104F0ECFFDEE000BF01201A2199
:1034200004F0E6FFD8E000BF01201B2104F0E0FF1C
:10343000D2E000BF01201C2104F0DAFFCCE000BF85
:1034400001201D2104F0D4FFC6E000BF01201E2191
:1034500004F0CEFFC0E000BF01201F2104F0C8FF30
:10346000BAE000BF0120202104F0C2FFB4E000BF99
:103470000120212104F0BCFFAEE000BF0120222189
:1034800004F0B6FFA8E000BF0120232104F0B0FF44
:10349000A2E000BF0120242104F0AAFF9CE000BFAD
:1034A0000120252104F0A4FF96E000BF0120262181
:1034B00004F09EFF90E000BF01202A2104F098FF55
:1034C0008AE000BF01202B2104F092FF84E000BFBE
:1034D00001202C2104F08CFF7EE000BF032005F0CA
:1034E00045F879E0042005F041F875E0052005F085
:1034F0003DF871E0062005F039F86DE0072005F091
:1035000035F869E0082005F031F865E0092005F09C
:103510002DF861E00A2005F029F85DE00B2005F0A8
:1035200025F859E00C2005F021F855E00D2005F0B4
:103530001DF851E00E2005F019F84DE00F2005F0C0
:1035400015F849E0102005F011F845E0112005F0CC
:103550000DF841E0002002F0E3F83DE0012002F028
:10356000DFF839E0022002F0DBF835E0032002F05A
:10357000D7F831E004F0B8FC2AE000BF04F0ACFC5E
:103580002AE000BF04F06EFC26E000BF04F088FCD7
:1035900022E000BF05F0E6F81AE000BF05F0DAF817
:1035A0001AE000BF002004F0E1FF15E0022004F063
:1035B000DDFF11E004F0F2FC0AE000BF04F0E2FCE1
:1035C00006E000BF04F0F8FD02E000BF04F0E6FDF5
:1035D00000EE100AB8EE400A84ED000AFF20BDE8B4
:1035E000104040B2704700002DE9F04F81B00B2829
:1035F00000F28A8088464FF4707101EA8014914687
:1036000004F1200A03F06EFE40F2FF7120EA01058A
:1036100005EB0A0000F2064004F00CF86FF00040E1
:1036200003F0D4FF284604F005F804F1280B03F05A
:1036300059FE06466FF30A0606EB0B0000F2064041
:1036400003F0F8FF6FF0004003F0C0FF304603F0D6
:10365000F1FF04F11007384600F094F904F1180660
:10366000304600F08FF9504600F08CF9584600F0D3
:1036700089F9B9F1000F47D045F24830C0F607008C
:1036800008EB880500EBC504384621460CF0B6FC73
:1036900004F1140130460CF0B1FC45F2E830C0F6FC
:1036A000070000EB8504504621460CF0A7FC584665
:1036B00021460CF0A3FC03F015FE40F2FF7120EA56
:1036C000010404EB0A0040F20645284303F0B2FF70
:1036D00040F6FF7003F07AFF204603F0ABFF03F0E3
:1036E00001FE04466FF30A0404EB0B00284303F0C9
:1036F000A1FF40F6FF7003F069FF204601B0BDE86E
:10370000F04F03F097BF00BF01B0BDE8F08F00009D
:10371000F0B581B00B2823D80C464FF4707101EA44
:1037200080152846174600F02DF905F108063046A9
:1037300000F028F9A7B145F2384104EB8400C0F647
:10374000070101EBC004284621460CF057FC04F1A8
:103750001401304601B0BDE8F0400CF04FBC00BF92
:1037600001B0F0BD0B2888BF7047B0B52DED028BBE
:10377000044644F23070C2F20200342104FB01011D
:1037800000EBC400C96EC06800EE101A01EE100A0A
:1037900031EE008A03F0A6FD40F2FF7120EA010538
:1037A000284664F3891000F2074003F043FF9FEDC1
:1037B000130AB7EE001A28EE000AB4EE410AF1EE41
:1037C00010FAC8BFB0EE410ABFEE001AB4EE410ACB
:1037D0009FED0B2AF1EE10FAB8BFB0EE410A20EED1
:1037E000020ABDEEC00A10EE100A03F0EFFE2846F2
:1037F000BDEC028BBDE8B04003F01CBF65BD293DA8
:103800000000004F2DE9F0470B2842D890460C46A7
:103810004FF0000903294FF0000105D848F67C411C
:10382000C0F6070151F8241040F6B833C0EBC002CF
:10383000C2F2010303EB8202916140F2181200EB25
:103840008001C2F2010240F2F82A02EBC106C2F284
:10385000010A0AEB0017050130462821FDF7FDFAA1
:10386000032C4AF80590C7E90199C7F80C9010D8C5
:10387000B8F1000F08BFBDE8F08745F2005104EB36
:103880008400C0F6070101EBC00090EC0A0B86EC47
:103890000A0BBDE8F087000080B50020FFF762FF4B
:1038A0000120FFF75FFF0220FFF75CFF0320FFF717
:1038B00059FF0420FFF756FF0520FFF753FF0620AE
:1038C000FFF750FF0720FFF74DFF0820FFF74AFFE3
:1038D0000920FFF747FF0A20FFF744FF0B20BDE850
:1038E0008040FFF73FBF0000F0B581B01278012A99
:1038F0000ED0022A0ED0032A14D10A78022A3BD015
:10390000032A11D001224FF040460A700EE000BF9A
:10391000012208E00A78022A06D001220A704FF03C
:10392000004603E000220A704FF080460B2884BF57
:1039300001B0F0BD00F00F0503F0D4FC40F2FF71C0
:1039400020EA010444EA8517B81D03F073FE03F072
:1039500095FC054607F2064003F06CFE25F040405A
:10396000304303F033FE03F089FC204601B0BDE88C
:10397000F04003F05FBE00BF4FF00046D6E7000006
:10398000FEE70000B0B5044603F0ACFC40F2FF7265
:1039900004F47E7120EA0204651805F5806003F0E6
:1039A00049FE002003F012FE05F2014003F042FE42
:1039B000002003F00BFE05F2024003F03BFE002066
:1039C00003F004FE05F2034003F034FE002003F090
:1039D000FDFD05F2044003F02DFE002003F0F6FD8E
:1039E0002046BDE8B04003F025BE0000B0B5002978
:1039F0004FF6FF734FD04A1E4EF2FC2501F0030C28
:103A0000032AC0F6090527D321F0030110F8042B7F
:103A1000043982EA0302D2B235F8122010F8034CBE
:103A200082EA132383EA0403DBB235F8133010F87B
:103A3000024C83EA122282EA0402D2B235F8122042
:103A400010F8014C82EA132383EA0403DBB235F851
:103A5000133083EA1223D9D1BCF1000F1BD00178B7
:103A60009AB25940C9B235F81110BCF1010F81EA80
:103A7000122310D04278DBB25A4035F812E0BCF184
:103A8000020F8EEA112306D08078D9B2484035F86B
:103A9000100080EA1E2398B2B0BD000070B5002966
:103AA0004FF6FF7300F0B780012901F0010C05D13A
:103AB0000021BCF1000F00F0AE8077E021F00101A1
:103AC000C1F1000E6FF0010141F221024418A57806
:103AD000E47883EA05231DB25E00002D48BF82EA28
:103AE000430633B27500002B48BF82EA46052BB26D
:103AF0006E00002B48BF82EA450633B27500002BEA
:103B000048BF82EA46052BB26E00002B48BF82EA0E
:103B1000450633B27500002B48BF82EA46052BB23A
:103B20006E00002B48BF82EA450633B27500002BB9
:103B300048BF82EA460585EA04231CB25D00002CDA
:103B400048BF82EA43052BB26C00002B48BF82EAD3
:103B5000450423B26500002B48BF82EA44052BB21E
:103B60006C00002B48BF82EA450423B26500002B9D
:103B700048BF82EA44052BB26C00002B48BF82EAA2
:103B8000450423B26500002B48BF82EA44052CB2ED
:103B900002316B00002C0EEB010448BF82EA4503A2
:103BA000023493D10231BCF1000F34D0405C83EA7F
:103BB00000210AB24B0041F22100002A48BF80EAEE
:103BC000410319B25A00002948BF80EA430211B2EA
:103BD0005300002948BF80EA420319B25A00002965
:103BE00048BF80EA430211B25300002948BF80EA6F
:103BF000420319B25A00002948BF80EA430211B2B9
:103C00005600002948BF80EA420631B273000029FD
:103C100048BF80EA460398B270BD0000002904BF87
:103C20000020704745F2482C024601440020C0F6AF
:103C3000070C0EE012F8013B58401CF800008A42C5
:103C400028BF704712F8013B58401CF800008A4218
:103C50000ED212F8013BC0B258401CF800008A4254
:103C600006D212F8013B58401CF800008A42E1D30A
:103C700070470000B0B584B003281FD245F2186128
:103C8000C0F6070151F82050684604F047FF43F2A0
:103C900080419DE81D00C2F2000141F8030F4A6017
:103CA0004FF0FF301022CC608B602FF01DF82946BA
:103CB00010222FF019F8C04304B0B0BD4DF6B62065
:103CC0004DF6A221C0F60800C0F60801A622FCF7B6
:103CD00025FF0000000000002DE9F04F81B02DED20
:103CE000108B0229C0F2F6820646501E0B2800F205
:103CF000F18289469846B0EE408ADFE810F00D0068
:103D000017003D008300BD00FF005B01BF013902C9
:103D1000AD02F1026B0300BFA9F10100032809F015
:103D2000030080F0AD830021BAE300BFA9F10100D8
:103D300030F06CFC9FEDCE0B02460B4651EC100BA5
:103D400030F0CEFA30F0E6F99FEDCB8A09EE100A9A
:103D5000351F002400EE104AB8EEC00A20EE090A12
:103D60002FF0CCFF013485ED010A043530EE088ACE
:103D7000A145EFD1A6E200BFA9F1010030F046FC59
:103D80009FEDED0B02460B4651EC100B30F0A8FAFC
:103D900030F0C0F99FEDB60B9FEDB78A09EE100A1F
:103DA000043E0027BFEE00AA5BEC10AB00EE107AD9
:103DB000B8EEC00A20EE090A30EE0A0A10EE100A28
:103DC00030F0B2FF52465B4630F0F6FC04460D463A
:103DD00030F0A0F900EE100A2FF090FF10EE100A5C
:103DE00030F0A2FF22462B4630F07AFA30F092F9FA
:103DF00000EE100A013746F8040FB94538EE008A84
:103E0000D4D15FE2A9F1010030F000FC9FEDCC0BB2
:103E100002460B4651EC100B30F062FA30F07AF9A2
:103E20009FEDC90B9FED948A09EE100A043E00270E
:103E300055EC104B00EE107AB8EEC00A20EE090ADD
:103E40002FF0BEFD10EE100A30F06EFF22462B461A
:103E500030F0B2FC02460B462046294630F076FE92
:103E600030F058F900EE100A013746F8040FB94552
:103E700038EE008ADED125E2A9F1010030F0C6FB60
:103E80009FEDAF0B02460B4651EC100B30F028FAB9
:103E900030F040F99FEDAE0B9FED779A5BEC10ABE5
:103EA0009FEDAD0B08EE100A341F002655EC107B79
:103EB00000EE106AB8EEC00A20EE080A2FF080FD6E
:103EC00010EE100A30F030FF52465B4630F074FCC2
:103ED0003A462B4630F050F930F01CF900EE100A4B
:103EE000013644F8040FB14539EE009AE0D100EEF6
:103EF000109AB8EEC00A80EE090AE9E118EE100A3D
:103F000030F012FF9FED900B55EC104B22462B46E4
:103F100030F052FC02460B462046294630F016FE91
:103F200030F0F8F809EE100AB6EE000AA9F1010027
:103F300028EE008A30F06AFB9FED810B04460D46A7
:103F400051EC100B22462B4630F0CAF930F0E2F863
:103F50009FED830B0AEE100A51EC100B22462B4604
:103F600030F0BEF930F0D6F89FED43BA0CEE100AEF
:103F7000351F0024BEEE00DA00EE104AB8EEC0EAAB
:103F80002EEE0A0A2FF01CFD20EE0D0A39EE00FA83
:103F90002EEE0C0A2FF014FD28EE000A3FEE000A68
:103FA000013485ED010A043530EE0BBAA145E3D1A9
:103FB0003AE100BFA9F1010030F028FB9FED600B52
:103FC00004460D4651EC100B22462B4630F088F982
:103FD00030F0A0F89FED620B09EE100A51EC100BC7
:103FE00022462B4630F07CF930F094F89FED5E0BC2
:103FF0000AEE100A51EC100B22462B4630F070F9F5
:1040000030F088F89FED1CBA9FED8BDA9FED8BEABC
:104010009FED8BFADFED8B8A0CEE100A341F002522
:1040200000EE105AF8EEC09A29EE890A2FF0C8FC6B
:10403000B0EE408A29EE8A0A2FF0C2FC60EE0DAA8B
:1040400029EE8C0A2FF0BCFC20EE0F0A3AEEA81ADB
:1040500031EE000A28EE0E1A30EE010A013584ED29
:10406000010A30EE0BBA0434A945D9D1DCE000BF17
:10407000182D4454FB21094000000000A9F1010063
:1040800030F0C4FA9FED2E0B04460D4651EC100B98
:1040900022462B4630F024F930F03CF89FED300BEF
:1040A00009EE100A51EC100B22462B4630F018F99D
:1040B00030F030F89FED2C0B0AEE100A51EC100B8B
:1040C00022462B4630F00CF930F024F81FED16BADA
:1040D0009FED5DDA9FED5DEA9FED5DFADFED5D8AB4
:1040E0000CEE100A341F002500EE105AF8EEC09AAC
:1040F00029EE890A2FF064FCB0EE408A29EE8A0A84
:104100002FF05EFC60EE0DAA29EE8C0A2FF058FC11
:1041100020EE0F0A3AEEA81A31EE000A28EE0E1A27
:1041200030EE010A013584ED010A30EE0BBA043499
:10413000A945D9D178E000BF000000000000004090
:10414000182D4454FB211940000000000000E03FFE
:10415000CFA0A17F828BDDBF982F2FC03E3AE13FD9
:10416000182D4454FB212940D221337F7CD9324081
:10417000A9F1010030F04AFA9FEDD50B04460D4637
:1041800051EC100B22462B4630F0AAF82FF0C2FF5C
:104190009FEDD10B09EE100A51EC100B22462B4675
:1041A00030F09EF82FF0B6FF9FEDCD0B0AEE100A0F
:1041B00051EC100B22462B4630F092F82FF0AAFF5C
:1041C0009FEDD5BA9FEDD9DA9FEDD9EA9FEDD9FAE7
:1041D000DFEDD98A0CEE100A341F002500EE105ACC
:1041E000F8EEC09A29EE890A2FF0EAFBB0EE408A79
:1041F00029EE8A0A2FF0E4FB60EE0DAA29EE8C0A64
:104200002FF0DEFB20EE0F0A3AEEA81A31EE000A7C
:1042100028EE0E1A30EE010A013584ED010A30EE67
:104220000BBA0434A945D9D100EE109AB8EEC00AF1
:1042300080EE0B0A4CE000BFB4AB103E2601FABE84
:10424000795D3FBC14AEB73E8EB1133EF88BF9BE1C
:1042500002814EBC3927B63E484630F0D7F99FED73
:10426000A40B53EC102B30F0A7FA9FEDA30B53ECEB
:10427000102B2FF081FF2FF04DFF09EE100A29EED1
:10428000080AB7EE001A81EE00AA9FEDA38A351F37
:104290000024BEEE00BA00BF00EE104AB8EEC00A1D
:1042A00030EE490A20EE0A0A20EE000A20EE0B0A40
:1042B0002FF02EFC013485ED010A043530EE088A1A
:1042C000A145E9D100EE109AB8EEC00A80EE080AC6
:1042D00088ED000ABDEC108B01B0BDE8F08F00BF87
:1042E000A9F1010030F092F99FED790B07460C46D9
:1042F00051EC100B3A4623462FF0F2FF2FF00AFF45
:104300009FED750B09EE100A51EC100B3A4623464F
:104310002FF0E6FF2FF0FEFE9FED710B0AEE100A64
:1043200051EC100B3A4623462FF0DAFF2FF0F2FE45
:104330009FED6D0B0BEE100A51EC100B3A46234625
:104340002FF0CEFF2FF0E6FE9FED73CA9FED73EACC
:104350009FED73FADFED738ADFED739A0DEE100AAD
:10436000351F0024F7EE00AA00EE104AF8EEC0BA9E
:104370002BEE890A2FF024FBB0EE408A2BEE8A0A3E
:104380002FF01EFB60EE0ECA2BEE8B0A2FF018FBEF
:1043900060EE28DA2BEE8D0A28EE0F8A2FF010FB44
:1043A0003CEEAA1A31EE2D1A20EE290A31EE081A37
:1043B00031EE000A013485ED010A043530EE0CCAF5
:1043C000A145D1D100EE109AB8EEC00A80EE0C0AD9
:1043D0007EE700BF484630F019F99FED4D0B53ECD6
:1043E000102B2FF0C9FE9FED460B02460B4651ECF9
:1043F000100B2FF075FF2FF08DFE09EE100A18EE4E
:10440000100A30F091FC9FED400B53EC102B30F074
:10441000D3F92FF07FFE08EE100AB0EE480A0FF035
:10442000D7FFB7EE00BA8BEE00CA9FED3BAA351F4F
:104430000024BFEE00DA00BF00EE104AB8EEC00A5A
:1044400020EE090A30EE0D0A20EE000A3BEE400A8B
:10445000B1EEC00A20EE080A0FF0BAFF20EE0C0AF7
:10446000013485ED010A043530EE0AAAA145E3D1F5
:1044700000EE109AB8EEC00A80EE0A0A28E700BFE4
:1044800029F00302A6F1100300214FF07E5700BF70
:10449000043143F8107F8A42C3E90177DF60F7D126
:1044A0000028B7EE000A3FF413AF4FF07E52012808
:1044B00046F821203FF40CAF06EB810102284A6048
:1044C0001CBF4FF07E50886002E700BF00BF00BFF6
:1044D000182D4454FB211940182D4454FB21294028
:1044E000D221337F7CD93240182D4454FB213940EE
:1044F000000000000000E03F000000000000E0BFFE
:104500000000000000000040182D4454FB21094029
:10451000000000000000F0BF00000000B81EA53F32
:104520003D0AF7BFF0A7C6BE4260E53CBDE00B3ECA
:104530007975FABE02582EBC6827BA3E91B12DE9B2
:10454000F0434A1E032A01F0030C0FD2002100227F
:104550000024BCF1000F4DD181F0FF00BDE8F04315
:10456000C0B27047FF20C0B2704700BF21F0030106
:10457000C1F1000E00F1010800246FF003034FF0B9
:10458000010900BF08EB0305EE782F793444E6B249
:1045900059FA84F16A79AD79FF2E08BF0121FF2C09
:1045A00098BF21463944CCB259FA81F6FF2C08BF96
:1045B0000126FF2998BF0E46B118CAB259FA81F4F4
:1045C000FF2A08BF0124FF2998BF0C466119CAB20F
:1045D00059FA81F4FF2A08BF01240433FF2998BF48
:1045E0000C460EEB03010431CCD1E1B21A1DBCF133
:1045F000000FB1D0815C6718FEB2012151FA87F338
:10460000FF2E08BF0123FF2F98BF3B46BCF1010FCF
:1046100006D1D9B281F0FF00BDE8F043C0B27047C7
:10462000104442781A44D3B251FA82F1FF2B08BFEA
:104630000121FF2A98BF1146BCF1020F06D1C9B271
:1046400081F0FF00BDE8F043C0B2704780780844B5
:10465000B0F5807FC1B2FFF47FAF0122FF2952FA8B
:1046600080F108BF012181F0FF00BDE8F043C0B236
:1046700070470000002944F2307120EE800AC2F237
:1046800002010ED0342300FB031301EBC002D268F9
:10469000DB6E01EE102A02EE103A31EE021A30EE15
:1046A000410A342301EBC00200FB03109268806EC4
:1046B00001EE102A21EE000A01EE100A20EE010A96
:1046C000704700002DE9F04F81B02DED048B43F2CF
:1046D0002819C2F2000999F80000002800F0208390
:1046E000D9E9040101F096FE44F230780028C2F2C4
:1046F000020800F03E8343F6801643F620159FED36
:10470000BB9A0027C2F20006C2F200054FF47A7A83
:10471000002416E0DBF8850000EE100ABCEEC00AAB
:1047200010EE100A00FB0AF00BF0E2FEC5E90001F2
:10473000343701340836B7F51C7F05F1080500F061
:10474000128308EB070B9BF87800B0EE498A052826
:1047500004D8214603F02AFBB0EE408A0B2C57D830
:10476000DFE804F0060E161E222A323A4048509E18
:1047700099F80A0000F00100002840F0978047E017
:1047800099F80A00C0F34000002840F08F803FE015
:1047900099F80A00C0F38000002840F0878037E0D5
:1047A00099F80A007EE000BF99F80A00C0F30010F3
:1047B000002840F07B802BE099F80A00C0F34010FD
:1047C000002840F0738023E099F80A00C0F38010BD
:1047D00000286BD11CE000BF99F80A00C00900282E
:1047E00064D115E099F80B0000F0010000285DD1BC
:1047F0000EE000BF99F80B00C0F34000002855D12F
:1048000006E000BF99F80B00C0F3800000284DD1EE
:10481000DBF8700000EE100AB4EE408AF1EE10FAF8
:1048200038DDD6E9000101F0F5FD002800F08980AF
:10483000DBF87D0000EE100ABCEEC00A10EE100A94
:1048400000FB0AF00BF054FEC6E9000199F80900DC
:1048500099F80B1000F00F0001F00F020B2C89F8F3
:10486000090089F80B2000F28581DFE814F00D00C3
:10487000CD00D900E500EF00FB00070113011D0189
:1048800025012D01350100BF99F80A0040F0010013
:1048900044E000BF342004FB0080793044E000BFD6
:1048A00099F80B00C0F3C0000028B1D0DBF870000D
:1048B00000EE100AB4EE408AF1EE10FA32DAD6E9D0
:1048C000000101F0A7FD00283BD0DBF8790000EEE5
:1048D000100ABCEEC00A10EE100A00FB0AF00BF042
:1048E00007FEC6E9000199F8090099F80B1000F0DD
:1048F0000F0001F00F020B2C89F8090089F80B203A
:1049000000F23881DFE804F006444A50565C6268E1
:104910006E74787C99F80A0020F0010089F80A008A
:104920001AE000BF0BF17D00006800EE100ABCEE3B
:10493000C00A10EE100A00FB0AF00BF0D9FDC6E920
:1049400000010B2C00F21681DFE804F00664707C95
:1049500086929EAA0C12181E99F8080000F0010019
:10496000C2E000BF99F8090000F00100BCE000BF00
:1049700099F80900C0F34000B6E000BF99F80900BB
:10498000C0F38000B0E000BF99F80900A9E000BFC3
:1049900099F80A0020F002003AE000BF99F80A00F6
:1049A00020F0040040E000BF99F80A0020F0080061
:1049B00046E000BF99F80A0020F010004AE000BF6E
:1049C00099F80A0020F0200050E000BF99F80A0092
:1049D00020F0400056E000BF99F80A0000F07F0088
:1049E0005CE000BF01F00E0161E000BF00000000CC
:1049F00001F00D0163E000BF01F00B0167E000BFB3
:104A000001F007016BE000BF99F80A0040F00200D6
:104A100089F80A0099F80800C0F3400064E000BF7C
:104A200099F80A0040F0040089F80A0099F8080093
:104A3000C0F3800058E000BF99F80A0040F0080079
:104A400089F80A0099F808004BE000BF99F80A00BD
:104A500040F0100089F80A0099F80800C0F300102F
:104A600042E000BF99F80A0040F0200089F80A00EF
:104A700099F80800C0F3401036E000BF99F80A002A
:104A800040F0400089F80A0099F80800C0F380104F
:104A90002AE000BF99F80A0060F07F0089F80A0058
:104AA00099F80800C0091FE001F00E01013189F8F2
:104AB0000B1000F0010017E001F00D01023189F840
:104AC0000B10C0F340000FE001F00B01043189F836
:104AD0000B10C0F3800007E0012262F3DF0189F8C8
:104AE0000B10C0F3C00000BF002843D0DBF87400F7
:104AF00000EE100AB4EE408AF1EE10FABFF60AAEEC
:104B0000D5E9000101F086FC00283FF411AEDBF886
:104B1000810000EE100ABCEEC00A10EE100A00FB85
:104B20000AF00BF0E5FCC5E9000199F8090099F8D5
:104B30000B1000F00F0201F00F010B2C89F8092077
:104B400089F80B1000F20F81DFE814F00C0056001A
:104B50005E0066006E0076007E0086008E00940087
:104B60009A00040199F8080000F0FE0089F8080096
:104B7000DEE500BFDBF8740000EE100AB4EE408AF8
:104B8000F1EE10FA34DDD5E9000101F043FC002814
:104B90003FF4CEADDBF8850000EE100ABCEEC00A93
:104BA00010EE100A00FB0AF00BF0A2FCC5E90001B0
:104BB00099F8090099F80B1000F00F0201F00F01AD
:104BC0000B2C89F8092089F80B103FF6B1ADDFE80E
:104BD00004F0075D656D757D858D959BA1C500BF52
:104BE00099F8080040F0010089F80800A0E500BF2E
:104BF000DBF8810090E500BF99F8080000F0FD00A7
:104C000089F8080094E500BF99F8080000F0FB005F
:104C100089F808008CE500BF99F8080000F0F7005B
:104C200089F8080084E500BF99F8080000F0EF005B
:104C300089F808007CE500BF99F8080000F0DF0063
:104C400089F8080074E500BF99F8080000F0BF007B
:104C500089F808006CE500BF99F8080000F07F00B3
:104C600089F8080064E500BF00F00E0089F809002B
:104C70005EE500BF00F00D0089F8090058E500BFAF
:104C800000F00B0089F8090052E500BF99F8080010
:104C900040F0020089F808004AE500BF99F80800D2
:104CA00040F0040089F8080042E500BF99F80800C8
:104CB00040F0080089F808003AE500BF99F80800BC
:104CC00040F0100089F8080032E500BF99F80800AC
:104CD00040F0200089F808002AE500BF99F8080094
:104CE00040F0400089F8080022E500BF99F808006C
:104CF00040F0800089F808001AE500BF00F00E00BF
:104D0000013089F8090013E500F00D00023089F840
:104D100009000DE500F00B00043089F8090007E5F3
:104D200040F2DE300BF0E4FBC9E9040140F2B73099
:104D30000BF0DEFBC9E9060142F210700BF0D8FB64
:104D4000C9E90801012089F80000BDEC048B01B01D
:104D5000BDE8F08F00F0070003E000BF012161F320
:104D6000DF0089F8090040F2DE300BF0C1FBC9E931
:104D70000401D9E9060101F04DFB002800F0C680CE
:104D800098F8F8020238032810D8DFE800F003157D
:104D9000253300BF99F80C00002100F0F90089F8D4
:104DA0000C00002003F066FB88B949E099F80C007C
:104DB00020F0070042E000BF99F80C00002100F04D
:104DC000F90089F80C00002003F054FBC0BB99F8EF
:104DD0000C0040F0010031E00020002103F09CFABB
:104DE00099F80C10002818BF41F0020121F00500CD
:104DF00024E000BF99F80C002E2100F0FD0089F896
:104E00000C00002003F0F4FAD8F8F412D8F8F002FD
:104E100099F80C2001EE101A02EE100AB4EE410AC5
:104E200042F00401F1EE10FAC8BF0A46B4EE420A9D
:104E3000F1EE10FAB8BF0A4622F0010089F80C0022
:104E400098F801030238032810D8DFE800F00315B2
:104E5000253300BF99F80D00012100F0F90089F811
:104E60000D00002003F006FB88B949E099F80D0019
:104E700020F0070042E000BF99F80D00012100F08A
:104E8000F90089F80D00002003F0F4FAC0BB99F88E
:104E90000D0040F0010031E00020012103F03CFA58
:104EA00099F80D10002818BF41F0020121F005000B
:104EB00024E000BF99F80D002F2100F0FD0089F8D3
:104EC0000D00002003F094FAD8F8FD12D8F8F9028A
:104ED00099F80D2001EE101A02EE100AB4EE410A04
:104EE00042F00401F1EE10FAC8BF0A46B4EE420ADD
:104EF000F1EE10FAB8BF0A4622F0010089F80D0061
:104F000040F2B7300BF0F4FAC9E90601D9E908011B
:104F100001F080FA00283FF418AF03F003FD99F880
:104F20000410002818BF012001F0FD01084389F892
:104F30000400042003F01AFBB3EE0A8AB4EE480A18
:104F4000F1EE10FA20DCB3EE049AB4EE490AF1EE69
:104F500010FA19DB032003F009FBB4EE480AF1EE66
:104F600010FA11DCB4EE490AF1EE10FA0CDB052060
:104F700003F0FCFAB4EE480AF1EE10FA04DCB4EEE9
:104F8000490AF1EE10FA05DA99F8040040F004003D
:104F900089F8040043F23044C2F2000494F834006B
:104FA000800708D500F0F2FA28B999F8040040F01B
:104FB000080089F8040098F80603012808D10AF0CF
:104FC000DFFF28B999F8040040F0100089F80400C8
:104FD000002000F0A5FB9FED3B8AB4EE480AF1EEFD
:104FE00010FA2BDCB5EE400AF1EE10FA26DB0120B8
:104FF00000F096FBB4EE480AF1EE10FA1EDCB5EEB6
:10500000400AF1EE10FA19DB022000F089FBB4EE41
:10501000480AF1EE10FA11DCB5EE400AF1EE10FA92
:105020000CDB032000F07CFBB4EE480AF1EE10FA32
:1050300004DCB5EE400AF1EE10FA05DA99F8040046
:1050400040F0200089F80400D9F80C0000F0F801C5
:1050500089F80C10F82101EA102189F80D1028B107
:1050600099F8040040F0400089F80400D9F80800DD
:1050700028B199F8040040F0800089F8040094F801
:105080003400C00708D001F031FA28B9484630F89A
:10509000051F41F00201018039F8050F002100F0E1
:1050A0000700A9F800004FF4027089F802100BF015
:1050B0001FFAC9F81B00C9F81F10BDEC048B01B022
:1050C000BDE8F08F0000B4422DE9F04784B00D46F2
:1050D000497814468A1F0646F92A4FF0040000F268
:1050E0000781DFE812F031013901050105010501F1
:1050F0000501050105010501050105010501050180
:10510000050105010501050105010501050105016F
:10511000050105010501050105010501050105015F
:10512000050105010501050105010501050105014F
:10513000050105010501050105010501050105013F
:10514000050105010501050105010501050105012F
:10515000050105010501050105010501050105011F
:1051600019011901190119010501050105010501BF
:1051700005010501050105010501FB00FB00FB0020
:10518000FB00FB00FB00FB0005010501050105011B
:1051900005010501050105010501050105010501DF
:1051A00005010501050105010501050105010501CF
:1051B00005010501050105010501050105010501BF
:1051C00005010501050105010501050105010501AF
:1051D000050105010501050105010501050105019F
:1051E000050105010501050105010501050105018F
:1051F000050105010501050105010501050105017F
:10520000050105010501050105010501050105016E
:10521000050105010501050105010501050105015E
:10522000050105010501050105010501050105014E
:10523000050105010501050105010501050105013E
:10524000050105010501050105010501050105012E
:10525000050105010501050105010501050105011E
:10526000050105010501050105010501050105010E
:1052700005010501050105010501050105010501FE
:1052800005010501050105010501050105010501EE
:105290000501050105010501050151010901110182
:1052A0002101090111012101090111012101090156
:1052B000110109011101FF010501050105010501A8
:1052C000050105010501050105010501050169014A
:1052D0007F01A90105010501D90100BF2068AA1CB1
:1052E00002382060304623460BF026FCFF2823D0EE
:1052F00004B0BDE8F08700BFAA1C3046234604B0C6
:10530000BDE8F04702F0D2BAAA1C3046234604B0EA
:10531000BDE8F04704F0CABAAA1C3046234604B0E0
:10532000BDE8F04702F0F2B9AA1C3046234604B0AB
:10533000BDE8F0470BF03ABD206802302060FF2046
:1053400004B0BDE8F08700BF21680220122908BF21
:105350000B2004B0BDE8F0872068022840F01281DD
:10536000684603F0DBFB039A9DE80B00C5F80E20AE
:10537000C5F80A30C5F80610C5F8020012202060F2
:10538000FF2004B0BDE8F0872068022840F0FA80D2
:10539000A81C022105F056FDA81D262105F052FD8E
:1053A00005F10A00E42105F04DFD0E202060FF20EC
:1053B00004B0BDE8F08700BF2068062840F0E28016
:1053C000A81C05F02FFD41F23421C5F2AA518842F4
:1053D0005ED102202060304604F056FFFF2004B06A
:1053E000BDE8F08720680A2840F0CC80A81C05F0B2
:1053F00019FD45F27861C1F23421884248D1A81DD7
:1054000005F010FD01460020B0EB114F40D101F036
:10541000FE0005284FF005003FF66AAFFF2282EA42
:105420001122C9B28A427FF463AF30460BF046F9CD
:10543000FF2004B0BDE8F08720680A2840F0A28071
:10544000A81C05F0EFFC45F27861C1F2342101F1AE
:10545000113188421CD1A81D05F0E4FC0021B1EBFC
:10546000104F15D1FF2181EA1022C1B28A420FD11B
:1054700000294FF005003FF43BAFFF293FF438AF60
:1054800030460AF087FEFF2004B0BDE8F08700BF79
:10549000052004B0BDE8F0872068022872D140F2F0
:1054A0000A30C0F20010C5F8020040F6EC00C2F26B
:1054B0000000066806353046FBF7BAFB0746421C7B
:1054C00028463146FBF728FC062010FA87F02060BA
:1054D00041F29C70C2F2010001210170FF2004B072
:1054E000BDE8F08720680A284CD105F1020942F690
:1054F00006284846C0F2010805F08CFC05F1060AB2
:105500000746504605F086FC0146A8F10100874297
:105510004FF005003FF6ECAE0129FFF6E9AE41F28F
:105520008506B14238BF0E46F01940454846394617
:1055300088BFA8EB070605F07DFC5046314605F014
:1055400079FC05F10A00414605F074FC4AF66B70DF
:105550000E35C0F60700C11928463246FBF7DCFBC2
:1055600006F10C0081B24846FEF798FA0146A819E8
:1055700005F060FC06F112002060FF2004B0BDE8D9
:10558000F08700BF022004B0BDE8F08780B544F684
:105590004420C2F2020011F03FF9002818BF012098
:1055A00080BD000000F002B800F038B810B546F237
:1055B0000044C4F202040AF021FF20460121202207
:1055C00011F0E0F9012818D120460121202211F024
:1055D000BDF92046012111F03BFB40F2B83140F209
:1055E000B872C2F20101C2F20102002808BF1146DE
:1055F00008464FF4807100F069FA2046012101222B
:1056000011F0C0F9012804D120460121012211F036
:105610009DF9BDE8104007F06BB8000010B546F2E8
:105620000044C4F2020420460421202211F0AAF909
:10563000012816D120460421202211F087F92046A6
:10564000042111F005FB43F25C7143F63C02C2F207
:105650000001C2F20002002808BF1146084600F00F
:10566000D3FB20460421012211F08CF9012818BF38
:1056700010BD204604210122BDE8104011F066B99A
:1056800010B501F07DFD044640F0400000F0DF0061
:1056900001F01CFF04F09F0001F018FF01F070FD05
:1056A00040F0200000F0BF00BDE8104001F00EBF48
:1056B000032884BF0020704744F23071C2F2020117
:1056C000084490F80203704744F23071C2F20201BC
:1056D00091F80223824201D1002013E091F80323C4
:1056E000824201D101200DE091F80423824201D1D0
:1056F000022007E091F8051381421CBF9FED070AC5
:105700007047032040F6405100EB8000C2F20101D7
:1057100001EBC00090ED020A704700BFEC9188C316
:1057200040F6405100EB8000C2F2010101EBC000E5
:10573000017C012906D014290CBF9FED050A90EDCC
:10574000020A70479FED010A704700BF000080FF0A
:105750000000807FF0B581B040F6E056C2F201064D
:10576000307840F6405100EB8000C2F2010101EBBD
:10577000C004274617F8100F0238122800F20F81D4
:10578000DFE810F0F80022001400140034003800A4
:105790004C005800640070007E0092009600A0004B
:1057A000AE00C200CC00D600F20000BF0DF1030035
:1057B00004F08CFE002800F0F7809DF80300102113
:1057C000002808BF1421E0E00DF1030004F07EFE84
:1057D000002800F0E9809DF803000721002808BF99
:1057E0000221397040F0E080D9E000BF05F0DEF81A
:1057F0000421CAE0552004F8190F54F8080C54F895
:10580000041CC4F80100C4F805102046092105F065
:105810000DF80221002818BF1221B6E0442004F838
:10582000190F2046012105F001F80221002818BFB8
:105830000921AAE004F11900002104F035FD002837
:1058400000F0B28040F28A209AE000BFD4E9000163
:1058500000F0E0FD002800F0A78005F09BF80B2188
:1058600093E000BF0DF1020004F00CFE002800F0F0
:105870009B809DF80200002800F08080062184E0D3
:10588000BE21204600F8191F4FF0FF31C4F81A104E
:10589000C4F81E1084F822100A2104F0C7FF022168
:1058A000002818BF0E2170E005F074F80F216CE09D
:1058B00004F119000A2104F0F7FC002874D0132128
:1058C00063E000BF0DF1020004F0DCFD00286BD0A6
:1058D0009DF8020000285BD005F068F8052154E02F
:1058E000552004F8190F54F8080C54F8041CC4F897
:1058F0000100C4F805102046092104F097FF022199
:10590000002818BF112140E004F11900002104F023
:10591000CBFC002848D00C2137E000BF04F119006F
:10592000002104F0C1FC00283ED008212DE000BF7A
:1059300004F11A052846082105F070F994F82210A0
:1059400088422AD1E07E29789FED1B1A41EA002087
:1059500000B200EE100AB8EEC00A20EE010A0220E2
:1059600084ED020A1AE000BFE0684FF0FF41013009
:10597000C4E9021005F01AF8032106E04FF4AF70F5
:105980000AF0B6FDC4E900010A21307839700CE054
:10599000D4E9000100F03EFD30B1142038703078B9
:1059A0000130307001E000BF3078C0B2042824BF5D
:1059B0000020307001B0F0BD0000803D032888BF9A
:1059C000704744F23072C2F20202104480F80213AF
:1059D00070470000B0B505F091F940F64055C2F2AD
:1059E000010500202C46002244F8110F0121CFF6BA
:1059F000807204F8011C606044F8092C84F82710B8
:105A0000E062A062C4F81F2084F84F106065206532
:105A1000C4F8472084F87710E067A067C4F86F20C7
:105A200004F078FD204604F07FFD00284DD005F1FC
:105A30001100072105F0F2F8297E884204D1687C24
:105A4000282804BF0220287405F13904204604F0F8
:105A50006BFDD0B32046072105F0E0F895F8401023
:105A6000884206D195F83900282804BF022085F81D
:105A7000380005F16104204604F056FD28B32046A5
:105A8000072105F0CBF895F86810884206D195F803
:105A90006100282804BF022085F8600005F1890410
:105AA000204604F041FD002808BFB0BD2046072174
:105AB00005F0B4F895F89010884206D195F8890061
:105AC000282804BF022085F88800B0BD2DE9F04FDA
:105AD0008DB001290A4601910290C0F2918143F2F2
