:020000040804EE
:10000000A00D0420D5030408B1A20408618B0408E4
:10001000D19D04089D3904087516050800000000EC
:1000200000000000000000000000000009000508BA
:10003000996004080000000079AE04084108050832
:10004000F3030408F3030408F3030408F3030408A8
:10005000F3030408F3030408F3030408F303040898
:10006000F3030408F3030408F3030408F303040888
:10007000F3030408F3030408F3030408F303040878
:10008000F3030408F3030408F3030408F303040868
:10009000F3030408F3030408F3030408F303040858
:1000A000F3030408F3030408F3030408F303040848
:1000B000F3030408F3030408F3030408F303040838
:1000C000F3030408F3030408F3030408F303040828
:1000D000F3030408F30304080D12050819120508B8
:1000E000F3030408F3030408F3030408F303040808
:1000F000F3030408F3030408F3030408F3030408F8
:10010000F3030408F3030408F3030408F3030408E7
:10011000F3030408A1110508F3030408F30304081A
:10012000F3030408BD550408F3030408F3030408AB
:10013000C1550408F3030408F3030408F303040897
:10014000F3030408F3030408F3030408F3030408A7
:10015000F3030408F3030408F3030408F303040897
:10016000F3030408F3030408F3030408F303040887
:10017000F3030408F3030408F30304080000000079
:10018000F3030408F3030408F3030408F303040867
:10019000F3030408F3030408F30304080000000059
:1001A000F3030408F3030408F303040800F002F85F
:1001B00000F09CF80AA090E8000C82448344AAF165
:1001C0000107DA4501D100F091F8AFF2090EBAE863
:1001D0000F0013F0010F18BFFB1A43F0010318477B
:1001E0005CE50500BCE50500103A24BF78C878C17D
:1001F000FAD8520724BF30C830C144BF04680C602D
:10020000704700000023002400250026103A28BF74
:1002100078C1FBD8520728BF30C148BF0B60704778
:100220006E2900F0C987702900F03D83662934F0FB
:10023000B886652934F0B586672934F0B28661291D
:1002400034F0B18603681B0A28BF41F08001692998
:1002500000F0AE82642900F0AB82752900F0A8821C
:100260006F2901F0D782782900F00983E92901F08C
:100270007182E42901F06E82F52901F06B82EF2989
:1002800001F0D482F82900F008830368DB0928BF55
:1002900041F08001632901F0E081732901F0E581DB
:1002A000E32901F09987F32901F09E870020704728
:1002B0001FB534F064FE9DE8030000F0E3FE00F09B
:1002C00024FC00F0BFFE04000020002133F056FFA4
:1002D000401C60600020002133F066FFE06001F008
:1002E000A1FC1FBD10B501F006FD10BD02F01FF905
:1002F0001146FFF7DDFF23F0FDFB02F04EF903B4DA
:10030000FFF7F0FF03BC01F035FD00000B49D1F809
:1003100000C04A685CF8043B1068184442F8040BBB
:100320008C4528BFA1F1DC0C8A4228BFA1F1DC0278
:10033000C1F800C04A6020F000407047D82F00206C
:10034000F0B400EB4003DFF8880000EBC30000F1DD
:1003500018063069F7687568874232D3B368DC1BCA
:10036000631E934214D37D19D01900BF11F8013BCD
:1003700005F8013B521E05D011F8013B05F8013B81
:10038000521EF3D1BFF35F8FF0600120F0BC7047C5
:10039000C018904219D37819121B11F8013B00F8CC
:1003A000013B641EF9D1141C05D011F8013B05F87E
:1003B000013B521EF9D1BFF35F8FF4600120F0BC06
:1003C0007047C01B401E9042CDD20020F0BC704749
:1003D000A45C01200A4880470A4880470A48004731
:1003E000FEE7FEE7FEE7FEE7FEE7FEE7FEE7FEE7E5
:1003F000FEE7FEE705480649064A074B704700003E
:10040000450805088DAE0408AD010408A08C032042
:10041000A00D0420A08D0320A08D032010B500F0B6
:1004200011FE001D10BD00BF553D030070B506460E
:1004300000F004FE056806F10B0020F00704B4424A
:100440009CBF002070BD2B466A68BAB11068A042FC
:1004500010D304F1080188423CBF5068586007D3AC
:100460005168101941601168091B016058601460DF
:10047000101D70BD13465268002AE7D12146284658
:1004800000F0ECFD0028DED170BD70B50446051FFC
:1004900000F0D4FD0068002C14BF446870BD002C2F
:1004A00018BFAC423CBF20466468F8D301680A1804
:1004B000AA4218BF456003D12A680546114401606D
:1004C00028684119A1421CBF6C6070BD61686960F9
:1004D00021680844286070BD53EA020C00F069806E
:1004E0002DE9F04B4FF00006002B1FBFB3FA83F548
:1004F00003FA05F424FA05F65E4012BF1643B2FA79
:1005000082F502FA05F4C5F120051EBF22FA05FCAA
:1005100044EA0C04203556EA044C4FEA144418BF50
:10052000641C4FF000084FF00009904271EB030C7F
:1005300039D3002919BFB1FA81F701FA07F6B0FAE9
:1005400080F700FA07F6C7F120071EBF20FA07FC64
:1005500046EA0C062037B6FBF4FCA7EB0507103F74
:1005600007F01F0BCBF120062CFA06F60CFA0BFB5A
:1005700044BFB3460026202FA4BF5E464FF0000BB9
:100580005BEA060C08BF4FF0010B19EB0B0948EBB7
:100590000608ABFB027C06FB02CC0BFB03CCC01BAA
:1005A00071EB0C01C1E70B46024641464846BDE8E7
:1005B000F08B13B5084318BF4FF0FF300146AFF37F
:1005C0000080BDE81C40704753EA020C23D010B5F0
:1005D0004C1084EA530404D54042C1F1000138BFF5
:1005E000491E1B4204D55242C3F1000338BF5B1EB3
:1005F000FFF772FF14F0804F04D04042C1F10001B8
:1006000038BF491E14F0004F04D05242C3F100031A
:1006100038BF5B1E10BD13B540424FF0000070EBB9
:100620000104B8BF012001F0004100281CBF6FF099
:1006300000414FF0FF30AFF300801CBD10B5044601
:10064000FFF7ECFE0068005D000704D5DF2C02D048
:10065000A4F1200010BD204610BD00000A4601494B
:1006600001F008B8542E00200FB4044910B503AAB5
:10067000029800F0FFFF10BC5DF814FB542E002020
:100680000FB41CB5084B06AA7B4469460090059838
:1006900000F0B9FF04460020694600F0C7FF20467D
:1006A0001CBC5DF814FB0000A10F00000FB41CB5CA
:1006B0000C0007AA009007D04142A14202D3204477
:1006C000401E01E04FF0FF30074B7B44694601902C
:1006D000069800F098FF0021002C01D0009A1170BC
:1006E0001CBC5DF814FB0000690F000070B50446E7
:1006F00085690068C10601D5302600E02026C007C4
:1007000007D070BDD4E9012130469047206A401CD3
:1007100020626D1EF6D570BD70B5044685690078FF
:10072000C00707D170BDD4E9012120209047206A7D
:10073000401C20626D1EF6D570BD09684A0501D5C2
:1007400040B27047C905FCD500B2704709684A0538
:1007500001D5C0B27047C905FCD580B2704770B5ED
:100760000C460546012A05D02878800600D5EA699E
:10077000002302E0012305E05B1C934202D2E05C0F
:100780000028F9D1A869E618C01AA861286A184497
:1007900028622846FFF7AAFF04E0D5E9012114F8F2
:1007A000010B9047B442F8D32846FFF7B5FF70BD60
:1007B0002DE9F0410646002410687529314616A53A
:1007C00010D0FFF7BAFF002802DA404213A507E075
:1007D00031688A0701D512A502E0490704D511A5A1
:1007E000012401E0FFF7B2FF00210A2206F12407ED
:1007F00009E0B0FBF2FCB0FBF2F302FB1C0030306E
:1008000078541846491C0028F3D123462A4630461E
:10081000BDE8F04100F077BC000000002D000000B2
:100820002B00000020000000F0B40D4601880905EF
:1008300002D5214C7C4402E01F4C7C440E34002144
:1008400000F1240608E002F00F071209E75D42EA12
:1008500003721B097754491C52EA0307F3D102784B
:100860000023120704D5702D06D009B102231134DC
:100870002246F0BC00F047BC01231034F8E770B505
:1008800004460D4621461068FFF760FF02462946E0
:100890002046BDE870400023C6E7D21D22F00703C2
:1008A000D3E90023C0E70368126843F02003036024
:1008B0000823C3610023B7E77E4703002DE9F05FFB
:1008C000894604464FF0000ADFF874B1FB44C0F8D3
:1008D00020A02046E1688847002874D0252806D04B
:1008E000D4E901219047206A401C2062F1E70026EC
:1008F0005F462046E16888472028054607DB312D02
:1009000005D2781910F8200C08B10643F1E7B007BA
:1009100001D526F00406C4F81CA00027C4F818A0CE
:100920002A2D09D0284633F013FC38B304EB87088E
:10093000303DC8F8185019E059F8041B204604EB64
:1009400087029161E1688847012F054618D1E06967
:10095000002820DA26F020061DE0D8F8180000EB69
:10096000800005EB40003038C8F818002046E168E8
:100970008847054633F0ECFB0028EED1012F0AD062
:100980002E2D08D12046E16888477F1C0546022F9E
:1009900046F02006C4DBA069002803DA404246F096
:1009A0000106A061F00701D026F010066C2D0BD0D7
:1009B000682D09D04C2D39D06A2D35D0742D35D005
:1009C0007A2D33D016E038E0E1682F46204688477C
:1009D000B842054609D16C2F26D04FF48060E168FB
:1009E000064320468847054604E06C2F1AD04FF492
:1009F000807006430DB3A5F14100192802D82035B7
:100A000046F400664A462946204626604E46FFF7D1
:100A100007FC80B101280BD0F61D26F0070000F17D
:100A2000080956E74020E4E78020D8E70020D6E711
:100A300006F104094DE7284652E7206ABDE8F09F19
:100A40000E47030070B50446C068810713D08006C6
:100A500001D5A56A04E0A169606808442169451AC6
:100A6000204601F09BF8002206462946204600F069
:100A7000D9FF304670BD002070BD70B510B1BDE823
:100A80007040DFE70025074C6E1E07E02046FFF7A9
:100A9000D9FF00B13546206D20F00104002CF5D1BE
:100AA000284670BD002E0020014933F058BB0000DD
:100AB000542E002010B5044603E033F050FB401CD8
:100AC00009D014F8010B05490028F6D1BDE8104003
:100AD0000A2033F044BB4FF0FF3010BD542E0020ED
:100AE0000B4910B5A1F17C020A4CC2E9371237213B
:100AF00006E000EB104342F82130074B00FB0340B7
:100B00000B1EA1F10101F4DC10BD0120E8E700009B
:100B1000782F0020E119D666CD0D01000EB50546EF
:100B200014460E4613A001F0F5FC284601F0F2FC35
:100B300016A001F0EFFC304601F0ECFC15A001F02E
:100B4000E9FC00218DF80B100A210DF10A008DF847
:100B50000A1008E094FBF1F201FB124294FBF1F45D
:100B6000303200F8012D002CF4DC01F0D3FC01F050
:100B7000F5F800002A2A2A20617373657274696F80
:100B80006E206661696C65643A2000002C206669FD
:100B90006C6520002C206C696E65200030B5034622
:100BA0001D781DB10A4603E0AC4201D1181A30BDD0
:100BB00012F8014B002CF7D15B1CF1E730B503466E
:100BC0001D783DB10A4612F8014B1CB1AC42FAD176
:100BD0005B1CF5E7181A30BD40EA010310B59B070E
:100BE0000FD1042A0DD310C808C9121F9C42F8D097
:100BF00020BA19BA884201D9012010BD4FF0FF3048
:100C000010BD1AB1D30703D0521C07E0002010BD5D
:100C100010F8013B11F8014B1B1B07D110F8013BE9
:100C200011F8014B1B1B01D1921EF1D1184610BDCA
:100C300010B5431C02E010F8011B71B18107FAD115
:100C40004FF0013202C88C1A8C4314EAC211F9D059
:100C5000C01A0A0603D0C01E10BDC01A10BD0A0477
:100C600001D0801E10BD0902FCD0401E10BDCBB2C9
:100C70002AB101788B4203D0401C521EF9D10020CA
:100C8000704740EA010370B59B072ED14FF0013643
:100C9000042A2AD308C810C99D1B9D43121F15EAB8
:100CA000C61517D0D8B2E1B2401A50EA056110D18A
:100CB00098B2A1B2401A50EA05410AD123F07F4010
:100CC00024F07F41401A50EA052102D1180EA0EB12
:100CD000146070BDA342DBD018BA21BA884201D992
:100CE000012070BD4FF0FF3070BD0AB9002070BD0B
:100CF00010F8013B11F8014B63B1A3420AD1521E17
:100D000008D010F8013B11F8014B1BB1A34201D1EF
:100D1000521EEDD1181B70BD032A40F2308010F036
:100D2000030C00F0158011F8013BBCF1020F624486
:100D300098BF11F801CB00F8013B38BF11F8013B17
:100D4000A2F1040298BF00F801CB38BF00F8013BC4
:100D500011F0030300F02580083AC0F0088051F834
:100D6000043B083A51F804CBA0E80810F5E7121D3F
:100D70005CBF51F8043B40F8043BAFF30080D2075E
:100D800024BF11F8013B11F801CB48BF11F8012B2A
:100D900024BF00F8013B00F801CB48BF00F8012B4D
:100DA000704710B5203AC0F00B80B1E81850A0E8A9
:100DB0001850B1E81850A0E81850203ABFF4F5AF29
:100DC0005FEA027C24BFB1E81850A0E8185044BF85
:100DD00018C918C0BDE810405FEA827C24BF51F8F2
:100DE000043B40F8043B08BF7047D20728BF31F8E6
:100DF000023B48BF11F8012B28BF20F8023B48BF37
:100E000000F8012B704702F0FF0343EA032242EA95
:100E1000024200F002B84FF000020429C0F0128034
:100E200010F0030C00F01B80CCF1040CBCF1020F9D
:100E300018BF00F8012BA8BF20F8022BA1EB0C0172
:100E400000F00DB85FEAC17C24BF00F8012B00F868
:100E5000012B48BF00F8012B70474FF0000200B58E
:100E6000134694469646203922BFA0E80C50A0E8CD
:100E70000C50B1F12001BFF4F7AF090728BFA0E87B
:100E80000C5048BF0CC05DF804EB890028BF40F847
:100E9000042B08BF704748BF20F8022B11F0804F89
:100EA00018BF00F8012B704710B5044610F0030F6F
:100EB00008BF11F0030F40F015804FF0013E121FE4
:100EC000C0F20E8051F8043BA3EB0E0C2CEA030C8D
:100ED0001CEACE1C08BF40F8043BF0D0A1F104018D
:100EE00002F10402521E08DB11F8013B00F8013B3D
:100EF000002BF7D11146FFF78EFF204610BD0000F2
:100F000030B44FF0013C50F8042B51F8043BCCFABC
:100F100052F4D51A20D1FCB950F8042B51F8043BF7
:100F2000CCFA52F4D51A17D1B4B950F8042B51F8B1
:100F3000043BCCFA52F4D51A0ED16CB950F8042BFC
:100F400051F8043BCCFA52F4D51A05D1002CDAD072
:100F500030BC4FF00000704729BAB1FA81F111F0AE
:100F60001801D1F120008440F2D1CA40CB4012F0E8
:100F7000FF0213F0FF0330BCD01A704770B50C4667
:100F8000016800204A1C3ED03C22B1FBF2F302FB78
:100F90001313B1FBF2F12360B1FBF2F302FB131365
:100FA000B1FBF2F118226360B1FBF2F302FB131301
:100FB000B1FBF2F146F2E0320A440721A360B2FB32
:100FC000F1F301FB132140F2B553B2FBF3F5A1613C
:100FD000B2FBF3F103FB15228900B2F5B77F08D30A
:100FE0009B10521EB2FBF3F52944B2FBF3F503FB51
:100FF00015220F4BE261616189077B440CD03B2ACB
:101000000AD3521C08E02C212046FFF726FF0120BE
:10101000E0600AE0521A401C195C9142FAD9521C55
:10102000C4E903204FF0FF302062204670BD00006D
:101030002A4003007047704770470000004870471F
:10104000E82F00200048704700300020004870471B
:10105000E02F0020704770477047704738B504464E
:101060000A4600206946AFF30080002808BF38BD5B
:1010700002460099204600F087FE012038BD01207D
:1010800001F040BAF8B5AFF30080054600200C46E9
:10109000102000BF0646A819A0420DD93246694665
:1010A0000020AFF30080070008BF01F02BFA009882
:1010B000A04218BF0546C419FFF7C0FF05600746E8
:1010C000F01D20F007004619284600F00AF8B44247
:1010D00008BFF8BDA21B31463868BDE8F84000F0F3
:1010E00053BE00210160C0E9011070471020704715
:1010F00010B5FFF7ABFF006810BD10B50446FFF751
:10110000A5FF046010BD2DE9F0470D4699469246B3
:10111000044600F124080168880604D5E06921F03E
:101120001001216000E00120A84201DD471B00E022
:101130000027A1697A1902EB0900081AA06120783A
:10114000C00602D42046FFF7D1FA002608E0D4E911
:1011500001211AF806009047206A401C761C206284
:101160004E45F4DB2078C0060AD52046FFF7BEFACC
:1011700006E0D4E9012130209047206A401C20621B
:10118000381EA7F10107F4DC07E0D4E9012118F8C3
:1011900005009047206A401C2062281EA5F1010529
:1011A000F3DC2046FFF7B8FA2078000602D50220CB
:1011B000BDE8F0870120FBE711680268006A53056B
:1011C00001D508700AE0D30501D5088006E01306B2
:1011D00003D5C217C1E9000200E008600120704792
:1011E0002DE9FF4F0C461E464FF0FF378BB0D2E97A
:1011F0000001DDF860800A908A46C1F30A5505B9FE
:101200003D46002108464FF00000BAF1000F00F4FF
:10121000400005DA00EB80004FF4400101EA500085
:101220004FEA9059B9F1010F00DDB9460A9850EA2A
:101230004A000ED044F61050A5F2FF3545432F1456
:10124000B8F1000F1ED07542291E1EDDC9F1000243
:101250001CE0B8F1010F4FF0000001D0302103E095
:10126000F24305E02154401CB042FBDB3046002233
:10127000002121540B99C1F80880C1E900200FB06A
:10128000BDE8F08FBD1B6D1CDEE74A4600DA6942FF
:1012900006A800F0ADFF06AB93E8070003AB83E8B8
:1012A000070050460A9931F0F6FF8DE80700A0F5D7
:1012B00000501F3800900398002D0ADD42F21F01F4
:1012C0004A460844002303A90390684632F060FAB6
:1012D00009E0A0F500504A461F38002303A90390F7
:1012E000684632F06AFA8DE807000004000C03D06B
:1012F0004FF0FF30410800E01046B8F1000F03D076
:101300000022009215461EE0751E05D400F056FD21
:10131000303262556D1EF9D5B3460122084302D022
:1013200000227F1C04E02078302801D100227F1E9B
:10133000002A099784D01DE0112D07DA00F03EFD48
:10134000303262556D1C50EA0102F5D1084302D0DB
:101350000098C8B10EE00021681E05E0235C625CC5
:1013600063542254401E491C8142F7DBAB46A81B44
:10137000401E0990002004F80B000B98099AC0F851
:101380000880C0E9002B7AE711264FF0000857E7E4
:101390002DE9F04F88460446D21D22F0070191B096
:1013A000D1E90001CDE90A0132F03EFB02460B987B
:1013B000C00F01D02D2007E02068810701D52B2028
:1013C00002E0202101EAC000032A099001D0072A87
:1013D00005DB03464146204600F0B4FE0BE12078D1
:1013E000800601D5E06900E00620B8F1650F81466E
:1013F00006D0B8F1660F18D0B8F1670F70D131E0A0
:101400000020B9F1110F009001DB112301E009F177
:1014100001030AAA01A90CA8FFF7E2FEDDE90C709E
:10142000002609F10105834647E001204B46009064
:101430004FF000470AAA01A90CA8FFF7D1FEDDE989
:101440000DB00C995D46002610B909F101000D1888
:10145000B9EB050003D4C0F1FF3609F10105A5EB96
:1014600009002BE0B9F1010F01DA4FF0010900206A
:10147000B9F1110F0090484601DD112300E0034649
:101480000AAA01A90CA8FFF7ABFEDDE90C704D46D6
:1014900000268346207800070AD4AB4500DA5D4673
:1014A00001A8012D04DD411911F8011C302907D0D4
:1014B0004F4502DA17F1040F04DA012082460FE0EB
:1014C0006D1EEEE7002F02DCED1B3E4403E0781CAE
:1014D000A84200DD7D1CB81B00F1010A4FF0004757
:1014E0002078000703D4AA4501DB4FF0FF3A002122
:1014F000B7F1004F0DF143088DF8431024D00220BE
:101500002B23002F01DA7F422D230A21021EA0F196
:10151000010000DC5FB197FBF1FC97FBF1F201FBEE
:101520001C7C17460CF1300C08F801CDEEE7A8F151
:10153000010003702188090501D5452100E06521DE
:10154000A0F1010800F8011C09980FA9A1EB0807F8
:10155000FF1D00B10120411901EBEA70A169384477
:10156000081A401EA0612078C00602D42046FFF76A
:10157000BDF8099828B1D4E901219047206A401CA0
:1015800020622078C00622D52046FFF7AFF81EE083
:10159000002E04DBB34502DD01A8805D00E03020B1
:1015A000D4E901219047206A401C2062761CAAF1F0
:1015B00001005FEA000A0AD1FFF744FDC068016834
:1015C000405CD4E901219047206A401C2062281E1B
:1015D000A5F10105DCDC07E0D4E9012118F8010BD5
:1015E0009047206A401C2062381EA7F10107F3DCF7
:1015F0002046FFF791F8032011B041E601694A1C2B
:1016000002610878704700B58FB0CDE90131002143
:10161000059105497944CDE9031011466846FFF765
:101620004DF90FB000BD0000E5FFFFFF0A6802F8AA
:10163000010B0A607047D1E900239A4202D2531C81
:101640000B601070704710B5436913B1AFF30080A1
:1016500001E0FFF784F8012010BD127800F12401A9
:101660000A7000224A700122EDE711684FF0FF3244
:10167000E9E70000074B70B50D467B44FFF7C3FF59
:101680000446284600F026FE10B14FF0FF3070BD32
:10169000204670BDE12A03002DE9FF5F15468A460A
:1016A0000446DFF8AC80F8440027D8E900103E4635
:1016B000CDE9001010E03AF816106A4602A800F0D2
:1016C000EFFE411C07D02178890603D5E26939185D
:1016D00091420DD80744761C2078800602D5E06937
:1016E000B84205DDAE42E6DB3AF816000028E2D14A
:1016F000A069C01BA0612046FEF7F8FFD8E90010E2
:10170000CDE90010002017E03AF818106A4602A848
:1017100000F0C6FEB0F1FF3F81460BD000250DF171
:10172000080B05E0D4E901211BF8050090476D1C6A
:101730004D45F7D308F10100B0428046E4DB206A52
:10174000384420622046FEF7E7FFBDE8FF9F000017
:10175000763903002DE9F0418046D21D22F00702C0
:101760000025D2E90002F52915A614D0011E72F158
:10177000000106DA0023D0EB030063EB020211A69E
:1017800008E0D8F800108B0701D50FA602E0490742
:1017900001D50EA601251146002408F1240704E016
:1017A00000F00CFB30323A55641C50EA0102F7D1CC
:1017B0002B46324621464046BDE8F041FFF7A3BC28
:1017C000000000002D0000002B00000020000000A1
:1017D00030B4002100F1240408E002F00705D2082B
:1017E000303542EA4372DB086554491C52EA03056E
:1017F000F3D10468002310A2250708D504F02004C3
:101800000C4304D0C46901230CA2641EC46130BC23
:10181000FFF779BC10B5044621461068FEF796FF25
:1018200002462046BDE810400023D1E7D21D22F039
:101830000701D1E90023CBE70000000030000000E1
:101840002DE9F05F054617460C46C86820F42010C5
:1018500040F48000C860800602D5084600F0C1F957
:10186000E06841F282014FF0FF3A0140022903D0C3
:10187000204600F053F9B9E000F42041B1F5004FE3
:101880000FD1C00306D56168E06A884200D80846D7
:10189000606006E02069E0626060606910F0A4FDAD
:1018A000A061A0680022EEB200280DDAE1688B0585
:1018B0000AD4C043A06041F490302260E0606068C8
:1018C000411C61600670AAE0E0689146226040F425
:1018D0000050E060206978BB606910F087FD04F17A
:1018E00024054FF00108A8B1A08910F4407F08D06A
:1018F000E069FEF79BFD206118B1E06840F40060EC
:1019000017E0C4F81C802561E06820F4407040F4C2
:1019100080600EE0E069FEF789FD00282061F0D0CC
:10192000E06840F4006010F4407FE06002D140F4D1
:101930008070E06020696060E06825696FF0010BED
:10194000C1051ED56168E06A884200D80846411B7F
:1019500004D02246284600F0EBF8E8BB1FB1E56250
:10196000C4E9015959E0681CE0626060E069401E0A
:10197000A060E06840F48030E06030462E70BDE842
:10198000F09F17B100F480320AE06068411C61608A
:101990000670E0680A2E40F48030E06006D0002235
:1019A000E16A6068814203D90B4602E00122F7E751
:1019B0000346B4F80CC05B1B5FEA4C5C04D4D4F85B
:1019C0001CC09C4500DD02B3814200D80146002BBB
:1019D000A1EB0008E56200E008E0C4E9015907DD79
:1019E00022461946284600F0A3F808B15046C6E73B
:1019F000B8F1000F09D0A169E5626560A1EB0800AC
:101A0000A061E06840F01000E06047B16168A06943
:101A1000E562491B08446560A0615846AFE730465F
:101A2000ADE700002DE9F041044616460D46476932
:101A3000007B80072ED0384610F0D8FC50BB3EB358
:101A4000012E02D0022E25D104E0204600F046FCF3
:101A500005441DE0384610F0C7FCE168002841F05D
:101A60001001E16005DA204600F058F80120BDE8D9
:101A7000F081C9030BD56268E16A914200D8114632
:101A8000A26911442269891A814200DD0846054491
:101A9000002D01DA0220EAE7E16A6068E26881422B
:101AA00006D29103E06203D522F4003141F0100226
:101AB000A6690027AE4213DCE16A814201D90B46D8
:101AC00000E0034603EB060C2369ACEB030CAC45CA
:101AD00006DD814201D98C4600E084469C4505D153
:101AE000A760276042F02000A5620DE0AD1BE6690B
:101AF000AE1B8142A66000D90846C01A281A206091
:101B00005819606022F0200003490840E06000207E
:101B100084F84870ABE70000BFCFD7FFC16821F45D
:101B2000001141F08001C1600021816001607047B7
:101B30002DE9F74F15460C464FF0FF3B3848D76864
:101B4000D2F814A0074209D05046A96910F072FCDF
:101B5000002819DB3248C0430740EF604FF00049CE
:101B60006FF000484C4501D3464600E026460099F8
:101B70003B465046324610F05FFCA96920F0004217
:101B8000B21A1144A96128B12846FFF7C7FF584689
:101B9000BDE8FE8FA41BE5D10020F9E770B504462F
:101BA0000569C06A6168884200D80846E16821F486
:101BB0002011E160C90312D5A84208D02246411B7A
:101BC0002846FFF7B5FF10B14FF0FF3070BD002081
:101BD000E562C4E90150E06820F48030E060002054
:101BE00070BD10B50446C06820F02000E060A16A16
:101BF000A06988420DD02046FFF7D0FFE06820F4AE
:101C0000405040F01000E060A06AA0612069E062EE
:101C1000606044F24001E0688843E06010BD00006D
:101C20001000020010B542485421FFF716F9414850
:101C30005421FFF712F940485421FFF70EF93F49AC
:101C40003B483C4A3F4B08603D490A603A491960AD
:101C5000531C0365481C1065012008653B48344A45
:101C600039A1784400F07EFB20B9384878440A381E
:101C700000F041FC37482F4A35A1784400F072FB50
:101C800020B9344878440A3800F035FC32482A4AF2
:101C90002FA1784400F066FB20B92F4878440A3819
:101CA00000F029FC40232248DC000021224600F0FD
:101CB00036FB20B125487844543800F01CFC1D4800
:101CC00022464023002100F02AFB20B1214878441D
:101CD000543800F010FC184822461023002100F070
:101CE0001EFB002806D01C487844BDE8104056383A
:101CF00000F001BC10BD104870B5006D20F001046B
:101D00000B4800F0A7FB0B4800F0A4FB0A4800F0CA
:101D1000A1FB09E0206D20F00105204600F09AFBB0
:101D20002046FEF7B2FB2C46002CF3D170BD00001C
:101D3000002E0020542E0020A82E00209C080020F9
:101D4000A0080020A4080020720000004433030013
:101D500077000000303303001C33030010B500206F
:101D600000F0C2FBFEF7BEFABDE81040012000F013
:101D700001B8000001491820ABBEFEE726000200B2
:101D800000487047E02F0020034640688C4600283A
:101D900018BF88423CBF03464068F8D3186818440F
:101DA000884207D00CF1030020F00700001D411A03
:101DB000521A0146081D0A60FEF767BB30B5B0F144
:101DC0000A0271F100034FEA900E4EEA817EB0EBF9
:101DD0000E0061EB91014FEA101E4EEA017E10EBFE
:101DE0000E0041EB11114FEA102E4EEA016E10EB7E
:101DF0000E0041EB11214FEA104E4EEA014E10EB5E
:101E00000E0041EB1141401841F100014FEAD000B2
:101E100040EA41704FEAD1014FEA810444EA9074EC
:101E200010EB800544EB01046D1944EB0404521BD4
:101E3000A3414FF0000348BF0A3200D530BD401C1B
:101E400041F1000130BD00002DE9F04F04460D4680
:101E5000D21D22F0070089B0D0E9009748463946E4
:101E600031F0E2FD0246F80F01D02D2307E0206893
:101E7000810701D52B2302E0202101EAC0038DF860
:101E800020300BB1012000E00020032A824601D05F
:101E9000072A04DB2946204600F054F93FE1207868
:101EA000800601D40D2500E0E569C7F30A560D2D23
:101EB00049DA00214FEA175B08464FF00000002F77
:101EC00000F4400007DA00EB80004FF4400100EB23
:101ED000D07001EA60008115012901DD4FF0FF316A
:101EE00000224FEA850CBCF1180F06D31346ACF163
:101EF00018004FF08052C24003E04FF4801323FAE1
:101F00000CF30CF10C0CBCF1200F04D3ACF1200C41
:101F100009FA0CF001E007FA0CF000294FF0004834
:101F200001DD18B90FE00ED140450CD319EB0209C1
:101F30005F4121B9404502D19F4329EA0209BBEB29
:101F4000175F00D0761C2088000502D57B487844B6
:101F500002E07A487844193808AA302302F80A3097
:101F6000037C0AF10101002E0AF1020A53546A4669
:101F700002DC4FF0300101E04FF031014FF0010879
:101F80008DF8001002D0A6F2FF3603E059EA4701AF
:101F900000D06B4E002D02DC2178090704D54FF0EC
:101FA00002082E218DF80110C44600210BE0C7F372
:101FB00003433F01C35C491C6D1E02F8083005292C
:101FC00008F1010801DA002DF1DC00210CE000EB42
:101FD0001973491C1B786D1E082902F808304FEA56
:101FE000091908F1010801DA002DF0DC21688B06DF
:101FF00002D516E0A8F10108E04505DD02EB080373
:1020000013F8013C302BF5D0B8F1000F09DD02EBDD
:10201000080313F8013C2E2B03D1090701D4A8F1C2
:102020000108002D05DD3E2102F808106D1E08F1A3
:102030000108407C002E02F8080008F1010804DACB
:102040002D20764202F8080002E02B2002F808005A
:102050000A214FF47A70864208F101080BDB96FBE7
:10206000F0F3303302F8083096FBF0F308F1010882
:1020700000FB136601E0642E0CDB642096FBF0F39A
:10208000303302F8083096FBF0F308F1010800FB4A
:10209000136601E00A2E06DB96FBF1F0303002F801
:1020A000080008F1010896FBF1F001FB10603030E8
:1020B00002F80800A16908F1010808EB050202EB2B
:1020C0000A00081AA0612078C00602D42046FEF754
:1020D0000DFB216A08AE01EB0A00206204E0D4E99E
:1020E000012116F8010B9047BAF1010AF7D22078C6
:1020F000C00602D52046FEF7F9FA6E4609E016F84A
:10210000010B3E280FD0D4E901219047206A401CE2
:102110002062B8F10108F2D22046FEF7FDFA09B0BC
:102120000320BDE8F08F206A2844206203E0D4E950
:102130000121302090476D1EEBD3F8E715310300E5
:1021400002FCFFFF2DE9F0411F460446032601680B
:10215000072A01F4006004DB08B116A505E016A506
:1021600003E008B115A500E015A521F010002060DE
:10217000A069C01EA0610FB1401EA0612046FEF7FD
:10218000B5FA4FB1D4E9012138469047206A401C86
:102190002062C01C206206E0206AFAE7D4E901212F
:1021A00015F8010B9047761EF8D22046FEF7B4FAD8
:1021B000BDE8F0814E414E006E616E00494E460012
:1021C000696E660010B5436913B1AFF3008001E09A
:1021D000FFF762FA012010BD128800F12401828409
:1021E0000022C2840122EDE711684FF0FF32E9E7D7
:1021F0002DE9F047814616468AB0354878440DC827
:102200008DE80D0032487844801C03AC0DC884E88A
:102210000D0041F69B300844372190FBF1F290FB12
:10222000F1F5A5F1800501FB12041B3C02D56442C7
:10223000012000E00020DFF898A080460027FA4443
:10224000AAF1BE0A0EE0E0070AD03246684607EB64
:10225000470101230AEB810131F0AFFA8DE8070055
:1022600064107F1C002CEED1194F7F44AE3F19E063
:10227000E80715D007EB04100DF1180A90E80E00DE
:102280008AE80E00C068F04201D1981908903246E1
:10229000012306A903A831F090FA03AB83E80700F5
:1022A0006D10641C002DE3D14FF0010332466946E6
:1022B000B8F1000F03A802D031F06AFA01E031F062
:1022C0007CFAC9E90001C9F808200AB0BDE8F08726
:1022D000F82E0300007B00F08000704710B5014627
:1022E000C268900703D0900607D5886A0AE0FEF717
:1022F000ADFE01210160881E10BD8B69486818443D
:102300000B69C01A91F848301BB191F84910401A76
:1023100010BD1103FCD50028FADD401E10BD70B5BC
:10232000C468A50713D0650211D4B2F5807F09D027
:10233000B2F5007F06D0B2F5806F08D1012300F11D
:10234000240106E05D1E6FF07F46B54201D30120F7
:1023500070BD0161C361416024F470611143C160CB
:10236000002070BD2DE9F0410C461646070047D00D
:10237000104600F06FF82078611C61280AD072289E
:1023800002D077283CD102E00125002405E0022597
:10239000042402E0082448F2020511F8010B2B285E
:1023A00006D0622809D011F8010C74280AD00BE07D
:1023B00045F0030544F00204EFE745F0040544F05E
:1023C0000104EAE744F010043846214610F016F8FC
:1023D000411C15D00021316171604FF40071F5602E
:1023E000F1617061200704D5304602220021FFF719
:1023F00019FB306D40F0010030653046BDE8F081DA
:102400000020FBE72DE9F0410D460646104C206DFB
:10241000C10704D0410804D020F00104F7E72246A8
:102420000EE05420FEF702F807000ED0206D47F0B2
:1024300001010843542120653846FEF70EFD3A4657
:1024400029463046BDE8F0418CE70020D6E7000081
:10245000002E00202DE9F04704464FF0FF380026FB
:10246000C568D4E90497A80718D02046FFF796FB63
:1024700038460FF0B7FF002800DA4646280502D597
:102480004846FEF702F84C212046FEF7E6FC206D98
:1024900020F0010020653046BDE8F0874046FBE7AC
:1024A0002DE9F04116460C460546FDF7B7FF0368D7
:1024B00093F80101012807D0FF2C12D8185D80B1D4
:1024C00001202C70BDE8F081D3F807013246214687
:1024D00003F20713C7182846BC46BDE8F0410023A5
:1024E00060474FF0FF30EDE710B500F065F8BDE84C
:1024F000104000F05BB810B500F076F8BDE8104071
:1025000000F054B810B500F089F8BDE8104000F0B4
:102510004DB8000010B5044900F02EF8BDE8104099
:102520000148FEF7AABA0000A82E002070477546A1
:10253000FFF726FCAE4605006946534620F007002B
:10254000854618B020B5FDF755FFBDE820404FF097
:1025500000064FF000074FF000084FF0000BAC46AC
:10256000ACE8C009ACE8C009ACE8C009ACE8C009F7
:1025700021F007018D46704770B50D46044604E012
:10258000294631F0ECFD401C04D014F8010B002862
:10259000F6D170BD4FF0FF3070BD10B50446AFF3FB
:1025A00000802046BDE81040FDF7A9BE002801D0FC
:1025B000FFF7E0BB7047000010B5002102A000F05B
:1025C00055F8012010BD0000534947414252543A8A
:1025D0002041626E6F726D616C207465726D696E00
:1025E0006174696F6E00000010B5014602A000F032
:1025F0003DF8012010BD0000534947525452454454
:102600003A2052656469726563743A2063616E278B
:1026100074206F70656E3A200000000010B501282C
:1026200005D0002103A000F021F8012010BD09A170
:10263000F8E7000053494752544D454D3A204F7535
:1026400074206F662068656170206D656D6F7279AA
:10265000000000003A2048656170206D656D6F7262
:102660007920636F727275707465640070B5054689
:102670000C460A2000E06D1C0FF0EAFE35B1287808
:102680000028F8D102E0641C0FF0E2FE14B12078BB
:102690000028F8D1BDE870400A200FF0D9BE000034
:1026A00010B50C460846C021FEF7B5FB45F2527046
:1026B000C4F8D00000210520C4E93011C4F8C810C6
:1026C000C4F8CC1010BD000010B50C460846C0215F
:1026D000FEF7A1FB45F25270C4F8D000002105209E
:1026E000C4E93011C4F8C810C4F8CC1010BD000003
:1026F00010B50C460846C021FEF78DFB45F252701E
:10270000C4F8D00000210520C4E93011C4F8C81075
:10271000C4F8CC1010BD0000B0B5154601280C4619
:102720000CD028BB681E022826D294ED000A0DF0BA
:10273000A5FD012D22D1FF2040B2B0BD681E0228A8
:1027400024D202201AF046FD50B3206844F23071C2
:10275000C2F20201C1F8090394ED000A0DF0E6FC93
:1027600094ED000A0DF0AAFC012DE4D010E000BFAA
:10277000052040B2B0BD00BF002DDCD105F062FDE8
:1027800084ED000AFF2040B2B0BD00BF002DD2D1C1
:1027900005F082FB84ED000AFF2040B2B0BD00BF0F
:1027A0000B2040B2B0BD000070B582B0252800F209
:1027B000A980064615460C46DFE816F0A800B000D2
:1027C000B800C000C800D000D800E000E800F00069
:1027D000F80000011E01360140004A0154005E016C
:1027E00072018A019C01A401260026002600260011
:1027F00068007000B001B801C001C801D0017C00C0
:1028000084008C0094009C00681E02280CD20020DA
:102810001AF0E0FC28B1A6F116002178C0B203F04E
:10282000D9F8012D03D1A1E2002D40F09F82A6F13D
:102830001600C0B202F048FFA2E200BF681E0228E4
:1028400080F0948101201AF0C5FC38B1206843F271
:102850003041C2F2000108620DF0EAFB012D00F0E8
:10286000858286E1681E022880F08A8101201AF0A4
:10287000B1FC38B1206843F23041C2F20001C862B5
:102880000DF0D6FB012D00F071827CE1681E02285C
:1028900080F080810B2040B202B070BD681E02281B
:1028A00080F07E81216800200DF0DCFD012D00F01C
:1028B0005D8278E1681E022880F078810B2040B2AA
:1028C00002B070BD681E022880F076810B2040B2F5
:1028D00002B070BD681E022880F074810B2040B2E7
:1028E00002B070BD002D00F045820B2040B202B056
:1028F00070BD00BF002D00F041820B2040B202B03D
:1029000070BD00BF052040B202B070BD681E022835
:1029100080F07C810B2040B202B070BD681E02289E
:1029200080F07A810B2040B202B070BD681E022890
:1029300080F078810B2040B202B070BD681E022882
:1029400080F076810B2040B202B070BD681E022874
:1029500080F074810B2040B202B070BD681E022866
:1029600080F072810B2040B202B070BD681E022858
:1029700080F078810B2040B202B070BD681E022842
:1029800080F080810B2040B202B070BD681E02282A
:1029900080F07E810B2040B202B070BD681E02281C
:1029A00080F07C810B2040B202B070BD681E02280E
:1029B00080F07A810B2040B202B070BD681E022800
:1029C00080F0788101201AF005FC88B144F230765D
:1029D000C2F2020696F806032168814206D0481E1C
:1029E000B0FA80F0400927F075FB206886F80603EE
:1029F000012D00F0BB815FE1681E022880F0648138
:102A000001201AF0E7FB50B143F23041C2F200015D
:102A100020684A6B60F341024A630DF009FB012D07
:102A200000F0A48152E100BF681E022880F05681A8
:102A300001201AF0CFFB38B1206843F23041C2F2D6
:102A40000001C8610DF0F4FA012D00F08F8147E11B
:102A5000681E022880F04A8101201AF0BBFB38B1C1
:102A6000206843F23041C2F2000148620DF0E0FA02
:102A7000012D00F07B813BE1681E022880F03E8141
:102A800001201AF0A7FB38B1206843F23041C2F2AE
:102A9000000108630DF0CCFA012D00F067812EE1F2
:102AA000681E022880F0328101201AF093FB50B199
:102AB00043F23041C2F2000120684A6B60F3000229
:102AC0004A630DF0B5FA012D00F050811FE100BFFF
:102AD000681E022880F0248101201AF07BFB20B1BF
:102AE0002068002818BF0DF091FA012D00F03E81FA
:102AF00017E100BF681E022880F016810B2040B24B
:102B000002B070BD681E022880F014812168012087
:102B10000DF0A8FC012D00F029810CE1681E0228AF
:102B200080F00E810B2040B202B070BD681E0228FA
:102B300080F00A810B2040B202B070BD681E0228EE
:102B400080F006810B2040B202B070BD681E0228E2
:102B500080F002810B2040B202B070BD681E0228D6
:102B600080F000810B2040B202B070BD002D40F01B
:102B7000FD8043F23040C2F20000006A00E100BF75
:102B8000002D40F0F38043F23040C2F20000C06AF2
:102B9000F6E000BF002D40F0E9800020C6E000BF55
:102BA000002D40F0E3800020C6E000BF002D40F083
:102BB000DD8005F051FAE3E0002D40F0D78005F00C
:102BC00095FADDE0002D40F0D18000250DF10700E1
:102BD0000DF106010DF105028DF807508DF8065034
:102BE0008DF8055014F0B8FE9DF8070048B19DF827
:102BF00006109DF80500022202EA410160F38301FC
:102C00004D1C2560FF2040B202B070BD002D40F089
:102C1000AD8005F067FEB3E0002D40F0A78005F021
:102C200075FEADE0002D40F0A18005F087FEA7E025
:102C3000002D40F09B8005F077F9A1E0002D40F0D9
:102C4000958005F0B9F89BE0002D40F08F8017F0DB
:102C500035F844F24022C0F20F020023FDF73CFC9D
:102C60008EE000BF002D40F0818017F027F844F27D
:102C70004022C0F20F020023FDF72EFC4FF47A70C1
:102C800050437DE0002D71D105F094F978E000BF4C
:102C9000002D6BD105F074F972E000BF002D65D1F5
:102CA00005F016FC6CE000BF002D5FD105F01EFBA7
:102CB00066E000BF002D59D144F23070C2F202002C
:102CC00090F806035CE000BF002D4FD143F2304086
:102CD000C2F20000406BC0F3400051E0002D45D12E
:102CE00043F23040C2F20000C06949E0002D3DD1FE
:102CF00043F23040C2F20000406A41E0B5BB43F20B
:102D00003040C2F20000006B3AE000BF75BB43F2F6
:102D10003040C2F20000406B00F0010030E000BF24
:102D200025BB05F0D9FD2BE005BB01201AF052FAB6
:102D300026E000BFD5B9012005F0B0FA20E000BFC1
:102D4000A5B905F055FA1BE085B905F04DFA17E075
:102D500065B9002002E000BF45B9012005F0B6FAD0
:102D60000EE000BF15B905F005FC09E0FF2040B2F8
:102D700002B070BD05F024FA02E000BF05F012FABF
:102D80002060FF2040B202B070BD0000E32800F2D6
:102D9000ED8010B50C46DFE810F0E500ED00F10025
:102DA000F50003010501070109010B010D010F01E8
:102DB000110113011501170119011B011D011F014B
:102DC000210123012501270129012B012D012F01BB
:102DD000310133013501370139013B013D013F012B
:102DE000410143014501470149014B014D014F019B
:102DF000510153015501570159015B015D015F010B
:102E0000610163016501670169016B016D016F017A
:102E1000710173017501770179017B0181018701DE
:102E20008D01930199019F01A501AB01B101B7018A
:102E3000BD01C301C901CF01D101D301D501D70122
:102E4000D901DB01DD01DF01E101E301E501E7017A
:102E5000E901EB01ED01EF01F501FB0101020702C0
:102E60000D02130219021F0225022B023102370242
:102E70003D02430249024F0255025B025F026302B8
:102E800067026B026F02730277027B027F0283028A
:102E900085028B028F02930297029B029F02A3027C
:102EA000A702AB02AF02B302B702BB02BF02C3026A
:102EB000C702CB02CF02D302D702DB02DF02E3025A
:102EC000E702EB02EF02F102F302F502F702F90268
:102ED000FB02FD02FF0201030303050307030903CD
:102EE0000B030D030F03110313031503170319033A
:102EF0001B031D031F0325032B03310337033D036E
:102F0000430349034F0355035B03610367036D03E9
:102F1000730379037F0385038B03910397039D0359
:102F2000A303A903AF03B303B703BB03BF03C303E7
:102F3000C703CB03CF03D303D703DB03DF03E303D1
:102F4000E703EB03EF03F303F703FB03FF030304C0
:102F500007040B040F04130417041B041F042304A9
:102F6000270400BF05F0CCFC40E300BF052040B2C1
:102F7000704700BF05F0DCFC38E300BF05F0DEFC65
:102F800034E300BF16F09AFE44F24022C0F20F0272
:102F90000023FDF7A1FA31F07CFF00EE100A29E3CF
:102FA000002076E000207AE000207EE0002082E031
:102FB000002086E000208AE000208EE0002092E0E1
:102FC000002096E000209AE000209EE00020A2E091
:102FD00005205EE0052062E0052066E005206AE04D
:102FE00005206EE0052072E0052076E005207AE0FD
:102FF00005207EE0052082E0052086E005208AE0AD
:10300000032046E003204AE003204EE0032052E084
:10301000032056E003205AE003205EE0032062E034
:10302000032066E003206AE003206EE0032072E0E4
:1030300001202EE0012032E0012036E001203AE0BC
:1030400001203EE0012042E0012046E001204AE06C
:1030500001204EE0012052E0012056E001205AE01C
:10306000022016E002201AE002201EE0022022E0E8
:10307000022026E002202AE002202EE0022032E098
:10308000022036E002203AE002203EE0022042E048
:103090000420002104F096FEACE200BF04200121D0
:1030A00004F090FEA6E200BF0420022104F08AFE94
:1030B000A0E200BF0420032104F084FE9AE200BFD6
:1030C0000420042104F07EFE94E200BF04200521C8
:1030D00004F078FE8EE200BF0420062104F072FEA8
:1030E00088E200BF0420072104F06CFE82E200BFEA
:1030F0000420082104F066FE7CE200BF04200921C0
:1031000004F060FE76E200BF04200A2104F05AFEBB
:1031100070E200BF04200B2104F054FE6AE200BFFD
:103120000020002105F070F964E200BF00200121B9
:1031300005F06AF95EE200BF00202AE000202EE0E0
:10314000002032E0002036E000203AE000203EE09F
:10315000002042E0002046E000204AE000204EE04F
:10316000002052E0002056E000205AE000205EE0FF
:10317000002062E0002066E00120002105F044F913
:1031800038E200BF0120012105F03EF932E200BF24
:103190000120022105F038F92CE200BF01200321B3
:1031A00005F032F926E200BF0120042105F02CF9D8
:1031B00020E200BF0120052105F026F91AE200BF38
:1031C0000120062105F020F914E200BF01200721AB
:1031D00005F01AF90EE200BF0120082105F014F9EC
:1031E00008E200BF0120092105F00EF902E200BF4C
:1031F00001200A2105F008F9FCE100BF01200B21A4
:1032000005F002F9F6E100BF01200C2105F0FCF801
:10321000F0E100BF01200D2105F0F6F8EAE100BF62
:1032200001200E2105F0F0F8E4E100BF01200F219C
:1032300005F0EAF8DEE100BF0120102105F0E4F816
:10324000D8E100BF0120112105F0DEF8D2E100BF76
:1032500016F056FBCEE100BF04F02CF9CAE100BF26
:10326000002005F077F9C1E1012005F073F9BDE117
:1032700005F092F9BAE100BF012002F031FAB9E19C
:10328000022002F02DFAB5E1032002F029FAB1E1A3
:10329000002002F025FAADE1052009F059FAA9E174
:1032A000002000E001202D2105F0AEF8A2E100BFD2
:1032B000122005F067F99DE1002005F073F899E10F
:1032C000012005F06FF895E105F002F98EE100BFED
:1032D00004F082FE8AE100BF04F080FF86E100BFB7
:1032E00005F0CEFA82E100BF002006F073FD7DE11B
:1032F000012006F06FFD79E106F0EEFE76E100BFF9
:10330000002006F0BDFD71E1012006F0B9FD6DE180
:1033100006F00CFF6AE100BF002009F039FA69E10C
:10332000002009F015FA65E1002009F021FA61E1B9
:10333000012009F02DFA5DE1012009F009FA59E1B7
:10334000012009F015FA55E1022009F021FA51E1B6
:10335000022009F0FDF94DE1022009F009FA49E1E6
:10336000032009F015FA45E1032009F0F1F941E1E4
:10337000032009F0FDF93DE100202EE0002032E0BD
:10338000002036E000203AE000203EE0002042E04D
:10339000002046E000204AE000204EE0002052E0FD
:1033A000002056E000205AE000205EE0002062E0AD
:1033B000002066E000206AE000206EE0002072E05D
:1033C000002076E000207AE000207EE0002082E00D
:1033D000002086E000208AE00120122105F014F888
:1033E00008E100BF0120132105F00EF802E100BF43
:1033F0000120142105F008F8FCE000BF0120152190
:1034000005F002F8F6E000BF0120162104F0FCFFF1
:10341000F0E000BF0120172104F0F6FFEAE000BF52
:103420000120182104F0F0FFE4E000BF0120192181
:1034300004F0EAFFDEE000BF01201A2104F0E4FFFF
:10344000D8E000BF01201B2104F0DEFFD2E000BF66
:1034500001201C2104F0D8FFCCE000BF01201D2179
:1034600004F0D2FFC6E000BF01201E2104F0CCFF13
:10347000C0E000BF01201F2104F0C6FFBAE000BF7A
:103480000120202104F0C0FFB4E000BF0120212171
:1034900004F0BAFFAEE000BF0120222104F0B4FF27
:1034A000A8E000BF0120232104F0AEFFA2E000BF8E
:1034B0000120242104F0A8FF9CE000BF0120252169
:1034C00004F0A2FF96E000BF0120262104F09CFF3B
:1034D00090E000BF01202A2104F096FF8AE000BF9F
:1034E00001202B2104F090FF84E000BF01202C215B
:1034F00004F08AFF7EE000BF032005F043F879E086
:10350000042005F03FF875E0052005F03BF871E078
:10351000062005F037F86DE0072005F033F869E084
:10352000082005F02FF865E0092005F02BF861E090
:103530000A2005F027F85DE00B2005F023F859E09C
:103540000C2005F01FF855E00D2005F01BF851E0A8
:103550000E2005F017F84DE00F2005F013F849E0B4
:10356000102005F00FF845E0112005F00BF841E0C0
:10357000002002F0E1F83DE0012002F0DDF839E042
:10358000022002F0D9F835E0032002F0D5F831E04E
:1035900004F0B6FC2AE000BF04F0AAFC2AE000BF59
:1035A00004F06CFC26E000BF04F086FC22E000BFC3
:1035B00005F0E4F81AE000BF05F0D8F81AE000BF03
:1035C000002004F0DFFF15E0022004F0DBFF11E033
:1035D00004F0F0FC0AE000BF04F0E0FC06E000BFED
:1035E00004F0F6FD02E000BF04F0E4FD00EE100A76
:1035F000B8EE400A84ED000AFF20BDE8104040B25A
:10360000704700002DE9F04F81B00B2800F28A804E
:1036100088464FF4707101EA8014914604F1200A43
:1036200003F06CFE40F2FF7120EA010505EB0A0091
:1036300000F2064004F00AF86FF0004003F0D2FFF9
:10364000284604F003F804F1280B03F057FE064661
:103650006FF30A0606EB0B0000F2064003F0F6FFDC
:103660006FF0004003F0BEFF304603F0EFFF04F1BF
:103670001007384600F094F904F11806304600F0BF
:103680008FF9504600F08CF9584600F089F9B9F1ED
:10369000000F47D045F22440C0F6070008EB88052C
:1036A00000EBC504384621460CF0D4FC04F11401AB
:1036B00030460CF0CFFC45F2C440C0F6070000EBEA
:1036C0008504504621460CF0C5FC584621460CF0B6
:1036D000C1FC03F013FE40F2FF7120EA010404EB89
:1036E0000A0040F20645284303F0B0FF40F6FF70A1
:1036F00003F078FF204603F0A9FF03F0FFFD044626
:103700006FF30A0404EB0B00284303F09FFF40F61D
:10371000FF7003F067FF204601B0BDE8F04F03F0F3
:1037200095BF00BF01B0BDE8F08F0000F0B581B0DB
:103730000B2823D80C464FF4707101EA80152846F7
:10374000174600F02DF905F10806304600F028F97B
:10375000A7B145F2145104EB8400C0F6070101EB58
:10376000C004284621460CF075FC04F114013046D3
:1037700001B0BDE8F0400CF06DBC00BF01B0F0BD81
:103780000B2888BF7047B0B52DED028B044644F27C
:103790003070C2F20200342104FB010100EBC400CE
:1037A000C96EC06800EE101A01EE100A31EE008AF0
:1037B00003F0A4FD40F2FF7120EA0105284664F3FE
:1037C000891000F2074003F041FF9FED130AB7EEA6
:1037D000001A28EE000AB4EE410AF1EE10FAC8BF52
:1037E000B0EE410ABFEE001AB4EE410A9FED0B2A7B
:1037F000F1EE10FAB8BFB0EE410A20EE020ABDEEBB
:10380000C00A10EE100A03F0EDFE2846BDEC028B54
:10381000BDE8B04003F01ABF65BD293D0000004F70
:103820002DE9F0470B2842D890460C464FF000098E
:1038300006294FF0000105D845F2C821C0F607015E
:1038400051F8241040F6B833C0EBC002C2F20103B5
:1038500003EB8202916140F2181200EB8001C2F288
:10386000010240F2F82A02EBC106C2F2010A0AEB99
:103870000017050130462821FDF7EFFA062C4AF81B
:103880000590C7E90199C7F80C9010D8B8F1000F5E
:1038900008BFBDE8F08745F2306104EB8400C0F654
:1038A000070101EBC00090EC0A0B86EC0A0BBDE8A7
:1038B000F087000080B50020FFF762FF0120FFF7CE
:1038C0005FFF0220FFF75CFF0320FFF759FF042092
:1038D000FFF756FF0520FFF753FF0620FFF750FFC5
:1038E0000720FFF74DFF0820FFF74AFF0920FFF7E9
:1038F00047FF0A20FFF744FF0B20BDE88040FFF799
:103900003FBF0000F0B581B01278012A0ED0022A24
:103910000ED0032A14D10A78022A3BD0032A11D0F0
:1039200001224FF040460A700EE000BF012208E07D
:103930000A78022A06D001220A704FF0004603E0FE
:1039400000220A704FF080460B2884BF01B0F0BD02
:1039500000F00F0503F0D2FC40F2FF7120EA0104F1
:1039600044EA8517B81D03F071FE03F093FC054689
:1039700007F2064003F06AFE25F04040304303F0B2
:1039800031FE03F087FC204601B0BDE8F04003F0B3
:103990005DBE00BF4FF00046D6E70000FEE7000026
:1039A000B0B5044603F0AAFC40F2FF7204F47E7145
:1039B00020EA0204651805F5806003F047FE002048
:1039C00003F010FE05F2014003F040FE002003F07A
:1039D00009FE05F2024003F039FE002003F002FE6A
:1039E00005F2034003F032FE002003F0FBFD05F278
:1039F000044003F02BFE002003F0F4FD2046BDE858
:103A0000B04003F023BE0000B0B500294FF6FF73AD
:103A10004FD04A1E4EF23C5501F0030C032AC0F66B
:103A2000090527D321F0030110F8042B043982EA99
:103A30000302D2B235F8122010F8034C82EA1323A5
:103A400083EA0403DBB235F8133010F8024C83EA42
:103A5000122282EA0402D2B235F8122010F8014C88
:103A600082EA132383EA0403DBB235F8133083EAD6
:103A70001223D9D1BCF1000F1BD001789AB2594062
:103A8000C9B235F81110BCF1010F81EA122310D030
:103A90004278DBB25A4035F812E0BCF1020F8EEAF0
:103AA000112306D08078D9B2484035F8100080EA5A
:103AB0001E2398B2B0BD000070B500294FF6FF7309
:103AC00000F0B780012901F0010C05D10021BCF103
:103AD000000F00F0AE8077E021F00101C1F1000E8F
:103AE0006FF0010141F221024418A578E47883EADD
:103AF00005231DB25E00002D48BF82EA430633B2A3
:103B00007500002B48BF82EA46052BB26E00002BE1
:103B100048BF82EA450633B27500002B48BF82EAEF
:103B200046052BB26E00002B48BF82EA450633B231
:103B30007500002B48BF82EA46052BB26E00002BB1
:103B400048BF82EA450633B27500002B48BF82EABF
:103B5000460585EA04231CB25D00002C48BF82EABA
:103B600043052BB26C00002B48BF82EA450423B208
:103B70006500002B48BF82EA44052BB26C00002B85
:103B800048BF82EA450423B26500002B48BF82EAA1
:103B900044052BB26C00002B48BF82EA450423B2D7
:103BA0006500002B48BF82EA44052CB202316B004D
:103BB000002C0EEB010448BF82EA4503023493D186
:103BC0000231BCF1000F34D0405C83EA00210AB21C
:103BD0004B0041F22100002A48BF80EA410319B29C
:103BE0005A00002948BF80EA430211B2530000295D
:103BF00048BF80EA420319B25A00002948BF80EA50
:103C0000430211B25300002948BF80EA420319B2AF
:103C10005A00002948BF80EA430211B25600002929
:103C200048BF80EA420631B27300002948BF80EAEB
:103C3000460398B270BD0000002904BF0020704701
:103C400045F2243C024601440020C0F6070C0EE079
:103C500012F8013B58401CF800008A4228BF704708
:103C600012F8013B58401CF800008A420ED212F8AC
:103C7000013BC0B258401CF800008A4206D212F83C
:103C8000013B58401CF800008A42E1D37047000015
:103C9000B0B584B003281FD245F2C071C0F6070149
:103CA00051F82050684604F045FF43F280419DE8FA
:103CB0001D00C2F2000141F8030F4A604FF0FF30CF
:103CC0001022CC608B602FF06FF8294610222FF065
:103CD0006BF8C04304B0B0BD4DF6F6404DF6E2417E
:103CE000C0F60800C0F60801A622FCF717FF000086
:103CF0002DE9F04F81B02DED108B0229C0F2F68234
:103D00000646501E0B2800F2F18289469846B0EE16
:103D1000408ADFE810F00D0017003D008300BD0071
:103D2000FF005B01BF013902AD02F1026B0300BF6E
:103D3000A9F10100032809F0030080F0AD83002100
:103D4000BAE300BFA9F1010030F0C0FC9FEDCE0B3B
:103D500002460B4651EC100B30F022FB30F03AFAE1
:103D60009FEDCB8A09EE100A351F002400EE104AA1
:103D7000B8EEC00A20EE090A30F020F8013485EDD3
:103D8000010A043530EE088AA145EFD1A6E200BF52
:103D9000A9F1010030F09AFC9FEDED0B02460B46B5
:103DA00051EC100B30F0FCFA30F014FA9FEDB60B2A
:103DB0009FEDB78A09EE100A043E0027BFEE00AA65
:103DC0005BEC10AB00EE107AB8EEC00A20EE090AE8
:103DD00030EE0A0A10EE100A31F006F852465B4641
:103DE00030F04AFD04460D4630F0F4F900EE100ABA
:103DF0002FF0E4FF10EE100A30F0F6FF22462B46BB
:103E000030F0CEFA30F0E6F900EE100A013746F84D
:103E1000040FB94538EE008AD4D15FE2A9F1010060
:103E200030F054FC9FEDCC0B02460B4651EC100BCE
:103E300030F0B6FA30F0CEF99FEDC90B9FED948AC1
:103E400009EE100A043E002755EC104B00EE107AE4
:103E5000B8EEC00A20EE090A2FF012FE10EE100A8A
:103E600030F0C2FF22462B4630F006FD02460B46DC
:103E70002046294630F0CAFE30F0ACF900EE100AB8
:103E8000013746F8040FB94538EE008ADED125E245
:103E9000A9F1010030F01AFC9FEDAF0B02460B4672
:103EA00051EC100B30F07CFA30F094F99FEDAE0B32
:103EB0009FED779A5BEC10AB9FEDAD0B08EE100A0F
:103EC000341F002655EC107B00EE106AB8EEC00AD5
:103ED00020EE080A2FF0D4FD10EE100A30F084FF17
:103EE00052465B4630F0C8FC3A462B4630F0A4F907
:103EF00030F070F900EE100A013644F8040FB145B5
:103F000039EE009AE0D100EE109AB8EEC00A80EEC9
:103F1000090AE9E118EE100A30F066FF9FED900BF8
:103F200055EC104B22462B4630F0A6FC02460B46C1
:103F30002046294630F06AFE30F04CF909EE100AAE
:103F4000B6EE000AA9F1010028EE008A30F0BEFBAF
:103F50009FED810B04460D4651EC100B22462B467B
:103F600030F01EFA30F036F99FED830B0AEE100A9E
:103F700051EC100B22462B4630F012FA30F02AF9A1
:103F80009FED43BA0CEE100A351F0024BEEE00DA96
:103F900000EE104AB8EEC0EA2EEE0A0A2FF070FDCD
:103FA00020EE0D0A39EE00FA2EEE0C0A2FF068FD15
:103FB00028EE000A3FEE000A013485ED010A0435BF
:103FC00030EE0BBAA145E3D13AE100BFA9F10100FF
:103FD00030F07CFB9FED600B04460D4651EC100B5E
:103FE00022462B4630F0DCF930F0F4F89FED620BFE
:103FF00009EE100A51EC100B22462B4630F0D0F996
:1040000030F0E8F89FED5E0B0AEE100A51EC100B51
:1040100022462B4630F0C4F930F0DCF89FED1CBA94
:104020009FED8BDA9FED8BEA9FED8BFADFED8B8AAC
:104030000CEE100A341F002500EE105AF8EEC09A5C
:1040400029EE890A2FF01CFDB0EE408A29EE8A0A7B
:104050002FF016FD60EE0DAA29EE8C0A2FF010FD50
:1040600020EE0F0A3AEEA81A31EE000A28EE0E1AD8
:1040700030EE010A013584ED010A30EE0BBA04344A
:10408000A945D9D1DCE000BF182D4454FB210940DB
:1040900000000000A9F1010030F018FB9FED2E0B8D
:1040A00004460D4651EC100B22462B4630F078F9B1
:1040B00030F090F89FED300B09EE100A51EC100B28
:1040C00022462B4630F06CF930F084F89FED2C0B33
:1040D0000AEE100A51EC100B22462B4630F060F924
:1040E00030F078F81FED16BA9FED5DDA9FED5DEACE
:1040F0009FED5DFADFED5D8A0CEE100A341F00259E
:1041000000EE105AF8EEC09A29EE890A2FF0B8FC9A
:10411000B0EE408A29EE8A0A2FF0B2FC60EE0DAABA
:1041200029EE8C0A2FF0ACFC20EE0F0A3AEEA81A0A
:1041300031EE000A28EE0E1A30EE010A013584ED48
:10414000010A30EE0BBA0434A945D9D178E000BF9A
:104150000000000000000040182D4454FB211940CD
:10416000000000000000E03FCFA0A17F828BDDBFF8
:10417000982F2FC03E3AE13F182D4454FB2129408F
:10418000D221337F7CD93240A9F1010030F09EFA70
:104190009FEDD50B04460D4651EC100B22462B46E5
:1041A00030F0FEF830F016F89FEDD10B09EE100A52
:1041B00051EC100B22462B4630F0F2F830F00AF8A2
:1041C0009FEDCD0B0AEE100A51EC100B22462B4648
:1041D00030F0E6F82FF0FEFF9FEDD5BA9FEDD9DA6B
:1041E0009FEDD9EA9FEDD9FADFEDD98A0CEE100ADE
:1041F000341F002500EE105AF8EEC09A29EE890A05
:104200002FF03EFCB0EE408A29EE8A0A2FF038FCEF
:1042100060EE0DAA29EE8C0A2FF032FC20EE0F0A78
:104220003AEEA81A31EE000A28EE0E1A30EE010A14
:10423000013584ED010A30EE0BBA0434A945D9D119
:1042400000EE109AB8EEC00A80EE0B0A4CE000BFF8
:10425000B4AB103E2601FABE795D3FBC14AEB73E4A
:104260008EB1133EF88BF9BE02814EBC3927B63EA3
:10427000484630F02BFA9FEDA40B53EC102B30F096
:10428000FBFA9FEDA30B53EC102B2FF0D5FF2FF073
:10429000A1FF09EE100A29EE080AB7EE001A81EE16
:1042A00000AA9FEDA38A351F0024BEEE00BA00BF0E
:1042B00000EE104AB8EEC00A30EE490A20EE0A0AB3
:1042C00020EE000A20EE0B0A2FF082FC013485ED6F
:1042D000010A043530EE088AA145E9D100EE109AB2
:1042E000B8EEC00A80EE080A88ED000ABDEC108B1B
:1042F00001B0BDE8F08F00BFA9F1010030F0E6F990
:104300009FED790B07460C4651EC100B3A462346BD
:1043100030F046F82FF05EFF9FED750B09EE100AA6
:1043200051EC100B3A46234630F03AF82FF052FF8A
:104330009FED710B0AEE100A51EC100B3A46234622
:1043400030F02EF82FF046FF9FED6D0B0BEE100AAC
:1043500051EC100B3A46234630F022F82FF03AFF8A
:104360009FED73CA9FED73EA9FED73FADFED738AD9
:10437000DFED739A0DEE100A351F0024F7EE00AA48
:1043800000EE104AF8EEC0BA2BEE890A2FF078FB47
:10439000B0EE408A2BEE8A0A2FF072FB60EE0ECA56
:1043A0002BEE8B0A2FF06CFB60EE28DA2BEE8D0AD9
:1043B00028EE0F8A2FF064FB3CEEAA1A31EE2D1A7C
:1043C00020EE290A31EE081A31EE000A013485ED9B
:1043D000010A043530EE0CCAA145D1D100EE109A85
:1043E000B8EEC00A80EE0C0A7EE700BF484630F007
:1043F0006DF99FED4D0B53EC102B2FF01DFF9FED32
:10440000460B02460B4651EC100B2FF0C9FF2FF064
:10441000E1FE09EE100A18EE100A30F0E5FC9FEDFF
:10442000400B53EC102B30F027FA2FF0D3FE08EEA0
:10443000100AB0EE480A10F02BF8B7EE00BA8BEE77
:1044400000CA9FED3BAA351F0024BFEE00DA00BF73
:1044500000EE104AB8EEC00A20EE090A30EE0D0A4E
:1044600020EE000A3BEE400AB1EEC00A20EE080A38
:1044700010F00EF820EE0C0A013485ED010A043527
:1044800030EE0AAAA145E3D100EE109AB8EEC00AB8
:1044900080EE0A0A28E700BF29F00302A6F1100304
:1044A00000214FF07E5700BF043143F8107F8A424D
:1044B000C3E90177DF60F7D10028B7EE000A3FF4C7
:1044C00013AF4FF07E52012846F821203FF40CAF85
:1044D00006EB810102284A601CBF4FF07E508860C5
:1044E00002E700BF00BF00BF182D4454FB21194054
:1044F000182D4454FB212940D221337F7CD93240EE
:10450000182D4454FB213940000000000000E03F1A
:10451000000000000000E0BF0000000000000040BC
:10452000182D4454FB210940000000000000F0BF9A
:1045300000000000B81EA53F3D0AF7BFF0A7C6BEA9
:104540004260E53CBDE00B3E7975FABE02582EBCD8
:104550006827BA3E91B12DE9F0434A1E032A01F0C3
:10456000030C0FD2002100220024BCF1000F4DD11A
:1045700081F0FF00BDE8F043C0B27047FF20C0B239
:10458000704700BF21F00301C1F1000E00F10108E6
:1045900000246FF003034FF0010900BF08EB03058F
:1045A000EE782F793444E6B259FA84F16A79AD791C
:1045B000FF2E08BF0121FF2C98BF21463944CCB201
:1045C00059FA81F6FF2C08BF0126FF2998BF0E4635
:1045D000B118CAB259FA81F4FF2A08BF0124FF2991
:1045E00098BF0C466119CAB259FA81F4FF2A08BF74
:1045F00001240433FF2998BF0C460EEB030104315C
:10460000CCD1E1B21A1DBCF1000FB1D0815C6718AA
:10461000FEB2012151FA87F3FF2E08BF0123FF2FBD
:1046200098BF3B46BCF1010F06D1D9B281F0FF0023
:10463000BDE8F043C0B27047104442781A44D3B288
:1046400051FA82F1FF2B08BF0121FF2A98BF1146C2
:10465000BCF1020F06D1C9B281F0FF00BDE8F04302
:10466000C0B2704780780844B0F5807FC1B2FFF4D3
:104670007FAF0122FF2952FA80F108BF012181F0AA
:10468000FF00BDE8F043C0B270470000002944F2CB
:10469000307120EE800AC2F202010ED0342300FBFA
:1046A000031301EBC002D268DB6E01EE102A02EEAA
:1046B000103A31EE021A30EE410A342301EBC00207
:1046C00000FB03109268806E01EE102A21EE000AB2
:1046D00001EE100A20EE010A704700002DE9F04FAC
:1046E00081B02DED048B43F22819C2F2000999F82C
:1046F0000000002800F02083D9E9040101F096FEB3
:1047000044F230780028C2F2020800F03E8343F6FB
:10471000801643F620159FEDBB9A0027C2F20006D3
:10472000C2F200054FF47A7A002416E0DBF8850027
:1047300000EE100ABCEEC00A10EE100A00FB0AF0F0
:104740000BF002FFC5E90001343701340836B7F534
:104750001C7F05F1080500F0128308EB070B9BF89E
:104760007800B0EE498A052804D8214603F02AFBD8
:10477000B0EE408A0B2C57D8DFE804F0060E161E68
:10478000222A323A4048509E99F80A0000F001006F
:10479000002840F0978047E099F80A00C0F34000F5
:1047A000002840F08F803FE099F80A00C0F38000B5
:1047B000002840F0878037E099F80A007EE000BFCB
:1047C00099F80A00C0F30010002840F07B802BE02D
:1047D00099F80A00C0F34010002840F0738023E0ED
:1047E00099F80A00C0F3801000286BD11CE000BFCC
:1047F00099F80A00C009002864D115E099F80B0067
:1048000000F0010000285DD10EE000BF99F80B0018
:10481000C0F34000002855D106E000BF99F80B0016
:10482000C0F3800000284DD1DBF8700000EE100AC4
:10483000B4EE408AF1EE10FA38DDD6E9000101F05D
:10484000F5FD002800F08980DBF87D0000EE100AFD
:10485000BCEEC00A10EE100A00FB0AF00BF074FE6A
:10486000C6E9000199F8090099F80B1000F00F0053
:1048700001F00F020B2C89F8090089F80B2000F2D7
:104880008581DFE814F00D00CD00D900E500EF00D0
:10489000FB00070113011D0125012D01350100BF9A
:1048A00099F80A0040F0010044E000BF342004FB06
:1048B0000080793044E000BF99F80B00C0F3C000DD
:1048C0000028B1D0DBF8700000EE100AB4EE408A88
:1048D000F1EE10FA32DAD6E9000101F0A7FD002866
:1048E0003BD0DBF8790000EE100ABCEEC00A10EEF7
:1048F000100A00FB0AF00BF027FEC6E9000199F848
:10490000090099F80B1000F00F0001F00F020B2CBA
:1049100089F8090089F80B2000F23881DFE804F0FB
:1049200006444A50565C62686E74787C99F80A00B6
:1049300020F0010089F80A001AE000BF0BF17D00A9
:10494000006800EE100ABCEEC00A10EE100A00FB70
:104950000AF00BF0F9FDC6E900010B2C00F21681FC
:10496000DFE804F00664707C86929EAA0C12181E82
:1049700099F8080000F00100C2E000BF99F80900B2
:1049800000F00100BCE000BF99F80900C0F340004E
:10499000B6E000BF99F80900C0F38000B0E000BFA6
:1049A00099F80900A9E000BF99F80A0020F0020078
:1049B0003AE000BF99F80A0020F0040040E000BF90
:1049C00099F80A0020F0080046E000BF99F80A00B4
:1049D00020F010004AE000BF99F80A0020F0200003
:1049E00050E000BF99F80A0020F0400056E000BFF8
:1049F00099F80A0000F07F005CE000BF01F00E01B2
:104A000061E000BF0000000001F00D0163E000BFA5
:104A100001F00B0167E000BF01F007016BE000BF90
:104A200099F80A0040F0020089F80A0099F8080095
:104A3000C0F3400064E000BF99F80A0040F00400B1
:104A400089F80A0099F80800C0F3800058E000BF18
:104A500099F80A0040F0080089F80A0099F808005F
:104A60004BE000BF99F80A0040F0100089F80A00F6
:104A700099F80800C0F3001042E000BF99F80A005E
:104A800040F0200089F80A0099F80800C0F34010AF
:104A900036E000BF99F80A0040F0400089F80A00AB
:104AA00099F80800C0F380102AE000BF99F80A00C6
:104AB00060F07F0089F80A0099F80800C0091FE03B
:104AC00001F00E01013189F80B1000F0010017E030
:104AD00001F00D01023189F80B10C0F340000FE026
:104AE00001F00B01043189F80B10C0F3800007E0DE
:104AF000012262F3DF0189F80B10C0F3C00000BF90
:104B0000002843D0DBF8740000EE100AB4EE408AAF
:104B1000F1EE10FABFF60AAED5E9000101F086FC0D
:104B200000283FF411AEDBF8810000EE100ABCEE65
:104B3000C00A10EE100A00FB0AF00BF005FDC5E9F3
:104B4000000199F8090099F80B1000F00F0201F02C
:104B50000F010B2C89F8092089F80B1000F20F8146
:104B6000DFE814F00C0056005E0066006E00760070
:104B70007E0086008E0094009A00040199F80800D7
:104B800000F0FE0089F80800DEE500BFDBF87400E5
:104B900000EE100AB4EE408AF1EE10FA34DDD5E9E9
:104BA000000101F043FC00283FF4CEADDBF88500A6
:104BB00000EE100ABCEEC00A10EE100A00FB0AF06C
:104BC0000BF0C2FCC5E9000199F8090099F80B1037
:104BD00000F00F0201F00F010B2C89F8092089F871
:104BE0000B103FF6B1ADDFE804F0075D656D757D34
:104BF000858D959BA1C500BF99F8080040F0010084
:104C000089F80800A0E500BFDBF8810090E500BF4F
:104C100099F8080000F0FD0089F8080094E500BF4D
:104C200099F8080000F0FB0089F808008CE500BF47
:104C300099F8080000F0F70089F8080084E500BF43
:104C400099F8080000F0EF0089F808007CE500BF43
:104C500099F8080000F0DF0089F8080074E500BF4B
:104C600099F8080000F0BF0089F808006CE500BF63
:104C700099F8080000F07F0089F8080064E500BF9B
:104C800000F00E0089F809005EE500BF00F00D009D
:104C900089F8090058E500BF00F00B0089F8090009
:104CA00052E500BF99F8080040F0020089F80800BA
:104CB0004AE500BF99F8080040F0040089F80800B0
:104CC00042E500BF99F8080040F0080089F80800A4
:104CD0003AE500BF99F8080040F0100089F8080094
:104CE00032E500BF99F8080040F0200089F808007C
:104CF0002AE500BF99F8080040F0400089F8080054
:104D000022E500BF99F8080040F0800089F808000B
:104D10001AE500BF00F00E00013089F8090013E524
:104D200000F00D00023089F809000DE500F00B00DD
:104D3000043089F8090007E540F2DE300BF004FC8E
:104D4000C9E9040140F2B7300BF0FEFBC9E90601E6
:104D500042F210700BF0F8FBC9E90801012089F854
:104D60000000BDEC048B01B0BDE8F08F00F007003F
:104D700003E000BF012161F3DF0089F8090040F280
:104D8000DE300BF0E1FBC9E90401D9E9060101F0CD
:104D90004DFB002800F0C68098F8F802023803287E
:104DA00010D8DFE800F00315253300BF99F80C0098
:104DB000002100F0F90089F80C00002003F066FBE8
:104DC00088B949E099F80C0020F0070042E000BFE4
:104DD00099F80C00002100F0F90089F80C0000207F
:104DE00003F054FBC0BB99F80C0040F0010031E027
:104DF0000020002103F09CFA99F80C10002818BF3D
:104E000041F0020121F0050024E000BF99F80C00F8
:104E10002E2100F0FD0089F80C00002003F0F4FAC8
:104E2000D8F8F412D8F8F00299F80C2001EE101A14
:104E300002EE100AB4EE410A42F00401F1EE10FA5B
:104E4000C8BF0A46B4EE420AF1EE10FAB8BF0A46ED
:104E500022F0010089F80C0098F8010302380328B9
:104E600010D8DFE800F00315253300BF99F80D00D6
:104E7000012100F0F90089F80D00002003F006FB85
:104E800088B949E099F80D0020F0070042E000BF22
:104E900099F80D00012100F0F90089F80D000020BB
:104EA00003F0F4FAC0BB99F80D0040F0010031E0C6
:104EB0000020012103F03CFA99F80D10002818BFDA
:104EC00041F0020121F0050024E000BF99F80D0037
:104ED0002F2100F0FD0089F80D00002003F094FA66
:104EE000D8F8FD12D8F8F90299F80D2001EE101A41
:104EF00002EE100AB4EE410A42F00401F1EE10FA9B
:104F0000C8BF0A46B4EE420AF1EE10FAB8BF0A462C
:104F100022F0010089F80D0040F2B7300BF014FBCD
:104F2000C9E90601D9E9080101F080FA00283FF437
:104F300018AF03F003FD99F80410002818BF0120F2
:104F400001F0FD01084389F80400042003F01AFB76
:104F5000B3EE0A8AB4EE480AF1EE10FA20DCB3EEA2
:104F6000049AB4EE490AF1EE10FA19DB032003F0BB
:104F700009FBB4EE480AF1EE10FA11DCB4EE490A6E
:104F8000F1EE10FA0CDB052003F0FCFAB4EE480A4F
:104F9000F1EE10FA04DCB4EE490AF1EE10FA05DA8B
:104FA00099F8040040F0040089F8040043F230440A
:104FB000C2F2000494F83400800708D500F0F2FA39
:104FC00028B999F8040040F0080089F8040098F81E
:104FD0000603012808D10AF0FFFF28B999F8040058
:104FE00040F0100089F80400002000F0A5FB9FEDC0
:104FF0003B8AB4EE480AF1EE10FA2BDCB5EE400A1B
:10500000F1EE10FA26DB012000F096FBB4EE480A20
:10501000F1EE10FA1EDCB5EE400AF1EE10FA19DBE3
:10502000022000F089FBB4EE480AF1EE10FA11DC20
:10503000B5EE400AF1EE10FA0CDB032000F07CFB29
:10504000B4EE480AF1EE10FA04DCB5EE400AF1EED7
:1050500010FA05DA99F8040040F0200089F80400FD
:10506000D9F80C0000F0F80189F80C10F82101EAD9
:10507000102189F80D1028B199F8040040F0400083
:1050800089F80400D9F8080028B199F8040040F024
:10509000800089F8040094F83400C00708D001F0BB
:1050A00031FA28B9484630F8051F41F00201018065
:1050B00039F8050F002100F00700A9F800004FF4AF
:1050C000027089F802100BF03FFAC9F81B00C9F80A
:1050D0001F10BDEC048B01B0BDE8F08F0000B4429E
:1050E0002DE9F04784B00D46497814468A1F0646DC
:1050F000F92A4FF0040000F20781DFE812F03101D5
:10510000390105010501050105010501050105013B
:10511000050105010501050105010501050105015F
:10512000050105010501050105010501050105014F
:10513000050105010501050105010501050105013F
:10514000050105010501050105010501050105012F
:10515000050105010501050105010501050105011F
:10516000050105010501050105010501050105010F
:1051700005010501050105011901190119011901AF
:1051800005010501050105010501050105010501EF
:105190000501FB00FB00FB00FB00FB00FB00FB002C
:1051A00005010501050105010501050105010501CF
:1051B00005010501050105010501050105010501BF
:1051C00005010501050105010501050105010501AF
:1051D000050105010501050105010501050105019F
:1051E000050105010501050105010501050105018F
:1051F000050105010501050105010501050105017F
:10520000050105010501050105010501050105016E
:10521000050105010501050105010501050105015E
:10522000050105010501050105010501050105014E
:10523000050105010501050105010501050105013E
:10524000050105010501050105010501050105012E
:10525000050105010501050105010501050105011E
:10526000050105010501050105010501050105010E
:1052700005010501050105010501050105010501FE
:1052800005010501050105010501050105010501EE
:1052900005010501050105010501050105010501DE
:1052A00005010501050105010501050105010501CE
:1052B000050151010901110121010901110121011A
:1052C0000901110121010901110109011101FF0168
:1052D000050105010501050105010501050105019E
:1052E00005010501050169017F01A901050105010C
:1052F000D90100BF2068AA1C02382060304623462E
:105300000BF046FCFF2823D004B0BDE8F08700BFB7
:10531000AA1C3046234604B0BDE8F04702F0D2BADA
:10532000AA1C3046234604B0BDE8F04704F0D4BAC6
:10533000AA1C3046234604B0BDE8F04702F0F2B99B
:10534000AA1C3046234604B0BDE8F0470BF05ABD16
:10535000206802302060FF2004B0BDE8F08700BF65
:1053600021680220122908BF0B2004B0BDE8F08795
:105370002068022840F01281684603F0DBFB039AA4
:105380009DE80B00C5F80E20C5F80A30C5F80610D8
:10539000C5F8020012202060FF2004B0BDE8F087AD
:1053A0002068022840F0FA80A81C022105F060FD68
:1053B000A81D262105F05CFD05F10A00E42105F099
:1053C00057FD0E202060FF2004B0BDE8F08700BF2D
:1053D0002068062840F0E280A81C05F039FD41F263
:1053E0003421C5F2AA5188425ED1022020603046A5
:1053F00004F060FFFF2004B0BDE8F08720680A28B1
:1054000040F0CC80A81C05F023FD45F27861C1F284
:105410003421884248D1A81D05F01AFD014600201C
:10542000B0EB114F40D101F0FE0005284FF0050010
:105430003FF66AAFFF2282EA1122C9B28A427FF4A4
:1054400063AF30460BF066F9FF2004B0BDE8F0878B
:1054500020680A2840F0A280A81C05F0F9FC45F25B
:105460007861C1F2342101F1113188421CD1A81DAB
:1054700005F0EEFC0021B1EB104F15D1FF2181EAC0
:105480001022C1B28A420FD100294FF005003FF42B
:105490003BAFFF293FF438AF30460AF0A7FEFF20AC
:1054A00004B0BDE8F08700BF052004B0BDE8F08778
:1054B0002068022872D140F20A30C0F20010C5F80C
:1054C000020040F6EC00C2F20000066806353046E5
:1054D000FBF7AEFB0746421C28463146FBF71CFC97
:1054E000062010FA87F0206041F29C70C2F20100A1
:1054F00001210170FF2004B0BDE8F08720680A2870
:105500004CD105F1020942F6AE284846C0F2010826
:1055100005F096FC05F1060A0746504605F090FC9A
:105520000146A8F1010087424FF005003FF6ECAEBE
:105530000129FFF6E9AE41F28506B14238BF0E46B9
:10554000F01940454846394688BFA8EB070605F0E4
:1055500087FC5046314605F083FC05F10A004146C0
:1055600005F07EFC4BF203100E35C0F60700C119A2
:1055700028463246FBF7D0FB06F10C0081B24846C4
:10558000FEF79AFA0146A81905F06AFC06F1120026
:105590002060FF2004B0BDE8F08700BF022004B007
:1055A000BDE8F08780B544F64420C2F2020011F055
:1055B00093F9002818BF012080BD000000F002B858
:1055C00000F038B810B546F20044C4F202040AF004
:1055D00041FF20460121202211F034FA012818D180
:1055E00020460121202211F011FA2046012111F05C
:1055F0008FFB40F2B83140F2B872C2F20101C2F240
:105600000102002808BF114608464FF4807100F0DF
:1056100069FA20460121012211F014FA012804D16F
:1056200020460121012211F0F1F9BDE8104007F0F8
:1056300073B8000010B546F20044C4F202042046DC
:105640000421202211F0FEF9012816D12046042160
:10565000202211F0DBF92046042111F059FB43F21E
:105660005C7143F63C02C2F20001C2F20002002863
:1056700008BF1146084600F0D3FB20460421012252
:1056800011F0E0F9012818BF10BD204604210122C5
:10569000BDE8104011F0BAB910B501F07DFD044627
:1056A00040F0400000F0DF0001F01CFF04F09F001C
:1056B00001F018FF01F070FD40F0200000F0BF0085
:1056C000BDE8104001F00EBF032884BF00207047E2
:1056D00044F23071C2F20201084490F802037047AC
:1056E00044F23071C2F2020191F80223824201D1E8
:1056F000002013E091F80323824201D101200DE044
:1057000091F80423824201D1022007E091F80513A9
:1057100081421CBF9FED070A7047032040F64051AD
:1057200000EB8000C2F2010101EBC00090ED020A23
:10573000704700BFEC9188C340F6405100EB8000F9
:10574000C2F2010101EBC000017C012906D014293D
:105750000CBF9FED050A90ED020A70479FED010A0C
:10576000704700BF000080FF0000807FF0B581B06F
:1057700040F6E056C2F20106307840F6405100EBA8
:105780008000C2F2010101EBC004274617F8100F98
:105790000238122800F20F81DFE810F0F800220032
:1057A00014001400340038004C00580064007000ED
:1057B0007E0092009600A000AE00C200CC00D60091
:1057C000F20000BF0DF1030004F096FE002800F087
:1057D000F7809DF803001021002808BF1421E0E0A5
:1057E0000DF1030004F088FE002800F0E9809DF828
:1057F00003000721002808BF0221397040F0E08033
:10580000D9E000BF05F0E8F80421CAE0552004F80B
:10581000190F54F8080C54F8041CC4F80100C4F81B
:1058200005102046092105F017F80221002818BFAD
:105830001221B6E0442004F8190F2046012105F09A
:105840000BF80221002818BF0921AAE004F1190071
:10585000002104F03FFD002800F0B28040F28A20D1
:105860009AE000BFD4E9000100F0E0FD002800F05C
:10587000A78005F0A5F80B2193E000BF0DF1020011
:1058800004F016FE002800F09B809DF8020000281E
:1058900000F08080062184E0BE21204600F8191F18
:1058A0004FF0FF31C4F81A10C4F81E1084F822100B
:1058B0000A2104F0D1FF0221002818BF0E2170E058
:1058C00005F07EF80F216CE004F119000A2104F0C4
:1058D00001FD002874D0132163E000BF0DF1020028
:1058E00004F0E6FD00286BD09DF8020000285BD094
:1058F00005F072F8052154E0552004F8190F54F80A
:10590000080C54F8041CC4F80100C4F80510204623
:10591000092104F0A1FF0221002818BF112140E055
:1059200004F11900002104F0D5FC002848D00C2116
:1059300037E000BF04F11900002104F0CBFC00287F
:105940003ED008212DE000BF04F11A0528460821A9
:1059500005F07AF994F8221088422AD1E07E29785D
:105960009FED1B1A41EA002000B200EE100AB8EECB
:10597000C00A20EE010A022084ED020A1AE000BFEC
:10598000E0684FF0FF410130C4E9021005F024F84F
:10599000032106E04FF4AF700AF0D6FDC4E9000120
:1059A0000A21307839700CE0D4E9000100F03EFDA6
:1059B00030B11420387030780130307001E000BF11
:1059C0003078C0B2042824BF0020307001B0F0BD90
:1059D0000000803D032888BF704744F23072C2F255
:1059E0000202104480F8021370470000B0B505F0C1
:1059F0009BF940F64055C2F2010500202C460022DA
:105A000044F8110F0121CFF6807204F8011C606088
:105A100044F8092C84F82710E062A062C4F81F2023
:105A200084F84F1060652065C4F8472084F877102B
:105A3000E067A067C4F86F2004F082FD204604F000
:105A400089FD00284DD005F11100072105F0FCF873
:105A5000297E884204D1687C282804BF022028744B
:105A600005F13904204604F075FDD0B32046072126
:105A700005F0EAF895F84010884206D195F839000B
:105A8000282804BF022085F8380005F1610420466B
:105A900004F060FD28B32046072105F0D5F895F8FD
:105AA0006810884206D195F86100282804BF0220BA
:105AB00085F8600005F18904204604F04BFD0028BC
:105AC00008BFB0BD2046072105F0BEF895F890103C
:105AD000884206D195F88900282804BF022085F85D
